{
  "contractName": "AccountStorage",
  "abi": [
    {
      "constant": true,
      "inputs": [],
      "name": "count",
      "outputs": [
        {
          "name": "counter",
          "type": "uint256"
        }
      ],
      "payable": false,
      "stateMutability": "view",
      "type": "function"
    },
    {
      "constant": true,
      "inputs": [
        {
          "name": "",
          "type": "bytes32"
        }
      ],
      "name": "typeStruct",
      "outputs": [
        {
          "components": [
            {
              "name": "addr",
              "type": "address"
            }
          ],
          "name": "data",
          "type": "tuple"
        },
        {
          "name": "index",
          "type": "uint256"
        }
      ],
      "payable": false,
      "stateMutability": "view",
      "type": "function"
    },
    {
      "constant": true,
      "inputs": [
        {
          "name": "",
          "type": "uint256"
        }
      ],
      "name": "typeIndex",
      "outputs": [
        {
          "name": "",
          "type": "bytes32"
        }
      ],
      "payable": false,
      "stateMutability": "view",
      "type": "function"
    },
    {
      "anonymous": false,
      "inputs": [
        {
          "indexed": true,
          "name": "hash",
          "type": "bytes32"
        },
        {
          "indexed": true,
          "name": "index",
          "type": "uint256"
        }
      ],
      "name": "LogNew",
      "type": "event"
    },
    {
      "anonymous": false,
      "inputs": [
        {
          "indexed": true,
          "name": "hash",
          "type": "bytes32"
        },
        {
          "indexed": true,
          "name": "index",
          "type": "uint256"
        }
      ],
      "name": "LogUpdate",
      "type": "event"
    },
    {
      "anonymous": false,
      "inputs": [
        {
          "indexed": true,
          "name": "hash",
          "type": "bytes32"
        },
        {
          "indexed": true,
          "name": "index",
          "type": "uint256"
        }
      ],
      "name": "LogRemove",
      "type": "event"
    },
    {
      "anonymous": false,
      "inputs": [
        {
          "indexed": true,
          "name": "hash",
          "type": "bytes32"
        },
        {
          "indexed": true,
          "name": "proponent",
          "type": "address"
        }
      ],
      "name": "LogNewReview",
      "type": "event"
    },
    {
      "anonymous": false,
      "inputs": [
        {
          "indexed": true,
          "name": "hash",
          "type": "bytes32"
        },
        {
          "indexed": true,
          "name": "proponent",
          "type": "address"
        }
      ],
      "name": "LogUpdateReview",
      "type": "event"
    },
    {
      "anonymous": false,
      "inputs": [
        {
          "indexed": true,
          "name": "hash",
          "type": "bytes32"
        },
        {
          "indexed": true,
          "name": "proponent",
          "type": "address"
        }
      ],
      "name": "LogRemoveReview",
      "type": "event"
    },
    {
      "anonymous": false,
      "inputs": [
        {
          "indexed": true,
          "name": "hash",
          "type": "bytes32"
        },
        {
          "indexed": true,
          "name": "proponent",
          "type": "address"
        }
      ],
      "name": "LogAccepted",
      "type": "event"
    },
    {
      "anonymous": false,
      "inputs": [
        {
          "indexed": true,
          "name": "hash",
          "type": "bytes32"
        },
        {
          "indexed": true,
          "name": "proponent",
          "type": "address"
        }
      ],
      "name": "LogDismissed",
      "type": "event"
    },
    {
      "constant": false,
      "inputs": [
        {
          "components": [
            {
              "name": "addr",
              "type": "address"
            }
          ],
          "name": "data",
          "type": "tuple"
        }
      ],
      "name": "insert",
      "outputs": [
        {
          "name": "hash",
          "type": "bytes32"
        }
      ],
      "payable": false,
      "stateMutability": "nonpayable",
      "type": "function"
    },
    {
      "constant": false,
      "inputs": [
        {
          "name": "hashi",
          "type": "bytes32"
        },
        {
          "components": [
            {
              "name": "addr",
              "type": "address"
            }
          ],
          "name": "data",
          "type": "tuple"
        }
      ],
      "name": "update",
      "outputs": [
        {
          "name": "hash",
          "type": "bytes32"
        }
      ],
      "payable": false,
      "stateMutability": "nonpayable",
      "type": "function"
    },
    {
      "constant": false,
      "inputs": [
        {
          "name": "hash",
          "type": "bytes32"
        }
      ],
      "name": "remove",
      "outputs": [
        {
          "name": "index",
          "type": "uint256"
        }
      ],
      "payable": false,
      "stateMutability": "nonpayable",
      "type": "function"
    },
    {
      "constant": true,
      "inputs": [
        {
          "name": "hash",
          "type": "bytes32"
        }
      ],
      "name": "isStored",
      "outputs": [
        {
          "name": "isIndeed",
          "type": "bool"
        }
      ],
      "payable": false,
      "stateMutability": "view",
      "type": "function"
    },
    {
      "constant": true,
      "inputs": [
        {
          "name": "hash",
          "type": "bytes32"
        }
      ],
      "name": "getByHash",
      "outputs": [
        {
          "components": [
            {
              "name": "addr",
              "type": "address"
            }
          ],
          "name": "data",
          "type": "tuple"
        }
      ],
      "payable": false,
      "stateMutability": "view",
      "type": "function"
    }
  ],
  "bytecode": "0x608060405234801561001057600080fd5b50610be1806100206000396000f3fe608060405234801561001057600080fd5b50600436106100885760003560e01c80637460e3111161005b5780637460e3111461013c57806395bc26731461016c578063a2dd3d471461019c578063ae2b1bbb146101cc57610088565b806306661abd1461008d5780633f42aeab146100ab578063668414a4146100db5780636fe13eb81461010c575b600080fd5b6100956101fc565b6040516100a29190610ab6565b60405180910390f35b6100c560048036036100c091908101906107bc565b610208565b6040516100d291906109e1565b60405180910390f35b6100f560048036036100f091908101906107bc565b610258565b604051610103929190610a8d565b60405180910390f35b6101266004803603610121919081019061080e565b6102dc565b60405161013391906109fc565b60405180910390f35b61015660048036036101519190810190610873565b6102f9565b60405161016391906109fc565b60405180910390f35b610186600480360361018191908101906107bc565b61031a565b6040516101939190610ab6565b60405180910390f35b6101b660048036036101b191908101906107bc565b610455565b6040516101c39190610a57565b60405180910390f35b6101e660048036036101e1919081019061084a565b6104db565b6040516101f391906109fc565b60405180910390f35b60008080549050905090565b60008060008054905014156102205760009050610253565b81600060016000858152602001908152602001600020600101548154811061024457fe5b90600052602060002001541490505b919050565b6001602052806000526040600020600091509050806000016040518060200160405290816000820160009054906101000a900473ffffffffffffffffffffffffffffffffffffffff1673ffffffffffffffffffffffffffffffffffffffff1673ffffffffffffffffffffffffffffffffffffffff1681525050908060010154905082565b60006102e78361031a565b506102f1826104db565b905092915050565b6000818154811061030657fe5b906000526020600020016000915090505481565b600061032582610208565b610364576040517f08c379a000000000000000000000000000000000000000000000000000000000815260040161035b90610a37565b60405180910390fd5b6000600160008481526020019081526020016000206001015490506000806001600080549050038154811061039557fe5b9060005260206000200154905080600083815481106103b057fe5b906000526020600020018190555081600160008381526020019081526020016000206001018190555060008054809190600190036103ee91906106ba565b5081847f7aba1b7c67426c7ad78ea21a678946741a0c8795e99fa106728122a461e33cbc60405160405180910390a381817f486e2c79f26b56bb920c18e856915eb5e2922e2814cce03da8892d08cce6419760405160405180910390a38192505050919050565b61045d6106e6565b600160008381526020019081526020016000206000016040518060200160405290816000820160009054906101000a900473ffffffffffffffffffffffffffffffffffffffff1673ffffffffffffffffffffffffffffffffffffffff1673ffffffffffffffffffffffffffffffffffffffff16815250509050919050565b6000808273__AccountLib____________________________63d122e95a90916040518263ffffffff1660e01b81526004016105179190610a72565b60206040518083038186803b15801561052f57600080fd5b505af4158015610543573d6000803e3d6000fd5b505050506040513d601f19601f8201168201806040525061056791908101906107e5565b905061057281610208565b156105b2576040517f08c379a00000000000000000000000000000000000000000000000000000000081526004016105a990610a17565b60405180910390fd5b6105da836001600084815260200190815260200160002060000161066f90919063ffffffff16565b6001600082908060018154018082558091505090600182039060005260206000200160009091929091909150550360016000838152602001908152602001600020600101819055506001600082815260200190815260200160002060010154817fb73e84a46ecb312937f7ba29efd91f4d9e74056ac7ef77f3f38e477646dd84d260405160405180910390a380915050919050565b80600001518260000160006101000a81548173ffffffffffffffffffffffffffffffffffffffff021916908373ffffffffffffffffffffffffffffffffffffffff1602179055505050565b8154818355818111156106e1578183600052602060002091820191016106e0919061070f565b5b505050565b6040518060200160405280600073ffffffffffffffffffffffffffffffffffffffff1681525090565b61073191905b8082111561072d576000816000905550600101610715565b5090565b90565b60006107408235610b61565b905092915050565b60006107548235610b73565b905092915050565b60006107688251610b73565b905092915050565b60006020828403121561078257600080fd5b61078c6020610ad1565b9050600061079c84828501610734565b60008301525092915050565b60006107b48235610b9d565b905092915050565b6000602082840312156107ce57600080fd5b60006107dc84828501610748565b91505092915050565b6000602082840312156107f757600080fd5b60006108058482850161075c565b91505092915050565b6000806040838503121561082157600080fd5b600061082f85828601610748565b925050602061084085828601610770565b9150509250929050565b60006020828403121561085c57600080fd5b600061086a84828501610770565b91505092915050565b60006020828403121561088557600080fd5b6000610893848285016107a8565b91505092915050565b6108a581610b0f565b82525050565b6108b481610b0f565b82525050565b6108c381610b21565b82525050565b6108d281610b2d565b82525050565b60006108e5602683610afe565b91507f546869732064617461206578697374732e205573652074686520657874616e7460008301527f20646174612e00000000000000000000000000000000000000000000000000006020830152604082019050919050565b600061094b601883610afe565b91507f4e6f742064656c657465643a206e6f7420657874616e742e00000000000000006000830152602082019050919050565b602082016000820151610994600085018261089c565b50505050565b6020820160008201516109b060008501826108ab565b50505050565b6020820160008201516109cc600085018261089c565b50505050565b6109db81610b57565b82525050565b60006020820190506109f660008301846108ba565b92915050565b6000602082019050610a1160008301846108c9565b92915050565b60006020820190508181036000830152610a30816108d8565b9050919050565b60006020820190508181036000830152610a508161093e565b9050919050565b6000602082019050610a6c600083018461097e565b92915050565b6000602082019050610a87600083018461099a565b92915050565b6000604082019050610aa260008301856109b6565b610aaf60208301846109d2565b9392505050565b6000602082019050610acb60008301846109d2565b92915050565b6000604051905081810181811067ffffffffffffffff82111715610af457600080fd5b8060405250919050565b600082825260208201905092915050565b6000610b1a82610b37565b9050919050565b60008115159050919050565b6000819050919050565b600073ffffffffffffffffffffffffffffffffffffffff82169050919050565b6000819050919050565b6000610b6c82610b7d565b9050919050565b6000819050919050565b600073ffffffffffffffffffffffffffffffffffffffff82169050919050565b600081905091905056fea265627a7a723058201579e2da25d760ab444614deef5f347dff318c304d656b410ced8dee2edfaad76c6578706572696d656e74616cf50037",
  "source": "pragma solidity ^0.5.0;\npragma experimental ABIEncoderV2;\n\nimport '../../StorageBase.sol';\nimport './AccountLib.sol';\n\ncontract AccountStorage is StorageBase {\n    using AccountLib for AccountLib.Account;\n\n    mapping(bytes32 => Type) public typeStruct;\n\n    struct Type {\n        AccountLib.Account data;\n        uint256 index;\n    }\n\n    modifier dataIsStored (bytes32 hash) {\n        require(isStored(hash), \"No such data inserted.\");\n        _;\n    }\n\n    function insert(AccountLib.Account memory data) public returns (bytes32 hash) {\n        // for data integrity\n        bytes32 hash = data.getDataHash();\n\n        if(isStored(hash)) revert(\"This data exists. Use the extant data.\");\n\n        typeStruct[hash].data.insert(data);\n        typeStruct[hash].index = typeIndex.push(hash) - 1;\n        emit LogNew(hash, typeStruct[hash].index);\n        return hash;\n    }\n\n    function update(bytes32 hashi, AccountLib.Account memory data)\n        public\n        returns(bytes32 hash)\n    {\n        remove(hashi);\n        return insert(data);\n    }\n\n    function remove(bytes32 hash) public returns(uint256 index) {\n        if(!isStored(hash)) revert(\"Not deleted: not extant.\");\n        uint rowToDelete = typeStruct[hash].index;\n        bytes32 keyToMove = typeIndex[typeIndex.length-1];\n        typeIndex[rowToDelete] = keyToMove;\n        typeStruct[keyToMove].index = rowToDelete;\n        typeIndex.length--;\n\n        emit LogRemove(hash, rowToDelete);\n\n        emit LogUpdate(keyToMove, rowToDelete);\n        return rowToDelete;\n    }\n\n    function isStored(bytes32 hash) public view returns(bool isIndeed) {\n        if(typeIndex.length == 0) return false;\n        return (typeIndex[typeStruct[hash].index] == hash);\n    }\n\n    function getByHash(bytes32 hash) public view returns(AccountLib.Account memory data) {\n        return typeStruct[hash].data;\n    }\n}\n",
  "sourcePath": "/Users/loredana/ETH/dType/contracts/contracts/examples/account/AccountStorage.sol",
  "compiler": {
    "name": "solc",
    "version": "0.5.7+commit.6da8b019.Emscripten.clang"
  },
  "schemaVersion": "3.0.11",
  "updatedAt": "2019-07-28T11:10:53.986Z",
  "devdoc": {
    "methods": {}
  },
  "userdoc": {
    "methods": {}
  }
}