{
  "contractName": "ActionContract",
  "abi": [
    {
      "constant": true,
      "inputs": [],
      "name": "dtype",
      "outputs": [
        {
          "name": "",
          "type": "address"
        }
      ],
      "payable": false,
      "stateMutability": "view",
      "type": "function"
    },
    {
      "constant": true,
      "inputs": [],
      "name": "votingMechanism",
      "outputs": [
        {
          "name": "",
          "type": "address"
        }
      ],
      "payable": false,
      "stateMutability": "view",
      "type": "function"
    },
    {
      "constant": true,
      "inputs": [],
      "name": "votingProcess",
      "outputs": [
        {
          "name": "",
          "type": "address"
        }
      ],
      "payable": false,
      "stateMutability": "view",
      "type": "function"
    },
    {
      "constant": true,
      "inputs": [],
      "name": "permission",
      "outputs": [
        {
          "name": "",
          "type": "address"
        }
      ],
      "payable": false,
      "stateMutability": "view",
      "type": "function"
    },
    {
      "constant": true,
      "inputs": [],
      "name": "voting",
      "outputs": [
        {
          "name": "",
          "type": "address"
        }
      ],
      "payable": false,
      "stateMutability": "view",
      "type": "function"
    },
    {
      "inputs": [
        {
          "name": "_dtypeAddress",
          "type": "address"
        },
        {
          "name": "_permissionAddress",
          "type": "address"
        },
        {
          "name": "_votingAddress",
          "type": "address"
        },
        {
          "name": "_votingProcess",
          "type": "address"
        },
        {
          "name": "_votingMechanism",
          "type": "address"
        }
      ],
      "payable": false,
      "stateMutability": "nonpayable",
      "type": "constructor"
    },
    {
      "anonymous": false,
      "inputs": [
        {
          "indexed": false,
          "name": "data",
          "type": "bytes"
        },
        {
          "indexed": false,
          "name": "msg",
          "type": "string"
        }
      ],
      "name": "LogDebug",
      "type": "event"
    },
    {
      "constant": false,
      "inputs": [
        {
          "name": "contractAddress",
          "type": "address"
        },
        {
          "name": "funcSig",
          "type": "bytes4"
        },
        {
          "name": "data",
          "type": "bytes"
        }
      ],
      "name": "run",
      "outputs": [],
      "payable": false,
      "stateMutability": "nonpayable",
      "type": "function"
    },
    {
      "constant": false,
      "inputs": [
        {
          "name": "contractAddress",
          "type": "address"
        },
        {
          "name": "funcSig",
          "type": "bytes4"
        },
        {
          "name": "functionHashes",
          "type": "bytes32[]"
        },
        {
          "name": "dataHashes",
          "type": "bytes32[]"
        },
        {
          "name": "funcSigInputs",
          "type": "bytes"
        }
      ],
      "name": "runPipe",
      "outputs": [],
      "payable": false,
      "stateMutability": "nonpayable",
      "type": "function"
    },
    {
      "constant": false,
      "inputs": [
        {
          "name": "votingResourceHash",
          "type": "bytes32"
        },
        {
          "name": "voteData",
          "type": "bytes"
        }
      ],
      "name": "vote",
      "outputs": [],
      "payable": false,
      "stateMutability": "nonpayable",
      "type": "function"
    },
    {
      "constant": false,
      "inputs": [
        {
          "name": "votingResourceHash",
          "type": "bytes32"
        },
        {
          "components": [
            {
              "name": "processVoteFunctions",
              "type": "bytes32[]"
            },
            {
              "name": "processStateFunctions",
              "type": "bytes32[]"
            },
            {
              "components": [
                {
                  "name": "importance",
                  "type": "uint256"
                },
                {
                  "name": "cutoff",
                  "type": "uint256"
                },
                {
                  "name": "golive",
                  "type": "uint256"
                },
                {
                  "name": "godead",
                  "type": "uint256"
                }
              ],
              "name": "parameters",
              "type": "tuple"
            }
          ],
          "name": "mechanism",
          "type": "tuple"
        },
        {
          "components": [
            {
              "name": "votingMechanismDataHash",
              "type": "bytes32"
            },
            {
              "name": "funcHashYes",
              "type": "bytes4"
            },
            {
              "name": "funcHashNo",
              "type": "bytes4"
            }
          ],
          "name": "process",
          "type": "tuple"
        },
        {
          "name": "voteData",
          "type": "bytes"
        }
      ],
      "name": "voteState",
      "outputs": [],
      "payable": false,
      "stateMutability": "nonpayable",
      "type": "function"
    }
  ],
  "bytecode": "0x60806040523480156200001157600080fd5b5060405160a08062003b068339810180604052620000339190810190620002bf565b600073ffffffffffffffffffffffffffffffffffffffff168573ffffffffffffffffffffffffffffffffffffffff1614156200006e57600080fd5b600073ffffffffffffffffffffffffffffffffffffffff168473ffffffffffffffffffffffffffffffffffffffff161415620000a957600080fd5b600073ffffffffffffffffffffffffffffffffffffffff168373ffffffffffffffffffffffffffffffffffffffff161415620000e457600080fd5b600073ffffffffffffffffffffffffffffffffffffffff168273ffffffffffffffffffffffffffffffffffffffff1614156200011f57600080fd5b600073ffffffffffffffffffffffffffffffffffffffff168173ffffffffffffffffffffffffffffffffffffffff1614156200015a57600080fd5b846000806101000a81548173ffffffffffffffffffffffffffffffffffffffff021916908373ffffffffffffffffffffffffffffffffffffffff16021790555083600160006101000a81548173ffffffffffffffffffffffffffffffffffffffff021916908373ffffffffffffffffffffffffffffffffffffffff16021790555082600260006101000a81548173ffffffffffffffffffffffffffffffffffffffff021916908373ffffffffffffffffffffffffffffffffffffffff16021790555081600360006101000a81548173ffffffffffffffffffffffffffffffffffffffff021916908373ffffffffffffffffffffffffffffffffffffffff16021790555080600460006101000a81548173ffffffffffffffffffffffffffffffffffffffff021916908373ffffffffffffffffffffffffffffffffffffffff160217905550505050505062000375565b6000620002b7825162000341565b905092915050565b600080600080600060a08688031215620002d857600080fd5b6000620002e888828901620002a9565b9550506020620002fb88828901620002a9565b94505060406200030e88828901620002a9565b93505060606200032188828901620002a9565b92505060806200033488828901620002a9565b9150509295509295909350565b60006200034e8262000355565b9050919050565b600073ffffffffffffffffffffffffffffffffffffffff82169050919050565b61378180620003856000396000f3fe608060405234801561001057600080fd5b50600436106100935760003560e01c8063b776608f11610066578063b776608f1461010c578063e5dff55b14610128578063f3b0c8b714610146578063fce1ccca14610164578063fffeba4e1461018257610093565b806301e0fb801461009857806315d0fdc5146100b6578063404e6c7e146100d2578063439da879146100ee575b600080fd5b6100a061019e565b6040516100ad919061321a565b60405180910390f35b6100d060048036036100cb91908101906124a6565b6101c3565b005b6100ec60048036036100e79190810190612286565b61058e565b005b6100f66109f1565b60405161010391906131e4565b60405180910390f35b61012660048036036101219190810190612345565b610a17565b005b61013061140d565b60405161013d91906131ff565b60405180910390f35b61014e611433565b60405161015b91906131ae565b60405180910390f35b61016c611459565b60405161017991906131c9565b60405180910390f35b61019c60048036036101979190810190612452565b61147f565b005b6000809054906101000a900473ffffffffffffffffffffffffffffffffffffffff1681565b6101cb6118d0565b600260009054906101000a900473ffffffffffffffffffffffffffffffffffffffff1673ffffffffffffffffffffffffffffffffffffffff1663a2dd3d47866040518263ffffffff1660e01b8152600401610226919061307a565b60c06040518083038186803b15801561023e57600080fd5b505afa158015610252573d6000803e3d6000fd5b505050506040513d601f19601f8201168201806040525061027691908101906125bb565b90506060806000809054906101000a900473ffffffffffffffffffffffffffffffffffffffff1673ffffffffffffffffffffffffffffffffffffffff1663a7f2c02e838860200151866040516020016102cf9190613383565b604051602081830303815290604052888b604001516040516020016102f4919061334d565b60405160208183030381529060405260405160200161031593929190612f66565b6040516020818303038152906040526040518463ffffffff1660e01b81526004016103429392919061302e565b60006040518083038186803b15801561035a57600080fd5b505afa15801561036e573d6000803e3d6000fd5b505050506040513d6000823e3d601f19601f820116820180604052506103979190810190612539565b90507f761628487d5ec46ff029f7723b446a32f2a643a38bd068a74e4e47fa9f8f2d7e816040516103c89190613144565b60405180910390a1600080828060200190516103e791908101906123ed565b915091506001151582151514156105835760018160ff1614156104c557846020015173ffffffffffffffffffffffffffffffffffffffff16876020015186600001516040516020016104399190612f97565b604051602081830303815290604052876040015160405160200161045f93929190612f16565b60405160208183030381529060405260405161047b9190612f4f565b6000604051808303816000865af19150503d80600081146104b8576040519150601f19603f3d011682016040523d82523d6000602084013e6104bd565b606091505b505050610582565b846020015173ffffffffffffffffffffffffffffffffffffffff16876040015186600001516040516020016104fa9190612f97565b604051602081830303815290604052876040015160405160200161052093929190612f16565b60405160208183030381529060405260405161053c9190612f4f565b6000604051808303816000865af19150503d8060008114610579576040519150601f19603f3d011682016040523d82523d6000602084013e61057e565b606091505b5050505b5b505050505050505050565b60008351905060008090505b818110156108ee576105aa611938565b60405180608001604052808973ffffffffffffffffffffffffffffffffffffffff168152602001887bffffffffffffffffffffffffffffffffffffffffffffffffffffffff1916815260200187848151811061060257fe5b602002602001015181526020018660008151811061061c57fe5b6020026020010151815250905061063161199b565b600160009054906101000a900473ffffffffffffffffffffffffffffffffffffffff1673ffffffffffffffffffffffffffffffffffffffff166376b2748b836040518263ffffffff1660e01b815260040161068c9190613310565b60006040518083038186803b1580156106a457600080fd5b505afa1580156106b8573d6000803e3d6000fd5b505050506040513d6000823e3d601f19601f820116820180604052506106e1919081019061257a565b9050600015158160000151151514801561072b57503373ffffffffffffffffffffffffffffffffffffffff16816020015173ffffffffffffffffffffffffffffffffffffffff1614155b156108df5761073861199b565b600160009054906101000a900473ffffffffffffffffffffffffffffffffffffffff1673ffffffffffffffffffffffffffffffffffffffff166376b2748b60405180608001604052808d73ffffffffffffffffffffffffffffffffffffffff1681526020018c7bffffffffffffffffffffffffffffffffffffffffffffffffffffffff191681526020018b88815181106107ce57fe5b602002602001015181526020016000801b8152506040518263ffffffff1660e01b81526004016107fe91906132f5565b60006040518083038186803b15801561081657600080fd5b505afa15801561082a573d6000803e3d6000fd5b505050506040513d6000823e3d601f19601f82011682018060405250610853919081019061257a565b9050600015158160000151151514801561089d57503373ffffffffffffffffffffffffffffffffffffffff16816020015173ffffffffffffffffffffffffffffffffffffffff1614155b156108dd576040517f08c379a00000000000000000000000000000000000000000000000000000000081526004016108d4906132d5565b60405180910390fd5b505b5050808060010191505061059a565b5060606000809054906101000a900473ffffffffffffffffffffffffffffffffffffffff1673ffffffffffffffffffffffffffffffffffffffff1663a7f2c02e8587866040518463ffffffff1660e01b815260040161094f93929190612fe2565b60006040518083038186803b15801561096757600080fd5b505afa15801561097b573d6000803e3d6000fd5b505050506040513d6000823e3d601f19601f820116820180604052506109a49190810190612539565b90507f761628487d5ec46ff029f7723b446a32f2a643a38bd068a74e4e47fa9f8f2d7e816040516109d591906130da565b60405180910390a16109e8878783610a17565b50505050505050565b600460009054906101000a900473ffffffffffffffffffffffffffffffffffffffff1681565b6000809050610a24611938565b60405180608001604052808673ffffffffffffffffffffffffffffffffffffffff168152602001857bffffffffffffffffffffffffffffffffffffffffffffffffffffffff191681526020016000801b81526020016000801b8152509050610a8a61199b565b600160009054906101000a900473ffffffffffffffffffffffffffffffffffffffff1673ffffffffffffffffffffffffffffffffffffffff166376b2748b836040518263ffffffff1660e01b8152600401610ae59190613310565b60006040518083038186803b158015610afd57600080fd5b505afa158015610b11573d6000803e3d6000fd5b505050506040513d6000823e3d601f19601f82011682018060405250610b3a919081019061257a565b905060011515816000015115151480610b8257503373ffffffffffffffffffffffffffffffffffffffff16816020015173ffffffffffffffffffffffffffffffffffffffff16145b15610b905760019250610e45565b6000801b81604001516040015114610e44576060806000809054906101000a900473ffffffffffffffffffffffffffffffffffffffff1673ffffffffffffffffffffffffffffffffffffffff166365abe23e84604001516040015184896040518463ffffffff1660e01b8152600401610c0b93929190613095565b60006040518083038186803b158015610c2357600080fd5b505afa158015610c37573d6000803e3d6000fd5b505050506040513d6000823e3d601f19601f82011682018060405250610c609190810190612539565b905080806020019051610c7691908101906123ac565b915060006001905060008090505b8351811015610e2d576000801b848281518110610c9d57fe5b602002602001015114610e2057610cb261199b565b600160009054906101000a900473ffffffffffffffffffffffffffffffffffffffff1673ffffffffffffffffffffffffffffffffffffffff166376b2748b60405180608001604052808e73ffffffffffffffffffffffffffffffffffffffff1681526020018d7bffffffffffffffffffffffffffffffffffffffffffffffffffffffff191681526020016000801b8152602001888681518110610d5157fe5b60200260200101518152506040518263ffffffff1660e01b8152600401610d7891906132f5565b60006040518083038186803b158015610d9057600080fd5b505afa158015610da4573d6000803e3d6000fd5b505050506040513d6000823e3d601f19601f82011682018060405250610dcd919081019061257a565b905060011515816000015115151480610e1557503373ffffffffffffffffffffffffffffffffffffffff16816020015173ffffffffffffffffffffffffffffffffffffffff16145b610e1e57600092505b505b8080600101915050610c84565b50600115158115151415610e4057600195505b5050505b5b60011515831515141561108c57600060608773ffffffffffffffffffffffffffffffffffffffff168787604051602001610e80929190612eee565b604051602081830303815290604052604051610e9c9190612f4f565b6000604051808303816000865af19150503d8060008114610ed9576040519150601f19603f3d011682016040523d82523d6000602084013e610ede565b606091505b50915091506001151582151514610f2a576040517f08c379a0000000000000000000000000000000000000000000000000000000008152600401610f21906132b5565b60405180910390fd5b60208151141561108257610f3c6119da565b600160009054906101000a900473ffffffffffffffffffffffffffffffffffffffff1673ffffffffffffffffffffffffffffffffffffffff16632a9319456040518060e001604052808c73ffffffffffffffffffffffffffffffffffffffff1681526020018b7bffffffffffffffffffffffffffffffffffffffffffffffffffffffff191681526020016000801b815260200185806020019051610fe39190810190612429565b81526020016000151581526020013373ffffffffffffffffffffffffffffffffffffffff168152602001848152506040518263ffffffff1660e01b815260040161102d919061332b565b602060405180830381600087803b15801561104757600080fd5b505af115801561105b573d6000803e3d6000fd5b505050506040513d601f19601f8201168201806040525061107f9190810190612429565b50505b5050505050611408565b600060e01b7bffffffffffffffffffffffffffffffffffffffffffffffffffffffff19168160400151600001517bffffffffffffffffffffffffffffffffffffffffffffffffffffffff1916141580156110f157506000801b81604001516020015114155b156113cd57600060608773ffffffffffffffffffffffffffffffffffffffff16836040015160000151338860405160240161112d929190612fb2565b604051602081830303815290604052907bffffffffffffffffffffffffffffffffffffffffffffffffffffffff19166020820180517bffffffffffffffffffffffffffffffffffffffffffffffffffffffff83818316178352505050506040516111979190612f4f565b6000604051808303816000865af19150503d80600081146111d4576040519150601f19603f3d011682016040523d82523d6000602084013e6111d9565b606091505b50915091506001151582151514611225576040517f08c379a000000000000000000000000000000000000000000000000000000000815260040161121c90613275565b60405180910390fd5b7f761628487d5ec46ff029f7723b446a32f2a643a38bd068a74e4e47fa9f8f2d7e816040516112549190613179565b60405180910390a160208151146112a0576040517f08c379a000000000000000000000000000000000000000000000000000000000815260040161129790613295565b60405180910390fd5b600260009054906101000a900473ffffffffffffffffffffffffffffffffffffffff1673ffffffffffffffffffffffffffffffffffffffff1663fd0987796040518060c001604052803373ffffffffffffffffffffffffffffffffffffffff1681526020018b73ffffffffffffffffffffffffffffffffffffffff168152602001848060200190516113359190810190612429565b815260200186604001516020015181526020016000815260200160008152506040518263ffffffff1660e01b81526004016113709190613368565b602060405180830381600087803b15801561138a57600080fd5b505af115801561139e573d6000803e3d6000fd5b505050506040513d601f19601f820116820180604052506113c29190810190612429565b505050505050611408565b6040517f08c379a00000000000000000000000000000000000000000000000000000000081526004016113ff90613255565b60405180910390fd5b505050565b600360009054906101000a900473ffffffffffffffffffffffffffffffffffffffff1681565b600160009054906101000a900473ffffffffffffffffffffffffffffffffffffffff1681565b600260009054906101000a900473ffffffffffffffffffffffffffffffffffffffff1681565b6114876118d0565b600260009054906101000a900473ffffffffffffffffffffffffffffffffffffffff1673ffffffffffffffffffffffffffffffffffffffff1663a2dd3d47846040518263ffffffff1660e01b81526004016114e2919061307a565b60c06040518083038186803b1580156114fa57600080fd5b505afa15801561150e573d6000803e3d6000fd5b505050506040513d601f19601f8201168201806040525061153291908101906125bb565b905061153c611a27565b600360009054906101000a900473ffffffffffffffffffffffffffffffffffffffff1673ffffffffffffffffffffffffffffffffffffffff1663a2dd3d4783606001516040518263ffffffff1660e01b815260040161159b919061307a565b60606040518083038186803b1580156115b357600080fd5b505afa1580156115c7573d6000803e3d6000fd5b505050506040513d601f19601f820116820180604052506115eb9190810190612625565b90506115f5611a89565b600460009054906101000a900473ffffffffffffffffffffffffffffffffffffffff1673ffffffffffffffffffffffffffffffffffffffff1663a2dd3d4783600001516040518263ffffffff1660e01b8152600401611654919061307a565b60006040518083038186803b15801561166c57600080fd5b505afa158015611680573d6000803e3d6000fd5b505050506040513d6000823e3d601f19601f820116820180604052506116a991908101906125e4565b90506060806000809054906101000a900473ffffffffffffffffffffffffffffffffffffffff1673ffffffffffffffffffffffffffffffffffffffff1663a7f2c02e838560000151896040518463ffffffff1660e01b81526004016117109392919061302e565b60006040518083038186803b15801561172857600080fd5b505afa15801561173c573d6000803e3d6000fd5b505050506040513d6000823e3d601f19601f820116820180604052506117659190810190612539565b90507f761628487d5ec46ff029f7723b446a32f2a643a38bd068a74e4e47fa9f8f2d7e81604051611796919061310f565b60405180910390a160006060600260009054906101000a900473ffffffffffffffffffffffffffffffffffffffff1673ffffffffffffffffffffffffffffffffffffffff1660405180606001604052806026815260200161372260269139805190602001208a8560405160200161180f93929190612eb5565b60405160208183030381529060405260405161182b9190612f4f565b6000604051808303816000865af19150503d8060008114611868576040519150601f19603f3d011682016040523d82523d6000602084013e61186d565b606091505b509150915060011515821515146118b9576040517f08c379a00000000000000000000000000000000000000000000000000000000081526004016118b090613235565b60405180910390fd5b6118c5898688866101c3565b505050505050505050565b6040518060c00160405280600073ffffffffffffffffffffffffffffffffffffffff168152602001600073ffffffffffffffffffffffffffffffffffffffff168152602001600080191681526020016000801916815260200160008152602001600081525090565b6040518060800160405280600073ffffffffffffffffffffffffffffffffffffffff16815260200160007bffffffffffffffffffffffffffffffffffffffffffffffffffffffff1916815260200160008019168152602001600080191681525090565b6040518060c00160405280600015158152602001600073ffffffffffffffffffffffffffffffffffffffff1681526020016119d4611ab0565b81525090565b604051806080016040528060007bffffffffffffffffffffffffffffffffffffffffffffffffffffffff191681526020016000801916815260200160008019168152602001606081525090565b60405180606001604052806000801916815260200160007bffffffffffffffffffffffffffffffffffffffffffffffffffffffff1916815260200160007bffffffffffffffffffffffffffffffffffffffffffffffffffffffff191681525090565b6040518060c001604052806060815260200160608152602001611aaa611afd565b81525090565b604051806080016040528060007bffffffffffffffffffffffffffffffffffffffffffffffffffffffff191681526020016000801916815260200160008019168152602001606081525090565b6040518060800160405280600081526020016000815260200160008152602001600081525090565b6000611b31823561357b565b905092915050565b6000611b45825161357b565b905092915050565b600082601f830112611b5e57600080fd5b8135611b71611b6c826133cb565b61339e565b91508181835260208401935060208101905083856020840282011115611b9657600080fd5b60005b83811015611bc65781611bac8882611cea565b845260208401935060208301925050600181019050611b99565b5050505092915050565b600082601f830112611be157600080fd5b8151611bf4611bef826133cb565b61339e565b91508181835260208401935060208101905083856020840282011115611c1957600080fd5b60005b83811015611c495781611c2f8882611cfe565b845260208401935060208301925050600181019050611c1c565b5050505092915050565b600082601f830112611c6457600080fd5b8135611c77611c72826133f3565b61339e565b91508181835260208401935060208101905083856020840282011115611c9c57600080fd5b60005b83811015611ccc5781611cb28882611cea565b845260208401935060208301925050600181019050611c9f565b5050505092915050565b6000611ce2825161358d565b905092915050565b6000611cf68235613599565b905092915050565b6000611d0a8251613599565b905092915050565b6000611d1e82356135a3565b905092915050565b6000611d3282516135a3565b905092915050565b600082601f830112611d4b57600080fd5b8135611d5e611d598261341b565b61339e565b91508082526020830160208301858383011115611d7a57600080fd5b611d858382846136ba565b50505092915050565b600082601f830112611d9f57600080fd5b8151611db2611dad8261341b565b61339e565b91508082526020830160208301858383011115611dce57600080fd5b611dd98382846136c9565b50505092915050565b600060608284031215611df457600080fd5b611dfe606061339e565b90506000611e0e84828501611cd6565b6000830152506020611e2284828501611b39565b602083015250604082015167ffffffffffffffff811115611e4257600080fd5b611e4e84828501611e5a565b60408301525092915050565b600060808284031215611e6c57600080fd5b611e76608061339e565b90506000611e8684828501611d26565b6000830152506020611e9a84828501611cfe565b6020830152506040611eae84828501611cfe565b604083015250606082015167ffffffffffffffff811115611ece57600080fd5b611eda84828501611bd0565b60608301525092915050565b600060808284031215611ef857600080fd5b611f02608061339e565b90506000611f128482850161224a565b6000830152506020611f268482850161224a565b6020830152506040611f3a8482850161224a565b6040830152506060611f4e8482850161224a565b60608301525092915050565b600060808284031215611f6c57600080fd5b611f76608061339e565b90506000611f868482850161225e565b6000830152506020611f9a8482850161225e565b6020830152506040611fae8482850161225e565b6040830152506060611fc28482850161225e565b60608301525092915050565b600060c08284031215611fe057600080fd5b611fea60c061339e565b90506000611ffa84828501611b39565b600083015250602061200e84828501611b39565b602083015250604061202284828501611cfe565b604083015250606061203684828501611cfe565b606083015250608061204a8482850161225e565b60808301525060a061205e8482850161225e565b60a08301525092915050565b600060c0828403121561207c57600080fd5b612086606061339e565b9050600082013567ffffffffffffffff8111156120a257600080fd5b6120ae84828501611b4d565b600083015250602082013567ffffffffffffffff8111156120ce57600080fd5b6120da84828501611b4d565b60208301525060406120ee84828501611ee6565b60408301525092915050565b600060c0828403121561210c57600080fd5b612116606061339e565b9050600082015167ffffffffffffffff81111561213257600080fd5b61213e84828501611bd0565b600083015250602082015167ffffffffffffffff81111561215e57600080fd5b61216a84828501611bd0565b602083015250604061217e84828501611f5a565b60408301525092915050565b60006060828403121561219c57600080fd5b6121a6606061339e565b905060006121b684828501611cea565b60008301525060206121ca84828501611d12565b60208301525060406121de84828501611d12565b60408301525092915050565b6000606082840312156121fc57600080fd5b612206606061339e565b9050600061221684828501611cfe565b600083015250602061222a84828501611d26565b602083015250604061223e84828501611d26565b60408301525092915050565b600061225682356135ef565b905092915050565b600061226a82516135ef565b905092915050565b600061227e82516135f9565b905092915050565b600080600080600060a0868803121561229e57600080fd5b60006122ac88828901611b25565b95505060206122bd88828901611d12565b945050604086013567ffffffffffffffff8111156122da57600080fd5b6122e688828901611c53565b935050606086013567ffffffffffffffff81111561230357600080fd5b61230f88828901611c53565b925050608086013567ffffffffffffffff81111561232c57600080fd5b61233888828901611d3a565b9150509295509295909350565b60008060006060848603121561235a57600080fd5b600061236886828701611b25565b935050602061237986828701611d12565b925050604084013567ffffffffffffffff81111561239657600080fd5b6123a286828701611d3a565b9150509250925092565b6000602082840312156123be57600080fd5b600082015167ffffffffffffffff8111156123d857600080fd5b6123e484828501611bd0565b91505092915050565b6000806040838503121561240057600080fd5b600061240e85828601611cd6565b925050602061241f85828601612272565b9150509250929050565b60006020828403121561243b57600080fd5b600061244984828501611cfe565b91505092915050565b6000806040838503121561246557600080fd5b600061247385828601611cea565b925050602083013567ffffffffffffffff81111561249057600080fd5b61249c85828601611d3a565b9150509250929050565b60008060008060c085870312156124bc57600080fd5b60006124ca87828801611cea565b945050602085013567ffffffffffffffff8111156124e757600080fd5b6124f38782880161206a565b93505060406125048782880161218a565b92505060a085013567ffffffffffffffff81111561252157600080fd5b61252d87828801611d3a565b91505092959194509250565b60006020828403121561254b57600080fd5b600082015167ffffffffffffffff81111561256557600080fd5b61257184828501611d8e565b91505092915050565b60006020828403121561258c57600080fd5b600082015167ffffffffffffffff8111156125a657600080fd5b6125b284828501611de2565b91505092915050565b600060c082840312156125cd57600080fd5b60006125db84828501611fce565b91505092915050565b6000602082840312156125f657600080fd5b600082015167ffffffffffffffff81111561261057600080fd5b61261c848285016120fa565b91505092915050565b60006060828403121561263757600080fd5b6000612645848285016121ea565b91505092915050565b600061265a83836127b0565b60208301905092915050565b61266f816134fd565b82525050565b61267e816134eb565b82525050565b61268d816134eb565b82525050565b600061269e8261346c565b6126a881856134ad565b93506126b383613454565b60005b828110156126e1576126c986835161264e565b95506126d48261348f565b91506001810190506126b6565b50849250505092915050565b60006126f882613461565b612702818561349c565b935061270d83613447565b60005b8281101561273b5761272386835161264e565b955061272e82613482565b9150600181019050612710565b50849250505092915050565b600061275282613461565b61275c81856134ad565b935061276783613447565b60005b828110156127955761277d86835161264e565b955061278882613482565b915060018101905061276a565b50849250505092915050565b6127aa8161350f565b82525050565b6127b98161351b565b82525050565b6127c88161351b565b82525050565b6127df6127da8261351b565b6136fc565b82525050565b6127ee81613525565b82525050565b61280561280082613525565b613706565b82525050565b600061281682613477565b61282081856134be565b93506128308185602086016136c9565b61283981613710565b840191505092915050565b600061284f82613477565b61285981856134cf565b93506128698185602086016136c9565b80840191505092915050565b61287e81613606565b82525050565b61288d8161362a565b82525050565b61289c8161364e565b82525050565b6128ab81613672565b82525050565b6128ba81613696565b82525050565b60006128cd6009836134da565b91507f70697065644461746100000000000000000000000000000000000000000000006000830152602082019050919050565b600061290d6014836134da565b91507f70726f63657373566f746546756e6374696f6e730000000000000000000000006000830152602082019050919050565b600061294d600d836134da565b91507f766f74696e67206661696c6564000000000000000000000000000000000000006000830152602082019050919050565b600061298d6027836134da565b91507f436f756c64206e6f742072756e20616374696f6e2c206661756c74792070657260008301527f6d697373696f6e000000000000000000000000000000000000000000000000006020830152604082019050919050565b60006129f36016836134da565b91507f74656d706f72617279416374696f6e206661696c6564000000000000000000006000830152602082019050919050565b6000612a336026836134da565b91507f73746f726167652066756e6374696f6e20726573756c74206973206e6f74206260008301527f79746573333200000000000000000000000000000000000000000000000000006020830152604082019050919050565b6000612a996021836134da565b91507f666f7277617264696e67206661696c65642c2073656e64657220616c6c6f776560008301527f64000000000000000000000000000000000000000000000000000000000000006020830152604082019050919050565b6000612aff6017836134da565b91507f556e617574686f72697a6564207065726d697373696f6e0000000000000000006000830152602082019050919050565b6000612b3f6015836134da565b91507f70726f63657373537461746546756e6374696f6e7300000000000000000000006000830152602082019050919050565b6000612b7f600f836134da565b91507f74656d706f72617279416374696f6e00000000000000000000000000000000006000830152602082019050919050565b608082016000820151612bc86000850182612675565b506020820151612bdb60208501826127e5565b506040820151612bee60408501826127b0565b506060820151612c0160608501826127b0565b50505050565b608082016000820151612c1d6000850182612675565b506020820151612c3060208501826127e5565b506040820151612c4360408501826127b0565b506060820151612c5660608501826127b0565b50505050565b6000608083016000830151612c7460008601826127e5565b506020830151612c8760208601826127b0565b506040830151612c9a60408601826127b0565b5060608301518482036060860152612cb282826126ed565b9150508091505092915050565b600060e083016000830151612cd76000860182612675565b506020830151612cea60208601826127e5565b506040830151612cfd60408601826127b0565b506060830151612d1060608601826127b0565b506080830151612d2360808601826127a1565b5060a0830151612d3660a0860182612675565b5060c083015184820360c0860152612d4e8282612c5c565b9150508091505092915050565b608082016000820151612d716000850182612ea6565b506020820151612d846020850182612ea6565b506040820151612d976040850182612ea6565b506060820151612daa6060850182612ea6565b50505050565b60c082016000820151612dc66000850182612675565b506020820151612dd96020850182612675565b506040820151612dec60408501826127b0565b506060820151612dff60608501826127b0565b506080820151612e126080850182612ea6565b5060a0820151612e2560a0850182612ea6565b50505050565b60c082016000820151612e416000850182612675565b506020820151612e546020850182612675565b506040820151612e6760408501826127b0565b506060820151612e7a60608501826127b0565b506080820151612e8d6080850182612ea6565b5060a0820151612ea060a0850182612ea6565b50505050565b612eaf81613571565b82525050565b6000612ec182866127f4565b600482019150612ed182856127ce565b602082019150612ee18284612844565b9150819050949350505050565b6000612efa82856127f4565b600482019150612f0a8284612844565b91508190509392505050565b6000612f2282866127f4565b600482019150612f328285612844565b9150612f3e82846127ce565b602082019150819050949350505050565b6000612f5b8284612844565b915081905092915050565b6000612f728286612844565b9150612f7e8285612844565b9150612f8a8284612844565b9150819050949350505050565b6000602082019050612fac6000830184612684565b92915050565b6000604082019050612fc76000830185612666565b8181036020830152612fd9818461280b565b90509392505050565b60006060820190508181036000830152612ffc8186612693565b905081810360208301526130108185612693565b90508181036040830152613024818461280b565b9050949350505050565b600060608201905081810360008301526130488186612693565b9050818103602083015261305c8185612747565b90508181036040830152613070818461280b565b9050949350505050565b600060208201905061308f60008301846127bf565b92915050565b60006060820190506130aa60008301866127bf565b81810360208301526130bc8185612693565b905081810360408301526130d0818461280b565b9050949350505050565b600060408201905081810360008301526130f4818461280b565b90508181036020830152613107816128c0565b905092915050565b60006040820190508181036000830152613129818461280b565b9050818103602083015261313c81612900565b905092915050565b6000604082019050818103600083015261315e818461280b565b9050818103602083015261317181612b32565b905092915050565b60006040820190508181036000830152613193818461280b565b905081810360208301526131a681612b72565b905092915050565b60006020820190506131c36000830184612875565b92915050565b60006020820190506131de6000830184612884565b92915050565b60006020820190506131f96000830184612893565b92915050565b600060208201905061321460008301846128a2565b92915050565b600060208201905061322f60008301846128b1565b92915050565b6000602082019050818103600083015261324e81612940565b9050919050565b6000602082019050818103600083015261326e81612980565b9050919050565b6000602082019050818103600083015261328e816129e6565b9050919050565b600060208201905081810360008301526132ae81612a26565b9050919050565b600060208201905081810360008301526132ce81612a8c565b9050919050565b600060208201905081810360008301526132ee81612af2565b9050919050565b600060808201905061330a6000830184612c07565b92915050565b60006080820190506133256000830184612bb2565b92915050565b600060208201905081810360008301526133458184612cbf565b905092915050565b60006080820190506133626000830184612d5b565b92915050565b600060c08201905061337d6000830184612e2b565b92915050565b600060c0820190506133986000830184612db0565b92915050565b6000604051905081810181811067ffffffffffffffff821117156133c157600080fd5b8060405250919050565b600067ffffffffffffffff8211156133e257600080fd5b602082029050602081019050919050565b600067ffffffffffffffff82111561340a57600080fd5b602082029050602081019050919050565b600067ffffffffffffffff82111561343257600080fd5b601f19601f8301169050602081019050919050565b6000602082019050919050565b6000602082019050919050565b600081519050919050565b600081519050919050565b600081519050919050565b6000602082019050919050565b6000602082019050919050565b600082825260208201905092915050565b600082825260208201905092915050565b600082825260208201905092915050565b600081905092915050565b600082825260208201905092915050565b60006134f682613551565b9050919050565b600061350882613551565b9050919050565b60008115159050919050565b6000819050919050565b60007fffffffff0000000000000000000000000000000000000000000000000000000082169050919050565b600073ffffffffffffffffffffffffffffffffffffffff82169050919050565b6000819050919050565b6000613586826135cf565b9050919050565b60008115159050919050565b6000819050919050565b60007fffffffff0000000000000000000000000000000000000000000000000000000082169050919050565b600073ffffffffffffffffffffffffffffffffffffffff82169050919050565b6000819050919050565b600060ff82169050919050565b600061361182613618565b9050919050565b600061362382613551565b9050919050565b60006136358261363c565b9050919050565b600061364782613551565b9050919050565b600061365982613660565b9050919050565b600061366b82613551565b9050919050565b600061367d82613684565b9050919050565b600061368f82613551565b9050919050565b60006136a1826136a8565b9050919050565b60006136b382613551565b9050919050565b82818337600083830152505050565b60005b838110156136e75780820151818401526020810190506136cc565b838111156136f6576000848401525b50505050565b6000819050919050565b6000819050919050565b6000601f19601f830116905091905056fe75706461746528627974657333322c28626f6f6c2c75696e743235362c616464726573732929a265627a7a72305820d14999de3c5ecc3d06a98f3b0ade5eb6a3f3258d5db8296c38179268174220d46c6578706572696d656e74616cf50037",
  "source": "pragma solidity ^0.5.0;\npragma experimental ABIEncoderV2;\n\nimport '../dTypeInterface.sol';\nimport './permissions/PermissionStorageInterface.sol';\nimport './voting/VoteResourceInterface.sol';\nimport './voting/VotingProcessInterface.sol';\nimport './voting/VotingMechanismInterface.sol';\n\ncontract ActionContract {\n\n    dTypeInterface public dtype;\n    PermissionStorageInterface public permission;\n    VoteResourceInterface public voting;\n    VotingProcessInterface public votingProcess;\n    VotingMechanismInterface public votingMechanism;\n\n    event LogDebug(bytes data, string msg);\n\n    constructor(address _dtypeAddress, address _permissionAddress, address _votingAddress, address _votingProcess, address _votingMechanism) public {\n        require(_dtypeAddress != address(0));\n        require(_permissionAddress != address(0));\n        require(_votingAddress != address(0));\n        require(_votingProcess != address(0));\n        require(_votingMechanism != address(0));\n\n        dtype = dTypeInterface(_dtypeAddress);\n        permission = PermissionStorageInterface(_permissionAddress);\n        voting = VoteResourceInterface(_votingAddress);\n        votingProcess = VotingProcessInterface(_votingProcess);\n        votingMechanism = VotingMechanismInterface(_votingMechanism);\n    }\n\n    function run(address contractAddress, bytes4 funcSig, bytes memory data) public {\n        bool runDirectly = false;\n\n        // Get permission for function\n        PermissionLib.PermissionIdentifier memory identifier = PermissionLib.PermissionIdentifier(contractAddress, funcSig, bytes32(0), bytes32(0));\n\n        PermissionLib.PermissionFull memory fpermission = permission.get(identifier);\n\n        // if allowed -> forward call to contract\n        if (fpermission.anyone ==  true || fpermission.allowed == msg.sender) {\n            runDirectly = true;\n        } else if (fpermission.permissionProcess.functionHashPermission != bytes32(0)) {\n            bytes32[] memory dataHashes;\n            bytes memory dataHashesB = dtype.runView(\n                fpermission.permissionProcess.functionHashPermission,\n                dataHashes,\n                data\n            );\n\n            (dataHashes) = abi.decode(dataHashesB, (bytes32[]));\n            bool allowed = true;\n            for (uint256 i = 0; i < dataHashes.length; i++) {\n                if (dataHashes[i] != bytes32(0)) {\n                    PermissionLib.PermissionFull memory dpermission = permission.get(PermissionLib.PermissionIdentifier(contractAddress, funcSig, bytes32(0), dataHashes[i]));\n\n                    if (!(dpermission.anyone ==  true || dpermission.allowed == msg.sender)) {\n                        // revert('Unauthorized permission. dataHash');\n                        allowed = false;\n                    }\n                }\n            }\n            if (allowed == true) {\n                runDirectly = true;\n            }\n        }\n        if (runDirectly == true) {\n            (bool success, bytes memory out) = contractAddress.call(abi.encodePacked(funcSig, data));\n            require(success == true, 'forwarding failed, sender allowed');\n            // If a dataHash is returned, we insert a permission for it\n            // Only \"insert\" should return a result - dataHash\n            if (out.length == 32) {\n                PermissionProcessLib.PermissionProcess memory pprocess;\n                permission.insert(PermissionLib.Permission(\n                    contractAddress,\n                    funcSig,\n                    bytes32(0),\n                    abi.decode(out, (bytes32)),\n                    false,\n                    msg.sender,\n                    pprocess\n                ));\n            }\n            return;\n        }\n        if (fpermission.permissionProcess.temporaryAction != bytes4(0) && fpermission.permissionProcess.votingProcessDataHash != bytes32(0)) {\n            (bool success, bytes memory out) = contractAddress.call(abi.encodeWithSelector(\n                fpermission.permissionProcess.temporaryAction,\n                msg.sender,\n                data\n            ));\n            require(success == true, 'temporaryAction failed');\n            emit LogDebug(out, 'temporaryAction');\n\n            require(out.length == 32, 'storage function result is not bytes32');\n            // Insert new voting resource\n            voting.insert(VoteResourceTypeLib.VoteResource(\n                msg.sender,\n                contractAddress,\n                abi.decode(out, (bytes32)),\n                fpermission.permissionProcess.votingProcessDataHash,\n                0,\n                0\n            ));\n            return;\n        }\n        revert('Could not run action, faulty permission');\n    }\n\n    function runPipe(address contractAddress, bytes4 funcSig, bytes32[] memory functionHashes, bytes32[] memory dataHashes, bytes memory funcSigInputs) public {\n        uint256 length = functionHashes.length;\n        // TODO check transition is part of funcSig transitions\n        for (uint256 i = 0; i < length; i++) {\n            PermissionLib.PermissionIdentifier memory identifier = PermissionLib.PermissionIdentifier(contractAddress, funcSig, functionHashes[i], dataHashes[0]);\n\n            PermissionLib.PermissionFull memory fpermission = permission.get(identifier);\n            // check permission on transition & dataHash\n            if (fpermission.anyone == false && fpermission.allowed != msg.sender) {\n                PermissionLib.PermissionFull memory tpermission = permission.get(PermissionLib.PermissionIdentifier(contractAddress, funcSig, functionHashes[i], bytes32(0)));\n\n                // Check permission on funcSig && dataHash\n                if (tpermission.anyone == false && tpermission.allowed != msg.sender) {\n                    revert('Unauthorized permission');\n                    // TODO otherwise, check permissions on funcSig\n                }\n            }\n        }\n\n        bytes memory pipedData = dtype.pipeView(dataHashes, functionHashes, funcSigInputs);\n        emit LogDebug(pipedData, 'pipedData');\n        run(contractAddress, funcSig, pipedData);\n    }\n\n    function vote(bytes32 votingResourceHash, bytes memory voteData) public {\n        // Get voting resource\n        VoteResourceTypeLib.VoteResource memory resource = voting.getByHash(votingResourceHash);\n\n        VotingProcessLib.VotingProcessRequired memory process = votingProcess.getByHash(resource.votingProcessDataHash);\n\n        VotingMechanismTypeLib.VotingMechanism memory mechanism = votingMechanism.getByHash(process.votingMechanismDataHash);\n\n        bytes32[] memory dataHashes;\n        bytes memory voteResult = dtype.pipeView(dataHashes, mechanism.processVoteFunctions, voteData);\n        emit LogDebug(voteResult, 'processVoteFunctions');\n\n        (bool success, bytes memory outdata) = address(voting).call(abi.encodePacked(bytes4(keccak256(bytes('update(bytes32,(bool,uint256,address))'))), votingResourceHash, voteResult));\n        require(success == true, 'voting failed');\n\n        voteState(votingResourceHash, mechanism, process, voteResult);\n\n        // TODO maybe voting functions also work on vote resource -> returns new VoteResource\n    }\n\n    function voteState(\n        bytes32 votingResourceHash,\n        VotingMechanismTypeLib.VotingMechanism memory mechanism,\n        VotingProcessLib.VotingProcessRequired memory process,\n        bytes memory voteData\n    )\n        public\n    {\n        VoteResourceTypeLib.VoteResource memory resource = voting.getByHash(votingResourceHash);\n\n        bytes32[] memory dataHashes;\n        bytes memory stateChoice = dtype.pipeView(\n            dataHashes,\n            mechanism.processStateFunctions,\n            abi.encodePacked(abi.encode(resource), voteData, abi.encode(mechanism.parameters))\n        );\n        emit LogDebug(stateChoice, 'processStateFunctions');\n\n        (bool triggerAction, uint8 actionType) = abi.decode(stateChoice, (bool,uint8));\n        if (triggerAction == true) {\n            if (actionType == 1) {\n                resource.contractAddress.call(abi.encodePacked(\n                    process.funcHashYes,\n                    abi.encode(resource.proponent),\n                    resource.dataHash\n                ));\n            } else {\n                resource.contractAddress.call(abi.encodePacked(\n                    process.funcHashNo,\n                    abi.encode(resource.proponent),\n                    resource.dataHash\n                ));\n            }\n        }\n    }\n}\n",
  "sourcePath": "/Users/loredana/ETH/dType/contracts/contracts/examples/ActionContract.sol",
  "compiler": {
    "name": "solc",
    "version": "0.5.7+commit.6da8b019.Emscripten.clang"
  },
  "schemaVersion": "3.0.11",
  "updatedAt": "2019-07-27T20:46:29.101Z",
  "devdoc": {
    "methods": {}
  },
  "userdoc": {
    "methods": {}
  }
}