{
  "contractName": "Alias",
  "abi": [
    {
      "constant": true,
      "inputs": [],
      "name": "signaturePrefix",
      "outputs": [
        {
          "name": "",
          "type": "string"
        }
      ],
      "payable": false,
      "stateMutability": "view",
      "type": "function"
    },
    {
      "constant": true,
      "inputs": [
        {
          "name": "",
          "type": "bytes32"
        }
      ],
      "name": "reversealias",
      "outputs": [
        {
          "name": "",
          "type": "bytes"
        }
      ],
      "payable": false,
      "stateMutability": "view",
      "type": "function"
    },
    {
      "constant": true,
      "inputs": [],
      "name": "dType",
      "outputs": [
        {
          "name": "",
          "type": "address"
        }
      ],
      "payable": false,
      "stateMutability": "view",
      "type": "function"
    },
    {
      "constant": true,
      "inputs": [],
      "name": "chainId",
      "outputs": [
        {
          "name": "",
          "type": "uint256"
        }
      ],
      "payable": false,
      "stateMutability": "view",
      "type": "function"
    },
    {
      "constant": true,
      "inputs": [
        {
          "name": "",
          "type": "bytes32"
        }
      ],
      "name": "aliases",
      "outputs": [
        {
          "name": "owner",
          "type": "address"
        },
        {
          "name": "nonce",
          "type": "uint64"
        },
        {
          "name": "identifier",
          "type": "bytes32"
        }
      ],
      "payable": false,
      "stateMutability": "view",
      "type": "function"
    },
    {
      "inputs": [
        {
          "name": "_dTypeAddress",
          "type": "address"
        },
        {
          "name": "_chainId",
          "type": "uint256"
        }
      ],
      "payable": false,
      "stateMutability": "nonpayable",
      "type": "constructor"
    },
    {
      "anonymous": false,
      "inputs": [
        {
          "indexed": true,
          "name": "dTypeIdentifier",
          "type": "bytes32"
        },
        {
          "indexed": true,
          "name": "identifier",
          "type": "bytes32"
        }
      ],
      "name": "AliasSet",
      "type": "event"
    },
    {
      "constant": false,
      "inputs": [
        {
          "name": "dTypeIdentifier",
          "type": "bytes32"
        },
        {
          "name": "separator",
          "type": "bytes1"
        },
        {
          "name": "name",
          "type": "string"
        },
        {
          "name": "identifier",
          "type": "bytes32"
        },
        {
          "name": "signature",
          "type": "bytes"
        }
      ],
      "name": "setAlias",
      "outputs": [],
      "payable": false,
      "stateMutability": "nonpayable",
      "type": "function"
    },
    {
      "constant": true,
      "inputs": [
        {
          "name": "dTypeIdentifier",
          "type": "bytes32"
        },
        {
          "name": "identifier",
          "type": "bytes32"
        }
      ],
      "name": "checkdType",
      "outputs": [],
      "payable": false,
      "stateMutability": "view",
      "type": "function"
    },
    {
      "constant": true,
      "inputs": [
        {
          "name": "dTypeIdentifier",
          "type": "bytes32"
        },
        {
          "name": "identifier",
          "type": "bytes32"
        }
      ],
      "name": "getdTypeData",
      "outputs": [
        {
          "name": "data",
          "type": "bytes"
        }
      ],
      "payable": false,
      "stateMutability": "view",
      "type": "function"
    },
    {
      "constant": true,
      "inputs": [
        {
          "name": "dTypeIdentifier",
          "type": "bytes32"
        },
        {
          "name": "separator",
          "type": "bytes1"
        },
        {
          "name": "name",
          "type": "string"
        }
      ],
      "name": "getAliased",
      "outputs": [
        {
          "name": "identifier",
          "type": "bytes32"
        }
      ],
      "payable": false,
      "stateMutability": "view",
      "type": "function"
    },
    {
      "constant": true,
      "inputs": [
        {
          "name": "dTypeIdentifier",
          "type": "bytes32"
        },
        {
          "name": "identifier",
          "type": "bytes32"
        }
      ],
      "name": "getReverse",
      "outputs": [
        {
          "name": "",
          "type": "string"
        }
      ],
      "payable": false,
      "stateMutability": "view",
      "type": "function"
    },
    {
      "constant": true,
      "inputs": [
        {
          "name": "dTypeIdentifier",
          "type": "bytes32"
        },
        {
          "name": "separator",
          "type": "bytes1"
        },
        {
          "name": "name",
          "type": "string"
        }
      ],
      "name": "getAlias",
      "outputs": [
        {
          "name": "identifier",
          "type": "bytes32"
        },
        {
          "name": "data",
          "type": "bytes"
        }
      ],
      "payable": false,
      "stateMutability": "view",
      "type": "function"
    },
    {
      "constant": true,
      "inputs": [
        {
          "name": "dTypeIdentifier",
          "type": "bytes32"
        },
        {
          "name": "separator",
          "type": "bytes1"
        },
        {
          "name": "name",
          "type": "string"
        }
      ],
      "name": "getAliasedData",
      "outputs": [
        {
          "components": [
            {
              "name": "owner",
              "type": "address"
            },
            {
              "name": "nonce",
              "type": "uint64"
            },
            {
              "name": "identifier",
              "type": "bytes32"
            }
          ],
          "name": "aliasdata",
          "type": "tuple"
        }
      ],
      "payable": false,
      "stateMutability": "view",
      "type": "function"
    },
    {
      "constant": true,
      "inputs": [
        {
          "name": "name",
          "type": "string"
        },
        {
          "name": "char",
          "type": "bytes1"
        }
      ],
      "name": "checkCharExists",
      "outputs": [
        {
          "name": "exists",
          "type": "bool"
        }
      ],
      "payable": false,
      "stateMutability": "pure",
      "type": "function"
    },
    {
      "constant": true,
      "inputs": [
        {
          "name": "name",
          "type": "string"
        },
        {
          "name": "separator",
          "type": "bytes1"
        }
      ],
      "name": "strSplit",
      "outputs": [
        {
          "name": "name1",
          "type": "string"
        },
        {
          "name": "name2",
          "type": "string"
        }
      ],
      "payable": false,
      "stateMutability": "pure",
      "type": "function"
    },
    {
      "constant": true,
      "inputs": [
        {
          "name": "dTypeIdentifier",
          "type": "bytes32"
        },
        {
          "name": "separator",
          "type": "bytes1"
        },
        {
          "name": "name",
          "type": "string"
        },
        {
          "name": "identifier",
          "type": "bytes32"
        },
        {
          "name": "nonce",
          "type": "uint64"
        },
        {
          "name": "signature",
          "type": "bytes"
        }
      ],
      "name": "recoverAddress",
      "outputs": [
        {
          "name": "signer",
          "type": "address"
        }
      ],
      "payable": false,
      "stateMutability": "view",
      "type": "function"
    }
  ],
  "bytecode": "0x60806040523480156200001157600080fd5b5060405160408062002fb88339810180604052620000339190810190620000f8565b600073ffffffffffffffffffffffffffffffffffffffff168273ffffffffffffffffffffffffffffffffffffffff1614156200006e57600080fd5b600081116200007c57600080fd5b81600160006101000a81548173ffffffffffffffffffffffffffffffffffffffff021916908373ffffffffffffffffffffffffffffffffffffffff16021790555080600081905550505062000177565b6000620000da825162000139565b905092915050565b6000620000f082516200016d565b905092915050565b600080604083850312156200010c57600080fd5b60006200011c85828601620000cc565b92505060206200012f85828601620000e2565b9150509250929050565b600062000146826200014d565b9050919050565b600073ffffffffffffffffffffffffffffffffffffffff82169050919050565b6000819050919050565b612e3180620001876000396000f3fe608060405234801561001057600080fd5b50600436106100f55760003560e01c80638330dac111610097578063a406275611610066578063a4062756146102c2578063ad3d4072146102f2578063e75118731461030e578063ea7ac42f14610340576100f5565b80638330dac11461022557806386b582b6146102555780639754d9ab146102865780639a8a0592146102a4576100f5565b806335024a97116100d357806335024a9714610176578063429774f4146101a75780634c2de8e0146101c55780636cc80cb1146101f5576100f5565b806315fc2267146100fa5780632d82ed291461012a5780633314f0641461015a575b600080fd5b610114600480360361010f9190810190611f76565b610370565b6040516101219190612740565b60405180910390f35b610144600480360361013f919081019061206b565b61040d565b6040516101519190612792565b60405180910390f35b610174600480360361016f919081019061202f565b6104a2565b005b610190600480360361018b919081019061206b565b61078a565b60405161019e9291906128e0565b60405180910390f35b6101af6108e0565b6040516101bc919061289c565b60405180910390f35b6101df60048036036101da919081019061202f565b610919565b6040516101ec919061285f565b60405180910390f35b61020f600480360361020a9190810190611e68565b610b24565b60405161021c9190612a17565b60405180910390f35b61023f600480360361023a9190810190611e3f565b610bf5565b60405161024c919061283d565b60405180910390f35b61026f600480360361026a9190810190611e68565b610ca5565b60405161027d9291906127c8565b60405180910390f35b61028e610cfc565b60405161029b9190612881565b60405180910390f35b6102ac610d22565b6040516102b99190612a32565b60405180910390f35b6102dc60048036036102d79190810190611e68565b610d28565b6040516102e991906127ad565b60405180910390f35b61030c60048036036103079190810190611ecf565b610d59565b005b61032860048036036103239190810190611e3f565b61138a565b6040516103379392919061275b565b60405180910390f35b61035a6004803603610355919081019061202f565b6113e8565b60405161036791906128be565b60405180910390f35b600060606103818651607d016114a7565b905060606040518060400160405280601a81526020017f19457468657265756d205369676e6564204d6573736167653a0a00000000000081525082306000548c8a8a8e8e6040516020016103dd9998979695949392919061268e565b60405160208183030381529060405290506103ff8180519060200120856116d6565b925050509695505050505050565b6000606083905060008090505b815181101561049757837effffffffffffffffffffffffffffffffffffffffffffffffffffffffffffff191682828151811061045257fe5b602001015160f81c60f81b7effffffffffffffffffffffffffffffffffffffffffffffffffffffffffffff1916141561048a57600192505b808060010191505061041a565b508191505092915050565b600060606104ae611834565b600160009054906101000a900473ffffffffffffffffffffffffffffffffffffffff1673ffffffffffffffffffffffffffffffffffffffff1663a2dd3d47866040518263ffffffff1660e01b815260040161050991906127ad565b60006040518083038186803b15801561052157600080fd5b505afa158015610535573d6000803e3d6000fd5b505050506040513d6000823e3d601f19601f8201168201806040525061055e91908101906120bf565b9050600073ffffffffffffffffffffffffffffffffffffffff16816040015173ffffffffffffffffffffffffffffffffffffffff1614156105d4576040517f08c379a00000000000000000000000000000000000000000000000000000000081526004016105cb90612917565b60405180910390fd5b806040015173ffffffffffffffffffffffffffffffffffffffff168460405160240161060091906127ad565b6040516020818303038152906040527f3f42aeab000000000000000000000000000000000000000000000000000000007bffffffffffffffffffffffffffffffffffffffffffffffffffffffff19166020820180517bffffffffffffffffffffffffffffffffffffffffffffffffffffffff838183161783525050505060405161068a919061264f565b600060405180830381855afa9150503d80600081146106c5576040519150601f19603f3d011682016040523d82523d6000602084013e6106ca565b606091505b50809350819450505082610713576040517f08c379a000000000000000000000000000000000000000000000000000000000815260040161070a90612977565b60405180910390fd5b60016040516020016107259190612725565b60405160208183030381529060405280519060200120828051906020012014610783576040517f08c379a000000000000000000000000000000000000000000000000000000000815260040161077a90612957565b60405180910390fd5b5050505050565b606080606084905060606040518060200160405280600081525090506000809050606060405180602001604052806000815250905060008090505b60018551038110156108ce57877effffffffffffffffffffffffffffffffffffffffffffffffffffffffffffff191685828151811061080057fe5b602001015160f81c60f81b7effffffffffffffffffffffffffffffffffffffffffffffffffffffffffffff1916141561083c576001925061087d565b8261087c578385828151811061084e57fe5b602001015160f81c60f81b60405160200161086a929190612666565b60405160208183030381529060405293505b5b82156108c1578185600183018151811061089357fe5b602001015160f81c60f81b6040516020016108af929190612666565b60405160208183030381529060405291505b80806001019150506107c5565b50828195509550505050509250929050565b6040518060400160405280601a81526020017f19457468657265756d205369676e6564204d6573736167653a0a00000000000081525081565b606060006060610927611834565b600160009054906101000a900473ffffffffffffffffffffffffffffffffffffffff1673ffffffffffffffffffffffffffffffffffffffff1663a2dd3d47876040518263ffffffff1660e01b815260040161098291906127ad565b60006040518083038186803b15801561099a57600080fd5b505afa1580156109ae573d6000803e3d6000fd5b505050506040513d6000823e3d601f19601f820116820180604052506109d791908101906120bf565b9050806040015173ffffffffffffffffffffffffffffffffffffffff1685604051602401610a0591906127ad565b6040516020818303038152906040527fa2dd3d47000000000000000000000000000000000000000000000000000000007bffffffffffffffffffffffffffffffffffffffffffffffffffffffff19166020820180517bffffffffffffffffffffffffffffffffffffffffffffffffffffffff8381831617835250505050604051610a8f919061264f565b600060405180830381855afa9150503d8060008114610aca576040519150601f19603f3d011682016040523d82523d6000602084013e610acf565b606091505b50809350819450505082610b18576040517f08c379a0000000000000000000000000000000000000000000000000000000008152600401610b0f906129b7565b60405180910390fd5b81935050505092915050565b610b2c6118a8565b6000610b398585856117cb565b9050600260008281526020019081526020016000206040518060600160405290816000820160009054906101000a900473ffffffffffffffffffffffffffffffffffffffff1673ffffffffffffffffffffffffffffffffffffffff1673ffffffffffffffffffffffffffffffffffffffff1681526020016000820160149054906101000a900467ffffffffffffffff1667ffffffffffffffff1667ffffffffffffffff1681526020016001820154815250509150509392505050565b60036020528060005260406000206000915090508054600181600116156101000203166002900480601f016020809104026020016040519081016040528092919081815260200182805460018160011615610100020316600290048015610c9d5780601f10610c7257610100808354040283529160200191610c9d565b820191906000526020600020905b815481529060010190602001808311610c8057829003601f168201915b505050505081565b600060606000610cb68686866117cb565b90506002600082815260200190815260200160002060010154610cef876002600085815260200190815260200160002060010154610919565b9250925050935093915050565b600160009054906101000a900473ffffffffffffffffffffffffffffffffffffffff1681565b60005481565b600080610d368585856117cb565b905060026000828152602001908152602001600020600101549150509392505050565b600060f81b7effffffffffffffffffffffffffffffffffffffffffffffffffffffffffffff1916847effffffffffffffffffffffffffffffffffffffffffffffffffffffffffffff19161415610dae57600080fd5b60001515610dbc848661040d565b151514610dfe576040517f08c379a0000000000000000000000000000000000000000000000000000000008152600401610df590612997565b60405180910390fd5b6000610e0b8686866117cb565b905060006002600083815260200190815260200160002060000160149054906101000a900467ffffffffffffffff1690506000610e4f888888886001870189610370565b9050600073ffffffffffffffffffffffffffffffffffffffff168173ffffffffffffffffffffffffffffffffffffffff161415610ec1576040517f08c379a0000000000000000000000000000000000000000000000000000000008152600401610eb8906129f7565b60405180910390fd5b60008060001b8614905060008073ffffffffffffffffffffffffffffffffffffffff166002600087815260200190815260200160002060000160009054906101000a900473ffffffffffffffffffffffffffffffffffffffff1673ffffffffffffffffffffffffffffffffffffffff161415905060008373ffffffffffffffffffffffffffffffffffffffff166002600088815260200190815260200160002060000160009054906101000a900473ffffffffffffffffffffffffffffffffffffffff1673ffffffffffffffffffffffffffffffffffffffff16149050828015610fa9575081155b15610fe9576040517f08c379a0000000000000000000000000000000000000000000000000000000008152600401610fe090612937565b60405180910390fd5b828015610ff35750805b156110d557600061101a8c600260008a815260200190815260200160002060010154611801565b905060026000888152602001908152602001600020600080820160006101000a81549073ffffffffffffffffffffffffffffffffffffffff02191690556000820160146101000a81549067ffffffffffffffff02191690556001820160009055505060036000828152602001908152602001600020600061109b91906118ec565b888c7f9656298cd4fb507d90f509d326f56a59bbd242caf3ca08686893f64f95994b9e60405160405180910390a350505050505050611383565b6110df8b896104a2565b816111bb5760405180606001604052808573ffffffffffffffffffffffffffffffffffffffff168152602001600067ffffffffffffffff168152602001898152506002600088815260200190815260200160002060008201518160000160006101000a81548173ffffffffffffffffffffffffffffffffffffffff021916908373ffffffffffffffffffffffffffffffffffffffff16021790555060208201518160000160146101000a81548167ffffffffffffffff021916908367ffffffffffffffff1602179055506040820151816001015590505061125b565b806111fb576040517f08c379a00000000000000000000000000000000000000000000000000000000081526004016111f2906129d7565b60405180910390fd5b600061121d8c600260008a815260200190815260200160002060010154611801565b905088600260008981526020019081526020016000206001018190555060036000828152602001908152602001600020600061125991906118ec565b505b898960405160200161126e9291906125c2565b6040516020818303038152906040526003600061128b8e8c611801565b815260200190815260200160002090805190602001906112ac929190611934565b5060016002600088815260200190815260200160002060000160148282829054906101000a900467ffffffffffffffff160192506101000a81548167ffffffffffffffff021916908367ffffffffffffffff160217905550878b7f9656298cd4fb507d90f509d326f56a59bbd242caf3ca08686893f64f95994b9e60405160405180910390a36002600087815260200190815260200160002060000160149054906101000a900467ffffffffffffffff1667ffffffffffffffff166001860167ffffffffffffffff161461137c57fe5b5050505050505b5050505050565b60026020528060005260406000206000915090508060000160009054906101000a900473ffffffffffffffffffffffffffffffffffffffff16908060000160149054906101000a900467ffffffffffffffff16908060010154905083565b6060600360006113f88585611801565b81526020019081526020016000208054600181600116156101000203166002900480601f01602080910402602001604051908101604052809291908181526020018280546001816001161561010002031660029004801561149a5780601f1061146f5761010080835404028352916020019161149a565b820191906000526020600020905b81548152906001019060200180831161147d57829003601f168201915b5050505050905092915050565b60606000808314156114db577f30000000000000000000000000000000000000000000000000000000000000009050611543565b5b6000831115611542576101008160001c816114f357fe5b0460001b90507f01000000000000000000000000000000000000000000000000000000000000006030600a858161152657fe5b06010260001b81179050600a838161153a57fe5b0492506114dc565b5b606060206040519080825280601f01601f1916602001820160405280156115795781602001600182028038833980820191505090505b509050600080905060008090505b60208110156116235760008160080260020a8560001c0260001b9050600060f81b817effffffffffffffffffffffffffffffffffffffffffffffffffffffffffffff19161461161557808483815181106115dd57fe5b60200101907effffffffffffffffffffffffffffffffffffffffffffffffffffffffffffff1916908160001a90535082806001019350505b508080600101915050611587565b506060816040519080825280601f01601f1916602001820160405280156116595781602001600182028038833980820191505090505b50905060008090505b828110156116c95783818151811061167657fe5b602001015160f81c60f81b82828151811061168d57fe5b60200101907effffffffffffffffffffffffffffffffffffffffffffffffffffffffffffff1916908160001a9053508080600101915050611662565b5080945050505050919050565b600060418251146116e657600080fd5b60008060006020850151925060408501519150606085015160001a9050601b8160ff16101561171657601b810190505b601b8160ff16148061172b5750601c8160ff16145b61173457600080fd5b6001868285856040516000815260200160405260405161175794939291906127f8565b6020604051602081039080840390855afa158015611779573d6000803e3d6000fd5b505050602060405103519350600073ffffffffffffffffffffffffffffffffffffffff168473ffffffffffffffffffffffffffffffffffffffff1614156117bf57600080fd5b83935050505092915050565b60008383836040516020016117e2939291906125ea565b6040516020818303038152906040528051906020012090509392505050565b60008282604051602001611816929190612623565b60405160208183030381529060405280519060200120905092915050565b6040518061010001604052806000600281111561184d57fe5b81526020016000600681111561185f57fe5b8152602001600073ffffffffffffffffffffffffffffffffffffffff16815260200160008019168152602001606081526020016060815260200160608152602001606081525090565b6040518060600160405280600073ffffffffffffffffffffffffffffffffffffffff168152602001600067ffffffffffffffff168152602001600080191681525090565b50805460018160011615610100020316600290046000825580601f106119125750611931565b601f01602090049060005260206000209081019061193091906119b4565b5b50565b828054600181600116156101000203166002900490600052602060002090601f016020900481019282601f1061197557805160ff19168380011785556119a3565b828001600101855582156119a3579182015b828111156119a2578251825591602001919060010190611987565b5b5090506119b091906119b4565b5090565b6119d691905b808211156119d25760008160009055506001016119ba565b5090565b90565b60006119e58251612c51565b905092915050565b600082601f8301126119fe57600080fd5b8151611a11611a0c82612a7a565b612a4d565b9150818183526020840193506020810190508360005b83811015611a575781518601611a3d8882611ba1565b845260208401935060208301925050600181019050611a27565b5050505092915050565b600082601f830112611a7257600080fd5b8151611a85611a8082612aa2565b612a4d565b9150818183526020840193506020810190508360005b83811015611acb5781518601611ab18882611d6f565b845260208401935060208301925050600181019050611a9b565b5050505092915050565b6000611ae18235612c63565b905092915050565b6000611af58235612c8f565b905092915050565b6000611b098251612c8f565b905092915050565b600082601f830112611b2257600080fd5b8135611b35611b3082612aca565b612a4d565b91508082526020830160208301858383011115611b5157600080fd5b611b5c838284612d36565b50505092915050565b6000611b718251612c99565b905092915050565b6000611b858251612cb0565b905092915050565b6000611b998251612cc7565b905092915050565b600082601f830112611bb257600080fd5b8151611bc5611bc082612af6565b612a4d565b91508082526020830160208301858383011115611be157600080fd5b611bec838284612d45565b50505092915050565b600082601f830112611c0657600080fd5b8135611c19611c1482612b22565b612a4d565b91508082526020830160208301858383011115611c3557600080fd5b611c40838284612d36565b50505092915050565b60006101008284031215611c5c57600080fd5b611c67610100612a4d565b90506000611c7784828501611b65565b6000830152506020611c8b84828501611b79565b6020830152506040611c9f848285016119d9565b6040830152506060611cb384828501611afd565b606083015250608082015167ffffffffffffffff811115611cd357600080fd5b611cdf84828501611ba1565b60808301525060a082015167ffffffffffffffff811115611cff57600080fd5b611d0b84828501611a61565b60a08301525060c082015167ffffffffffffffff811115611d2b57600080fd5b611d3784828501611a61565b60c08301525060e082015167ffffffffffffffff811115611d5757600080fd5b611d6384828501611a61565b60e08301525092915050565b600060808284031215611d8157600080fd5b611d8b6080612a4d565b9050600082015167ffffffffffffffff811115611da757600080fd5b611db384828501611ba1565b600083015250602082015167ffffffffffffffff811115611dd357600080fd5b611ddf84828501611ba1565b6020830152506040611df384828501611b8d565b604083015250606082015167ffffffffffffffff811115611e1357600080fd5b611e1f848285016119ed565b60608301525092915050565b6000611e378235612cfe565b905092915050565b600060208284031215611e5157600080fd5b6000611e5f84828501611ae9565b91505092915050565b600080600060608486031215611e7d57600080fd5b6000611e8b86828701611ae9565b9350506020611e9c86828701611ad5565b925050604084013567ffffffffffffffff811115611eb957600080fd5b611ec586828701611bf5565b9150509250925092565b600080600080600060a08688031215611ee757600080fd5b6000611ef588828901611ae9565b9550506020611f0688828901611ad5565b945050604086013567ffffffffffffffff811115611f2357600080fd5b611f2f88828901611bf5565b9350506060611f4088828901611ae9565b925050608086013567ffffffffffffffff811115611f5d57600080fd5b611f6988828901611b11565b9150509295509295909350565b60008060008060008060c08789031215611f8f57600080fd5b6000611f9d89828a01611ae9565b9650506020611fae89828a01611ad5565b955050604087013567ffffffffffffffff811115611fcb57600080fd5b611fd789828a01611bf5565b9450506060611fe889828a01611ae9565b9350506080611ff989828a01611e2b565b92505060a087013567ffffffffffffffff81111561201657600080fd5b61202289828a01611b11565b9150509295509295509295565b6000806040838503121561204257600080fd5b600061205085828601611ae9565b925050602061206185828601611ae9565b9150509250929050565b6000806040838503121561207e57600080fd5b600083013567ffffffffffffffff81111561209857600080fd5b6120a485828601611bf5565b92505060206120b585828601611ad5565b9150509250929050565b6000602082840312156120d157600080fd5b600082015167ffffffffffffffff8111156120eb57600080fd5b6120f784828501611c49565b91505092915050565b61210981612bb2565b82525050565b61211881612bb2565b82525050565b61212f61212a82612bb2565b612d78565b82525050565b61213e81612bc4565b82525050565b61215561215082612bd0565b612d8a565b82525050565b61216481612bfc565b82525050565b61217381612bfc565b82525050565b61218a61218582612bfc565b612d94565b82525050565b600061219b82612b59565b6121a58185612b7a565b93506121b5818560208601612d45565b6121be81612dcc565b840191505092915050565b60006121d482612b59565b6121de8185612b8b565b93506121ee818560208601612d45565b80840191505092915050565b600061220582612b4e565b61220f8185612b7a565b935061221f818560208601612d45565b61222881612dcc565b840191505092915050565b61223c81612d12565b82525050565b600061224d82612b6f565b6122578185612b96565b9350612267818560208601612d45565b61227081612dcc565b840191505092915050565b600061228682612b6f565b6122908185612ba7565b93506122a0818560208601612d45565b80840191505092915050565b60006122b782612b64565b6122c18185612b96565b93506122d1818560208601612d45565b6122da81612dcc565b840191505092915050565b60006122f082612b64565b6122fa8185612ba7565b935061230a818560208601612d45565b80840191505092915050565b6000612323600f83612b96565b91507f496e6578697374656e74207479706500000000000000000000000000000000006000830152602082019050919050565b6000612363601083612b96565b91507f416c696173206973206e6f7420736574000000000000000000000000000000006000830152602082019050919050565b60006123a3600a83612b96565b91507f4e6f742073746f726564000000000000000000000000000000000000000000006000830152602082019050919050565b60006123e3600f83612b96565b91507f697353746f726564206661696c656400000000000000000000000000000000006000830152602082019050919050565b6000612423601783612b96565b91507f4e616d6520636f6e7461696e7320736570617261746f720000000000000000006000830152602082019050919050565b6000612463601383612b96565b91507f53746f726167652063616c6c206661696c6564000000000000000000000000006000830152602082019050919050565b60006124a3600983612b96565b91507f4e6f74206f776e657200000000000000000000000000000000000000000000006000830152602082019050919050565b60006124e3600983612b96565b91507f4e6f207369676e657200000000000000000000000000000000000000000000006000830152602082019050919050565b60608201600082015161252c6000850182612100565b50602082015161253f602085018261257e565b506040820151612552604085018261215b565b50505050565b61256181612c26565b82525050565b61257861257382612c26565b612db0565b82525050565b61258781612c30565b82525050565b61259681612c30565b82525050565b6125ad6125a882612c30565b612dba565b82525050565b6125bc81612c44565b82525050565b60006125ce8285612144565b6001820191506125de828461227b565b91508190509392505050565b60006125f68286612179565b6020820191506126068285612144565b600182019150612616828461227b565b9150819050949350505050565b600061262f8285612179565b60208201915061263f8284612179565b6020820191508190509392505050565b600061265b82846121c9565b915081905092915050565b600061267282856121c9565b915061267e8284612144565b6001820191508190509392505050565b600061269a828c6122e5565b91506126a6828b61227b565b91506126b2828a61211e565b6014820191506126c28289612567565b6020820191506126d28288612179565b6020820191506126e28287612179565b6020820191506126f2828661259c565b6008820191506127028285612144565b600182019150612712828461227b565b91508190509a9950505050505050505050565b60006127318284612567565b60208201915081905092915050565b6000602082019050612755600083018461210f565b92915050565b6000606082019050612770600083018661210f565b61277d602083018561258d565b61278a604083018461216a565b949350505050565b60006020820190506127a76000830184612135565b92915050565b60006020820190506127c2600083018461216a565b92915050565b60006040820190506127dd600083018561216a565b81810360208301526127ef8184612190565b90509392505050565b600060808201905061280d600083018761216a565b61281a60208301866125b3565b612827604083018561216a565b612834606083018461216a565b95945050505050565b6000602082019050818103600083015261285781846121fa565b905092915050565b600060208201905081810360008301526128798184612190565b905092915050565b60006020820190506128966000830184612233565b92915050565b600060208201905081810360008301526128b681846122ac565b905092915050565b600060208201905081810360008301526128d88184612242565b905092915050565b600060408201905081810360008301526128fa8185612242565b9050818103602083015261290e8184612242565b90509392505050565b6000602082019050818103600083015261293081612316565b9050919050565b6000602082019050818103600083015261295081612356565b9050919050565b6000602082019050818103600083015261297081612396565b9050919050565b60006020820190508181036000830152612990816123d6565b9050919050565b600060208201905081810360008301526129b081612416565b9050919050565b600060208201905081810360008301526129d081612456565b9050919050565b600060208201905081810360008301526129f081612496565b9050919050565b60006020820190508181036000830152612a10816124d6565b9050919050565b6000606082019050612a2c6000830184612516565b92915050565b6000602082019050612a476000830184612558565b92915050565b6000604051905081810181811067ffffffffffffffff82111715612a7057600080fd5b8060405250919050565b600067ffffffffffffffff821115612a9157600080fd5b602082029050602081019050919050565b600067ffffffffffffffff821115612ab957600080fd5b602082029050602081019050919050565b600067ffffffffffffffff821115612ae157600080fd5b601f19601f8301169050602081019050919050565b600067ffffffffffffffff821115612b0d57600080fd5b601f19601f8301169050602081019050919050565b600067ffffffffffffffff821115612b3957600080fd5b601f19601f8301169050602081019050919050565b600081519050919050565b600081519050919050565b600081519050919050565b600081519050919050565b600082825260208201905092915050565b600081905092915050565b600082825260208201905092915050565b600081905092915050565b6000612bbd82612c06565b9050919050565b60008115159050919050565b60007fff0000000000000000000000000000000000000000000000000000000000000082169050919050565b6000819050919050565b600073ffffffffffffffffffffffffffffffffffffffff82169050919050565b6000819050919050565b600067ffffffffffffffff82169050919050565b600060ff82169050919050565b6000612c5c82612cde565b9050919050565b60007fff0000000000000000000000000000000000000000000000000000000000000082169050919050565b6000819050919050565b600060038210612ca857600080fd5b819050919050565b600060078210612cbf57600080fd5b819050919050565b600060038210612cd657600080fd5b819050919050565b600073ffffffffffffffffffffffffffffffffffffffff82169050919050565b600067ffffffffffffffff82169050919050565b6000612d1d82612d24565b9050919050565b6000612d2f82612c06565b9050919050565b82818337600083830152505050565b60005b83811015612d63578082015181840152602081019050612d48565b83811115612d72576000848401525b50505050565b6000612d8382612d9e565b9050919050565b6000819050919050565b6000819050919050565b6000612da982612dea565b9050919050565b6000819050919050565b6000612dc582612ddd565b9050919050565b6000601f19601f8301169050919050565b60008160c01b9050919050565b60008160601b905091905056fea265627a7a723058206dbaa5251d64466f87039bc295086951857617dda1679f7362516357ab255cb16c6578706572696d656e74616cf50037",
  "source": "pragma solidity ^0.5.0;\npragma experimental ABIEncoderV2;\n\nimport './lib/ECVerify.sol';\nimport './dTypeInterface.sol';\nimport './dTypeLib.sol';\n\ncontract Alias {\n    // general domain separation: domain.subdomain.leafsubdomain.resource\n    // actor-related data: alice@socialnetwork.profile\n    // identifying concepts: topicX#postY\n    // general resource path definition: resourceRoot/resource\n\n    string public constant signaturePrefix = '\\x19Ethereum Signed Message:\\n';\n    uint256 public chainId;\n    dTypeInterface public dType;\n\n    struct Alias {\n        address owner;\n        uint64 nonce;\n        bytes32 identifier;\n    }\n\n    // key: keccak256(dTypeIdentifier, separator, name)\n    mapping(bytes32 => Alias) public aliases;\n\n    // reverse alias\n    // key: keccak256(dTypeIdentifier, identifier)\n    // value: abi.encodePacked(separator, name)\n    mapping(bytes32 => bytes) public reversealias;\n\n    event AliasSet(bytes32 indexed dTypeIdentifier, bytes32 indexed identifier);\n\n    constructor(address _dTypeAddress, uint256 _chainId) public {\n        require(_dTypeAddress != address(0x0));\n        require(_chainId > 0);\n\n        dType = dTypeInterface(_dTypeAddress);\n        chainId = _chainId;\n    }\n\n    function setAlias(bytes32 dTypeIdentifier, bytes1 separator, string memory name, bytes32 identifier, bytes memory signature) public {\n        require(separator != bytes1(0));\n        require(checkCharExists(name, separator) == false, 'Name contains separator');\n\n        bytes32 key = getKey(dTypeIdentifier, separator, name);\n        uint64 nonce = aliases[key].nonce;\n        address owner = recoverAddress(dTypeIdentifier, separator, name, identifier, nonce + 1, signature);\n        require(owner != address(0), 'No signer');\n\n        bool remove = identifier == bytes32(0);\n        bool exists = aliases[key].owner != address(0);\n        bool isOwner = aliases[key].owner == owner;\n\n        if (remove && !exists) revert('Alias is not set');\n\n        if (remove && isOwner) {\n            bytes32 reverseKey = getReverseKey(dTypeIdentifier, aliases[key].identifier);\n            delete aliases[key];\n            delete reversealias[reverseKey];\n            emit AliasSet(dTypeIdentifier, identifier);\n            return;\n        }\n\n        // Check if dtypeIdentifier exists, check if data identifier is in the storage contract\n        // And data is owned by the signer\n        checkdType(dTypeIdentifier, identifier);\n\n        if (!exists) {\n            aliases[key] = Alias(owner, 0, identifier);\n        } else {\n            require(isOwner, 'Not owner');\n            bytes32 reverseKey = getReverseKey(dTypeIdentifier, aliases[key].identifier);\n            aliases[key].identifier = identifier;\n            delete reversealias[reverseKey];\n        }\n        reversealias[getReverseKey(dTypeIdentifier, identifier)] = abi.encodePacked(separator, name);\n        aliases[key].nonce += 1;\n        emit AliasSet(dTypeIdentifier, identifier);\n\n        assert(nonce + 1 == aliases[key].nonce);\n    }\n\n    function checkdType(bytes32 dTypeIdentifier, bytes32 identifier) view public {\n        bool success;\n        bytes memory result;\n\n        dTypeLib.dType memory typedata = dType.getByHash(dTypeIdentifier);\n        require(typedata.contractAddress != address(0), 'Inexistent type');\n\n        (success, result) = typedata.contractAddress.staticcall(abi.encodeWithSignature('isStored(bytes32)', identifier));\n        require(success, 'isStored failed');\n        require(keccak256(result) == keccak256(abi.encodePacked(uint256(1))), 'Not stored');\n\n        // TODO check ownership\n    }\n\n    function getdTypeData(bytes32 dTypeIdentifier, bytes32 identifier) view public returns(bytes memory data) {\n        bool success;\n        bytes memory result;\n\n        dTypeLib.dType memory typedata = dType.getByHash(dTypeIdentifier);\n        (success, result) = typedata.contractAddress.staticcall(abi.encodeWithSignature('getByHash(bytes32)', identifier));\n        require(success, 'Storage call failed');\n        return result;\n    }\n\n    function getAliased(bytes32 dTypeIdentifier, bytes1 separator, string memory name) view public returns (bytes32 identifier) {\n        bytes32 key = getKey(dTypeIdentifier, separator, name);\n        return aliases[key].identifier;\n    }\n\n    function getReverse(bytes32 dTypeIdentifier, bytes32 identifier) view public returns (string memory) {\n        return string(reversealias[getReverseKey(dTypeIdentifier, identifier)]);\n    }\n\n    // TODO remove\n    function getAlias(bytes32 dTypeIdentifier, bytes1 separator, string memory name) view public returns(bytes32 identifier, bytes memory data) {\n        bytes32 key = getKey(dTypeIdentifier, separator, name);\n        return (aliases[key].identifier, getdTypeData(dTypeIdentifier, aliases[key].identifier));\n    }\n\n    function getAliasedData(bytes32 dTypeIdentifier, bytes1 separator, string memory name) view public returns (Alias memory aliasdata) {\n        bytes32 key = getKey(dTypeIdentifier, separator, name);\n        return aliases[key];\n    }\n\n    function getKey(bytes32 dTypeIdentifier, bytes1 separator, string memory name) pure internal returns (bytes32 key) {\n        return keccak256(abi.encodePacked(dTypeIdentifier, separator, name));\n    }\n\n    function getReverseKey(bytes32 dTypeIdentifier, bytes32 identifier) pure internal returns (bytes32 key) {\n        return keccak256(abi.encodePacked(dTypeIdentifier, identifier));\n    }\n\n    function checkCharExists(string memory name, bytes1 char) pure public returns (bool exists) {\n        bytes memory encoded = bytes(name);\n        for (uint256 i = 0; i < encoded.length; i++) {\n            if (encoded[i] == char) {\n                exists = true;\n            }\n        }\n        return exists;\n    }\n\n    function strSplit( string memory name, bytes1 separator) public pure returns(string memory name1, string memory name2) {\n        bytes memory nameb = bytes(name);\n        bytes memory name1b = \"\";\n        bool done1 = false;\n        bytes memory name2b = \"\";\n        for (uint256 i = 0; i < nameb.length - 1; i++){\n            if (nameb[i] == separator){\n                done1 = true;\n            } else if (!done1) {\n                name1b = abi.encodePacked(name1b, nameb[i]);\n            }\n            if (done1) {\n                name2b = abi.encodePacked(name2b, nameb[i+1]);\n            }\n        }\n        return (string(name1b), string(name2b));\n\n    }\n\n    function recoverAddress(\n        bytes32 dTypeIdentifier,\n        bytes1 separator,\n        string memory name,\n        bytes32 identifier,\n        uint64 nonce,\n        bytes memory signature\n    )\n        public\n        view\n        returns(address signer)\n    {\n        // 20 + 32 + 32 + 32 + 8 + 1 = 125\n        string memory message_length = uintToString(125 + bytes(name).length);\n\n        bytes memory data = abi.encodePacked(\n          signaturePrefix,\n          message_length,\n          address(this),\n          chainId,\n          dTypeIdentifier,\n          identifier,\n          nonce,\n          separator,\n          name\n        );\n        signer = ECVerify.ecverify(keccak256(data), signature);\n    }\n\n    function uintToString(\n        uint v)\n        internal\n        pure\n        returns (string memory)\n    {\n        bytes32 ret;\n        if (v == 0) {\n            ret = '0';\n        }\n        else {\n             while (v > 0) {\n                ret = bytes32(uint(ret) / (2 ** 8));\n                ret |= bytes32(((v % 10) + 48) * 2 ** (8 * 31));\n                v /= 10;\n            }\n        }\n\n        bytes memory bytesString = new bytes(32);\n        uint charCount = 0;\n        for (uint256 j=0; j<32; j++) {\n            byte char = byte(bytes32(uint(ret) * 2 ** (8 * j)));\n            if (char != 0) {\n                bytesString[j] = char;\n                charCount++;\n            }\n        }\n        bytes memory bytesStringTrimmed = new bytes(charCount);\n        for (uint256 j = 0; j < charCount; j++) {\n            bytesStringTrimmed[j] = bytesString[j];\n        }\n\n        return string(bytesStringTrimmed);\n    }\n}\n",
  "sourcePath": "/Users/loredana/ETH/dType/contracts/contracts/Alias.sol",
  "compiler": {
    "name": "solc",
    "version": "0.5.7+commit.6da8b019.Emscripten.clang"
  },
  "schemaVersion": "3.0.11",
  "updatedAt": "2019-07-28T11:10:53.965Z",
  "devdoc": {
    "methods": {}
  },
  "userdoc": {
    "methods": {}
  }
}