{
  "contractName": "Alias",
  "abi": [
    {
      "constant": true,
      "inputs": [],
      "name": "signaturePrefix",
      "outputs": [
        {
          "name": "",
          "type": "string"
        }
      ],
      "payable": false,
      "stateMutability": "view",
      "type": "function"
    },
    {
      "constant": true,
      "inputs": [
        {
          "name": "",
          "type": "bytes32"
        }
      ],
      "name": "reversealias",
      "outputs": [
        {
          "name": "",
          "type": "bytes"
        }
      ],
      "payable": false,
      "stateMutability": "view",
      "type": "function"
    },
    {
      "constant": true,
      "inputs": [],
      "name": "dType",
      "outputs": [
        {
          "name": "",
          "type": "address"
        }
      ],
      "payable": false,
      "stateMutability": "view",
      "type": "function"
    },
    {
      "constant": true,
      "inputs": [],
      "name": "chainId",
      "outputs": [
        {
          "name": "",
          "type": "uint256"
        }
      ],
      "payable": false,
      "stateMutability": "view",
      "type": "function"
    },
    {
      "constant": true,
      "inputs": [
        {
          "name": "",
          "type": "bytes32"
        }
      ],
      "name": "aliases",
      "outputs": [
        {
          "name": "owner",
          "type": "address"
        },
        {
          "name": "nonce",
          "type": "uint64"
        },
        {
          "name": "identifier",
          "type": "bytes32"
        }
      ],
      "payable": false,
      "stateMutability": "view",
      "type": "function"
    },
    {
      "inputs": [
        {
          "name": "_dTypeAddress",
          "type": "address"
        },
        {
          "name": "_chainId",
          "type": "uint256"
        }
      ],
      "payable": false,
      "stateMutability": "nonpayable",
      "type": "constructor"
    },
    {
      "anonymous": false,
      "inputs": [
        {
          "indexed": true,
          "name": "dTypeIdentifier",
          "type": "bytes32"
        },
        {
          "indexed": true,
          "name": "identifier",
          "type": "bytes32"
        }
      ],
      "name": "AliasSet",
      "type": "event"
    },
    {
      "constant": false,
      "inputs": [
        {
          "name": "dTypeIdentifier",
          "type": "bytes32"
        },
        {
          "name": "separator",
          "type": "bytes1"
        },
        {
          "name": "name",
          "type": "string"
        },
        {
          "name": "identifier",
          "type": "bytes32"
        },
        {
          "name": "signature",
          "type": "bytes"
        }
      ],
      "name": "setAlias",
      "outputs": [],
      "payable": false,
      "stateMutability": "nonpayable",
      "type": "function"
    },
    {
      "constant": true,
      "inputs": [
        {
          "name": "dTypeIdentifier",
          "type": "bytes32"
        },
        {
          "name": "identifier",
          "type": "bytes32"
        }
      ],
      "name": "checkdType",
      "outputs": [],
      "payable": false,
      "stateMutability": "view",
      "type": "function"
    },
    {
      "constant": true,
      "inputs": [
        {
          "name": "dTypeIdentifier",
          "type": "bytes32"
        },
        {
          "name": "identifier",
          "type": "bytes32"
        }
      ],
      "name": "getdTypeData",
      "outputs": [
        {
          "name": "data",
          "type": "bytes"
        }
      ],
      "payable": false,
      "stateMutability": "view",
      "type": "function"
    },
    {
      "constant": true,
      "inputs": [
        {
          "name": "dTypeIdentifier",
          "type": "bytes32"
        },
        {
          "name": "separator",
          "type": "bytes1"
        },
        {
          "name": "name",
          "type": "string"
        }
      ],
      "name": "getAliased",
      "outputs": [
        {
          "name": "identifier",
          "type": "bytes32"
        }
      ],
      "payable": false,
      "stateMutability": "view",
      "type": "function"
    },
    {
      "constant": true,
      "inputs": [
        {
          "name": "dTypeIdentifier",
          "type": "bytes32"
        },
        {
          "name": "identifier",
          "type": "bytes32"
        }
      ],
      "name": "getReverse",
      "outputs": [
        {
          "name": "",
          "type": "string"
        }
      ],
      "payable": false,
      "stateMutability": "view",
      "type": "function"
    },
    {
      "constant": true,
      "inputs": [
        {
          "name": "dTypeIdentifier",
          "type": "bytes32"
        },
        {
          "name": "separator",
          "type": "bytes1"
        },
        {
          "name": "name",
          "type": "string"
        }
      ],
      "name": "getAlias",
      "outputs": [
        {
          "name": "identifier",
          "type": "bytes32"
        },
        {
          "name": "data",
          "type": "bytes"
        }
      ],
      "payable": false,
      "stateMutability": "view",
      "type": "function"
    },
    {
      "constant": true,
      "inputs": [
        {
          "name": "dTypeIdentifier",
          "type": "bytes32"
        },
        {
          "name": "separator",
          "type": "bytes1"
        },
        {
          "name": "name",
          "type": "string"
        }
      ],
      "name": "getAliasedData",
      "outputs": [
        {
          "components": [
            {
              "name": "owner",
              "type": "address"
            },
            {
              "name": "nonce",
              "type": "uint64"
            },
            {
              "name": "identifier",
              "type": "bytes32"
            }
          ],
          "name": "aliasdata",
          "type": "tuple"
        }
      ],
      "payable": false,
      "stateMutability": "view",
      "type": "function"
    },
    {
      "constant": true,
      "inputs": [
        {
          "name": "name",
          "type": "string"
        },
        {
          "name": "char",
          "type": "bytes1"
        }
      ],
      "name": "checkCharExists",
      "outputs": [
        {
          "name": "exists",
          "type": "bool"
        }
      ],
      "payable": false,
      "stateMutability": "pure",
      "type": "function"
    },
    {
      "constant": true,
      "inputs": [
        {
          "name": "name",
          "type": "string"
        },
        {
          "name": "separator",
          "type": "bytes1"
        }
      ],
      "name": "strSplit",
      "outputs": [
        {
          "name": "name1",
          "type": "string"
        },
        {
          "name": "name2",
          "type": "string"
        }
      ],
      "payable": false,
      "stateMutability": "pure",
      "type": "function"
    },
    {
      "constant": true,
      "inputs": [
        {
          "name": "dTypeIdentifier",
          "type": "bytes32"
        },
        {
          "name": "separator",
          "type": "bytes1"
        },
        {
          "name": "name",
          "type": "string"
        },
        {
          "name": "identifier",
          "type": "bytes32"
        },
        {
          "name": "nonce",
          "type": "uint64"
        },
        {
          "name": "signature",
          "type": "bytes"
        }
      ],
      "name": "recoverAddress",
      "outputs": [
        {
          "name": "signer",
          "type": "address"
        }
      ],
      "payable": false,
      "stateMutability": "view",
      "type": "function"
    }
  ],
  "bytecode": "0x60806040523480156200001157600080fd5b5060405160408062002f188339810180604052620000339190810190620000f8565b600073ffffffffffffffffffffffffffffffffffffffff168273ffffffffffffffffffffffffffffffffffffffff1614156200006e57600080fd5b600081116200007c57600080fd5b81600160006101000a81548173ffffffffffffffffffffffffffffffffffffffff021916908373ffffffffffffffffffffffffffffffffffffffff16021790555080600081905550505062000177565b6000620000da825162000139565b905092915050565b6000620000f082516200016d565b905092915050565b600080604083850312156200010c57600080fd5b60006200011c85828601620000cc565b92505060206200012f85828601620000e2565b9150509250929050565b600062000146826200014d565b9050919050565b600073ffffffffffffffffffffffffffffffffffffffff82169050919050565b6000819050919050565b612d9180620001876000396000f3fe608060405234801561001057600080fd5b50600436106100f55760003560e01c80638330dac111610097578063a406275611610066578063a4062756146102c2578063ad3d4072146102f2578063e75118731461030e578063ea7ac42f14610340576100f5565b80638330dac11461022557806386b582b6146102555780639754d9ab146102865780639a8a0592146102a4576100f5565b806335024a97116100d357806335024a9714610176578063429774f4146101a75780634c2de8e0146101c55780636cc80cb1146101f5576100f5565b806315fc2267146100fa5780632d82ed291461012a5780633314f0641461015a575b600080fd5b610114600480360361010f9190810190611f36565b610370565b60405161012191906126c0565b60405180910390f35b610144600480360361013f919081019061202b565b61040d565b6040516101519190612712565b60405180910390f35b610174600480360361016f9190810190611fef565b6104a2565b005b610190600480360361018b919081019061202b565b61078a565b60405161019e929190612860565b60405180910390f35b6101af6108e0565b6040516101bc919061281c565b60405180910390f35b6101df60048036036101da9190810190611fef565b610919565b6040516101ec91906127df565b60405180910390f35b61020f600480360361020a9190810190611e28565b610b24565b60405161021c9190612977565b60405180910390f35b61023f600480360361023a9190810190611dff565b610bf5565b60405161024c91906127bd565b60405180910390f35b61026f600480360361026a9190810190611e28565b610ca5565b60405161027d929190612748565b60405180910390f35b61028e610cfc565b60405161029b9190612801565b60405180910390f35b6102ac610d22565b6040516102b99190612992565b60405180910390f35b6102dc60048036036102d79190810190611e28565b610d28565b6040516102e9919061272d565b60405180910390f35b61030c60048036036103079190810190611e8f565b610d59565b005b61032860048036036103239190810190611dff565b61134a565b604051610337939291906126db565b60405180910390f35b61035a60048036036103559190810190611fef565b6113a8565b604051610367919061283e565b60405180910390f35b600060606103818651607d01611467565b905060606040518060400160405280601a81526020017f19457468657265756d205369676e6564204d6573736167653a0a00000000000081525082306000548c8a8a8e8e6040516020016103dd9998979695949392919061260e565b60405160208183030381529060405290506103ff818051906020012085611696565b925050509695505050505050565b6000606083905060008090505b815181101561049757837effffffffffffffffffffffffffffffffffffffffffffffffffffffffffffff191682828151811061045257fe5b602001015160f81c60f81b7effffffffffffffffffffffffffffffffffffffffffffffffffffffffffffff1916141561048a57600192505b808060010191505061041a565b508191505092915050565b600060606104ae6117f4565b600160009054906101000a900473ffffffffffffffffffffffffffffffffffffffff1673ffffffffffffffffffffffffffffffffffffffff1663a2dd3d47866040518263ffffffff1660e01b8152600401610509919061272d565b60006040518083038186803b15801561052157600080fd5b505afa158015610535573d6000803e3d6000fd5b505050506040513d6000823e3d601f19601f8201168201806040525061055e919081019061207f565b9050600073ffffffffffffffffffffffffffffffffffffffff16816040015173ffffffffffffffffffffffffffffffffffffffff1614156105d4576040517f08c379a00000000000000000000000000000000000000000000000000000000081526004016105cb90612897565b60405180910390fd5b806040015173ffffffffffffffffffffffffffffffffffffffff1684604051602401610600919061272d565b6040516020818303038152906040527f3f42aeab000000000000000000000000000000000000000000000000000000007bffffffffffffffffffffffffffffffffffffffffffffffffffffffff19166020820180517bffffffffffffffffffffffffffffffffffffffffffffffffffffffff838183161783525050505060405161068a91906125cf565b600060405180830381855afa9150503d80600081146106c5576040519150601f19603f3d011682016040523d82523d6000602084013e6106ca565b606091505b50809350819450505082610713576040517f08c379a000000000000000000000000000000000000000000000000000000000815260040161070a906128f7565b60405180910390fd5b600160405160200161072591906126a5565b60405160208183030381529060405280519060200120828051906020012014610783576040517f08c379a000000000000000000000000000000000000000000000000000000000815260040161077a906128d7565b60405180910390fd5b5050505050565b606080606084905060606040518060200160405280600081525090506000809050606060405180602001604052806000815250905060008090505b60018551038110156108ce57877effffffffffffffffffffffffffffffffffffffffffffffffffffffffffffff191685828151811061080057fe5b602001015160f81c60f81b7effffffffffffffffffffffffffffffffffffffffffffffffffffffffffffff1916141561083c576001925061087d565b8261087c578385828151811061084e57fe5b602001015160f81c60f81b60405160200161086a9291906125e6565b60405160208183030381529060405293505b5b82156108c1578185600183018151811061089357fe5b602001015160f81c60f81b6040516020016108af9291906125e6565b60405160208183030381529060405291505b80806001019150506107c5565b50828195509550505050509250929050565b6040518060400160405280601a81526020017f19457468657265756d205369676e6564204d6573736167653a0a00000000000081525081565b6060600060606109276117f4565b600160009054906101000a900473ffffffffffffffffffffffffffffffffffffffff1673ffffffffffffffffffffffffffffffffffffffff1663a2dd3d47876040518263ffffffff1660e01b8152600401610982919061272d565b60006040518083038186803b15801561099a57600080fd5b505afa1580156109ae573d6000803e3d6000fd5b505050506040513d6000823e3d601f19601f820116820180604052506109d7919081019061207f565b9050806040015173ffffffffffffffffffffffffffffffffffffffff1685604051602401610a05919061272d565b6040516020818303038152906040527fa2dd3d47000000000000000000000000000000000000000000000000000000007bffffffffffffffffffffffffffffffffffffffffffffffffffffffff19166020820180517bffffffffffffffffffffffffffffffffffffffffffffffffffffffff8381831617835250505050604051610a8f91906125cf565b600060405180830381855afa9150503d8060008114610aca576040519150601f19603f3d011682016040523d82523d6000602084013e610acf565b606091505b50809350819450505082610b18576040517f08c379a0000000000000000000000000000000000000000000000000000000008152600401610b0f90612937565b60405180910390fd5b81935050505092915050565b610b2c611868565b6000610b3985858561178b565b9050600260008281526020019081526020016000206040518060600160405290816000820160009054906101000a900473ffffffffffffffffffffffffffffffffffffffff1673ffffffffffffffffffffffffffffffffffffffff1673ffffffffffffffffffffffffffffffffffffffff1681526020016000820160149054906101000a900467ffffffffffffffff1667ffffffffffffffff1667ffffffffffffffff1681526020016001820154815250509150509392505050565b60036020528060005260406000206000915090508054600181600116156101000203166002900480601f016020809104026020016040519081016040528092919081815260200182805460018160011615610100020316600290048015610c9d5780601f10610c7257610100808354040283529160200191610c9d565b820191906000526020600020905b815481529060010190602001808311610c8057829003601f168201915b505050505081565b600060606000610cb686868661178b565b90506002600082815260200190815260200160002060010154610cef876002600085815260200190815260200160002060010154610919565b9250925050935093915050565b600160009054906101000a900473ffffffffffffffffffffffffffffffffffffffff1681565b60005481565b600080610d3685858561178b565b905060026000828152602001908152602001600020600101549150509392505050565b600060f81b7effffffffffffffffffffffffffffffffffffffffffffffffffffffffffffff1916847effffffffffffffffffffffffffffffffffffffffffffffffffffffffffffff19161415610dae57600080fd5b60001515610dbc848661040d565b151514610dfe576040517f08c379a0000000000000000000000000000000000000000000000000000000008152600401610df590612917565b60405180910390fd5b6000610e0b86868661178b565b905060006002600083815260200190815260200160002060000160149054906101000a900467ffffffffffffffff1690506000610e4f888888886001870189610370565b9050600073ffffffffffffffffffffffffffffffffffffffff168173ffffffffffffffffffffffffffffffffffffffff161415610ec1576040517f08c379a0000000000000000000000000000000000000000000000000000000008152600401610eb890612957565b60405180910390fd5b60008060001b8614905060008073ffffffffffffffffffffffffffffffffffffffff166002600087815260200190815260200160002060000160009054906101000a900473ffffffffffffffffffffffffffffffffffffffff1673ffffffffffffffffffffffffffffffffffffffff161415905060008373ffffffffffffffffffffffffffffffffffffffff166002600088815260200190815260200160002060000160009054906101000a900473ffffffffffffffffffffffffffffffffffffffff1673ffffffffffffffffffffffffffffffffffffffff16149050828015610fa9575081155b15610fe9576040517f08c379a0000000000000000000000000000000000000000000000000000000008152600401610fe0906128b7565b60405180910390fd5b828015610ff35750805b156110d557600061101a8c600260008a8152602001908152602001600020600101546117c1565b905060026000888152602001908152602001600020600080820160006101000a81549073ffffffffffffffffffffffffffffffffffffffff02191690556000820160146101000a81549067ffffffffffffffff02191690556001820160009055505060036000828152602001908152602001600020600061109b91906118ac565b888c7f9656298cd4fb507d90f509d326f56a59bbd242caf3ca08686893f64f95994b9e60405160405180910390a350505050505050611343565b6110df8b896104a2565b816111bb5760405180606001604052808573ffffffffffffffffffffffffffffffffffffffff168152602001600067ffffffffffffffff168152602001898152506002600088815260200190815260200160002060008201518160000160006101000a81548173ffffffffffffffffffffffffffffffffffffffff021916908373ffffffffffffffffffffffffffffffffffffffff16021790555060208201518160000160146101000a81548167ffffffffffffffff021916908367ffffffffffffffff1602179055506040820151816001015590505061121b565b60006111dd8c600260008a8152602001908152602001600020600101546117c1565b905088600260008981526020019081526020016000206001018190555060036000828152602001908152602001600020600061121991906118ac565b505b898960405160200161122e929190612542565b6040516020818303038152906040526003600061124b8e8c6117c1565b8152602001908152602001600020908051906020019061126c9291906118f4565b5060016002600088815260200190815260200160002060000160148282829054906101000a900467ffffffffffffffff160192506101000a81548167ffffffffffffffff021916908367ffffffffffffffff160217905550878b7f9656298cd4fb507d90f509d326f56a59bbd242caf3ca08686893f64f95994b9e60405160405180910390a36002600087815260200190815260200160002060000160149054906101000a900467ffffffffffffffff1667ffffffffffffffff166001860167ffffffffffffffff161461133c57fe5b5050505050505b5050505050565b60026020528060005260406000206000915090508060000160009054906101000a900473ffffffffffffffffffffffffffffffffffffffff16908060000160149054906101000a900467ffffffffffffffff16908060010154905083565b6060600360006113b885856117c1565b81526020019081526020016000208054600181600116156101000203166002900480601f01602080910402602001604051908101604052809291908181526020018280546001816001161561010002031660029004801561145a5780601f1061142f5761010080835404028352916020019161145a565b820191906000526020600020905b81548152906001019060200180831161143d57829003601f168201915b5050505050905092915050565b606060008083141561149b577f30000000000000000000000000000000000000000000000000000000000000009050611503565b5b6000831115611502576101008160001c816114b357fe5b0460001b90507f01000000000000000000000000000000000000000000000000000000000000006030600a85816114e657fe5b06010260001b81179050600a83816114fa57fe5b04925061149c565b5b606060206040519080825280601f01601f1916602001820160405280156115395781602001600182028038833980820191505090505b509050600080905060008090505b60208110156115e35760008160080260020a8560001c0260001b9050600060f81b817effffffffffffffffffffffffffffffffffffffffffffffffffffffffffffff1916146115d5578084838151811061159d57fe5b60200101907effffffffffffffffffffffffffffffffffffffffffffffffffffffffffffff1916908160001a90535082806001019350505b508080600101915050611547565b506060816040519080825280601f01601f1916602001820160405280156116195781602001600182028038833980820191505090505b50905060008090505b828110156116895783818151811061163657fe5b602001015160f81c60f81b82828151811061164d57fe5b60200101907effffffffffffffffffffffffffffffffffffffffffffffffffffffffffffff1916908160001a9053508080600101915050611622565b5080945050505050919050565b600060418251146116a657600080fd5b60008060006020850151925060408501519150606085015160001a9050601b8160ff1610156116d657601b810190505b601b8160ff1614806116eb5750601c8160ff16145b6116f457600080fd5b600186828585604051600081526020016040526040516117179493929190612778565b6020604051602081039080840390855afa158015611739573d6000803e3d6000fd5b505050602060405103519350600073ffffffffffffffffffffffffffffffffffffffff168473ffffffffffffffffffffffffffffffffffffffff16141561177f57600080fd5b83935050505092915050565b60008383836040516020016117a29392919061256a565b6040516020818303038152906040528051906020012090509392505050565b600082826040516020016117d69291906125a3565b60405160208183030381529060405280519060200120905092915050565b6040518061010001604052806000600281111561180d57fe5b81526020016000600681111561181f57fe5b8152602001600073ffffffffffffffffffffffffffffffffffffffff16815260200160008019168152602001606081526020016060815260200160608152602001606081525090565b6040518060600160405280600073ffffffffffffffffffffffffffffffffffffffff168152602001600067ffffffffffffffff168152602001600080191681525090565b50805460018160011615610100020316600290046000825580601f106118d257506118f1565b601f0160209004906000526020600020908101906118f09190611974565b5b50565b828054600181600116156101000203166002900490600052602060002090601f016020900481019282601f1061193557805160ff1916838001178555611963565b82800160010185558215611963579182015b82811115611962578251825591602001919060010190611947565b5b5090506119709190611974565b5090565b61199691905b8082111561199257600081600090555060010161197a565b5090565b90565b60006119a58251612bb1565b905092915050565b600082601f8301126119be57600080fd5b81516119d16119cc826129da565b6129ad565b9150818183526020840193506020810190508360005b83811015611a1757815186016119fd8882611b61565b8452602084019350602083019250506001810190506119e7565b5050505092915050565b600082601f830112611a3257600080fd5b8151611a45611a4082612a02565b6129ad565b9150818183526020840193506020810190508360005b83811015611a8b5781518601611a718882611d2f565b845260208401935060208301925050600181019050611a5b565b5050505092915050565b6000611aa18235612bc3565b905092915050565b6000611ab58235612bef565b905092915050565b6000611ac98251612bef565b905092915050565b600082601f830112611ae257600080fd5b8135611af5611af082612a2a565b6129ad565b91508082526020830160208301858383011115611b1157600080fd5b611b1c838284612c96565b50505092915050565b6000611b318251612bf9565b905092915050565b6000611b458251612c10565b905092915050565b6000611b598251612c27565b905092915050565b600082601f830112611b7257600080fd5b8151611b85611b8082612a56565b6129ad565b91508082526020830160208301858383011115611ba157600080fd5b611bac838284612ca5565b50505092915050565b600082601f830112611bc657600080fd5b8135611bd9611bd482612a82565b6129ad565b91508082526020830160208301858383011115611bf557600080fd5b611c00838284612c96565b50505092915050565b60006101008284031215611c1c57600080fd5b611c276101006129ad565b90506000611c3784828501611b25565b6000830152506020611c4b84828501611b39565b6020830152506040611c5f84828501611999565b6040830152506060611c7384828501611abd565b606083015250608082015167ffffffffffffffff811115611c9357600080fd5b611c9f84828501611b61565b60808301525060a082015167ffffffffffffffff811115611cbf57600080fd5b611ccb84828501611a21565b60a08301525060c082015167ffffffffffffffff811115611ceb57600080fd5b611cf784828501611a21565b60c08301525060e082015167ffffffffffffffff811115611d1757600080fd5b611d2384828501611a21565b60e08301525092915050565b600060808284031215611d4157600080fd5b611d4b60806129ad565b9050600082015167ffffffffffffffff811115611d6757600080fd5b611d7384828501611b61565b600083015250602082015167ffffffffffffffff811115611d9357600080fd5b611d9f84828501611b61565b6020830152506040611db384828501611b4d565b604083015250606082015167ffffffffffffffff811115611dd357600080fd5b611ddf848285016119ad565b60608301525092915050565b6000611df78235612c5e565b905092915050565b600060208284031215611e1157600080fd5b6000611e1f84828501611aa9565b91505092915050565b600080600060608486031215611e3d57600080fd5b6000611e4b86828701611aa9565b9350506020611e5c86828701611a95565b925050604084013567ffffffffffffffff811115611e7957600080fd5b611e8586828701611bb5565b9150509250925092565b600080600080600060a08688031215611ea757600080fd5b6000611eb588828901611aa9565b9550506020611ec688828901611a95565b945050604086013567ffffffffffffffff811115611ee357600080fd5b611eef88828901611bb5565b9350506060611f0088828901611aa9565b925050608086013567ffffffffffffffff811115611f1d57600080fd5b611f2988828901611ad1565b9150509295509295909350565b60008060008060008060c08789031215611f4f57600080fd5b6000611f5d89828a01611aa9565b9650506020611f6e89828a01611a95565b955050604087013567ffffffffffffffff811115611f8b57600080fd5b611f9789828a01611bb5565b9450506060611fa889828a01611aa9565b9350506080611fb989828a01611deb565b92505060a087013567ffffffffffffffff811115611fd657600080fd5b611fe289828a01611ad1565b9150509295509295509295565b6000806040838503121561200257600080fd5b600061201085828601611aa9565b925050602061202185828601611aa9565b9150509250929050565b6000806040838503121561203e57600080fd5b600083013567ffffffffffffffff81111561205857600080fd5b61206485828601611bb5565b925050602061207585828601611a95565b9150509250929050565b60006020828403121561209157600080fd5b600082015167ffffffffffffffff8111156120ab57600080fd5b6120b784828501611c09565b91505092915050565b6120c981612b12565b82525050565b6120d881612b12565b82525050565b6120ef6120ea82612b12565b612cd8565b82525050565b6120fe81612b24565b82525050565b61211561211082612b30565b612cea565b82525050565b61212481612b5c565b82525050565b61213381612b5c565b82525050565b61214a61214582612b5c565b612cf4565b82525050565b600061215b82612ab9565b6121658185612ada565b9350612175818560208601612ca5565b61217e81612d2c565b840191505092915050565b600061219482612ab9565b61219e8185612aeb565b93506121ae818560208601612ca5565b80840191505092915050565b60006121c582612aae565b6121cf8185612ada565b93506121df818560208601612ca5565b6121e881612d2c565b840191505092915050565b6121fc81612c72565b82525050565b600061220d82612acf565b6122178185612af6565b9350612227818560208601612ca5565b61223081612d2c565b840191505092915050565b600061224682612acf565b6122508185612b07565b9350612260818560208601612ca5565b80840191505092915050565b600061227782612ac4565b6122818185612af6565b9350612291818560208601612ca5565b61229a81612d2c565b840191505092915050565b60006122b082612ac4565b6122ba8185612b07565b93506122ca818560208601612ca5565b80840191505092915050565b60006122e3600f83612af6565b91507f496e6578697374656e74207479706500000000000000000000000000000000006000830152602082019050919050565b6000612323601083612af6565b91507f416c696173206973206e6f7420736574000000000000000000000000000000006000830152602082019050919050565b6000612363600a83612af6565b91507f4e6f742073746f726564000000000000000000000000000000000000000000006000830152602082019050919050565b60006123a3600f83612af6565b91507f697353746f726564206661696c656400000000000000000000000000000000006000830152602082019050919050565b60006123e3601783612af6565b91507f4e616d6520636f6e7461696e7320736570617261746f720000000000000000006000830152602082019050919050565b6000612423601383612af6565b91507f53746f726167652063616c6c206661696c6564000000000000000000000000006000830152602082019050919050565b6000612463600983612af6565b91507f4e6f207369676e657200000000000000000000000000000000000000000000006000830152602082019050919050565b6060820160008201516124ac60008501826120c0565b5060208201516124bf60208501826124fe565b5060408201516124d2604085018261211b565b50505050565b6124e181612b86565b82525050565b6124f86124f382612b86565b612d10565b82525050565b61250781612b90565b82525050565b61251681612b90565b82525050565b61252d61252882612b90565b612d1a565b82525050565b61253c81612ba4565b82525050565b600061254e8285612104565b60018201915061255e828461223b565b91508190509392505050565b60006125768286612139565b6020820191506125868285612104565b600182019150612596828461223b565b9150819050949350505050565b60006125af8285612139565b6020820191506125bf8284612139565b6020820191508190509392505050565b60006125db8284612189565b915081905092915050565b60006125f28285612189565b91506125fe8284612104565b6001820191508190509392505050565b600061261a828c6122a5565b9150612626828b61223b565b9150612632828a6120de565b60148201915061264282896124e7565b6020820191506126528288612139565b6020820191506126628287612139565b602082019150612672828661251c565b6008820191506126828285612104565b600182019150612692828461223b565b91508190509a9950505050505050505050565b60006126b182846124e7565b60208201915081905092915050565b60006020820190506126d560008301846120cf565b92915050565b60006060820190506126f060008301866120cf565b6126fd602083018561250d565b61270a604083018461212a565b949350505050565b600060208201905061272760008301846120f5565b92915050565b6000602082019050612742600083018461212a565b92915050565b600060408201905061275d600083018561212a565b818103602083015261276f8184612150565b90509392505050565b600060808201905061278d600083018761212a565b61279a6020830186612533565b6127a7604083018561212a565b6127b4606083018461212a565b95945050505050565b600060208201905081810360008301526127d781846121ba565b905092915050565b600060208201905081810360008301526127f98184612150565b905092915050565b600060208201905061281660008301846121f3565b92915050565b60006020820190508181036000830152612836818461226c565b905092915050565b600060208201905081810360008301526128588184612202565b905092915050565b6000604082019050818103600083015261287a8185612202565b9050818103602083015261288e8184612202565b90509392505050565b600060208201905081810360008301526128b0816122d6565b9050919050565b600060208201905081810360008301526128d081612316565b9050919050565b600060208201905081810360008301526128f081612356565b9050919050565b6000602082019050818103600083015261291081612396565b9050919050565b60006020820190508181036000830152612930816123d6565b9050919050565b6000602082019050818103600083015261295081612416565b9050919050565b6000602082019050818103600083015261297081612456565b9050919050565b600060608201905061298c6000830184612496565b92915050565b60006020820190506129a760008301846124d8565b92915050565b6000604051905081810181811067ffffffffffffffff821117156129d057600080fd5b8060405250919050565b600067ffffffffffffffff8211156129f157600080fd5b602082029050602081019050919050565b600067ffffffffffffffff821115612a1957600080fd5b602082029050602081019050919050565b600067ffffffffffffffff821115612a4157600080fd5b601f19601f8301169050602081019050919050565b600067ffffffffffffffff821115612a6d57600080fd5b601f19601f8301169050602081019050919050565b600067ffffffffffffffff821115612a9957600080fd5b601f19601f8301169050602081019050919050565b600081519050919050565b600081519050919050565b600081519050919050565b600081519050919050565b600082825260208201905092915050565b600081905092915050565b600082825260208201905092915050565b600081905092915050565b6000612b1d82612b66565b9050919050565b60008115159050919050565b60007fff0000000000000000000000000000000000000000000000000000000000000082169050919050565b6000819050919050565b600073ffffffffffffffffffffffffffffffffffffffff82169050919050565b6000819050919050565b600067ffffffffffffffff82169050919050565b600060ff82169050919050565b6000612bbc82612c3e565b9050919050565b60007fff0000000000000000000000000000000000000000000000000000000000000082169050919050565b6000819050919050565b600060038210612c0857600080fd5b819050919050565b600060078210612c1f57600080fd5b819050919050565b600060038210612c3657600080fd5b819050919050565b600073ffffffffffffffffffffffffffffffffffffffff82169050919050565b600067ffffffffffffffff82169050919050565b6000612c7d82612c84565b9050919050565b6000612c8f82612b66565b9050919050565b82818337600083830152505050565b60005b83811015612cc3578082015181840152602081019050612ca8565b83811115612cd2576000848401525b50505050565b6000612ce382612cfe565b9050919050565b6000819050919050565b6000819050919050565b6000612d0982612d4a565b9050919050565b6000819050919050565b6000612d2582612d3d565b9050919050565b6000601f19601f8301169050919050565b60008160c01b9050919050565b60008160601b905091905056fea265627a7a723058204724239eb228bc6b5c41b9ec66f90d3a6a0feca5df0693b6545718f75b42bfb26c6578706572696d656e74616cf50037",
  "source": "pragma solidity ^0.5.0;\npragma experimental ABIEncoderV2;\n\nimport './lib/ECVerify.sol';\nimport './dTypeInterface.sol';\nimport './dTypeLib.sol';\n\ncontract Alias {\n    // general domain separation: domain.subdomain.leafsubdomain.resource\n    // actor-related data: alice@socialnetwork.profile\n    // identifying concepts: topicX#postY\n    // general resource path definition: resourceRoot/resource\n\n    string public constant signaturePrefix = '\\x19Ethereum Signed Message:\\n';\n    uint256 public chainId;\n    dTypeInterface public dType;\n\n    struct Alias {\n        address owner;\n        uint64 nonce;\n        bytes32 identifier;\n    }\n\n    // key: keccak256(dTypeIdentifier, separator, name)\n    mapping(bytes32 => Alias) public aliases;\n\n    // reverse alias\n    // key: keccak256(dTypeIdentifier, identifier)\n    // value: abi.encodePacked(separator, name)\n    mapping(bytes32 => bytes) public reversealias;\n\n    event AliasSet(bytes32 indexed dTypeIdentifier, bytes32 indexed identifier);\n\n    constructor(address _dTypeAddress, uint256 _chainId) public {\n        require(_dTypeAddress != address(0x0));\n        require(_chainId > 0);\n\n        dType = dTypeInterface(_dTypeAddress);\n        chainId = _chainId;\n    }\n\n    function setAlias(bytes32 dTypeIdentifier, bytes1 separator, string memory name, bytes32 identifier, bytes memory signature) public {\n        require(separator != bytes1(0));\n        require(checkCharExists(name, separator) == false, 'Name contains separator');\n\n        bytes32 key = getKey(dTypeIdentifier, separator, name);\n        uint64 nonce = aliases[key].nonce;\n        address owner = recoverAddress(dTypeIdentifier, separator, name, identifier, nonce + 1, signature);\n        require(owner != address(0), 'No signer');\n\n        bool remove = identifier == bytes32(0);\n        bool exists = aliases[key].owner != address(0);\n        bool isOwner = aliases[key].owner == owner;\n\n        if (remove && !exists) revert('Alias is not set');\n\n        if (remove && isOwner) {\n            bytes32 reverseKey = getReverseKey(dTypeIdentifier, aliases[key].identifier);\n            delete aliases[key];\n            delete reversealias[reverseKey];\n            emit AliasSet(dTypeIdentifier, identifier);\n            return;\n        }\n\n        // Check if dtypeIdentifier exists, check if data identifier is in the storage contract\n        // And data is owned by the signer\n        checkdType(dTypeIdentifier, identifier);\n\n        if (!exists) {\n            aliases[key] = Alias(owner, 0, identifier);\n        } else {\n            // require(isOwner, 'Not owner');\n            bytes32 reverseKey = getReverseKey(dTypeIdentifier, aliases[key].identifier);\n            aliases[key].identifier = identifier;\n            delete reversealias[reverseKey];\n        }\n        reversealias[getReverseKey(dTypeIdentifier, identifier)] = abi.encodePacked(separator, name);\n        aliases[key].nonce += 1;\n        emit AliasSet(dTypeIdentifier, identifier);\n\n        assert(nonce + 1 == aliases[key].nonce);\n    }\n\n    function checkdType(bytes32 dTypeIdentifier, bytes32 identifier) view public {\n        bool success;\n        bytes memory result;\n\n        dTypeLib.dType memory typedata = dType.getByHash(dTypeIdentifier);\n        require(typedata.contractAddress != address(0), 'Inexistent type');\n\n        (success, result) = typedata.contractAddress.staticcall(abi.encodeWithSignature('isStored(bytes32)', identifier));\n        require(success, 'isStored failed');\n        require(keccak256(result) == keccak256(abi.encodePacked(uint256(1))), 'Not stored');\n\n        // TODO check ownership\n    }\n\n    function getdTypeData(bytes32 dTypeIdentifier, bytes32 identifier) view public returns(bytes memory data) {\n        bool success;\n        bytes memory result;\n\n        dTypeLib.dType memory typedata = dType.getByHash(dTypeIdentifier);\n        (success, result) = typedata.contractAddress.staticcall(abi.encodeWithSignature('getByHash(bytes32)', identifier));\n        require(success, 'Storage call failed');\n        return result;\n    }\n\n    function getAliased(bytes32 dTypeIdentifier, bytes1 separator, string memory name) view public returns (bytes32 identifier) {\n        bytes32 key = getKey(dTypeIdentifier, separator, name);\n        return aliases[key].identifier;\n    }\n\n    function getReverse(bytes32 dTypeIdentifier, bytes32 identifier) view public returns (string memory) {\n        return string(reversealias[getReverseKey(dTypeIdentifier, identifier)]);\n    }\n\n    // TODO remove\n    function getAlias(bytes32 dTypeIdentifier, bytes1 separator, string memory name) view public returns(bytes32 identifier, bytes memory data) {\n        bytes32 key = getKey(dTypeIdentifier, separator, name);\n        return (aliases[key].identifier, getdTypeData(dTypeIdentifier, aliases[key].identifier));\n    }\n\n    function getAliasedData(bytes32 dTypeIdentifier, bytes1 separator, string memory name) view public returns (Alias memory aliasdata) {\n        bytes32 key = getKey(dTypeIdentifier, separator, name);\n        return aliases[key];\n    }\n\n    function getKey(bytes32 dTypeIdentifier, bytes1 separator, string memory name) pure internal returns (bytes32 key) {\n        return keccak256(abi.encodePacked(dTypeIdentifier, separator, name));\n    }\n\n    function getReverseKey(bytes32 dTypeIdentifier, bytes32 identifier) pure internal returns (bytes32 key) {\n        return keccak256(abi.encodePacked(dTypeIdentifier, identifier));\n    }\n\n    function checkCharExists(string memory name, bytes1 char) pure public returns (bool exists) {\n        bytes memory encoded = bytes(name);\n        for (uint256 i = 0; i < encoded.length; i++) {\n            if (encoded[i] == char) {\n                exists = true;\n            }\n        }\n        return exists;\n    }\n\n    function strSplit( string memory name, bytes1 separator) public pure returns(string memory name1, string memory name2) {\n        bytes memory nameb = bytes(name);\n        bytes memory name1b = \"\";\n        bool done1 = false;\n        bytes memory name2b = \"\";\n        for (uint256 i = 0; i < nameb.length - 1; i++){\n            if (nameb[i] == separator){\n                done1 = true;\n            } else if (!done1) {\n                name1b = abi.encodePacked(name1b, nameb[i]);\n            }\n            if (done1) {\n                name2b = abi.encodePacked(name2b, nameb[i+1]);\n            }\n        }\n        return (string(name1b), string(name2b));\n\n    }\n\n    function recoverAddress(\n        bytes32 dTypeIdentifier,\n        bytes1 separator,\n        string memory name,\n        bytes32 identifier,\n        uint64 nonce,\n        bytes memory signature\n    )\n        public\n        view\n        returns(address signer)\n    {\n        // 20 + 32 + 32 + 32 + 8 + 1 = 125\n        string memory message_length = uintToString(125 + bytes(name).length);\n\n        bytes memory data = abi.encodePacked(\n          signaturePrefix,\n          message_length,\n          address(this),\n          chainId,\n          dTypeIdentifier,\n          identifier,\n          nonce,\n          separator,\n          name\n        );\n        signer = ECVerify.ecverify(keccak256(data), signature);\n    }\n\n    function uintToString(\n        uint v)\n        internal\n        pure\n        returns (string memory)\n    {\n        bytes32 ret;\n        if (v == 0) {\n            ret = '0';\n        }\n        else {\n             while (v > 0) {\n                ret = bytes32(uint(ret) / (2 ** 8));\n                ret |= bytes32(((v % 10) + 48) * 2 ** (8 * 31));\n                v /= 10;\n            }\n        }\n\n        bytes memory bytesString = new bytes(32);\n        uint charCount = 0;\n        for (uint256 j=0; j<32; j++) {\n            byte char = byte(bytes32(uint(ret) * 2 ** (8 * j)));\n            if (char != 0) {\n                bytesString[j] = char;\n                charCount++;\n            }\n        }\n        bytes memory bytesStringTrimmed = new bytes(charCount);\n        for (uint256 j = 0; j < charCount; j++) {\n            bytesStringTrimmed[j] = bytesString[j];\n        }\n\n        return string(bytesStringTrimmed);\n    }\n}\n",
  "sourcePath": "/Users/loredana/ETH/dType/contracts/contracts/Alias.sol",
  "compiler": {
    "name": "solc",
    "version": "0.5.7+commit.6da8b019.Emscripten.clang"
  },
  "schemaVersion": "3.0.11",
  "updatedAt": "2019-07-28T12:59:04.159Z",
  "devdoc": {
    "methods": {}
  },
  "userdoc": {
    "methods": {}
  }
}