{
  "contractName": "dTypeLib",
  "abi": [
    {
      "constant": true,
      "inputs": [
        {
          "components": [
            {
              "name": "lang",
              "type": "dTypeLib.LangChoices"
            },
            {
              "name": "typeChoice",
              "type": "dTypeLib.TypeChoices"
            },
            {
              "name": "contractAddress",
              "type": "address"
            },
            {
              "name": "source",
              "type": "bytes32"
            },
            {
              "name": "name",
              "type": "string"
            },
            {
              "components": [
                {
                  "name": "name",
                  "type": "string"
                },
                {
                  "name": "label",
                  "type": "string"
                },
                {
                  "name": "relation",
                  "type": "dTypesLib.dTypeRelation"
                },
                {
                  "name": "dimensions",
                  "type": "string[]"
                }
              ],
              "name": "types",
              "type": "tuple[]"
            },
            {
              "components": [
                {
                  "name": "name",
                  "type": "string"
                },
                {
                  "name": "label",
                  "type": "string"
                },
                {
                  "name": "relation",
                  "type": "dTypesLib.dTypeRelation"
                },
                {
                  "name": "dimensions",
                  "type": "string[]"
                }
              ],
              "name": "optionals",
              "type": "tuple[]"
            },
            {
              "components": [
                {
                  "name": "name",
                  "type": "string"
                },
                {
                  "name": "label",
                  "type": "string"
                },
                {
                  "name": "relation",
                  "type": "dTypesLib.dTypeRelation"
                },
                {
                  "name": "dimensions",
                  "type": "string[]"
                }
              ],
              "name": "outputs",
              "type": "tuple[]"
            }
          ],
          "name": "dtypeFull",
          "type": "tuple"
        }
      ],
      "name": "getRequired",
      "outputs": [
        {
          "components": [
            {
              "name": "lang",
              "type": "dTypeLib.LangChoices"
            },
            {
              "name": "typeChoice",
              "type": "dTypeLib.TypeChoices"
            },
            {
              "name": "contractAddress",
              "type": "address"
            },
            {
              "name": "source",
              "type": "bytes32"
            },
            {
              "name": "name",
              "type": "string"
            },
            {
              "components": [
                {
                  "name": "name",
                  "type": "string"
                },
                {
                  "name": "label",
                  "type": "string"
                },
                {
                  "name": "relation",
                  "type": "dTypesLib.dTypeRelation"
                },
                {
                  "name": "dimensions",
                  "type": "string[]"
                }
              ],
              "name": "types",
              "type": "tuple[]"
            }
          ],
          "name": "dtype",
          "type": "tuple"
        }
      ],
      "payable": false,
      "stateMutability": "pure",
      "type": "function"
    },
    {
      "constant": true,
      "inputs": [
        {
          "components": [
            {
              "name": "lang",
              "type": "dTypeLib.LangChoices"
            },
            {
              "name": "typeChoice",
              "type": "dTypeLib.TypeChoices"
            },
            {
              "name": "contractAddress",
              "type": "address"
            },
            {
              "name": "source",
              "type": "bytes32"
            },
            {
              "name": "name",
              "type": "string"
            },
            {
              "components": [
                {
                  "name": "name",
                  "type": "string"
                },
                {
                  "name": "label",
                  "type": "string"
                },
                {
                  "name": "relation",
                  "type": "dTypesLib.dTypeRelation"
                },
                {
                  "name": "dimensions",
                  "type": "string[]"
                }
              ],
              "name": "types",
              "type": "tuple[]"
            }
          ],
          "name": "dtype",
          "type": "tuple"
        },
        {
          "components": [
            {
              "name": "name",
              "type": "string"
            },
            {
              "name": "label",
              "type": "string"
            },
            {
              "name": "relation",
              "type": "dTypesLib.dTypeRelation"
            },
            {
              "name": "dimensions",
              "type": "string[]"
            }
          ],
          "name": "optionals",
          "type": "tuple[]"
        },
        {
          "components": [
            {
              "name": "name",
              "type": "string"
            },
            {
              "name": "label",
              "type": "string"
            },
            {
              "name": "relation",
              "type": "dTypesLib.dTypeRelation"
            },
            {
              "name": "dimensions",
              "type": "string[]"
            }
          ],
          "name": "outputs",
          "type": "tuple[]"
        }
      ],
      "name": "getFull",
      "outputs": [
        {
          "components": [
            {
              "name": "lang",
              "type": "dTypeLib.LangChoices"
            },
            {
              "name": "typeChoice",
              "type": "dTypeLib.TypeChoices"
            },
            {
              "name": "contractAddress",
              "type": "address"
            },
            {
              "name": "source",
              "type": "bytes32"
            },
            {
              "name": "name",
              "type": "string"
            },
            {
              "components": [
                {
                  "name": "name",
                  "type": "string"
                },
                {
                  "name": "label",
                  "type": "string"
                },
                {
                  "name": "relation",
                  "type": "dTypesLib.dTypeRelation"
                },
                {
                  "name": "dimensions",
                  "type": "string[]"
                }
              ],
              "name": "types",
              "type": "tuple[]"
            },
            {
              "components": [
                {
                  "name": "name",
                  "type": "string"
                },
                {
                  "name": "label",
                  "type": "string"
                },
                {
                  "name": "relation",
                  "type": "dTypesLib.dTypeRelation"
                },
                {
                  "name": "dimensions",
                  "type": "string[]"
                }
              ],
              "name": "optionals",
              "type": "tuple[]"
            },
            {
              "components": [
                {
                  "name": "name",
                  "type": "string"
                },
                {
                  "name": "label",
                  "type": "string"
                },
                {
                  "name": "relation",
                  "type": "dTypesLib.dTypeRelation"
                },
                {
                  "name": "dimensions",
                  "type": "string[]"
                }
              ],
              "name": "outputs",
              "type": "tuple[]"
            }
          ],
          "name": "dtypeFull",
          "type": "tuple"
        }
      ],
      "payable": false,
      "stateMutability": "pure",
      "type": "function"
    }
  ],
  "bytecode": "0x610ed4610026600b82828239805160001a60731461001957fe5b30600052607381538281f3fe73000000000000000000000000000000000000000030146080604052600436106100405760003560e01c806363255a9a1461004557806372e915d614610075575b600080fd5b61005f600480360361005a919081019061074f565b6100a5565b60405161006c9190610b9d565b60405180910390f35b61008f600480360361008a91908101906107e6565b610134565b60405161009c9190610b7b565b60405180910390f35b6100ad6101b4565b604051806101000160405280856000015160028111156100c957fe5b8152602001856020015160068111156100de57fe5b8152602001856040015173ffffffffffffffffffffffffffffffffffffffff16815260200185606001518152602001856080015181526020018560a0015181526020018481526020018381525090509392505050565b61013c610228565b6040518060c001604052808360000151600281111561015757fe5b81526020018360200151600681111561016c57fe5b8152602001836040015173ffffffffffffffffffffffffffffffffffffffff16815260200183606001518152602001836080015181526020018360a001518152509050919050565b604051806101000160405280600060028111156101cd57fe5b8152602001600060068111156101df57fe5b8152602001600073ffffffffffffffffffffffffffffffffffffffff16815260200160008019168152602001606081526020016060815260200160608152602001606081525090565b6040518060c001604052806000600281111561024057fe5b81526020016000600681111561025257fe5b8152602001600073ffffffffffffffffffffffffffffffffffffffff1681526020016000801916815260200160608152602001606081525090565b60006102998235610d90565b905092915050565b600082601f8301126102b257600080fd5b81356102c56102c082610bec565b610bbf565b9150818183526020840193506020810190508360005b8381101561030b57813586016102f1888261044d565b8452602084019350602083019250506001810190506102db565b5050505092915050565b600082601f83011261032657600080fd5b813561033961033482610c14565b610bbf565b9150818183526020840193506020810190508360005b8381101561037f57813586016103658882610693565b84526020840193506020830192505060018101905061034f565b5050505092915050565b600082601f83011261039a57600080fd5b81356103ad6103a882610c3c565b610bbf565b9150818183526020840193506020810190508360005b838110156103f357813586016103d98882610693565b8452602084019350602083019250506001810190506103c3565b5050505092915050565b60006104098235610da2565b905092915050565b600061041d8235610dac565b905092915050565b60006104318235610dc3565b905092915050565b60006104458235610dda565b905092915050565b600082601f83011261045e57600080fd5b813561047161046c82610c64565b610bbf565b9150808252602083016020830185838301111561048d57600080fd5b610498838284610e47565b50505092915050565b600060c082840312156104b357600080fd5b6104bd60c0610bbf565b905060006104cd84828501610411565b60008301525060206104e184828501610425565b60208301525060406104f58482850161028d565b6040830152506060610509848285016103fd565b606083015250608082013567ffffffffffffffff81111561052957600080fd5b6105358482850161044d565b60808301525060a082013567ffffffffffffffff81111561055557600080fd5b61056184828501610315565b60a08301525092915050565b6000610100828403121561058057600080fd5b61058b610100610bbf565b9050600061059b84828501610411565b60008301525060206105af84828501610425565b60208301525060406105c38482850161028d565b60408301525060606105d7848285016103fd565b606083015250608082013567ffffffffffffffff8111156105f757600080fd5b6106038482850161044d565b60808301525060a082013567ffffffffffffffff81111561062357600080fd5b61062f84828501610315565b60a08301525060c082013567ffffffffffffffff81111561064f57600080fd5b61065b84828501610315565b60c08301525060e082013567ffffffffffffffff81111561067b57600080fd5b61068784828501610315565b60e08301525092915050565b6000608082840312156106a557600080fd5b6106af6080610bbf565b9050600082013567ffffffffffffffff8111156106cb57600080fd5b6106d78482850161044d565b600083015250602082013567ffffffffffffffff8111156106f757600080fd5b6107038482850161044d565b602083015250604061071784828501610439565b604083015250606082013567ffffffffffffffff81111561073757600080fd5b610743848285016102a1565b60608301525092915050565b60008060006060848603121561076457600080fd5b600084013567ffffffffffffffff81111561077e57600080fd5b61078a868287016104a1565b935050602084013567ffffffffffffffff8111156107a757600080fd5b6107b386828701610389565b925050604084013567ffffffffffffffff8111156107d057600080fd5b6107dc86828701610389565b9150509250925092565b6000602082840312156107f857600080fd5b600082013567ffffffffffffffff81111561081257600080fd5b61081e8482850161056d565b91505092915050565b6000610833838361097c565b905092915050565b60006108478383610b0a565b905092915050565b61085881610d18565b82525050565b600061086982610caa565b6108738185610ce5565b93508360208202850161088585610c90565b60005b848110156108be5783830388526108a0838351610827565b92506108ab82610ccb565b9150602088019750600181019050610888565b508196508694505050505092915050565b60006108da82610cb5565b6108e48185610cf6565b9350836020820285016108f685610c9d565b60005b8481101561092f57838303885261091183835161083b565b925061091c82610cd8565b91506020880197506001810190506108f9565b508196508694505050505092915050565b61094981610d2a565b82525050565b61095881610e11565b82525050565b61096781610e23565b82525050565b61097681610e35565b82525050565b600061098782610cc0565b6109918185610d07565b93506109a1818560208601610e56565b6109aa81610e89565b840191505092915050565b600060c0830160008301516109cd600086018261094f565b5060208301516109e0602086018261095e565b5060408301516109f3604086018261084f565b506060830151610a066060860182610940565b5060808301518482036080860152610a1e828261097c565b91505060a083015184820360a0860152610a3882826108cf565b9150508091505092915050565b600061010083016000830151610a5e600086018261094f565b506020830151610a71602086018261095e565b506040830151610a84604086018261084f565b506060830151610a976060860182610940565b5060808301518482036080860152610aaf828261097c565b91505060a083015184820360a0860152610ac982826108cf565b91505060c083015184820360c0860152610ae382826108cf565b91505060e083015184820360e0860152610afd82826108cf565b9150508091505092915050565b60006080830160008301518482036000860152610b27828261097c565b91505060208301518482036020860152610b41828261097c565b9150506040830151610b56604086018261096d565b5060608301518482036060860152610b6e828261085e565b9150508091505092915050565b60006020820190508181036000830152610b9581846109b5565b905092915050565b60006020820190508181036000830152610bb78184610a45565b905092915050565b6000604051905081810181811067ffffffffffffffff82111715610be257600080fd5b8060405250919050565b600067ffffffffffffffff821115610c0357600080fd5b602082029050602081019050919050565b600067ffffffffffffffff821115610c2b57600080fd5b602082029050602081019050919050565b600067ffffffffffffffff821115610c5357600080fd5b602082029050602081019050919050565b600067ffffffffffffffff821115610c7b57600080fd5b601f19601f8301169050602081019050919050565b6000602082019050919050565b6000602082019050919050565b600081519050919050565b600081519050919050565b600081519050919050565b6000602082019050919050565b6000602082019050919050565b600082825260208201905092915050565b600082825260208201905092915050565b600082825260208201905092915050565b6000610d2382610d70565b9050919050565b6000819050919050565b600060038210610d4057fe5b819050919050565b600060078210610d5457fe5b819050919050565b600060038210610d6857fe5b819050919050565b600073ffffffffffffffffffffffffffffffffffffffff82169050919050565b6000610d9b82610df1565b9050919050565b6000819050919050565b600060038210610dbb57600080fd5b819050919050565b600060078210610dd257600080fd5b819050919050565b600060038210610de957600080fd5b819050919050565b600073ffffffffffffffffffffffffffffffffffffffff82169050919050565b6000610e1c82610d34565b9050919050565b6000610e2e82610d48565b9050919050565b6000610e4082610d5c565b9050919050565b82818337600083830152505050565b60005b83811015610e74578082015181840152602081019050610e59565b83811115610e83576000848401525b50505050565b6000601f19601f830116905091905056fea265627a7a7230582089e702562aa3aa59b19d4c8625b3c0218056a0cc3c007621054650398158e1cf6c6578706572696d656e74616cf50037",
  "source": "pragma solidity ^0.5.0;\npragma experimental ABIEncoderV2;\n\nimport './dTypesLib.sol';\n\nlibrary dTypeLib {\n    using dTypesLib for dTypesLib.dTypes;\n\n    enum LangChoices { Solidity, JavaScript, Python }\n\n    enum TypeChoices {\n        BaseType,\n        PayableFunction,\n        StateFunction,\n        ViewFunction,\n        PureFunction,\n        Event,\n        MappingType\n    }\n\n    struct dTypeRequired {\n        LangChoices lang;\n        TypeChoices typeChoice;\n        address contractAddress;\n        bytes32 source;\n        string name;\n        dTypesLib.dTypes[] types;\n    }\n\n    struct dType {\n        LangChoices lang;\n        TypeChoices typeChoice;\n        address contractAddress;\n        bytes32 source;\n        string name;\n        // required types\n        dTypesLib.dTypes[] types;\n        // optional types\n        dTypesLib.dTypes[] optionals;\n        // function outputs\n        dTypesLib.dTypes[] outputs;\n    }\n\n    function insert(dTypeRequired storage self, dType memory dtype) internal {\n        self.lang = dtype.lang;\n        self.typeChoice = dtype.typeChoice;\n        self.contractAddress = dtype.contractAddress;\n        self.source = dtype.source;\n        self.name = dtype.name;\n\n        dTypesLib.insertArray(self.types, dtype.types);\n    }\n\n    function getRequired(dType memory dtypeFull) pure public returns(dTypeRequired memory dtype) {\n        return dTypeRequired(\n            dtypeFull.lang,\n            dtypeFull.typeChoice,\n            dtypeFull.contractAddress,\n            dtypeFull.source,\n            dtypeFull.name,\n            dtypeFull.types\n        );\n    }\n\n    function getFull(\n        dTypeRequired memory dtype,\n        dTypesLib.dTypes[] memory optionals,\n        dTypesLib.dTypes[] memory outputs\n    ) pure public returns(dType memory dtypeFull) {\n        return dType(\n            dtype.lang,\n            dtype.typeChoice,\n            dtype.contractAddress,\n            dtype.source,\n            dtype.name,\n            dtype.types,\n            optionals,\n            outputs\n        );\n    }\n\n    function structureBytes(bytes memory data)\n        pure\n        internal\n        returns(dType memory dtype)\n    {\n        (dtype) = abi.decode(data, (dType));\n    }\n\n    function destructureBytes(dType memory dtype)\n        pure\n        internal\n        returns(bytes memory data)\n    {\n        return abi.encode(dtype);\n    }\n}\n",
  "sourcePath": "/Users/loredana/ETH/dType/contracts/contracts/dTypeLib.sol",
  "compiler": {
    "name": "solc",
    "version": "0.5.7+commit.6da8b019.Emscripten.clang"
  },
  "schemaVersion": "3.0.11",
  "updatedAt": "2019-07-28T08:56:05.604Z",
  "devdoc": {
    "methods": {}
  },
  "userdoc": {
    "methods": {}
  }
}