{
  "contractName": "dType",
  "abi": [
    {
      "constant": true,
      "inputs": [
        {
          "name": "",
          "type": "bytes32"
        },
        {
          "name": "",
          "type": "uint256"
        }
      ],
      "name": "outputIndex",
      "outputs": [
        {
          "name": "",
          "type": "string"
        }
      ],
      "payable": false,
      "stateMutability": "view",
      "type": "function",
      "signature": "0x3a41cac0"
    },
    {
      "constant": true,
      "inputs": [
        {
          "name": "",
          "type": "bytes32"
        }
      ],
      "name": "typeStruct",
      "outputs": [
        {
          "name": "lang",
          "type": "uint8"
        },
        {
          "name": "isEvent",
          "type": "bool"
        },
        {
          "name": "isFunction",
          "type": "bool"
        },
        {
          "name": "hasOutput",
          "type": "bool"
        },
        {
          "name": "contractAddress",
          "type": "address"
        },
        {
          "name": "source",
          "type": "bytes32"
        },
        {
          "name": "index",
          "type": "uint256"
        },
        {
          "name": "name",
          "type": "string"
        }
      ],
      "payable": false,
      "stateMutability": "view",
      "type": "function",
      "signature": "0x668414a4"
    },
    {
      "constant": true,
      "inputs": [
        {
          "name": "",
          "type": "uint256"
        }
      ],
      "name": "typeIndex",
      "outputs": [
        {
          "name": "",
          "type": "bytes32"
        }
      ],
      "payable": false,
      "stateMutability": "view",
      "type": "function",
      "signature": "0x7460e311"
    },
    {
      "anonymous": false,
      "inputs": [
        {
          "indexed": true,
          "name": "typeHash",
          "type": "bytes32"
        },
        {
          "indexed": false,
          "name": "index",
          "type": "uint256"
        },
        {
          "indexed": false,
          "name": "name",
          "type": "string"
        },
        {
          "indexed": false,
          "name": "types",
          "type": "string[]"
        }
      ],
      "name": "LogNew",
      "type": "event",
      "signature": "0xb984a93e20552bfa6c1c989cedccd9b5f688a362c7b804f8834f0b2899493df5"
    },
    {
      "anonymous": false,
      "inputs": [
        {
          "indexed": true,
          "name": "typeHash",
          "type": "bytes32"
        },
        {
          "indexed": false,
          "name": "index",
          "type": "uint256"
        },
        {
          "indexed": false,
          "name": "name",
          "type": "string"
        },
        {
          "indexed": false,
          "name": "types",
          "type": "string[]"
        }
      ],
      "name": "LogUpdate",
      "type": "event",
      "signature": "0xf7ea479b7ed108965977a3f25432116419af44f06a10d2316a461dbb4bf54b17"
    },
    {
      "anonymous": false,
      "inputs": [
        {
          "indexed": true,
          "name": "typeHash",
          "type": "bytes32"
        },
        {
          "indexed": false,
          "name": "index",
          "type": "uint256"
        }
      ],
      "name": "LogRemove",
      "type": "event",
      "signature": "0x7aba1b7c67426c7ad78ea21a678946741a0c8795e99fa106728122a461e33cbc"
    },
    {
      "constant": false,
      "inputs": [
        {
          "name": "lang",
          "type": "uint8"
        },
        {
          "name": "name",
          "type": "string"
        },
        {
          "name": "types",
          "type": "string[]"
        },
        {
          "name": "isEvent",
          "type": "bool"
        },
        {
          "name": "isFunction",
          "type": "bool"
        },
        {
          "name": "hasOutput",
          "type": "bool"
        },
        {
          "name": "contractAddress",
          "type": "address"
        },
        {
          "name": "source",
          "type": "bytes32"
        }
      ],
      "name": "insert",
      "outputs": [
        {
          "name": "index",
          "type": "uint256"
        }
      ],
      "payable": false,
      "stateMutability": "nonpayable",
      "type": "function",
      "signature": "0x0f3d953d"
    },
    {
      "constant": false,
      "inputs": [
        {
          "name": "typeHash",
          "type": "bytes32"
        },
        {
          "name": "newName",
          "type": "string"
        },
        {
          "name": "newTypes",
          "type": "string[]"
        }
      ],
      "name": "update",
      "outputs": [
        {
          "name": "success",
          "type": "bool"
        }
      ],
      "payable": false,
      "stateMutability": "nonpayable",
      "type": "function",
      "signature": "0xaac2956c"
    },
    {
      "constant": false,
      "inputs": [
        {
          "name": "typeHash",
          "type": "bytes32"
        },
        {
          "name": "newTypes",
          "type": "string[]"
        }
      ],
      "name": "updateTypes",
      "outputs": [
        {
          "name": "success",
          "type": "bool"
        }
      ],
      "payable": false,
      "stateMutability": "nonpayable",
      "type": "function",
      "signature": "0x430ac62a"
    },
    {
      "constant": false,
      "inputs": [
        {
          "name": "typeHash",
          "type": "bytes32"
        },
        {
          "name": "newName",
          "type": "string"
        }
      ],
      "name": "updateName",
      "outputs": [
        {
          "name": "success",
          "type": "bool"
        }
      ],
      "payable": false,
      "stateMutability": "nonpayable",
      "type": "function",
      "signature": "0x66df2e92"
    },
    {
      "constant": false,
      "inputs": [
        {
          "name": "typeHash",
          "type": "bytes32"
        }
      ],
      "name": "remove",
      "outputs": [
        {
          "name": "index",
          "type": "uint256"
        }
      ],
      "payable": false,
      "stateMutability": "nonpayable",
      "type": "function",
      "signature": "0x95bc2673"
    },
    {
      "constant": false,
      "inputs": [
        {
          "name": "typeHash",
          "type": "bytes32"
        },
        {
          "name": "outputs",
          "type": "string[]"
        }
      ],
      "name": "setOutputs",
      "outputs": [],
      "payable": false,
      "stateMutability": "nonpayable",
      "type": "function",
      "signature": "0x60e70f5e"
    },
    {
      "constant": true,
      "inputs": [],
      "name": "count",
      "outputs": [
        {
          "name": "counter",
          "type": "uint256"
        }
      ],
      "payable": false,
      "stateMutability": "view",
      "type": "function",
      "signature": "0x06661abd"
    },
    {
      "constant": true,
      "inputs": [],
      "name": "getIndex",
      "outputs": [
        {
          "name": "indext",
          "type": "bytes32[]"
        }
      ],
      "payable": false,
      "stateMutability": "view",
      "type": "function",
      "signature": "0x81045ead"
    },
    {
      "constant": true,
      "inputs": [
        {
          "name": "lang",
          "type": "uint8"
        },
        {
          "name": "name",
          "type": "string"
        }
      ],
      "name": "getTypeHash",
      "outputs": [
        {
          "name": "typeHash",
          "type": "bytes32"
        }
      ],
      "payable": false,
      "stateMutability": "pure",
      "type": "function",
      "signature": "0x414a4743"
    },
    {
      "constant": true,
      "inputs": [
        {
          "name": "typeHash",
          "type": "bytes32"
        }
      ],
      "name": "getByHash",
      "outputs": [
        {
          "components": [
            {
              "name": "lang",
              "type": "uint8"
            },
            {
              "name": "isEvent",
              "type": "bool"
            },
            {
              "name": "isFunction",
              "type": "bool"
            },
            {
              "name": "hasOutput",
              "type": "bool"
            },
            {
              "name": "contractAddress",
              "type": "address"
            },
            {
              "name": "source",
              "type": "bytes32"
            },
            {
              "name": "index",
              "type": "uint256"
            },
            {
              "name": "name",
              "type": "string"
            },
            {
              "name": "types",
              "type": "string[]"
            }
          ],
          "name": "dtype",
          "type": "tuple"
        }
      ],
      "payable": false,
      "stateMutability": "view",
      "type": "function",
      "signature": "0xa2dd3d47"
    },
    {
      "constant": true,
      "inputs": [
        {
          "name": "lang",
          "type": "uint8"
        },
        {
          "name": "name",
          "type": "string"
        }
      ],
      "name": "get",
      "outputs": [
        {
          "components": [
            {
              "name": "lang",
              "type": "uint8"
            },
            {
              "name": "isEvent",
              "type": "bool"
            },
            {
              "name": "isFunction",
              "type": "bool"
            },
            {
              "name": "hasOutput",
              "type": "bool"
            },
            {
              "name": "contractAddress",
              "type": "address"
            },
            {
              "name": "source",
              "type": "bytes32"
            },
            {
              "name": "index",
              "type": "uint256"
            },
            {
              "name": "name",
              "type": "string"
            },
            {
              "name": "types",
              "type": "string[]"
            }
          ],
          "name": "dtype",
          "type": "tuple"
        }
      ],
      "payable": false,
      "stateMutability": "view",
      "type": "function",
      "signature": "0xcf341d89"
    },
    {
      "constant": true,
      "inputs": [
        {
          "name": "typeHash",
          "type": "bytes32"
        }
      ],
      "name": "isType",
      "outputs": [
        {
          "name": "isIndeed",
          "type": "bool"
        }
      ],
      "payable": false,
      "stateMutability": "view",
      "type": "function",
      "signature": "0xe2b1e4ed"
    },
    {
      "constant": true,
      "inputs": [
        {
          "name": "typeHash",
          "type": "bytes32"
        }
      ],
      "name": "getOutputs",
      "outputs": [
        {
          "name": "outputs",
          "type": "string[]"
        }
      ],
      "payable": false,
      "stateMutability": "view",
      "type": "function",
      "signature": "0xadb02ea5"
    },
    {
      "constant": true,
      "inputs": [
        {
          "name": "typeHash",
          "type": "bytes32"
        }
      ],
      "name": "getTypes",
      "outputs": [
        {
          "name": "types",
          "type": "string[]"
        }
      ],
      "payable": false,
      "stateMutability": "view",
      "type": "function",
      "signature": "0xaa09ec0e"
    },
    {
      "constant": true,
      "inputs": [
        {
          "name": "index",
          "type": "uint256"
        }
      ],
      "name": "getByIndex",
      "outputs": [
        {
          "components": [
            {
              "name": "lang",
              "type": "uint8"
            },
            {
              "name": "isEvent",
              "type": "bool"
            },
            {
              "name": "isFunction",
              "type": "bool"
            },
            {
              "name": "hasOutput",
              "type": "bool"
            },
            {
              "name": "contractAddress",
              "type": "address"
            },
            {
              "name": "source",
              "type": "bytes32"
            },
            {
              "name": "index",
              "type": "uint256"
            },
            {
              "name": "name",
              "type": "string"
            },
            {
              "name": "types",
              "type": "string[]"
            }
          ],
          "name": "dtype",
          "type": "tuple"
        },
        {
          "name": "typeHash",
          "type": "bytes32"
        }
      ],
      "payable": false,
      "stateMutability": "view",
      "type": "function",
      "signature": "0x2d883a73"
    },
    {
      "constant": true,
      "inputs": [
        {
          "name": "typeHash",
          "type": "bytes32"
        }
      ],
      "name": "getSignature",
      "outputs": [
        {
          "name": "signature",
          "type": "bytes4"
        }
      ],
      "payable": false,
      "stateMutability": "view",
      "type": "function",
      "signature": "0xc4b14e0b"
    }
  ],
  "bytecode": "0x608060405234801561001057600080fd5b5061342b806100206000396000f3fe608060405260043610610107576000357c0100000000000000000000000000000000000000000000000000000000900463ffffffff16806306661abd1461010c5780630f3d953d146101375780632d883a73146101745780633a41cac0146101b2578063414a4743146101ef578063430ac62a1461022c57806360e70f5e14610269578063668414a41461029257806366df2e92146102d65780637460e3111461031357806381045ead1461035057806395bc26731461037b578063a2dd3d47146103b8578063aa09ec0e146103f5578063aac2956c14610432578063adb02ea51461046f578063c4b14e0b146104ac578063cf341d89146104e9578063e2b1e4ed14610526575b600080fd5b34801561011857600080fd5b50610121610563565b60405161012e919061309a565b60405180910390f35b34801561014357600080fd5b5061015e60048036036101599190810190612816565b61056f565b60405161016b919061309a565b60405180910390f35b34801561018057600080fd5b5061019b600480360361019691908101906128f8565b6108ad565b6040516101a992919061306a565b60405180910390f35b3480156101be57600080fd5b506101d960048036036101d49190810190612786565b610bcf565b6040516101e69190612f86565b60405180910390f35b3480156101fb57600080fd5b50610216600480360361021191908101906127c2565b610c97565b6040516102239190612e9b565b60405180910390f35b34801561023857600080fd5b50610253600480360361024e919081019061265f565b610cca565b6040516102609190612e80565b60405180910390f35b34801561027557600080fd5b50610290600480360361028b919081019061265f565b610dc9565b005b34801561029e57600080fd5b506102b960048036036102b49190810190612636565b610f81565b6040516102cd989796959493929190612ed1565b60405180910390f35b3480156102e257600080fd5b506102fd60048036036102f891908101906126b3565b6110b5565b60405161030a9190612e80565b60405180910390f35b34801561031f57600080fd5b5061033a600480360361033591908101906128f8565b61168c565b6040516103479190612e9b565b60405180910390f35b34801561035c57600080fd5b506103656116af565b6040516103729190612e3c565b60405180910390f35b34801561038757600080fd5b506103a2600480360361039d9190810190612636565b611707565b6040516103af919061309a565b60405180910390f35b3480156103c457600080fd5b506103df60048036036103da9190810190612636565b61188c565b6040516103ec9190613048565b60405180910390f35b34801561040157600080fd5b5061041c60048036036104179190810190612636565b611b2e565b6040516104299190612e5e565b60405180910390f35b34801561043e57600080fd5b5061045960048036036104549190810190612707565b611c2d565b6040516104669190612e80565b60405180910390f35b34801561047b57600080fd5b5061049660048036036104919190810190612636565b611c54565b6040516104a39190612e5e565b60405180910390f35b3480156104b857600080fd5b506104d360048036036104ce9190810190612636565b611d50565b6040516104e09190612eb6565b60405180910390f35b3480156104f557600080fd5b50610510600480360361050b91908101906127c2565b6120f4565b60405161051d9190613048565b60405180910390f35b34801561053257600080fd5b5061054d60048036036105489190810190612636565b61211c565b60405161055a9190612e80565b60405180910390f35b60008080549050905090565b60008061057c8a8a610c97565b90506105878161211c565b1515156105c9576040517f08c379a00000000000000000000000000000000000000000000000000000000081526004016105c090613028565b60405180910390fd5b60008090505b8851811015610673576106016105fc8c8b848151811015156105ed57fe5b90602001906020020151610c97565b61211c565b15801561062657506000898281518110151561061957fe5b9060200190602002015151115b15610666576040517f08c379a000000000000000000000000000000000000000000000000000000000815260040161065d90612fe8565b60405180910390fd5b80806001019150506105cf565b50896001600083815260200190815260200160002060000160006101000a81548160ff021916908360028111156106a657fe5b0217905550866001600083815260200190815260200160002060000160016101000a81548160ff021916908315150217905550856001600083815260200190815260200160002060000160026101000a81548160ff021916908315150217905550846001600083815260200190815260200160002060000160036101000a81548160ff0219169083151502179055508860016000838152602001908152602001600020600301908051906020019061075f92919061216e565b508760016000838152602001908152602001600020600401908051906020019061078a9291906121ee565b50836001600083815260200190815260200160002060000160046101000a81548173ffffffffffffffffffffffffffffffffffffffff021916908373ffffffffffffffffffffffffffffffffffffffff160217905550826001600083815260200190815260200160002060010181905550600160008290806001815401808255809150509060018203906000526020600020016000909192909190915055036001600083815260200190815260200160002060020181905550807fb984a93e20552bfa6c1c989cedccd9b5f688a362c7b804f8834f0b2899493df560016000848152602001908152602001600020600201548b8b60405161088d939291906130b5565b60405180910390a260016000805490500391505098975050505050505050565b6108b561224e565b600080805490508311156108fe576040517f08c379a00000000000000000000000000000000000000000000000000000000081526004016108f590613008565b60405180910390fd5b60016000808581548110151561091057fe5b9060005260206000200154815260200190815260200160002060008481548110151561093857fe5b90600052602060002001548161012060405190810160405290816000820160009054906101000a900460ff16600281111561096f57fe5b600281111561097a57fe5b81526020016000820160019054906101000a900460ff161515151581526020016000820160029054906101000a900460ff161515151581526020016000820160039054906101000a900460ff161515151581526020016000820160049054906101000a900473ffffffffffffffffffffffffffffffffffffffff1673ffffffffffffffffffffffffffffffffffffffff1673ffffffffffffffffffffffffffffffffffffffff1681526020016001820154815260200160028201548152602001600382018054600181600116156101000203166002900480601f016020809104026020016040519081016040528092919081815260200182805460018160011615610100020316600290048015610ad25780601f10610aa757610100808354040283529160200191610ad2565b820191906000526020600020905b815481529060010190602001808311610ab557829003601f168201915b5050505050815260200160048201805480602002602001604051908101604052809291908181526020016000905b82821015610bbc578382906000526020600020018054600181600116156101000203166002900480601f016020809104026020016040519081016040528092919081815260200182805460018160011615610100020316600290048015610ba85780601f10610b7d57610100808354040283529160200191610ba8565b820191906000526020600020905b815481529060010190602001808311610b8b57829003601f168201915b505050505081526020019060010190610b00565b5050505081525050915091509150915091565b600260205281600052604060002081815481101515610bea57fe5b90600052602060002001600091509150508054600181600116156101000203166002900480601f016020809104026020016040519081016040528092919081815260200182805460018160011615610100020316600290048015610c8f5780601f10610c6457610100808354040283529160200191610c8f565b820191906000526020600020905b815481529060010190602001808311610c7257829003601f168201915b505050505081565b60008282604051602001610cac929190612f56565b60405160208183030381529060405280519060200120905092915050565b600082610cd68161211c565b1515610d17576040517f08c379a0000000000000000000000000000000000000000000000000000000008152600401610d0e90612fa8565b60405180910390fd5b82600160008681526020019081526020016000206004019080519060200190610d419291906121ee565b50837ff7ea479b7ed108965977a3f25432116419af44f06a10d2316a461dbb4bf54b1760016000878152602001908152602001600020600201546001600088815260200190815260200160002060030160016000898152602001908152602001600020600401604051610db6939291906130fa565b60405180910390a2600191505092915050565b81610dd38161211c565b1515610e14576040517f08c379a0000000000000000000000000000000000000000000000000000000008152600401610e0b90612fa8565b60405180910390fd5b6000600160008581526020019081526020016000209050600115156001600086815260200190815260200160002060000160039054906101000a900460ff161515141515610e97576040517f08c379a0000000000000000000000000000000000000000000000000000000008152600401610e8e90612fc8565b60405180910390fd5b60008090505b8351811015610f5257610ee0610edb8360000160009054906101000a900460ff168684815181101515610ecc57fe5b90602001906020020151610c97565b61211c565b8015610f04575060008482815181101515610ef757fe5b9060200190602002015151115b1515610f45576040517f08c379a0000000000000000000000000000000000000000000000000000000008152600401610f3c90612fe8565b60405180910390fd5b8080600101915050610e9d565b5082600260008681526020019081526020016000209080519060200190610f7a9291906121ee565b5050505050565b60016020528060005260406000206000915090508060000160009054906101000a900460ff16908060000160019054906101000a900460ff16908060000160029054906101000a900460ff16908060000160039054906101000a900460ff16908060000160049054906101000a900473ffffffffffffffffffffffffffffffffffffffff1690806001015490806002015490806003018054600181600116156101000203166002900480601f0160208091040260200160405190810160405280929190818152602001828054600181600116156101000203166002900480156110ab5780601f10611080576101008083540402835291602001916110ab565b820191906000526020600020905b81548152906001019060200180831161108e57829003601f168201915b5050505050905088565b6000826110c18161211c565b1515611102576040517f08c379a00000000000000000000000000000000000000000000000000000000081526004016110f990612fa8565b60405180910390fd5b61110a61224e565b6001600086815260200190815260200160002061012060405190810160405290816000820160009054906101000a900460ff16600281111561114857fe5b600281111561115357fe5b81526020016000820160019054906101000a900460ff161515151581526020016000820160029054906101000a900460ff161515151581526020016000820160039054906101000a900460ff161515151581526020016000820160049054906101000a900473ffffffffffffffffffffffffffffffffffffffff1673ffffffffffffffffffffffffffffffffffffffff1673ffffffffffffffffffffffffffffffffffffffff1681526020016001820154815260200160028201548152602001600382018054600181600116156101000203166002900480601f0160208091040260200160405190810160405280929190818152602001828054600181600116156101000203166002900480156112ab5780601f10611280576101008083540402835291602001916112ab565b820191906000526020600020905b81548152906001019060200180831161128e57829003601f168201915b5050505050815260200160048201805480602002602001604051908101604052809291908181526020016000905b82821015611395578382906000526020600020018054600181600116156101000203166002900480601f0160208091040260200160405190810160405280929190818152602001828054600181600116156101000203166002900480156113815780601f1061135657610100808354040283529160200191611381565b820191906000526020600020905b81548152906001019060200180831161136457829003601f168201915b5050505050815260200190600101906112d9565b5050505081525050905060006113af826000015186610c97565b9050816001600083815260200190815260200160002060008201518160000160006101000a81548160ff021916908360028111156113e957fe5b021790555060208201518160000160016101000a81548160ff02191690831515021790555060408201518160000160026101000a81548160ff02191690831515021790555060608201518160000160036101000a81548160ff02191690831515021790555060808201518160000160046101000a81548173ffffffffffffffffffffffffffffffffffffffff021916908373ffffffffffffffffffffffffffffffffffffffff16021790555060a0820151816001015560c0820151816002015560e08201518160030190805190602001906114c59291906122c5565b506101008201518160040190805190602001906114e3929190612345565b509050508460016000838152602001908152602001600020600301908051906020019061151192919061216e565b50806000600160008481526020019081526020016000206002015481548110151561153857fe5b906000526020600020018190555060016000878152602001908152602001600020600080820160006101000a81549060ff02191690556000820160016101000a81549060ff02191690556000820160026101000a81549060ff02191690556000820160036101000a81549060ff02191690556000820160046101000a81549073ffffffffffffffffffffffffffffffffffffffff0219169055600182016000905560028201600090556003820160006115f191906123a5565b60048201600061160191906123ed565b5050857ff7ea479b7ed108965977a3f25432116419af44f06a10d2316a461dbb4bf54b1760016000848152602001908152602001600020600201546001600085815260200190815260200160002060030160016000868152602001908152602001600020600401604051611677939291906130fa565b60405180910390a26001935050505092915050565b60008181548110151561169b57fe5b906000526020600020016000915090505481565b606060008054806020026020016040519081016040528092919081815260200182805480156116fd57602002820191906000526020600020905b8154815260200190600101908083116116e9575b5050505050905090565b6000816117138161211c565b1515611754576040517f08c379a000000000000000000000000000000000000000000000000000000000815260040161174b90612fa8565b60405180910390fd5b60006001600085815260200190815260200160002060020154905060008060016000805490500381548110151561178757fe5b90600052602060002001549050806000838154811015156117a457fe5b906000526020600020018190555081600160008381526020019081526020016000206002018190555060008054809190600190036117e2919061240e565b50847f7aba1b7c67426c7ad78ea21a678946741a0c8795e99fa106728122a461e33cbc83604051611813919061309a565b60405180910390a2807ff7ea479b7ed108965977a3f25432116419af44f06a10d2316a461dbb4bf54b17836001600085815260200190815260200160002060030160016000868152602001908152602001600020600401604051611879939291906130fa565b60405180910390a2819350505050919050565b61189461224e565b6001600083815260200190815260200160002061012060405190810160405290816000820160009054906101000a900460ff1660028111156118d257fe5b60028111156118dd57fe5b81526020016000820160019054906101000a900460ff161515151581526020016000820160029054906101000a900460ff161515151581526020016000820160039054906101000a900460ff161515151581526020016000820160049054906101000a900473ffffffffffffffffffffffffffffffffffffffff1673ffffffffffffffffffffffffffffffffffffffff1673ffffffffffffffffffffffffffffffffffffffff1681526020016001820154815260200160028201548152602001600382018054600181600116156101000203166002900480601f016020809104026020016040519081016040528092919081815260200182805460018160011615610100020316600290048015611a355780601f10611a0a57610100808354040283529160200191611a35565b820191906000526020600020905b815481529060010190602001808311611a1857829003601f168201915b5050505050815260200160048201805480602002602001604051908101604052809291908181526020016000905b82821015611b1f578382906000526020600020018054600181600116156101000203166002900480601f016020809104026020016040519081016040528092919081815260200182805460018160011615610100020316600290048015611b0b5780601f10611ae057610100808354040283529160200191611b0b565b820191906000526020600020905b815481529060010190602001808311611aee57829003601f168201915b505050505081526020019060010190611a63565b50505050815250509050919050565b606060016000838152602001908152602001600020600401805480602002602001604051908101604052809291908181526020016000905b82821015611c22578382906000526020600020018054600181600116156101000203166002900480601f016020809104026020016040519081016040528092919081815260200182805460018160011615610100020316600290048015611c0e5780601f10611be357610100808354040283529160200191611c0e565b820191906000526020600020905b815481529060010190602001808311611bf157829003601f168201915b505050505081526020019060010190611b66565b505050509050919050565b6000611c398483610cca565b8015611c4b5750611c4a84846110b5565b5b90509392505050565b606060026000838152602001908152602001600020805480602002602001604051908101604052809291908181526020016000905b82821015611d45578382906000526020600020018054600181600116156101000203166002900480601f016020809104026020016040519081016040528092919081815260200182805460018160011615610100020316600290048015611d315780601f10611d0657610100808354040283529160200191611d31565b820191906000526020600020905b815481529060010190602001808311611d1457829003601f168201915b505050505081526020019060010190611c89565b505050509050919050565b6000806001600084815260200190815260200160002090506060816003016040516020018082805460018160011615610100020316600290048015611dcc5780601f10611daa576101008083540402835291820191611dcc565b820191906000526020600020905b815481529060010190602001808311611db8575b5050807f28000000000000000000000000000000000000000000000000000000000000008152506001019150506040516020818303038152906040529050600182600401805490501115611f4d5760008090505b6001836004018054905003811015611f4b57818360040182815481101515611e4457fe5b906000526020600020016040516020018083805190602001908083835b602083101515611e865780518252602082019150602081019050602083039250611e61565b6001836020036101000a03801982511681845116808217855250505050505090500182805460018160011615610100020316600290048015611eff5780601f10611edd576101008083540402835291820191611eff565b820191906000526020600020905b815481529060010190602001808311611eeb575b5050807f2c000000000000000000000000000000000000000000000000000000000000008152506001019250505060405160208183030381529060405291508080600101915050611e20565b505b60008260040180549050111561204c5780826004016001846004018054905003815481101515611f7957fe5b906000526020600020016040516020018083805190602001908083835b602083101515611fbb5780518252602082019150602081019050602083039250611f96565b6001836020036101000a038019825116818451168082178552505050505050905001828054600181600116156101000203166002900480156120345780601f10612012576101008083540402835291820191612034565b820191906000526020600020905b815481529060010190602001808311612020575b50509250505060405160208183030381529060405290505b806040516020018082805190602001908083835b6020831015156120855780518252602082019150602081019050602083039250612060565b6001836020036101000a038019825116818451168082178552505050505050905001807f29000000000000000000000000000000000000000000000000000000000000008152506001019150506040516020818303038152906040529050808051906020012092505050919050565b6120fc61224e565b60006121088484610c97565b90506121138161188c565b91505092915050565b60008060008054905014156121345760009050612169565b816000600160008581526020019081526020016000206002015481548110151561215a57fe5b90600052602060002001541490505b919050565b828054600181600116156101000203166002900490600052602060002090601f016020900481019282601f106121af57805160ff19168380011785556121dd565b828001600101855582156121dd579182015b828111156121dc5782518255916020019190600101906121c1565b5b5090506121ea919061243a565b5090565b82805482825590600052602060002090810192821561223d579160200282015b8281111561223c57825182908051906020019061222c9291906122c5565b509160200191906001019061220e565b5b50905061224a919061245f565b5090565b610120604051908101604052806000600281111561226857fe5b8152602001600015158152602001600015158152602001600015158152602001600073ffffffffffffffffffffffffffffffffffffffff168152602001600080191681526020016000815260200160608152602001606081525090565b828054600181600116156101000203166002900490600052602060002090601f016020900481019282601f1061230657805160ff1916838001178555612334565b82800160010185558215612334579182015b82811115612333578251825591602001919060010190612318565b5b509050612341919061243a565b5090565b828054828255906000526020600020908101928215612394579160200282015b828111156123935782518290805190602001906123839291906122c5565b5091602001919060010190612365565b5b5090506123a1919061245f565b5090565b50805460018160011615610100020316600290046000825580601f106123cb57506123ea565b601f0160209004906000526020600020908101906123e9919061243a565b5b50565b508054600082559060005260206000209081019061240b919061245f565b50565b81548183558181111561243557818360005260206000209182019101612434919061248b565b5b505050565b61245c91905b80821115612458576000816000905550600101612440565b5090565b90565b61248891905b80821115612484576000818161247b91906123a5565b50600101612465565b5090565b90565b6124ad91905b808211156124a9576000816000905550600101612491565b5090565b90565b60006124bc8235613341565b905092915050565b600082601f83011215156124d757600080fd5b81356124ea6124e58261316c565b61313f565b9150818183526020840193506020810190508360005b8381101561253057813586016125168882612576565b845260208401935060208301925050600181019050612500565b5050505092915050565b60006125468235613353565b905092915050565b600061255a823561335f565b905092915050565b600061256e8235613369565b905092915050565b600082601f830112151561258957600080fd5b813561259c61259782613194565b61313f565b915080825260208301602083018583830111156125b857600080fd5b6125c383828461339e565b50505092915050565b600082601f83011215156125df57600080fd5b81356125f26125ed826131c0565b61313f565b9150808252602083016020830185838301111561260e57600080fd5b61261983828461339e565b50505092915050565b600061262e8235613382565b905092915050565b60006020828403121561264857600080fd5b60006126568482850161254e565b91505092915050565b6000806040838503121561267257600080fd5b60006126808582860161254e565b925050602083013567ffffffffffffffff81111561269d57600080fd5b6126a9858286016124c4565b9150509250929050565b600080604083850312156126c657600080fd5b60006126d48582860161254e565b925050602083013567ffffffffffffffff8111156126f157600080fd5b6126fd858286016125cc565b9150509250929050565b60008060006060848603121561271c57600080fd5b600061272a8682870161254e565b935050602084013567ffffffffffffffff81111561274757600080fd5b612753868287016125cc565b925050604084013567ffffffffffffffff81111561277057600080fd5b61277c868287016124c4565b9150509250925092565b6000806040838503121561279957600080fd5b60006127a78582860161254e565b92505060206127b885828601612622565b9150509250929050565b600080604083850312156127d557600080fd5b60006127e385828601612562565b925050602083013567ffffffffffffffff81111561280057600080fd5b61280c858286016125cc565b9150509250929050565b600080600080600080600080610100898b03121561283357600080fd5b60006128418b828c01612562565b985050602089013567ffffffffffffffff81111561285e57600080fd5b61286a8b828c016125cc565b975050604089013567ffffffffffffffff81111561288757600080fd5b6128938b828c016124c4565b96505060606128a48b828c0161253a565b95505060806128b58b828c0161253a565b94505060a06128c68b828c0161253a565b93505060c06128d78b828c016124b0565b92505060e06128e88b828c0161254e565b9150509295985092959890939650565b60006020828403121561290a57600080fd5b600061291884828501612622565b91505092915050565b61292a816132ad565b82525050565b600061293b82613237565b80845260208401935061294d836131ec565b60005b8281101561297f57612963868351612ae3565b61296c82613279565b9150602086019550600181019050612950565b50849250505092915050565b60006129968261324d565b808452602084019350836020820285016129af85613206565b60005b848110156129e85783830388526129ca838351612b46565b92506129d582613293565b91506020880197506001810190506129b2565b508196508694505050505092915050565b6000612a0482613242565b80845260208401935083602082028501612a1d856131f9565b60005b84811015612a56578383038852612a38838351612b46565b9250612a4382613286565b9150602088019750600181019050612a20565b508196508694505050505092915050565b6000612a7282613258565b80845260208401935083602082028501612a8b85613213565b60005b84811015612ac3578383038852612aa58383612b7c565b9250612ab0826132a0565b9150602088019750600181019050612a8e565b508196508694505050505092915050565b612add816132bf565b82525050565b612aec816132cb565b82525050565b612afb816132d5565b82525050565b612b0a8161338c565b82525050565b6000612b1b8261326e565b808452612b2f8160208601602086016133ad565b612b38816133e0565b602085010191505092915050565b6000612b5182613263565b808452612b658160208601602086016133ad565b612b6e816133e0565b602085010191505092915050565b600081546001811660008114612b995760018114612bb957612bfa565b607f600283041680865260ff198316602087015260408601935050612bfa565b60028204808652602086019550612bcf85613225565b60005b82811015612bf157815481890152600182019150602081019050612bd2565b80880195505050505b505092915050565b6000601582527f4e6f2073756368207479706520696e73657274656400000000000000000000006020830152604082019050919050565b6000601282527f7479706520686173206e6f206f757470757400000000000000000000000000006020830152604082019050919050565b6000604182527f41207479706520696e2074686520636f6d706f736974696f6e20646f6573206e60208301527f6f74206578697374732e20557365206f6e6c7920657874616e7420747970657360408301527f2e000000000000000000000000000000000000000000000000000000000000006060830152608082019050919050565b6000600e82527f496e64657820746f6f206269672e0000000000000000000000000000000000006020830152604082019050919050565b6000601382527f5479706520616c726561647920657869737473000000000000000000000000006020830152604082019050919050565b600061012083016000830151612d7a6000860182612b01565b506020830151612d8d6020860182612ad4565b506040830151612da06040860182612ad4565b506060830151612db36060860182612ad4565b506080830151612dc66080860182612921565b5060a0830151612dd960a0860182612ae3565b5060c0830151612dec60c0860182612e2d565b5060e083015184820360e0860152612e048282612b46565b915050610100830151848203610100860152612e2082826129f9565b9150508091505092915050565b612e3681613337565b82525050565b60006020820190508181036000830152612e568184612930565b905092915050565b60006020820190508181036000830152612e78818461298b565b905092915050565b6000602082019050612e956000830184612ad4565b92915050565b6000602082019050612eb06000830184612ae3565b92915050565b6000602082019050612ecb6000830184612af2565b92915050565b600061010082019050612ee7600083018b612b01565b612ef4602083018a612ad4565b612f016040830189612ad4565b612f0e6060830188612ad4565b612f1b6080830187612921565b612f2860a0830186612ae3565b612f3560c0830185612e2d565b81810360e0830152612f478184612b46565b90509998505050505050505050565b6000604082019050612f6b6000830185612b01565b8181036020830152612f7d8184612b10565b90509392505050565b60006020820190508181036000830152612fa08184612b46565b905092915050565b60006020820190508181036000830152612fc181612c02565b9050919050565b60006020820190508181036000830152612fe181612c39565b9050919050565b6000602082019050818103600083015261300181612c70565b9050919050565b6000602082019050818103600083015261302181612cf3565b9050919050565b6000602082019050818103600083015261304181612d2a565b9050919050565b600060208201905081810360008301526130628184612d61565b905092915050565b600060408201905081810360008301526130848185612d61565b90506130936020830184612ae3565b9392505050565b60006020820190506130af6000830184612e2d565b92915050565b60006060820190506130ca6000830186612e2d565b81810360208301526130dc8185612b10565b905081810360408301526130f0818461298b565b9050949350505050565b600060608201905061310f6000830186612e2d565b81810360208301526131218185612b7c565b905081810360408301526131358184612a67565b9050949350505050565b6000604051905081810181811067ffffffffffffffff8211171561316257600080fd5b8060405250919050565b600067ffffffffffffffff82111561318357600080fd5b602082029050602081019050919050565b600067ffffffffffffffff8211156131ab57600080fd5b601f19601f8301169050602081019050919050565b600067ffffffffffffffff8211156131d757600080fd5b601f19601f8301169050602081019050919050565b6000602082019050919050565b6000602082019050919050565b6000602082019050919050565b60008160005260206000209050919050565b60008160005260206000209050919050565b600081519050919050565b600081519050919050565b600081519050919050565b600081549050919050565b600081519050919050565b600081519050919050565b6000602082019050919050565b6000602082019050919050565b6000602082019050919050565b6000600182019050919050565b60006132b882613317565b9050919050565b60008115159050919050565b6000819050919050565b60007fffffffff0000000000000000000000000000000000000000000000000000000082169050919050565b600060038210151561330f57fe5b819050919050565b600073ffffffffffffffffffffffffffffffffffffffff82169050919050565b6000819050919050565b600061334c82613317565b9050919050565b60008115159050919050565b6000819050919050565b600060038210151561337a57600080fd5b819050919050565b6000819050919050565b600061339782613301565b9050919050565b82818337600083830152505050565b60005b838110156133cb5780820151818401526020810190506133b0565b838111156133da576000848401525b50505050565b6000601f19601f830116905091905056fea265627a7a723058200e69c8ae23e027adad95ce248364230086e1883e51b674b683dcbc2eddc12c7e6c6578706572696d656e74616cf50037",
  "source": "pragma solidity ^0.5.0;\npragma experimental ABIEncoderV2;\n\ncontract dType {\n    bytes32[] public typeIndex;\n    mapping(bytes32 => Type) public typeStruct;\n    mapping(bytes32 => string[]) public outputIndex;\n\n    enum LangChoices { Solidity, JavaScript, Python }\n    LangChoices constant defaultLang = LangChoices.Solidity;\n\n    struct Type {\n        LangChoices lang;\n        bool isEvent;\n        bool isFunction;\n        bool hasOutput;\n        address contractAddress;\n        bytes32 source;\n        uint256 index;\n        string name;\n        string[] types;\n    }\n\n    modifier typeExists (bytes32 typeHash) {\n        require(isType(typeHash), 'No such type inserted');\n        _;\n    }\n\n    modifier typeNotExists (bytes32 typeHash) {\n        require(!isType(typeHash), 'Type already exists');\n        _;\n    }\n\n    event LogNew(\n        bytes32 indexed typeHash,\n        uint256 index,\n        string name,\n        string[] types\n    );\n\n    event LogUpdate(\n        bytes32 indexed typeHash,\n        uint index,\n        string name,\n        string[] types\n    );\n\n    event LogRemove(\n        bytes32 indexed typeHash,\n        uint256 index\n    );\n\n    function insert(\n        LangChoices lang,\n        string memory name,\n        string[] memory types,\n        bool isEvent,\n        bool isFunction,\n        bool hasOutput,\n        address contractAddress,\n        bytes32 source\n    )\n        public\n        returns(uint256 index)\n    {\n        bytes32 typeHash = getTypeHash(lang, name);\n        require(!isType(typeHash), 'Type already exists');\n\n        for (uint256 i = 0 ; i < types.length; i++) {\n            if (!isType(getTypeHash(lang, types[i])) && bytes(types[i]).length > 0) {\n                revert(\"A type in the composition does not exists. Use only extant types.\");\n            }\n        }\n        typeStruct[typeHash].lang = lang;\n        typeStruct[typeHash].isEvent = isEvent;\n        typeStruct[typeHash].isFunction = isFunction;\n        typeStruct[typeHash].hasOutput = hasOutput;\n        typeStruct[typeHash].name = name;\n        typeStruct[typeHash].types = types;\n        typeStruct[typeHash].contractAddress = contractAddress;\n        typeStruct[typeHash].source = source;\n        typeStruct[typeHash].index = typeIndex.push(typeHash)-1;\n\n        emit LogNew(\n            typeHash,\n            typeStruct[typeHash].index,\n            name,\n            types\n        );\n\n        return typeIndex.length-1;\n    }\n\n    function update(\n        bytes32 typeHash,\n        string memory newName,\n        string[] memory newTypes\n    )\n        public\n        returns(bool success)\n    {\n        return (\n            updateTypes(typeHash, newTypes) &&\n            updateName(typeHash, newName)\n        );\n    }\n\n    function updateTypes(\n        bytes32 typeHash,\n        string[] memory newTypes\n    )\n        typeExists(typeHash)\n        public\n        returns(bool success)\n    {\n        typeStruct[typeHash].types = newTypes;\n\n        emit LogUpdate(\n            typeHash,\n            typeStruct[typeHash].index,\n            typeStruct[typeHash].name,\n            typeStruct[typeHash].types\n        );\n\n        return true;\n    }\n\n    function updateName(\n        bytes32 typeHash,\n        string memory newName\n    )\n        typeExists(typeHash)\n        public\n        returns(bool success)\n    {\n        Type memory dtype = typeStruct[typeHash];\n        bytes32 newTypeHash = getTypeHash(dtype.lang, newName);\n\n        typeStruct[newTypeHash] = dtype;\n        typeStruct[newTypeHash].name = newName;\n        typeIndex[typeStruct[newTypeHash].index] = newTypeHash;\n        delete typeStruct[typeHash];\n\n        emit LogUpdate(\n            typeHash,\n            typeStruct[newTypeHash].index,\n            typeStruct[newTypeHash].name,\n            typeStruct[newTypeHash].types\n        );\n\n        return true;\n    }\n\n    function remove(bytes32 typeHash)\n        typeExists(typeHash)\n        public\n        returns(uint256 index)\n    {\n        uint rowToDelete = typeStruct[typeHash].index;\n        bytes32 keyToMove = typeIndex[typeIndex.length-1];\n        typeIndex[rowToDelete] = keyToMove;\n        typeStruct[keyToMove].index = rowToDelete;\n        typeIndex.length--;\n\n        // TODO remove outputIndex[typeHash]\n\n        emit LogRemove(typeHash, rowToDelete);\n        emit LogUpdate(\n            keyToMove,\n            rowToDelete,\n            typeStruct[keyToMove].name,\n            typeStruct[keyToMove].types\n        );\n        return rowToDelete;\n    }\n\n    function setOutputs(bytes32 typeHash, string[] memory outputs)\n        typeExists(typeHash)\n        public\n    {\n        Type storage dtype = typeStruct[typeHash];\n\n        require(typeStruct[typeHash].hasOutput == true, 'type has no output');\n\n        for (uint256 i = 0 ; i < outputs.length; i++) {\n            require(\n                isType(getTypeHash(dtype.lang, outputs[i])) &&\n                bytes(outputs[i]).length > 0,\n                'A type in the composition does not exists. Use only extant types.'\n            );\n        }\n        outputIndex[typeHash] = outputs;\n    }\n\n    function count() public view returns(uint256 counter)\n    {\n        return typeIndex.length;\n    }\n\n    function getIndex() public view returns(bytes32[] memory indext) {\n        return typeIndex;\n    }\n\n    function getTypeHash(LangChoices lang, string memory name)\n        pure\n        public\n        returns (bytes32 typeHash)\n    {\n        return keccak256(abi.encode(lang, name));\n    }\n\n    function getByHash(bytes32 typeHash) view public returns(Type memory dtype) {\n        return typeStruct[typeHash];\n    }\n\n    function get(LangChoices lang, string memory name)\n        view\n        public\n        returns(Type memory dtype)\n    {\n        bytes32 typeHash = getTypeHash(lang, name);\n        return getByHash(typeHash);\n    }\n\n    function isType(bytes32 typeHash)\n        view\n        public\n        returns(bool isIndeed)\n    {\n        if (typeIndex.length == 0) {\n            return false;\n        }\n        return (typeIndex[typeStruct[typeHash].index] == typeHash);\n    }\n\n    function getOutputs(bytes32 typeHash) view public returns (string[] memory outputs) {\n        return outputIndex[typeHash];\n    }\n\n    function getTypes(bytes32 typeHash)\n        public\n        view\n        returns(string[] memory types)\n    {\n       return typeStruct[typeHash].types;\n    }\n\n    function getByIndex(uint256 index)\n        view\n        public\n        returns(Type memory dtype, bytes32 typeHash)\n    {\n        if(index > typeIndex.length ) {\n            revert(\"Index too big.\");\n        }\n        return (typeStruct[typeIndex[index]],  typeIndex[index]);\n    }\n\n    function getSignature(bytes32 typeHash)\n        view\n        public\n        returns (bytes4 signature)\n    {\n        Type storage dtype = typeStruct[typeHash];\n        bytes memory encoded = abi.encodePacked(dtype.name, '(');\n\n        if (dtype.types.length > 1) {\n            for (uint256 i = 0; i < dtype.types.length - 1; i++)  {\n                encoded = abi.encodePacked(encoded, dtype.types[i], ',');\n            }\n        }\n        if (dtype.types.length > 0) {\n            encoded = abi.encodePacked(encoded, dtype.types[dtype.types.length - 1]);\n        }\n        encoded = abi.encodePacked(encoded, ')');\n        return bytes4(keccak256(encoded));\n    }\n}\n",
  "sourcePath": "/Users/loredana/ETH/dType/contracts/contracts/dType.sol",
  "compiler": {
    "name": "solc",
    "version": "0.5.0+commit.1d4f565a.Emscripten.clang"
  },
  "schemaVersion": "3.0.2",
  "updatedAt": "2019-03-16T18:06:25.511Z",
  "devdoc": {
    "methods": {}
  },
  "userdoc": {
    "methods": {}
  }
}