{
  "contractName": "dType",
  "abi": [
    {
      "constant": true,
      "inputs": [
        {
          "name": "",
          "type": "bytes32"
        }
      ],
      "name": "typeStruct",
      "outputs": [
        {
          "name": "name",
          "type": "string"
        },
        {
          "name": "contractAddress",
          "type": "address"
        },
        {
          "name": "source",
          "type": "bytes32"
        },
        {
          "name": "index",
          "type": "uint256"
        }
      ],
      "payable": false,
      "stateMutability": "view",
      "type": "function",
      "signature": "0x668414a4"
    },
    {
      "constant": true,
      "inputs": [
        {
          "name": "",
          "type": "uint256"
        }
      ],
      "name": "typeIndex",
      "outputs": [
        {
          "name": "",
          "type": "bytes32"
        }
      ],
      "payable": false,
      "stateMutability": "view",
      "type": "function",
      "signature": "0x7460e311"
    },
    {
      "anonymous": false,
      "inputs": [
        {
          "indexed": true,
          "name": "typeHash",
          "type": "bytes32"
        },
        {
          "indexed": false,
          "name": "index",
          "type": "uint256"
        },
        {
          "indexed": false,
          "name": "name",
          "type": "string"
        },
        {
          "indexed": false,
          "name": "types",
          "type": "bytes32[]"
        }
      ],
      "name": "LogNew",
      "type": "event",
      "signature": "0xe05ec020c046042e53c2ff025df3f0b5ae276fbefeeb656d68705b1201d04f9f"
    },
    {
      "anonymous": false,
      "inputs": [
        {
          "indexed": true,
          "name": "typeHash",
          "type": "bytes32"
        },
        {
          "indexed": false,
          "name": "index",
          "type": "uint256"
        },
        {
          "indexed": false,
          "name": "name",
          "type": "string"
        },
        {
          "indexed": false,
          "name": "types",
          "type": "bytes32[]"
        }
      ],
      "name": "LogUpdate",
      "type": "event",
      "signature": "0xe4c7d8643b78c6e70663bb25601ae5687068f4fda5f032db6c931600e8f3b1f3"
    },
    {
      "anonymous": false,
      "inputs": [
        {
          "indexed": true,
          "name": "typeHash",
          "type": "bytes32"
        },
        {
          "indexed": false,
          "name": "index",
          "type": "uint256"
        }
      ],
      "name": "LogRemove",
      "type": "event",
      "signature": "0x7aba1b7c67426c7ad78ea21a678946741a0c8795e99fa106728122a461e33cbc"
    },
    {
      "constant": true,
      "inputs": [],
      "name": "getIndex",
      "outputs": [
        {
          "name": "indext",
          "type": "bytes32[]"
        }
      ],
      "payable": false,
      "stateMutability": "view",
      "type": "function",
      "signature": "0x81045ead"
    },
    {
      "constant": true,
      "inputs": [
        {
          "name": "typeHash",
          "type": "bytes32"
        }
      ],
      "name": "isType",
      "outputs": [
        {
          "name": "isIndeed",
          "type": "bool"
        }
      ],
      "payable": false,
      "stateMutability": "view",
      "type": "function",
      "signature": "0xe2b1e4ed"
    },
    {
      "constant": false,
      "inputs": [
        {
          "name": "name",
          "type": "string"
        },
        {
          "name": "types",
          "type": "bytes32[]"
        },
        {
          "name": "contractAddress",
          "type": "address"
        },
        {
          "name": "source",
          "type": "bytes32"
        }
      ],
      "name": "insert",
      "outputs": [
        {
          "name": "index",
          "type": "uint256"
        }
      ],
      "payable": false,
      "stateMutability": "nonpayable",
      "type": "function",
      "signature": "0x0546e26f"
    },
    {
      "constant": true,
      "inputs": [
        {
          "name": "hash",
          "type": "bytes32"
        }
      ],
      "name": "getTypes",
      "outputs": [
        {
          "name": "types",
          "type": "bytes32[]"
        }
      ],
      "payable": false,
      "stateMutability": "view",
      "type": "function",
      "signature": "0xaa09ec0e"
    },
    {
      "constant": true,
      "inputs": [
        {
          "name": "aname",
          "type": "string"
        },
        {
          "name": "astype",
          "type": "string"
        }
      ],
      "name": "get",
      "outputs": [
        {
          "name": "name",
          "type": "string"
        },
        {
          "name": "types",
          "type": "bytes32[]"
        },
        {
          "name": "index",
          "type": "uint256"
        }
      ],
      "payable": false,
      "stateMutability": "view",
      "type": "function",
      "signature": "0x3e10510b"
    },
    {
      "constant": true,
      "inputs": [
        {
          "name": "hash",
          "type": "bytes32"
        }
      ],
      "name": "getByHash",
      "outputs": [
        {
          "name": "name",
          "type": "string"
        },
        {
          "name": "types",
          "type": "bytes32[]"
        },
        {
          "name": "index",
          "type": "uint256"
        }
      ],
      "payable": false,
      "stateMutability": "view",
      "type": "function",
      "signature": "0xa2dd3d47"
    },
    {
      "constant": true,
      "inputs": [
        {
          "name": "index",
          "type": "uint256"
        }
      ],
      "name": "getByIndex",
      "outputs": [
        {
          "components": [
            {
              "name": "name",
              "type": "string"
            },
            {
              "name": "types",
              "type": "bytes32[]"
            },
            {
              "name": "contractAddress",
              "type": "address"
            },
            {
              "name": "source",
              "type": "bytes32"
            },
            {
              "name": "index",
              "type": "uint256"
            }
          ],
          "name": "atype",
          "type": "tuple"
        },
        {
          "name": "hash",
          "type": "bytes32"
        }
      ],
      "payable": false,
      "stateMutability": "view",
      "type": "function",
      "signature": "0x2d883a73"
    },
    {
      "constant": true,
      "inputs": [
        {
          "name": "name",
          "type": "string"
        }
      ],
      "name": "getByName",
      "outputs": [
        {
          "name": "types",
          "type": "bytes32[]"
        }
      ],
      "payable": false,
      "stateMutability": "view",
      "type": "function",
      "signature": "0xb336ad83"
    },
    {
      "constant": false,
      "inputs": [
        {
          "name": "name",
          "type": "string"
        },
        {
          "name": "types",
          "type": "bytes32[]"
        }
      ],
      "name": "update",
      "outputs": [
        {
          "name": "success",
          "type": "bool"
        }
      ],
      "payable": false,
      "stateMutability": "nonpayable",
      "type": "function",
      "signature": "0x9f8d55f8"
    },
    {
      "constant": false,
      "inputs": [
        {
          "name": "hash",
          "type": "bytes32"
        }
      ],
      "name": "remove",
      "outputs": [
        {
          "name": "index",
          "type": "uint256"
        }
      ],
      "payable": false,
      "stateMutability": "nonpayable",
      "type": "function",
      "signature": "0x95bc2673"
    },
    {
      "constant": true,
      "inputs": [],
      "name": "count",
      "outputs": [
        {
          "name": "counter",
          "type": "uint256"
        }
      ],
      "payable": false,
      "stateMutability": "view",
      "type": "function",
      "signature": "0x06661abd"
    }
  ],
  "bytecode": "0x608060405234801561001057600080fd5b50611e89806100206000396000f3fe6080604052600436106100c5576000357c0100000000000000000000000000000000000000000000000000000000900463ffffffff1680630546e26f146100ca57806306661abd146101075780632d883a73146101325780633e10510b14610170578063668414a4146101af5780637460e311146101ef57806381045ead1461022c57806395bc2673146102575780639f8d55f814610294578063a2dd3d47146102d1578063aa09ec0e14610310578063b336ad831461034d578063e2b1e4ed1461038a575b600080fd5b3480156100d657600080fd5b506100f160048036036100ec91908101906113ed565b6103c7565b6040516100fe9190611b7d565b60405180910390f35b34801561011357600080fd5b5061011c6106e4565b6040516101299190611b7d565b60405180910390f35b34801561013e57600080fd5b50610159600480360361015491908101906114ec565b6106f1565b604051610167929190611b4d565b60405180910390f35b34801561017c57600080fd5b5061019760048036036101929190810190611480565b610904565b6040516101a6939291906119e5565b60405180910390f35b3480156101bb57600080fd5b506101d660048036036101d19190810190611317565b61094c565b6040516101e69493929190611a61565b60405180910390f35b3480156101fb57600080fd5b50610216600480360361021191908101906114ec565b610a34565b6040516102239190611993565b60405180910390f35b34801561023857600080fd5b50610241610a57565b60405161024e9190611956565b60405180910390f35b34801561026357600080fd5b5061027e60048036036102799190810190611317565b610aaf565b60405161028b9190611b7d565b60405180910390f35b3480156102a057600080fd5b506102bb60048036036102b69190810190611381565b610c2d565b6040516102c89190611978565b60405180910390f35b3480156102dd57600080fd5b506102f860048036036102f39190810190611317565b610d69565b604051610307939291906119e5565b60405180910390f35b34801561031c57600080fd5b5061033760048036036103329190810190611317565b610ef3565b6040516103449190611956565b60405180910390f35b34801561035957600080fd5b50610374600480360361036f9190810190611340565b610f60565b6040516103819190611956565b60405180910390f35b34801561039657600080fd5b506103b160048036036103ac9190810190611317565b611023565b6040516103be9190611978565b60405180910390f35b60008085856040516020016103dd9291906119ae565b6040516020818303038152906040528051906020012090506103fe81611023565b1561043e576040517f08c379a000000000000000000000000000000000000000000000000000000000815260040161043590611aad565b60405180910390fd5b60008090505b85518110156104e25761046d868281518110151561045e57fe5b90602001906020020151611023565b15801561049557506000600102868281518110151561048857fe5b9060200190602002015114155b156104d5576040517f08c379a00000000000000000000000000000000000000000000000000000000081526004016104cc90611aed565b60405180910390fd5b8080600101915050610444565b5085600080838152602001908152602001600020600001908051906020019061050c929190611074565b508460008083815260200190815260200160002060010190805190602001906105369291906110f4565b508360008083815260200190815260200160002060020160006101000a81548173ffffffffffffffffffffffffffffffffffffffff021916908373ffffffffffffffffffffffffffffffffffffffff1602179055508260008083815260200190815260200160002060030181905550600180829080600181540180825580915050906001820390600052602060002001600090919290919091505503600080838152602001908152602001600020600401819055506002866040518082805190602001908083835b60208310151561062357805182526020820191506020810190506020830392506105fe565b6001836020036101000a0380198251168184511680821785525050505050509050019150509081526020016040518091039020819080600181540180825580915050906001820390600052602060002001600090919290919091505550807fe05ec020c046042e53c2ff025df3f0b5ae276fbefeeb656d68705b1201d04f9f6000808481526020019081526020016000206004015488886040516106c993929190611b98565b60405180910390a26001808054905003915050949350505050565b6000600180549050905090565b6106f9611141565b6000600180549050831115610743576040517f08c379a000000000000000000000000000000000000000000000000000000000815260040161073a90611b2d565b60405180910390fd5b60008060018581548110151561075557fe5b9060005260206000200154815260200190815260200160002060018481548110151561077d57fe5b90600052602060002001548160a06040519081016040529081600082018054600181600116156101000203166002900480601f01602080910402602001604051908101604052809291908181526020018280546001816001161561010002031660029004801561082e5780601f106108035761010080835404028352916020019161082e565b820191906000526020600020905b81548152906001019060200180831161081157829003601f168201915b505050505081526020016001820180548060200260200160405190810160405280929190818152602001828054801561088657602002820191906000526020600020905b815481526020019060010190808311610872575b505050505081526020016002820160009054906101000a900473ffffffffffffffffffffffffffffffffffffffff1673ffffffffffffffffffffffffffffffffffffffff1673ffffffffffffffffffffffffffffffffffffffff16815260200160038201548152602001600482015481525050915091509150915091565b606080600080858560405160200161091d929190611a2a565b60405160208183030381529060405280519060200120905061093e81610d69565b935093509350509250925092565b6000602052806000526040600020600091509050806000018054600181600116156101000203166002900480601f0160208091040260200160405190810160405280929190818152602001828054600181600116156101000203166002900480156109f85780601f106109cd576101008083540402835291602001916109f8565b820191906000526020600020905b8154815290600101906020018083116109db57829003601f168201915b5050505050908060020160009054906101000a900473ffffffffffffffffffffffffffffffffffffffff16908060030154908060040154905084565b600181815481101515610a4357fe5b906000526020600020016000915090505481565b60606001805480602002602001604051908101604052809291908181526020018280548015610aa557602002820191906000526020600020905b815481526020019060010190808311610a91575b5050505050905090565b6000610aba82611023565b1515610afb576040517f08c379a0000000000000000000000000000000000000000000000000000000008152600401610af290611b0d565b60405180910390fd5b60008060008481526020019081526020016000206004015490506000600180808054905003815481101515610b2c57fe5b9060005260206000200154905080600183815481101515610b4957fe5b906000526020600020018190555081600080838152602001908152602001600020600401819055506001805480919060019003610b86919061118a565b50837f7aba1b7c67426c7ad78ea21a678946741a0c8795e99fa106728122a461e33cbc83604051610bb79190611b7d565b60405180910390a2807fe4c7d8643b78c6e70663bb25601ae5687068f4fda5f032db6c931600e8f3b1f383600080858152602001908152602001600020600001600080868152602001908152602001600020600101604051610c1b93929190611c22565b60405180910390a28192505050919050565b6000808383604051602001610c439291906119ae565b604051602081830303815290604052805190602001209050610c6481611023565b1515610ca5576040517f08c379a0000000000000000000000000000000000000000000000000000000008152600401610c9c90611acd565b60405180910390fd5b836000808381526020019081526020016000206000019080519060200190610cce929190611074565b50826000808381526020019081526020016000206001019080519060200190610cf89291906110f4565b50807fe4c7d8643b78c6e70663bb25601ae5687068f4fda5f032db6c931600e8f3b1f36000808481526020019081526020016000206004015486600080868152602001908152602001600020600101604051610d5693929190611bdd565b60405180910390a2600191505092915050565b6060806000610d7784611023565b1515610db8576040517f08c379a0000000000000000000000000000000000000000000000000000000008152600401610daf90611acd565b60405180910390fd5b60008085815260200190815260200160002060000160008086815260200190815260200160002060010160008087815260200190815260200160002060040154828054600181600116156101000203166002900480601f016020809104026020016040519081016040528092919081815260200182805460018160011615610100020316600290048015610e8d5780601f10610e6257610100808354040283529160200191610e8d565b820191906000526020600020905b815481529060010190602001808311610e7057829003601f168201915b5050505050925081805480602002602001604051908101604052809291908181526020018280548015610edf57602002820191906000526020600020905b815481526020019060010190808311610ecb575b505050505091509250925092509193909250565b6060600080838152602001908152602001600020600101805480602002602001604051908101604052809291908181526020018280548015610f5457602002820191906000526020600020905b815481526020019060010190808311610f40575b50505050509050919050565b60606002826040518082805190602001908083835b602083101515610f9a5780518252602082019150602081019050602083039250610f75565b6001836020036101000a038019825116818451168082178552505050505050905001915050908152602001604051809103902080548060200260200160405190810160405280929190818152602001828054801561101757602002820191906000526020600020905b815481526020019060010190808311611003575b50505050509050919050565b600080600180549050141561103b576000905061106f565b8160016000808581526020019081526020016000206004015481548110151561106057fe5b90600052602060002001541490505b919050565b828054600181600116156101000203166002900490600052602060002090601f016020900481019282601f106110b557805160ff19168380011785556110e3565b828001600101855582156110e3579182015b828111156110e25782518255916020019190600101906110c7565b5b5090506110f091906111b6565b5090565b828054828255906000526020600020908101928215611130579160200282015b8281111561112f578251825591602001919060010190611114565b5b50905061113d91906111db565b5090565b60a0604051908101604052806060815260200160608152602001600073ffffffffffffffffffffffffffffffffffffffff16815260200160008019168152602001600081525090565b8154818355818111156111b1578183600052602060002091820191016111b091906111db565b5b505050565b6111d891905b808211156111d45760008160009055506001016111bc565b5090565b90565b6111fd91905b808211156111f95760008160009055506001016111e1565b5090565b90565b600061120c8235611dd6565b905092915050565b600082601f830112151561122757600080fd5b813561123a61123582611c94565b611c67565b9150818183526020840193506020810190508385602084028201111561125f57600080fd5b60005b8381101561128f57816112758882611299565b845260208401935060208301925050600181019050611262565b5050505092915050565b60006112a58235611de8565b905092915050565b600082601f83011215156112c057600080fd5b81356112d36112ce82611cbc565b611c67565b915080825260208301602083018583830111156112ef57600080fd5b6112fa838284611dfc565b50505092915050565b600061130f8235611df2565b905092915050565b60006020828403121561132957600080fd5b600061133784828501611299565b91505092915050565b60006020828403121561135257600080fd5b600082013567ffffffffffffffff81111561136c57600080fd5b611378848285016112ad565b91505092915050565b6000806040838503121561139457600080fd5b600083013567ffffffffffffffff8111156113ae57600080fd5b6113ba858286016112ad565b925050602083013567ffffffffffffffff8111156113d757600080fd5b6113e385828601611214565b9150509250929050565b6000806000806080858703121561140357600080fd5b600085013567ffffffffffffffff81111561141d57600080fd5b611429878288016112ad565b945050602085013567ffffffffffffffff81111561144657600080fd5b61145287828801611214565b935050604061146387828801611200565b925050606061147487828801611299565b91505092959194509250565b6000806040838503121561149357600080fd5b600083013567ffffffffffffffff8111156114ad57600080fd5b6114b9858286016112ad565b925050602083013567ffffffffffffffff8111156114d657600080fd5b6114e2858286016112ad565b9150509250929050565b6000602082840312156114fe57600080fd5b600061150c84828501611303565b91505092915050565b61151e81611d84565b82525050565b600061152f82611d31565b80845260208401935061154183611cf5565b60005b8281101561157357611557868351611644565b61156082611d6a565b9150602086019550600181019050611544565b50849250505092915050565b600061158a82611d26565b80845260208401935061159c83611ce8565b60005b828110156115ce576115b2868351611644565b6115bb82611d5d565b915060208601955060018101905061159f565b50849250505092915050565b60006115e582611d3c565b8084526020840193506115f783611d02565b60005b828110156116295761160d868354611644565b61161682611d77565b91506020860195506001810190506115fa565b50849250505092915050565b61163e81611d96565b82525050565b61164d81611da2565b82525050565b600061165e82611d52565b808452611672816020860160208601611e0b565b61167b81611e3e565b602085010191505092915050565b600061169482611d47565b8084526116a8816020860160208601611e0b565b6116b181611e3e565b602085010191505092915050565b6000815460018116600081146116dc57600181146116fc5761173d565b607f600283041680865260ff19831660208701526040860193505061173d565b6002820480865260208601955061171285611d14565b60005b8281101561173457815481890152600182019150602081019050611715565b80880195505050505b505092915050565b6000602682527f546869732074797065206578697374732e205573652074686520657874616e7460208301527f20747970652e00000000000000000000000000000000000000000000000000006040830152606082019050919050565b6000601682527f4e6f2073756368207479706520696e7365727465642e000000000000000000006020830152604082019050919050565b6000604182527f41207479706520696e2074686520636f6d706f736974696f6e20646f6573206e60208301527f6f74206578697374732e20557365206f6e6c7920657874616e7420747970657360408301527f2e000000000000000000000000000000000000000000000000000000000000006060830152608082019050919050565b6000601f82527f4e6f742064656c657465642062656361757365206e6f7420657874616e742e006020830152604082019050919050565b6000600e82527f496e64657820746f6f206269672e0000000000000000000000000000000000006020830152604082019050919050565b600060a08301600083015184820360008601526118e78282611689565b91505060208301518482036020860152611901828261157f565b91505060408301516119166040860182611515565b5060608301516119296060860182611644565b50608083015161193c6080860182611947565b508091505092915050565b61195081611dcc565b82525050565b600060208201905081810360008301526119708184611524565b905092915050565b600060208201905061198d6000830184611635565b92915050565b60006020820190506119a86000830184611644565b92915050565b600060408201905081810360008301526119c88185611653565b905081810360208301526119dc8184611524565b90509392505050565b600060608201905081810360008301526119ff8186611653565b90508181036020830152611a138185611524565b9050611a226040830184611947565b949350505050565b60006040820190508181036000830152611a448185611653565b90508181036020830152611a588184611653565b90509392505050565b60006080820190508181036000830152611a7b8187611689565b9050611a8a6020830186611515565b611a976040830185611644565b611aa46060830184611947565b95945050505050565b60006020820190508181036000830152611ac681611745565b9050919050565b60006020820190508181036000830152611ae6816117a2565b9050919050565b60006020820190508181036000830152611b06816117d9565b9050919050565b60006020820190508181036000830152611b268161185c565b9050919050565b60006020820190508181036000830152611b4681611893565b9050919050565b60006040820190508181036000830152611b6781856118ca565b9050611b766020830184611644565b9392505050565b6000602082019050611b926000830184611947565b92915050565b6000606082019050611bad6000830186611947565b8181036020830152611bbf8185611653565b90508181036040830152611bd38184611524565b9050949350505050565b6000606082019050611bf26000830186611947565b8181036020830152611c048185611653565b90508181036040830152611c1881846115da565b9050949350505050565b6000606082019050611c376000830186611947565b8181036020830152611c4981856116bf565b90508181036040830152611c5d81846115da565b9050949350505050565b6000604051905081810181811067ffffffffffffffff82111715611c8a57600080fd5b8060405250919050565b600067ffffffffffffffff821115611cab57600080fd5b602082029050602081019050919050565b600067ffffffffffffffff821115611cd357600080fd5b601f19601f8301169050602081019050919050565b6000602082019050919050565b6000602082019050919050565b60008160005260206000209050919050565b60008160005260206000209050919050565b600081519050919050565b600081519050919050565b600081549050919050565b600081519050919050565b600081519050919050565b6000602082019050919050565b6000602082019050919050565b6000600182019050919050565b6000611d8f82611dac565b9050919050565b60008115159050919050565b6000819050919050565b600073ffffffffffffffffffffffffffffffffffffffff82169050919050565b6000819050919050565b6000611de182611dac565b9050919050565b6000819050919050565b6000819050919050565b82818337600083830152505050565b60005b83811015611e29578082015181840152602081019050611e0e565b83811115611e38576000848401525b50505050565b6000601f19601f830116905091905056fea265627a7a72305820b29ddc8b8329123ab5f44dac1901516777a9a3a626efd5d458b84f0af86758576c6578706572696d656e74616cf50037",
  "source": "pragma solidity ^0.5.0;\npragma experimental ABIEncoderV2;\n\ncontract dType{\n    struct Type {\n        string name;\n        bytes32[] types;\n        address contractAddress;\n        bytes32 source;\n        uint256 index;\n    }\n\n    mapping(bytes32 => Type) public typeStruct;\n    bytes32[] public typeIndex;\n    mapping(string =>  bytes32[]) nameIndex;\n\n    function getIndex() public view returns(bytes32[] memory indext)\n    {\n        return typeIndex;\n    }\n\n\n    function isType(bytes32 typeHash)\n    public view returns(bool isIndeed) {\n        if(typeIndex.length == 0) return false;\n        return (typeIndex[typeStruct[typeHash].index] == typeHash);\n    }\n\n    function insert(string memory name,\n        // string memory ttype,\n        bytes32[] memory types,\n    address contractAddress, bytes32 source)\n    public returns(uint256 index){\n        bytes32 hash = keccak256(abi.encode(name, types));\n        if(isType(hash)) revert(\"This type exists. Use the extant type.\");\n        for (uint256 i =0 ; i< types.length; i++){\n            if (!isType(types[i]) && types[i] != bytes32(0x0)) revert(\"A type in the composition does not exists. Use only extant types.\");\n        }\n        typeStruct[hash].name = name;\n        typeStruct[hash].types = types;\n        //typeStruct[hash].ttype = ttype;\n        // typeStruct[hash].types = arrayOfEach(hash(type));\n        typeStruct[hash].contractAddress = contractAddress;\n        typeStruct[hash].source = source;\n        typeStruct[hash].index = typeIndex.push(hash)-1;\n\n        nameIndex[name].push(hash);\n\n        emit LogNew(\n            hash,\n            typeStruct[hash].index,\n            name,\n            types);\n\n        return typeIndex.length-1;\n    }\n\n    function getTypes(bytes32 hash)\n        public\n        view\n        returns(bytes32[] memory types)\n    {\n       return typeStruct[hash].types;\n    }\n\n    function get(string memory aname, string memory astype) public view\n    returns(string memory name, bytes32[] memory types, uint256 index)\n    {\n        bytes32 hash = keccak256(abi.encode(aname, astype));\n        return getByHash(hash);\n\n    }\n\n\n    function getByHash(bytes32 hash) public view\n    returns(string memory name,\n        //string memory ttype,\n        bytes32[] memory types, uint256 index)\n    {\n        if(!isType(hash)) revert(\"No such type inserted.\");\n        return(\n            typeStruct[hash].name,\n            //typeStruct[hash].ttype,\n            typeStruct[hash].types,\n            typeStruct[hash].index);\n    }\n\n\n    function getByIndex(uint256 index) public view\n    returns(Type memory atype, bytes32 hash)\n    {\n        if(index > typeIndex.length ) revert(\"Index too big.\");\n        return (typeStruct[typeIndex[index]],  typeIndex[index]);\n    }\n\n    function getByName(string memory name) public view returns(bytes32[] memory types)\n    {\n        return nameIndex[name];\n    }\n\n\n\n\n    function update(string memory name, bytes32[] memory types)\n    public returns(bool success) {\n        bytes32 hash = keccak256(abi.encode(name, types));\n        if(!isType(hash)) revert(\"No such type inserted.\");\n\n        typeStruct[hash].name = name;\n        typeStruct[hash].types = types;\n        emit LogUpdate(\n            hash,\n            typeStruct[hash].index,\n            name,\n            typeStruct[hash].types\n            );\n\n        return true;\n    }\n\n    function remove(bytes32 hash)\n    public returns(uint256 index)\n    {\n        if(!isType(hash)) revert(\"Not deleted because not extant.\");\n        uint rowToDelete = typeStruct[hash].index;\n        bytes32 keyToMove = typeIndex[typeIndex.length-1];\n        typeIndex[rowToDelete] = keyToMove;\n        typeStruct[keyToMove].index = rowToDelete;\n        typeIndex.length--;\n        emit LogRemove(hash, rowToDelete);\n\n        emit LogUpdate(\n            keyToMove,\n            rowToDelete,\n            typeStruct[keyToMove].name,\n            typeStruct[keyToMove].types\n            );\n        return rowToDelete;\n    }\n\n    function count()\n    public view returns(uint256 counter)\n    {\n        return typeIndex.length;\n    }\n\n\n\n\n\n\n\n    /** Events for application  */\n    event LogNew (\n    bytes32 indexed typeHash,\n    uint256 index,\n    string name,\n    bytes32[] types);\n\n    event LogUpdate(\n    bytes32 indexed typeHash,\n    uint index,\n    string name,\n    bytes32[] types);\n\n    event LogRemove(\n    bytes32 indexed typeHash,\n    uint256 index);\n\n\n\n}\n",
  "sourcePath": "/Users/loredana/ETH/dType/contracts/contracts/dType.sol",
  "compiler": {
    "name": "solc",
    "version": "0.5.0+commit.1d4f565a.Emscripten.clang"
  },
  "schemaVersion": "3.0.2",
  "updatedAt": "2019-03-13T17:29:45.382Z",
  "devdoc": {
    "methods": {}
  },
  "userdoc": {
    "methods": {}
  }
}