{
  "contractName": "dTypesLib",
  "abi": [
    {
      "constant": true,
      "inputs": [
        {
          "name": "name",
          "type": "string"
        },
        {
          "name": "label",
          "type": "string"
        },
        {
          "name": "relation",
          "type": "dTypesLib.dTypeRelation"
        },
        {
          "name": "dimensions",
          "type": "string[]"
        }
      ],
      "name": "structure",
      "outputs": [
        {
          "components": [
            {
              "name": "name",
              "type": "string"
            },
            {
              "name": "label",
              "type": "string"
            },
            {
              "name": "relation",
              "type": "dTypesLib.dTypeRelation"
            },
            {
              "name": "dimensions",
              "type": "string[]"
            }
          ],
          "name": "dtypes",
          "type": "tuple"
        }
      ],
      "payable": false,
      "stateMutability": "pure",
      "type": "function"
    }
  ],
  "bytecode": "0x6105df610026600b82828239805160001a60731461001957fe5b30600052607381538281f3fe73000000000000000000000000000000000000000030146080604052600436106100355760003560e01c8063ee620d0d1461003a575b600080fd5b610054600480360361004f919081019061020b565b61006a565b60405161006191906103f4565b60405180910390f35b6100726100a8565b604051806080016040528086815260200185815260200184600281111561009557fe5b8152602001838152509050949350505050565b60405180608001604052806060815260200160608152602001600060028111156100ce57fe5b8152602001606081525090565b600082601f8301126100ec57600080fd5b81356100ff6100fa82610443565b610416565b9150818183526020840193506020810190508360005b83811015610145578135860161012b8882610163565b845260208401935060208301925050600181019050610115565b5050505092915050565b600061015b8235610529565b905092915050565b600082601f83011261017457600080fd5b81356101876101828261046b565b610416565b915080825260208301602083018583830111156101a357600080fd5b6101ae838284610552565b50505092915050565b600082601f8301126101c857600080fd5b81356101db6101d682610497565b610416565b915080825260208301602083018583830111156101f757600080fd5b610202838284610552565b50505092915050565b6000806000806080858703121561022157600080fd5b600085013567ffffffffffffffff81111561023b57600080fd5b610247878288016101b7565b945050602085013567ffffffffffffffff81111561026457600080fd5b610270878288016101b7565b93505060406102818782880161014f565b925050606085013567ffffffffffffffff81111561029e57600080fd5b6102aa878288016100db565b91505092959194509250565b60006102c2838361034a565b905092915050565b60006102d5826104d0565b6102df81856104f3565b9350836020820285016102f1856104c3565b60005b8481101561032a57838303885261030c8383516102b6565b9250610317826104e6565b91506020880197506001810190506102f4565b508196508694505050505092915050565b61034481610540565b82525050565b6000610355826104db565b61035f8185610504565b935061036f818560208601610561565b61037881610594565b840191505092915050565b600060808301600083015184820360008601526103a0828261034a565b915050602083015184820360208601526103ba828261034a565b91505060408301516103cf604086018261033b565b50606083015184820360608601526103e782826102ca565b9150508091505092915050565b6000602082019050818103600083015261040e8184610383565b905092915050565b6000604051905081810181811067ffffffffffffffff8211171561043957600080fd5b8060405250919050565b600067ffffffffffffffff82111561045a57600080fd5b602082029050602081019050919050565b600067ffffffffffffffff82111561048257600080fd5b601f19601f8301169050602081019050919050565b600067ffffffffffffffff8211156104ae57600080fd5b601f19601f8301169050602081019050919050565b6000602082019050919050565b600081519050919050565b600081519050919050565b6000602082019050919050565b600082825260208201905092915050565b600082825260208201905092915050565b60006003821061052157fe5b819050919050565b60006003821061053857600080fd5b819050919050565b600061054b82610515565b9050919050565b82818337600083830152505050565b60005b8381101561057f578082015181840152602081019050610564565b8381111561058e576000848401525b50505050565b6000601f19601f830116905091905056fea265627a7a72305820702220b0499e6d3d9ac8f63b48df6db08eb4d0f02966d7f721668d24b8468e6b6c6578706572696d656e74616cf50037",
  "source": "pragma solidity ^0.5.0;\npragma experimental ABIEncoderV2;\n\nlibrary dTypesLib {\n\n    enum dTypeRelation { Has, Link, Bytes }\n\n    struct dTypes {\n        string name;\n        string label;\n        dTypeRelation relation;\n        string[] dimensions;\n    }\n\n    function insert(dTypes storage self, dTypes memory dtypes) internal {\n        self.name = dtypes.name;\n        self.label = dtypes.label;\n        self.relation = dtypes.relation;\n        if (dtypes.dimensions.length > 0) {\n            self.dimensions = dtypes.dimensions;\n        }\n    }\n\n    function insertArray(dTypes[] storage self, dTypes[] memory dtypes) internal {\n        uint256 length = dtypes.length;\n        for (uint256 i = 0; i < length; i++) {\n            self.push(dtypes[i]);\n        }\n    }\n\n    function structure(string memory name, string memory label, dTypeRelation relation, string[] memory dimensions)\n        public\n        pure\n        returns(dTypes memory dtypes)\n    {\n        return dTypes(name, label, relation, dimensions);\n    }\n\n    function structureBytes(bytes memory data)\n        pure\n        internal\n        returns(dTypes memory dtypes)\n    {\n        (dtypes) = abi.decode(data, (dTypes));\n    }\n\n    function destructureBytes(dTypes memory dtypes)\n        pure\n        internal\n        returns(bytes memory data)\n    {\n        return abi.encode(dtypes);\n    }\n}\n",
  "sourcePath": "/Users/loredana/ETH/dType/contracts/contracts/dTypesLib.sol",
  "compiler": {
    "name": "solc",
    "version": "0.5.7+commit.6da8b019.Emscripten.clang"
  },
  "schemaVersion": "3.0.11",
  "updatedAt": "2019-07-16T11:00:51.150Z",
  "devdoc": {
    "methods": {}
  },
  "userdoc": {
    "methods": {}
  }
}