{
  "contractName": "dType",
  "abi": [
    {
      "constant": true,
      "inputs": [
        {
          "name": "",
          "type": "bytes32"
        }
      ],
      "name": "typeStruct",
      "outputs": [
        {
          "name": "name",
          "type": "string"
        },
        {
          "name": "contractAddress",
          "type": "address"
        },
        {
          "name": "source",
          "type": "bytes32"
        },
        {
          "name": "index",
          "type": "uint256"
        }
      ],
      "payable": false,
      "stateMutability": "view",
      "type": "function",
      "signature": "0x668414a4"
    },
    {
      "constant": true,
      "inputs": [
        {
          "name": "",
          "type": "uint256"
        }
      ],
      "name": "typeIndex",
      "outputs": [
        {
          "name": "",
          "type": "bytes32"
        }
      ],
      "payable": false,
      "stateMutability": "view",
      "type": "function",
      "signature": "0x7460e311"
    },
    {
      "anonymous": false,
      "inputs": [
        {
          "indexed": true,
          "name": "typeHash",
          "type": "bytes32"
        },
        {
          "indexed": false,
          "name": "index",
          "type": "uint256"
        },
        {
          "indexed": false,
          "name": "name",
          "type": "string"
        },
        {
          "indexed": false,
          "name": "types",
          "type": "bytes32[]"
        }
      ],
      "name": "LogNew",
      "type": "event",
      "signature": "0xe05ec020c046042e53c2ff025df3f0b5ae276fbefeeb656d68705b1201d04f9f"
    },
    {
      "anonymous": false,
      "inputs": [
        {
          "indexed": true,
          "name": "typeHash",
          "type": "bytes32"
        },
        {
          "indexed": false,
          "name": "index",
          "type": "uint256"
        },
        {
          "indexed": false,
          "name": "name",
          "type": "string"
        },
        {
          "indexed": false,
          "name": "types",
          "type": "bytes32[]"
        }
      ],
      "name": "LogUpdate",
      "type": "event",
      "signature": "0xe4c7d8643b78c6e70663bb25601ae5687068f4fda5f032db6c931600e8f3b1f3"
    },
    {
      "anonymous": false,
      "inputs": [
        {
          "indexed": true,
          "name": "typeHash",
          "type": "bytes32"
        },
        {
          "indexed": false,
          "name": "index",
          "type": "uint256"
        }
      ],
      "name": "LogRemove",
      "type": "event",
      "signature": "0x7aba1b7c67426c7ad78ea21a678946741a0c8795e99fa106728122a461e33cbc"
    },
    {
      "constant": true,
      "inputs": [],
      "name": "getIndex",
      "outputs": [
        {
          "name": "indext",
          "type": "bytes32[]"
        }
      ],
      "payable": false,
      "stateMutability": "view",
      "type": "function",
      "signature": "0x81045ead"
    },
    {
      "constant": true,
      "inputs": [
        {
          "name": "typeHash",
          "type": "bytes32"
        }
      ],
      "name": "isType",
      "outputs": [
        {
          "name": "isIndeed",
          "type": "bool"
        }
      ],
      "payable": false,
      "stateMutability": "view",
      "type": "function",
      "signature": "0xe2b1e4ed"
    },
    {
      "constant": false,
      "inputs": [
        {
          "name": "name",
          "type": "string"
        },
        {
          "name": "types",
          "type": "bytes32[]"
        },
        {
          "name": "contractAddress",
          "type": "address"
        },
        {
          "name": "source",
          "type": "bytes32"
        }
      ],
      "name": "insert",
      "outputs": [
        {
          "name": "index",
          "type": "uint256"
        }
      ],
      "payable": false,
      "stateMutability": "nonpayable",
      "type": "function",
      "signature": "0x0546e26f"
    },
    {
      "constant": true,
      "inputs": [
        {
          "name": "hash",
          "type": "bytes32"
        }
      ],
      "name": "getTypes",
      "outputs": [
        {
          "name": "types",
          "type": "bytes32[]"
        }
      ],
      "payable": false,
      "stateMutability": "view",
      "type": "function",
      "signature": "0xaa09ec0e"
    },
    {
      "constant": true,
      "inputs": [
        {
          "name": "aname",
          "type": "string"
        },
        {
          "name": "astype",
          "type": "string"
        }
      ],
      "name": "get",
      "outputs": [
        {
          "name": "name",
          "type": "string"
        },
        {
          "name": "types",
          "type": "bytes32[]"
        },
        {
          "name": "index",
          "type": "uint256"
        }
      ],
      "payable": false,
      "stateMutability": "view",
      "type": "function",
      "signature": "0x3e10510b"
    },
    {
      "constant": true,
      "inputs": [
        {
          "name": "hash",
          "type": "bytes32"
        }
      ],
      "name": "getByHash",
      "outputs": [
        {
          "name": "name",
          "type": "string"
        },
        {
          "name": "types",
          "type": "bytes32[]"
        },
        {
          "name": "index",
          "type": "uint256"
        }
      ],
      "payable": false,
      "stateMutability": "view",
      "type": "function",
      "signature": "0xa2dd3d47"
    },
    {
      "constant": true,
      "inputs": [
        {
          "name": "index",
          "type": "uint256"
        }
      ],
      "name": "getByIndex",
      "outputs": [
        {
          "components": [
            {
              "name": "name",
              "type": "string"
            },
            {
              "name": "types",
              "type": "bytes32[]"
            },
            {
              "name": "contractAddress",
              "type": "address"
            },
            {
              "name": "source",
              "type": "bytes32"
            },
            {
              "name": "index",
              "type": "uint256"
            }
          ],
          "name": "atype",
          "type": "tuple"
        },
        {
          "name": "hash",
          "type": "bytes32"
        }
      ],
      "payable": false,
      "stateMutability": "view",
      "type": "function",
      "signature": "0x2d883a73"
    },
    {
      "constant": true,
      "inputs": [
        {
          "name": "name",
          "type": "string"
        }
      ],
      "name": "getByName",
      "outputs": [
        {
          "name": "types",
          "type": "bytes32[]"
        }
      ],
      "payable": false,
      "stateMutability": "view",
      "type": "function",
      "signature": "0xb336ad83"
    },
    {
      "constant": false,
      "inputs": [
        {
          "name": "hash",
          "type": "bytes32"
        },
        {
          "name": "newName",
          "type": "string"
        },
        {
          "name": "newTypes",
          "type": "bytes32[]"
        }
      ],
      "name": "update",
      "outputs": [
        {
          "name": "success",
          "type": "bool"
        }
      ],
      "payable": false,
      "stateMutability": "nonpayable",
      "type": "function",
      "signature": "0xd5b81493"
    },
    {
      "constant": false,
      "inputs": [
        {
          "name": "hash",
          "type": "bytes32"
        }
      ],
      "name": "remove",
      "outputs": [
        {
          "name": "index",
          "type": "uint256"
        }
      ],
      "payable": false,
      "stateMutability": "nonpayable",
      "type": "function",
      "signature": "0x95bc2673"
    },
    {
      "constant": true,
      "inputs": [],
      "name": "count",
      "outputs": [
        {
          "name": "counter",
          "type": "uint256"
        }
      ],
      "payable": false,
      "stateMutability": "view",
      "type": "function",
      "signature": "0x06661abd"
    }
  ],
  "bytecode": "0x608060405234801561001057600080fd5b50611e54806100206000396000f3fe6080604052600436106100c5576000357c0100000000000000000000000000000000000000000000000000000000900463ffffffff1680630546e26f146100ca57806306661abd146101075780632d883a73146101325780633e10510b14610170578063668414a4146101af5780637460e311146101ef57806381045ead1461022c57806395bc267314610257578063a2dd3d4714610294578063aa09ec0e146102d3578063b336ad8314610310578063d5b814931461034d578063e2b1e4ed1461038a575b600080fd5b3480156100d657600080fd5b506100f160048036036100ec91908101906113fd565b6103c7565b6040516100fe9190611b8d565b60405180910390f35b34801561011357600080fd5b5061011c6106ec565b6040516101299190611b8d565b60405180910390f35b34801561013e57600080fd5b50610159600480360361015491908101906114fc565b6106f8565b604051610167929190611b5d565b60405180910390f35b34801561017c57600080fd5b5061019760048036036101929190810190611490565b61090a565b6040516101a6939291906119f5565b60405180910390f35b3480156101bb57600080fd5b506101d660048036036101d19190810190611314565b610952565b6040516101e69493929190611a71565b60405180910390f35b3480156101fb57600080fd5b50610216600480360361021191908101906114fc565b610a3a565b60405161022391906119a3565b60405180910390f35b34801561023857600080fd5b50610241610a5d565b60405161024e9190611966565b60405180910390f35b34801561026357600080fd5b5061027e60048036036102799190810190611314565b610ab5565b60405161028b9190611b8d565b60405180910390f35b3480156102a057600080fd5b506102bb60048036036102b69190810190611314565b610c38565b6040516102ca939291906119f5565b60405180910390f35b3480156102df57600080fd5b506102fa60048036036102f59190810190611314565b610dc5565b6040516103079190611966565b60405180910390f35b34801561031c57600080fd5b50610337600480360361033291908101906113bc565b610e33565b6040516103449190611966565b60405180910390f35b34801561035957600080fd5b50610374600480360361036f919081019061133d565b610ef6565b6040516103819190611988565b60405180910390f35b34801561039657600080fd5b506103b160048036036103ac9190810190611314565b61101f565b6040516103be9190611988565b60405180910390f35b60008085856040516020016103dd9291906119be565b6040516020818303038152906040528051906020012090506103fe8161101f565b1561043e576040517f08c379a000000000000000000000000000000000000000000000000000000000815260040161043590611abd565b60405180910390fd5b60008090505b85518110156104e25761046d868281518110151561045e57fe5b9060200190602002015161101f565b15801561049557506000600102868281518110151561048857fe5b9060200190602002015114155b156104d5576040517f08c379a00000000000000000000000000000000000000000000000000000000081526004016104cc90611afd565b60405180910390fd5b8080600101915050610444565b508560016000838152602001908152602001600020600001908051906020019061050d929190611071565b50846001600083815260200190815260200160002060010190805190602001906105389291906110f1565b50836001600083815260200190815260200160002060020160006101000a81548173ffffffffffffffffffffffffffffffffffffffff021916908373ffffffffffffffffffffffffffffffffffffffff1602179055508260016000838152602001908152602001600020600301819055506001600082908060018154018082558091505090600182039060005260206000200160009091929091909150550360016000838152602001908152602001600020600401819055506002866040518082805190602001908083835b6020831015156106295780518252602082019150602081019050602083039250610604565b6001836020036101000a0380198251168184511680821785525050505050509050019150509081526020016040518091039020819080600181540180825580915050906001820390600052602060002001600090919290919091505550807fe05ec020c046042e53c2ff025df3f0b5ae276fbefeeb656d68705b1201d04f9f600160008481526020019081526020016000206004015488886040516106d093929190611ba8565b60405180910390a2600160008054905003915050949350505050565b60008080549050905090565b61070061113e565b60008080549050831115610749576040517f08c379a000000000000000000000000000000000000000000000000000000000815260040161074090611b3d565b60405180910390fd5b60016000808581548110151561075b57fe5b9060005260206000200154815260200190815260200160002060008481548110151561078357fe5b90600052602060002001548160a06040519081016040529081600082018054600181600116156101000203166002900480601f0160208091040260200160405190810160405280929190818152602001828054600181600116156101000203166002900480156108345780601f1061080957610100808354040283529160200191610834565b820191906000526020600020905b81548152906001019060200180831161081757829003601f168201915b505050505081526020016001820180548060200260200160405190810160405280929190818152602001828054801561088c57602002820191906000526020600020905b815481526020019060010190808311610878575b505050505081526020016002820160009054906101000a900473ffffffffffffffffffffffffffffffffffffffff1673ffffffffffffffffffffffffffffffffffffffff1673ffffffffffffffffffffffffffffffffffffffff16815260200160038201548152602001600482015481525050915091509150915091565b6060806000808585604051602001610923929190611a3a565b60405160208183030381529060405280519060200120905061094481610c38565b935093509350509250925092565b6001602052806000526040600020600091509050806000018054600181600116156101000203166002900480601f0160208091040260200160405190810160405280929190818152602001828054600181600116156101000203166002900480156109fe5780601f106109d3576101008083540402835291602001916109fe565b820191906000526020600020905b8154815290600101906020018083116109e157829003601f168201915b5050505050908060020160009054906101000a900473ffffffffffffffffffffffffffffffffffffffff16908060030154908060040154905084565b600081815481101515610a4957fe5b906000526020600020016000915090505481565b60606000805480602002602001604051908101604052809291908181526020018280548015610aab57602002820191906000526020600020905b815481526020019060010190808311610a97575b5050505050905090565b6000610ac08261101f565b1515610b01576040517f08c379a0000000000000000000000000000000000000000000000000000000008152600401610af890611b1d565b60405180910390fd5b600060016000848152602001908152602001600020600401549050600080600160008054905003815481101515610b3457fe5b9060005260206000200154905080600083815481101515610b5157fe5b90600052602060002001819055508160016000838152602001908152602001600020600401819055506000805480919060019003610b8f9190611187565b50837f7aba1b7c67426c7ad78ea21a678946741a0c8795e99fa106728122a461e33cbc83604051610bc09190611b8d565b60405180910390a2807fe4c7d8643b78c6e70663bb25601ae5687068f4fda5f032db6c931600e8f3b1f3836001600085815260200190815260200160002060000160016000868152602001908152602001600020600101604051610c2693929190611bed565b60405180910390a28192505050919050565b6060806000610c468461101f565b1515610c87576040517f08c379a0000000000000000000000000000000000000000000000000000000008152600401610c7e90611add565b60405180910390fd5b60016000858152602001908152602001600020600001600160008681526020019081526020016000206001016001600087815260200190815260200160002060040154828054600181600116156101000203166002900480601f016020809104026020016040519081016040528092919081815260200182805460018160011615610100020316600290048015610d5f5780601f10610d3457610100808354040283529160200191610d5f565b820191906000526020600020905b815481529060010190602001808311610d4257829003601f168201915b5050505050925081805480602002602001604051908101604052809291908181526020018280548015610db157602002820191906000526020600020905b815481526020019060010190808311610d9d575b505050505091509250925092509193909250565b606060016000838152602001908152602001600020600101805480602002602001604051908101604052809291908181526020018280548015610e2757602002820191906000526020600020905b815481526020019060010190808311610e13575b50505050509050919050565b60606002826040518082805190602001908083835b602083101515610e6d5780518252602082019150602081019050602083039250610e48565b6001836020036101000a0380198251168184511680821785525050505050509050019150509081526020016040518091039020805480602002602001604051908101604052809291908181526020018280548015610eea57602002820191906000526020600020905b815481526020019060010190808311610ed6575b50505050509050919050565b6000610f018461101f565b1515610f42576040517f08c379a0000000000000000000000000000000000000000000000000000000008152600401610f3990611add565b60405180910390fd5b82600160008681526020019081526020016000206000019080519060200190610f6c929190611071565b5081600160008681526020019081526020016000206001019080519060200190610f979291906110f1565b50837fe4c7d8643b78c6e70663bb25601ae5687068f4fda5f032db6c931600e8f3b1f36001600087815260200190815260200160002060040154600160008881526020019081526020016000206000016001600089815260200190815260200160002060010160405161100c93929190611bed565b60405180910390a2600190509392505050565b6000806000805490501415611037576000905061106c565b816000600160008581526020019081526020016000206004015481548110151561105d57fe5b90600052602060002001541490505b919050565b828054600181600116156101000203166002900490600052602060002090601f016020900481019282601f106110b257805160ff19168380011785556110e0565b828001600101855582156110e0579182015b828111156110df5782518255916020019190600101906110c4565b5b5090506110ed91906111b3565b5090565b82805482825590600052602060002090810192821561112d579160200282015b8281111561112c578251825591602001919060010190611111565b5b50905061113a91906111d8565b5090565b60a0604051908101604052806060815260200160608152602001600073ffffffffffffffffffffffffffffffffffffffff16815260200160008019168152602001600081525090565b8154818355818111156111ae578183600052602060002091820191016111ad91906111d8565b5b505050565b6111d591905b808211156111d15760008160009055506001016111b9565b5090565b90565b6111fa91905b808211156111f65760008160009055506001016111de565b5090565b90565b60006112098235611da1565b905092915050565b600082601f830112151561122457600080fd5b813561123761123282611c5f565b611c32565b9150818183526020840193506020810190508385602084028201111561125c57600080fd5b60005b8381101561128c57816112728882611296565b84526020840193506020830192505060018101905061125f565b5050505092915050565b60006112a28235611db3565b905092915050565b600082601f83011215156112bd57600080fd5b81356112d06112cb82611c87565b611c32565b915080825260208301602083018583830111156112ec57600080fd5b6112f7838284611dc7565b50505092915050565b600061130c8235611dbd565b905092915050565b60006020828403121561132657600080fd5b600061133484828501611296565b91505092915050565b60008060006060848603121561135257600080fd5b600061136086828701611296565b935050602084013567ffffffffffffffff81111561137d57600080fd5b611389868287016112aa565b925050604084013567ffffffffffffffff8111156113a657600080fd5b6113b286828701611211565b9150509250925092565b6000602082840312156113ce57600080fd5b600082013567ffffffffffffffff8111156113e857600080fd5b6113f4848285016112aa565b91505092915050565b6000806000806080858703121561141357600080fd5b600085013567ffffffffffffffff81111561142d57600080fd5b611439878288016112aa565b945050602085013567ffffffffffffffff81111561145657600080fd5b61146287828801611211565b9350506040611473878288016111fd565b925050606061148487828801611296565b91505092959194509250565b600080604083850312156114a357600080fd5b600083013567ffffffffffffffff8111156114bd57600080fd5b6114c9858286016112aa565b925050602083013567ffffffffffffffff8111156114e657600080fd5b6114f2858286016112aa565b9150509250929050565b60006020828403121561150e57600080fd5b600061151c84828501611300565b91505092915050565b61152e81611d4f565b82525050565b600061153f82611cfc565b80845260208401935061155183611cc0565b60005b8281101561158357611567868351611654565b61157082611d35565b9150602086019550600181019050611554565b50849250505092915050565b600061159a82611cf1565b8084526020840193506115ac83611cb3565b60005b828110156115de576115c2868351611654565b6115cb82611d28565b91506020860195506001810190506115af565b50849250505092915050565b60006115f582611d07565b80845260208401935061160783611ccd565b60005b828110156116395761161d868354611654565b61162682611d42565b915060208601955060018101905061160a565b50849250505092915050565b61164e81611d61565b82525050565b61165d81611d6d565b82525050565b600061166e82611d1d565b808452611682816020860160208601611dd6565b61168b81611e09565b602085010191505092915050565b60006116a482611d12565b8084526116b8816020860160208601611dd6565b6116c181611e09565b602085010191505092915050565b6000815460018116600081146116ec576001811461170c5761174d565b607f600283041680865260ff19831660208701526040860193505061174d565b6002820480865260208601955061172285611cdf565b60005b8281101561174457815481890152600182019150602081019050611725565b80880195505050505b505092915050565b6000602682527f546869732074797065206578697374732e205573652074686520657874616e7460208301527f20747970652e00000000000000000000000000000000000000000000000000006040830152606082019050919050565b6000601682527f4e6f2073756368207479706520696e7365727465642e000000000000000000006020830152604082019050919050565b6000604182527f41207479706520696e2074686520636f6d706f736974696f6e20646f6573206e60208301527f6f74206578697374732e20557365206f6e6c7920657874616e7420747970657360408301527f2e000000000000000000000000000000000000000000000000000000000000006060830152608082019050919050565b6000601f82527f4e6f742064656c657465642062656361757365206e6f7420657874616e742e006020830152604082019050919050565b6000600e82527f496e64657820746f6f206269672e0000000000000000000000000000000000006020830152604082019050919050565b600060a08301600083015184820360008601526118f78282611699565b91505060208301518482036020860152611911828261158f565b91505060408301516119266040860182611525565b5060608301516119396060860182611654565b50608083015161194c6080860182611957565b508091505092915050565b61196081611d97565b82525050565b600060208201905081810360008301526119808184611534565b905092915050565b600060208201905061199d6000830184611645565b92915050565b60006020820190506119b86000830184611654565b92915050565b600060408201905081810360008301526119d88185611663565b905081810360208301526119ec8184611534565b90509392505050565b60006060820190508181036000830152611a0f8186611663565b90508181036020830152611a238185611534565b9050611a326040830184611957565b949350505050565b60006040820190508181036000830152611a548185611663565b90508181036020830152611a688184611663565b90509392505050565b60006080820190508181036000830152611a8b8187611699565b9050611a9a6020830186611525565b611aa76040830185611654565b611ab46060830184611957565b95945050505050565b60006020820190508181036000830152611ad681611755565b9050919050565b60006020820190508181036000830152611af6816117b2565b9050919050565b60006020820190508181036000830152611b16816117e9565b9050919050565b60006020820190508181036000830152611b368161186c565b9050919050565b60006020820190508181036000830152611b56816118a3565b9050919050565b60006040820190508181036000830152611b7781856118da565b9050611b866020830184611654565b9392505050565b6000602082019050611ba26000830184611957565b92915050565b6000606082019050611bbd6000830186611957565b8181036020830152611bcf8185611663565b90508181036040830152611be38184611534565b9050949350505050565b6000606082019050611c026000830186611957565b8181036020830152611c1481856116cf565b90508181036040830152611c2881846115ea565b9050949350505050565b6000604051905081810181811067ffffffffffffffff82111715611c5557600080fd5b8060405250919050565b600067ffffffffffffffff821115611c7657600080fd5b602082029050602081019050919050565b600067ffffffffffffffff821115611c9e57600080fd5b601f19601f8301169050602081019050919050565b6000602082019050919050565b6000602082019050919050565b60008160005260206000209050919050565b60008160005260206000209050919050565b600081519050919050565b600081519050919050565b600081549050919050565b600081519050919050565b600081519050919050565b6000602082019050919050565b6000602082019050919050565b6000600182019050919050565b6000611d5a82611d77565b9050919050565b60008115159050919050565b6000819050919050565b600073ffffffffffffffffffffffffffffffffffffffff82169050919050565b6000819050919050565b6000611dac82611d77565b9050919050565b6000819050919050565b6000819050919050565b82818337600083830152505050565b60005b83811015611df4578082015181840152602081019050611dd9565b83811115611e03576000848401525b50505050565b6000601f19601f830116905091905056fea265627a7a72305820aec2742e00abe2ce4107844132debdf82f1c626fa36d73eeb3ee4e665453eac86c6578706572696d656e74616cf50037",
  "source": "pragma solidity ^0.5.0;\npragma experimental ABIEncoderV2;\n\ncontract dType {\n    struct Type {\n        string name;\n        bytes32[] types;\n        address contractAddress;\n        bytes32 source;\n        uint256 index;\n    }\n\n    bytes32[] public typeIndex;\n    mapping(bytes32 => Type) public typeStruct;\n    mapping(string =>  bytes32[]) nameIndex;\n\n    event LogNew(\n        bytes32 indexed typeHash,\n        uint256 index,\n        string name,\n        bytes32[] types\n    );\n\n    event LogUpdate(\n        bytes32 indexed typeHash,\n        uint index,\n        string name,\n        bytes32[] types\n    );\n\n    event LogRemove(\n        bytes32 indexed typeHash,\n        uint256 index\n    );\n\n    function getIndex() public view returns(bytes32[] memory indext) {\n        return typeIndex;\n    }\n\n    function isType(bytes32 typeHash)\n        view\n        public\n        returns(bool isIndeed)\n    {\n        if (typeIndex.length == 0) {\n            return false;\n        }\n        return (typeIndex[typeStruct[typeHash].index] == typeHash);\n    }\n\n    function insert(\n        string memory name,\n        // string memory ttype,\n        bytes32[] memory types,\n        address contractAddress,\n        bytes32 source\n    )\n        public\n        returns(uint256 index)\n    {\n        bytes32 hash = keccak256(abi.encode(name, types));\n        if (isType(hash)) {\n            revert(\"This type exists. Use the extant type.\");\n        }\n        for (uint256 i =0 ; i< types.length; i++) {\n            if (!isType(types[i]) && types[i] != bytes32(0x0)) {\n                revert(\"A type in the composition does not exists. Use only extant types.\");\n            }\n        }\n        typeStruct[hash].name = name;\n        typeStruct[hash].types = types;\n        //typeStruct[hash].ttype = ttype;\n        // typeStruct[hash].types = arrayOfEach(hash(type));\n        typeStruct[hash].contractAddress = contractAddress;\n        typeStruct[hash].source = source;\n        typeStruct[hash].index = typeIndex.push(hash)-1;\n\n        nameIndex[name].push(hash);\n\n        emit LogNew(\n            hash,\n            typeStruct[hash].index,\n            name,\n            types\n        );\n\n        return typeIndex.length-1;\n    }\n\n    function getTypes(bytes32 hash)\n        public\n        view\n        returns(bytes32[] memory types)\n    {\n       return typeStruct[hash].types;\n    }\n\n    function get(\n        string memory aname,\n        string memory astype\n    )\n        view\n        public\n        returns(string memory name, bytes32[] memory types, uint256 index)\n    {\n        bytes32 hash = keccak256(abi.encode(aname, astype));\n        return getByHash(hash);\n    }\n\n    function getByHash(bytes32 hash)\n        view\n        public\n        returns(\n            string memory name,\n            //string memory ttype,\n            bytes32[] memory types,\n            uint256 index\n        )\n    {\n        if (!isType(hash)) {\n            revert(\"No such type inserted.\");\n        }\n        return(\n            typeStruct[hash].name,\n            //typeStruct[hash].ttype,\n            typeStruct[hash].types,\n            typeStruct[hash].index\n        );\n    }\n\n    function getByIndex(uint256 index)\n        view\n        public\n        returns(Type memory atype, bytes32 hash)\n    {\n        if(index > typeIndex.length ) {\n            revert(\"Index too big.\");\n        }\n        return (typeStruct[typeIndex[index]],  typeIndex[index]);\n    }\n\n    function getByName(string memory name)\n        view\n        public\n        returns(bytes32[] memory types)\n    {\n        return nameIndex[name];\n    }\n\n    function update(\n        bytes32 hash,\n        string memory newName,\n        bytes32[] memory newTypes\n    )\n        public\n        returns(bool success)\n    {\n        if (!isType(hash)) {\n            revert(\"No such type inserted.\");\n        }\n\n        typeStruct[hash].name = newName;\n        typeStruct[hash].types = newTypes;\n\n        emit LogUpdate(\n            hash,\n            typeStruct[hash].index,\n            typeStruct[hash].name,\n            typeStruct[hash].types\n        );\n\n        return true;\n    }\n\n    function remove(bytes32 hash) public returns(uint256 index)\n    {\n        if (!isType(hash)) {\n            revert(\"Not deleted because not extant.\");\n        }\n\n        uint rowToDelete = typeStruct[hash].index;\n        bytes32 keyToMove = typeIndex[typeIndex.length-1];\n        typeIndex[rowToDelete] = keyToMove;\n        typeStruct[keyToMove].index = rowToDelete;\n        typeIndex.length--;\n\n        emit LogRemove(hash, rowToDelete);\n        emit LogUpdate(\n            keyToMove,\n            rowToDelete,\n            typeStruct[keyToMove].name,\n            typeStruct[keyToMove].types\n        );\n        return rowToDelete;\n    }\n\n    function count() public view returns(uint256 counter)\n    {\n        return typeIndex.length;\n    }\n}\n",
  "sourcePath": "/Users/loredana/ETH/dType/contracts/contracts/dType.sol",
  "compiler": {
    "name": "solc",
    "version": "0.5.0+commit.1d4f565a.Emscripten.clang"
  },
  "schemaVersion": "3.0.2",
  "updatedAt": "2019-03-14T00:13:51.467Z",
  "devdoc": {
    "methods": {}
  },
  "userdoc": {
    "methods": {}
  }
}