{
  "contractName": "dType",
  "abi": [
    {
      "constant": true,
      "inputs": [
        {
          "name": "",
          "type": "bytes32"
        },
        {
          "name": "",
          "type": "uint256"
        }
      ],
      "name": "outputIndex",
      "outputs": [
        {
          "name": "",
          "type": "string"
        }
      ],
      "payable": false,
      "stateMutability": "view",
      "type": "function",
      "signature": "0x3a41cac0"
    },
    {
      "constant": true,
      "inputs": [
        {
          "name": "",
          "type": "bytes32"
        }
      ],
      "name": "typeStruct",
      "outputs": [
        {
          "name": "lang",
          "type": "uint8"
        },
        {
          "name": "isEvent",
          "type": "bool"
        },
        {
          "name": "isFunction",
          "type": "bool"
        },
        {
          "name": "hasOutput",
          "type": "bool"
        },
        {
          "name": "contractAddress",
          "type": "address"
        },
        {
          "name": "source",
          "type": "bytes32"
        },
        {
          "name": "index",
          "type": "uint256"
        },
        {
          "name": "name",
          "type": "string"
        }
      ],
      "payable": false,
      "stateMutability": "view",
      "type": "function",
      "signature": "0x668414a4"
    },
    {
      "constant": true,
      "inputs": [
        {
          "name": "",
          "type": "uint256"
        }
      ],
      "name": "typeIndex",
      "outputs": [
        {
          "name": "",
          "type": "bytes32"
        }
      ],
      "payable": false,
      "stateMutability": "view",
      "type": "function",
      "signature": "0x7460e311"
    },
    {
      "anonymous": false,
      "inputs": [
        {
          "indexed": true,
          "name": "typeHash",
          "type": "bytes32"
        },
        {
          "indexed": false,
          "name": "index",
          "type": "uint256"
        },
        {
          "indexed": false,
          "name": "name",
          "type": "string"
        },
        {
          "indexed": false,
          "name": "types",
          "type": "string[]"
        }
      ],
      "name": "LogNew",
      "type": "event",
      "signature": "0xb984a93e20552bfa6c1c989cedccd9b5f688a362c7b804f8834f0b2899493df5"
    },
    {
      "anonymous": false,
      "inputs": [
        {
          "indexed": true,
          "name": "typeHash",
          "type": "bytes32"
        },
        {
          "indexed": false,
          "name": "index",
          "type": "uint256"
        },
        {
          "indexed": false,
          "name": "name",
          "type": "string"
        },
        {
          "indexed": false,
          "name": "types",
          "type": "string[]"
        }
      ],
      "name": "LogUpdate",
      "type": "event",
      "signature": "0xf7ea479b7ed108965977a3f25432116419af44f06a10d2316a461dbb4bf54b17"
    },
    {
      "anonymous": false,
      "inputs": [
        {
          "indexed": true,
          "name": "typeHash",
          "type": "bytes32"
        },
        {
          "indexed": false,
          "name": "index",
          "type": "uint256"
        }
      ],
      "name": "LogRemove",
      "type": "event",
      "signature": "0x7aba1b7c67426c7ad78ea21a678946741a0c8795e99fa106728122a461e33cbc"
    },
    {
      "constant": false,
      "inputs": [
        {
          "name": "lang",
          "type": "uint8"
        },
        {
          "name": "name",
          "type": "string"
        },
        {
          "name": "types",
          "type": "string[]"
        },
        {
          "name": "isEvent",
          "type": "bool"
        },
        {
          "name": "isFunction",
          "type": "bool"
        },
        {
          "name": "hasOutput",
          "type": "bool"
        },
        {
          "name": "contractAddress",
          "type": "address"
        },
        {
          "name": "source",
          "type": "bytes32"
        }
      ],
      "name": "insert",
      "outputs": [
        {
          "name": "index",
          "type": "uint256"
        }
      ],
      "payable": false,
      "stateMutability": "nonpayable",
      "type": "function",
      "signature": "0x0f3d953d"
    },
    {
      "constant": false,
      "inputs": [
        {
          "name": "typeHash",
          "type": "bytes32"
        },
        {
          "name": "newName",
          "type": "string"
        },
        {
          "name": "newTypes",
          "type": "string[]"
        }
      ],
      "name": "update",
      "outputs": [
        {
          "name": "success",
          "type": "bool"
        }
      ],
      "payable": false,
      "stateMutability": "nonpayable",
      "type": "function",
      "signature": "0xaac2956c"
    },
    {
      "constant": false,
      "inputs": [
        {
          "name": "typeHash",
          "type": "bytes32"
        },
        {
          "name": "newTypes",
          "type": "string[]"
        }
      ],
      "name": "updateTypes",
      "outputs": [
        {
          "name": "success",
          "type": "bool"
        }
      ],
      "payable": false,
      "stateMutability": "nonpayable",
      "type": "function",
      "signature": "0x430ac62a"
    },
    {
      "constant": false,
      "inputs": [
        {
          "name": "typeHash",
          "type": "bytes32"
        },
        {
          "name": "newName",
          "type": "string"
        }
      ],
      "name": "updateName",
      "outputs": [
        {
          "name": "success",
          "type": "bool"
        }
      ],
      "payable": false,
      "stateMutability": "nonpayable",
      "type": "function",
      "signature": "0x66df2e92"
    },
    {
      "constant": false,
      "inputs": [
        {
          "name": "typeHash",
          "type": "bytes32"
        }
      ],
      "name": "remove",
      "outputs": [
        {
          "name": "index",
          "type": "uint256"
        }
      ],
      "payable": false,
      "stateMutability": "nonpayable",
      "type": "function",
      "signature": "0x95bc2673"
    },
    {
      "constant": false,
      "inputs": [
        {
          "name": "typeHash",
          "type": "bytes32"
        },
        {
          "name": "outputs",
          "type": "string[]"
        }
      ],
      "name": "setOutputs",
      "outputs": [],
      "payable": false,
      "stateMutability": "nonpayable",
      "type": "function",
      "signature": "0x60e70f5e"
    },
    {
      "constant": true,
      "inputs": [],
      "name": "count",
      "outputs": [
        {
          "name": "counter",
          "type": "uint256"
        }
      ],
      "payable": false,
      "stateMutability": "view",
      "type": "function",
      "signature": "0x06661abd"
    },
    {
      "constant": true,
      "inputs": [],
      "name": "getIndex",
      "outputs": [
        {
          "name": "indext",
          "type": "bytes32[]"
        }
      ],
      "payable": false,
      "stateMutability": "view",
      "type": "function",
      "signature": "0x81045ead"
    },
    {
      "constant": true,
      "inputs": [
        {
          "name": "lang",
          "type": "uint8"
        },
        {
          "name": "name",
          "type": "string"
        }
      ],
      "name": "getTypeHash",
      "outputs": [
        {
          "name": "typeHash",
          "type": "bytes32"
        }
      ],
      "payable": false,
      "stateMutability": "pure",
      "type": "function",
      "signature": "0x414a4743"
    },
    {
      "constant": true,
      "inputs": [
        {
          "name": "typeHash",
          "type": "bytes32"
        }
      ],
      "name": "getByHash",
      "outputs": [
        {
          "components": [
            {
              "name": "lang",
              "type": "uint8"
            },
            {
              "name": "isEvent",
              "type": "bool"
            },
            {
              "name": "isFunction",
              "type": "bool"
            },
            {
              "name": "hasOutput",
              "type": "bool"
            },
            {
              "name": "contractAddress",
              "type": "address"
            },
            {
              "name": "source",
              "type": "bytes32"
            },
            {
              "name": "index",
              "type": "uint256"
            },
            {
              "name": "name",
              "type": "string"
            },
            {
              "name": "types",
              "type": "string[]"
            }
          ],
          "name": "dtype",
          "type": "tuple"
        }
      ],
      "payable": false,
      "stateMutability": "view",
      "type": "function",
      "signature": "0xa2dd3d47"
    },
    {
      "constant": true,
      "inputs": [
        {
          "name": "lang",
          "type": "uint8"
        },
        {
          "name": "name",
          "type": "string"
        }
      ],
      "name": "get",
      "outputs": [
        {
          "components": [
            {
              "name": "lang",
              "type": "uint8"
            },
            {
              "name": "isEvent",
              "type": "bool"
            },
            {
              "name": "isFunction",
              "type": "bool"
            },
            {
              "name": "hasOutput",
              "type": "bool"
            },
            {
              "name": "contractAddress",
              "type": "address"
            },
            {
              "name": "source",
              "type": "bytes32"
            },
            {
              "name": "index",
              "type": "uint256"
            },
            {
              "name": "name",
              "type": "string"
            },
            {
              "name": "types",
              "type": "string[]"
            }
          ],
          "name": "dtype",
          "type": "tuple"
        }
      ],
      "payable": false,
      "stateMutability": "view",
      "type": "function",
      "signature": "0xcf341d89"
    },
    {
      "constant": true,
      "inputs": [
        {
          "name": "typeHash",
          "type": "bytes32"
        }
      ],
      "name": "isType",
      "outputs": [
        {
          "name": "isIndeed",
          "type": "bool"
        }
      ],
      "payable": false,
      "stateMutability": "view",
      "type": "function",
      "signature": "0xe2b1e4ed"
    },
    {
      "constant": true,
      "inputs": [
        {
          "name": "typeHash",
          "type": "bytes32"
        }
      ],
      "name": "getOutputs",
      "outputs": [
        {
          "name": "outputs",
          "type": "string[]"
        }
      ],
      "payable": false,
      "stateMutability": "view",
      "type": "function",
      "signature": "0xadb02ea5"
    },
    {
      "constant": true,
      "inputs": [
        {
          "name": "typeHash",
          "type": "bytes32"
        }
      ],
      "name": "getTypes",
      "outputs": [
        {
          "name": "types",
          "type": "string[]"
        }
      ],
      "payable": false,
      "stateMutability": "view",
      "type": "function",
      "signature": "0xaa09ec0e"
    },
    {
      "constant": true,
      "inputs": [
        {
          "name": "index",
          "type": "uint256"
        }
      ],
      "name": "getByIndex",
      "outputs": [
        {
          "components": [
            {
              "name": "lang",
              "type": "uint8"
            },
            {
              "name": "isEvent",
              "type": "bool"
            },
            {
              "name": "isFunction",
              "type": "bool"
            },
            {
              "name": "hasOutput",
              "type": "bool"
            },
            {
              "name": "contractAddress",
              "type": "address"
            },
            {
              "name": "source",
              "type": "bytes32"
            },
            {
              "name": "index",
              "type": "uint256"
            },
            {
              "name": "name",
              "type": "string"
            },
            {
              "name": "types",
              "type": "string[]"
            }
          ],
          "name": "dtype",
          "type": "tuple"
        },
        {
          "name": "typeHash",
          "type": "bytes32"
        }
      ],
      "payable": false,
      "stateMutability": "view",
      "type": "function",
      "signature": "0x2d883a73"
    }
  ],
  "bytecode": "0x608060405234801561001057600080fd5b50612fe9806100206000396000f3fe6080604052600436106100fc576000357c0100000000000000000000000000000000000000000000000000000000900463ffffffff16806306661abd146101015780630f3d953d1461012c5780632d883a73146101695780633a41cac0146101a7578063414a4743146101e4578063430ac62a1461022157806360e70f5e1461025e578063668414a41461028757806366df2e92146102cb5780637460e3111461030857806381045ead1461034557806395bc267314610370578063a2dd3d47146103ad578063aa09ec0e146103ea578063aac2956c14610427578063adb02ea514610464578063cf341d89146104a1578063e2b1e4ed146104de575b600080fd5b34801561010d57600080fd5b5061011661051b565b6040516101239190612c84565b60405180910390f35b34801561013857600080fd5b50610153600480360361014e919081019061242a565b610527565b6040516101609190612c84565b60405180910390f35b34801561017557600080fd5b50610190600480360361018b919081019061250c565b610865565b60405161019e929190612c54565b60405180910390f35b3480156101b357600080fd5b506101ce60048036036101c9919081019061239a565b610b87565b6040516101db9190612b70565b60405180910390f35b3480156101f057600080fd5b5061020b600480360361020691908101906123d6565b610c4f565b6040516102189190612aa0565b60405180910390f35b34801561022d57600080fd5b5061024860048036036102439190810190612273565b610c82565b6040516102559190612a85565b60405180910390f35b34801561026a57600080fd5b5061028560048036036102809190810190612273565b610d81565b005b34801561029357600080fd5b506102ae60048036036102a9919081019061224a565b610f39565b6040516102c2989796959493929190612abb565b60405180910390f35b3480156102d757600080fd5b506102f260048036036102ed91908101906122c7565b61106d565b6040516102ff9190612a85565b60405180910390f35b34801561031457600080fd5b5061032f600480360361032a919081019061250c565b611644565b60405161033c9190612aa0565b60405180910390f35b34801561035157600080fd5b5061035a611667565b6040516103679190612a41565b60405180910390f35b34801561037c57600080fd5b506103976004803603610392919081019061224a565b6116bf565b6040516103a49190612c84565b60405180910390f35b3480156103b957600080fd5b506103d460048036036103cf919081019061224a565b611844565b6040516103e19190612c32565b60405180910390f35b3480156103f657600080fd5b50610411600480360361040c919081019061224a565b611ae6565b60405161041e9190612a63565b60405180910390f35b34801561043357600080fd5b5061044e6004803603610449919081019061231b565b611be5565b60405161045b9190612a85565b60405180910390f35b34801561047057600080fd5b5061048b6004803603610486919081019061224a565b611c0c565b6040516104989190612a63565b60405180910390f35b3480156104ad57600080fd5b506104c860048036036104c391908101906123d6565b611d08565b6040516104d59190612c32565b60405180910390f35b3480156104ea57600080fd5b506105056004803603610500919081019061224a565b611d30565b6040516105129190612a85565b60405180910390f35b60008080549050905090565b6000806105348a8a610c4f565b905061053f81611d30565b151515610581576040517f08c379a000000000000000000000000000000000000000000000000000000000815260040161057890612c12565b60405180910390fd5b60008090505b885181101561062b576105b96105b48c8b848151811015156105a557fe5b90602001906020020151610c4f565b611d30565b1580156105de5750600089828151811015156105d157fe5b9060200190602002015151115b1561061e576040517f08c379a000000000000000000000000000000000000000000000000000000000815260040161061590612bd2565b60405180910390fd5b8080600101915050610587565b50896001600083815260200190815260200160002060000160006101000a81548160ff0219169083600281111561065e57fe5b0217905550866001600083815260200190815260200160002060000160016101000a81548160ff021916908315150217905550856001600083815260200190815260200160002060000160026101000a81548160ff021916908315150217905550846001600083815260200190815260200160002060000160036101000a81548160ff02191690831515021790555088600160008381526020019081526020016000206003019080519060200190610717929190611d82565b5087600160008381526020019081526020016000206004019080519060200190610742929190611e02565b50836001600083815260200190815260200160002060000160046101000a81548173ffffffffffffffffffffffffffffffffffffffff021916908373ffffffffffffffffffffffffffffffffffffffff160217905550826001600083815260200190815260200160002060010181905550600160008290806001815401808255809150509060018203906000526020600020016000909192909190915055036001600083815260200190815260200160002060020181905550807fb984a93e20552bfa6c1c989cedccd9b5f688a362c7b804f8834f0b2899493df560016000848152602001908152602001600020600201548b8b60405161084593929190612c9f565b60405180910390a260016000805490500391505098975050505050505050565b61086d611e62565b600080805490508311156108b6576040517f08c379a00000000000000000000000000000000000000000000000000000000081526004016108ad90612bf2565b60405180910390fd5b6001600080858154811015156108c857fe5b906000526020600020015481526020019081526020016000206000848154811015156108f057fe5b90600052602060002001548161012060405190810160405290816000820160009054906101000a900460ff16600281111561092757fe5b600281111561093257fe5b81526020016000820160019054906101000a900460ff161515151581526020016000820160029054906101000a900460ff161515151581526020016000820160039054906101000a900460ff161515151581526020016000820160049054906101000a900473ffffffffffffffffffffffffffffffffffffffff1673ffffffffffffffffffffffffffffffffffffffff1673ffffffffffffffffffffffffffffffffffffffff1681526020016001820154815260200160028201548152602001600382018054600181600116156101000203166002900480601f016020809104026020016040519081016040528092919081815260200182805460018160011615610100020316600290048015610a8a5780601f10610a5f57610100808354040283529160200191610a8a565b820191906000526020600020905b815481529060010190602001808311610a6d57829003601f168201915b5050505050815260200160048201805480602002602001604051908101604052809291908181526020016000905b82821015610b74578382906000526020600020018054600181600116156101000203166002900480601f016020809104026020016040519081016040528092919081815260200182805460018160011615610100020316600290048015610b605780601f10610b3557610100808354040283529160200191610b60565b820191906000526020600020905b815481529060010190602001808311610b4357829003601f168201915b505050505081526020019060010190610ab8565b5050505081525050915091509150915091565b600260205281600052604060002081815481101515610ba257fe5b90600052602060002001600091509150508054600181600116156101000203166002900480601f016020809104026020016040519081016040528092919081815260200182805460018160011615610100020316600290048015610c475780601f10610c1c57610100808354040283529160200191610c47565b820191906000526020600020905b815481529060010190602001808311610c2a57829003601f168201915b505050505081565b60008282604051602001610c64929190612b40565b60405160208183030381529060405280519060200120905092915050565b600082610c8e81611d30565b1515610ccf576040517f08c379a0000000000000000000000000000000000000000000000000000000008152600401610cc690612b92565b60405180910390fd5b82600160008681526020019081526020016000206004019080519060200190610cf9929190611e02565b50837ff7ea479b7ed108965977a3f25432116419af44f06a10d2316a461dbb4bf54b1760016000878152602001908152602001600020600201546001600088815260200190815260200160002060030160016000898152602001908152602001600020600401604051610d6e93929190612ce4565b60405180910390a2600191505092915050565b81610d8b81611d30565b1515610dcc576040517f08c379a0000000000000000000000000000000000000000000000000000000008152600401610dc390612b92565b60405180910390fd5b6000600160008581526020019081526020016000209050600115156001600086815260200190815260200160002060000160039054906101000a900460ff161515141515610e4f576040517f08c379a0000000000000000000000000000000000000000000000000000000008152600401610e4690612bb2565b60405180910390fd5b60008090505b8351811015610f0a57610e98610e938360000160009054906101000a900460ff168684815181101515610e8457fe5b90602001906020020151610c4f565b611d30565b8015610ebc575060008482815181101515610eaf57fe5b9060200190602002015151115b1515610efd576040517f08c379a0000000000000000000000000000000000000000000000000000000008152600401610ef490612bd2565b60405180910390fd5b8080600101915050610e55565b5082600260008681526020019081526020016000209080519060200190610f32929190611e02565b5050505050565b60016020528060005260406000206000915090508060000160009054906101000a900460ff16908060000160019054906101000a900460ff16908060000160029054906101000a900460ff16908060000160039054906101000a900460ff16908060000160049054906101000a900473ffffffffffffffffffffffffffffffffffffffff1690806001015490806002015490806003018054600181600116156101000203166002900480601f0160208091040260200160405190810160405280929190818152602001828054600181600116156101000203166002900480156110635780601f1061103857610100808354040283529160200191611063565b820191906000526020600020905b81548152906001019060200180831161104657829003601f168201915b5050505050905088565b60008261107981611d30565b15156110ba576040517f08c379a00000000000000000000000000000000000000000000000000000000081526004016110b190612b92565b60405180910390fd5b6110c2611e62565b6001600086815260200190815260200160002061012060405190810160405290816000820160009054906101000a900460ff16600281111561110057fe5b600281111561110b57fe5b81526020016000820160019054906101000a900460ff161515151581526020016000820160029054906101000a900460ff161515151581526020016000820160039054906101000a900460ff161515151581526020016000820160049054906101000a900473ffffffffffffffffffffffffffffffffffffffff1673ffffffffffffffffffffffffffffffffffffffff1673ffffffffffffffffffffffffffffffffffffffff1681526020016001820154815260200160028201548152602001600382018054600181600116156101000203166002900480601f0160208091040260200160405190810160405280929190818152602001828054600181600116156101000203166002900480156112635780601f1061123857610100808354040283529160200191611263565b820191906000526020600020905b81548152906001019060200180831161124657829003601f168201915b5050505050815260200160048201805480602002602001604051908101604052809291908181526020016000905b8282101561134d578382906000526020600020018054600181600116156101000203166002900480601f0160208091040260200160405190810160405280929190818152602001828054600181600116156101000203166002900480156113395780601f1061130e57610100808354040283529160200191611339565b820191906000526020600020905b81548152906001019060200180831161131c57829003601f168201915b505050505081526020019060010190611291565b505050508152505090506000611367826000015186610c4f565b9050816001600083815260200190815260200160002060008201518160000160006101000a81548160ff021916908360028111156113a157fe5b021790555060208201518160000160016101000a81548160ff02191690831515021790555060408201518160000160026101000a81548160ff02191690831515021790555060608201518160000160036101000a81548160ff02191690831515021790555060808201518160000160046101000a81548173ffffffffffffffffffffffffffffffffffffffff021916908373ffffffffffffffffffffffffffffffffffffffff16021790555060a0820151816001015560c0820151816002015560e082015181600301908051906020019061147d929190611ed9565b5061010082015181600401908051906020019061149b929190611f59565b50905050846001600083815260200190815260200160002060030190805190602001906114c9929190611d82565b5080600060016000848152602001908152602001600020600201548154811015156114f057fe5b906000526020600020018190555060016000878152602001908152602001600020600080820160006101000a81549060ff02191690556000820160016101000a81549060ff02191690556000820160026101000a81549060ff02191690556000820160036101000a81549060ff02191690556000820160046101000a81549073ffffffffffffffffffffffffffffffffffffffff0219169055600182016000905560028201600090556003820160006115a99190611fb9565b6004820160006115b99190612001565b5050857ff7ea479b7ed108965977a3f25432116419af44f06a10d2316a461dbb4bf54b176001600084815260200190815260200160002060020154600160008581526020019081526020016000206003016001600086815260200190815260200160002060040160405161162f93929190612ce4565b60405180910390a26001935050505092915050565b60008181548110151561165357fe5b906000526020600020016000915090505481565b606060008054806020026020016040519081016040528092919081815260200182805480156116b557602002820191906000526020600020905b8154815260200190600101908083116116a1575b5050505050905090565b6000816116cb81611d30565b151561170c576040517f08c379a000000000000000000000000000000000000000000000000000000000815260040161170390612b92565b60405180910390fd5b60006001600085815260200190815260200160002060020154905060008060016000805490500381548110151561173f57fe5b906000526020600020015490508060008381548110151561175c57fe5b9060005260206000200181905550816001600083815260200190815260200160002060020181905550600080548091906001900361179a9190612022565b50847f7aba1b7c67426c7ad78ea21a678946741a0c8795e99fa106728122a461e33cbc836040516117cb9190612c84565b60405180910390a2807ff7ea479b7ed108965977a3f25432116419af44f06a10d2316a461dbb4bf54b1783600160008581526020019081526020016000206003016001600086815260200190815260200160002060040160405161183193929190612ce4565b60405180910390a2819350505050919050565b61184c611e62565b6001600083815260200190815260200160002061012060405190810160405290816000820160009054906101000a900460ff16600281111561188a57fe5b600281111561189557fe5b81526020016000820160019054906101000a900460ff161515151581526020016000820160029054906101000a900460ff161515151581526020016000820160039054906101000a900460ff161515151581526020016000820160049054906101000a900473ffffffffffffffffffffffffffffffffffffffff1673ffffffffffffffffffffffffffffffffffffffff1673ffffffffffffffffffffffffffffffffffffffff1681526020016001820154815260200160028201548152602001600382018054600181600116156101000203166002900480601f0160208091040260200160405190810160405280929190818152602001828054600181600116156101000203166002900480156119ed5780601f106119c2576101008083540402835291602001916119ed565b820191906000526020600020905b8154815290600101906020018083116119d057829003601f168201915b5050505050815260200160048201805480602002602001604051908101604052809291908181526020016000905b82821015611ad7578382906000526020600020018054600181600116156101000203166002900480601f016020809104026020016040519081016040528092919081815260200182805460018160011615610100020316600290048015611ac35780601f10611a9857610100808354040283529160200191611ac3565b820191906000526020600020905b815481529060010190602001808311611aa657829003601f168201915b505050505081526020019060010190611a1b565b50505050815250509050919050565b606060016000838152602001908152602001600020600401805480602002602001604051908101604052809291908181526020016000905b82821015611bda578382906000526020600020018054600181600116156101000203166002900480601f016020809104026020016040519081016040528092919081815260200182805460018160011615610100020316600290048015611bc65780601f10611b9b57610100808354040283529160200191611bc6565b820191906000526020600020905b815481529060010190602001808311611ba957829003601f168201915b505050505081526020019060010190611b1e565b505050509050919050565b6000611bf18483610c82565b8015611c035750611c02848461106d565b5b90509392505050565b606060026000838152602001908152602001600020805480602002602001604051908101604052809291908181526020016000905b82821015611cfd578382906000526020600020018054600181600116156101000203166002900480601f016020809104026020016040519081016040528092919081815260200182805460018160011615610100020316600290048015611ce95780601f10611cbe57610100808354040283529160200191611ce9565b820191906000526020600020905b815481529060010190602001808311611ccc57829003601f168201915b505050505081526020019060010190611c41565b505050509050919050565b611d10611e62565b6000611d1c8484610c4f565b9050611d2781611844565b91505092915050565b6000806000805490501415611d485760009050611d7d565b8160006001600085815260200190815260200160002060020154815481101515611d6e57fe5b90600052602060002001541490505b919050565b828054600181600116156101000203166002900490600052602060002090601f016020900481019282601f10611dc357805160ff1916838001178555611df1565b82800160010185558215611df1579182015b82811115611df0578251825591602001919060010190611dd5565b5b509050611dfe919061204e565b5090565b828054828255906000526020600020908101928215611e51579160200282015b82811115611e50578251829080519060200190611e40929190611ed9565b5091602001919060010190611e22565b5b509050611e5e9190612073565b5090565b6101206040519081016040528060006002811115611e7c57fe5b8152602001600015158152602001600015158152602001600015158152602001600073ffffffffffffffffffffffffffffffffffffffff168152602001600080191681526020016000815260200160608152602001606081525090565b828054600181600116156101000203166002900490600052602060002090601f016020900481019282601f10611f1a57805160ff1916838001178555611f48565b82800160010185558215611f48579182015b82811115611f47578251825591602001919060010190611f2c565b5b509050611f55919061204e565b5090565b828054828255906000526020600020908101928215611fa8579160200282015b82811115611fa7578251829080519060200190611f97929190611ed9565b5091602001919060010190611f79565b5b509050611fb59190612073565b5090565b50805460018160011615610100020316600290046000825580601f10611fdf5750611ffe565b601f016020900490600052602060002090810190611ffd919061204e565b5b50565b508054600082559060005260206000209081019061201f9190612073565b50565b81548183558181111561204957818360005260206000209182019101612048919061209f565b5b505050565b61207091905b8082111561206c576000816000905550600101612054565b5090565b90565b61209c91905b80821115612098576000818161208f9190611fb9565b50600101612079565b5090565b90565b6120c191905b808211156120bd5760008160009055506001016120a5565b5090565b90565b60006120d08235612eff565b905092915050565b600082601f83011215156120eb57600080fd5b81356120fe6120f982612d56565b612d29565b9150818183526020840193506020810190508360005b83811015612144578135860161212a888261218a565b845260208401935060208301925050600181019050612114565b5050505092915050565b600061215a8235612f11565b905092915050565b600061216e8235612f1d565b905092915050565b60006121828235612f27565b905092915050565b600082601f830112151561219d57600080fd5b81356121b06121ab82612d7e565b612d29565b915080825260208301602083018583830111156121cc57600080fd5b6121d7838284612f5c565b50505092915050565b600082601f83011215156121f357600080fd5b813561220661220182612daa565b612d29565b9150808252602083016020830185838301111561222257600080fd5b61222d838284612f5c565b50505092915050565b60006122428235612f40565b905092915050565b60006020828403121561225c57600080fd5b600061226a84828501612162565b91505092915050565b6000806040838503121561228657600080fd5b600061229485828601612162565b925050602083013567ffffffffffffffff8111156122b157600080fd5b6122bd858286016120d8565b9150509250929050565b600080604083850312156122da57600080fd5b60006122e885828601612162565b925050602083013567ffffffffffffffff81111561230557600080fd5b612311858286016121e0565b9150509250929050565b60008060006060848603121561233057600080fd5b600061233e86828701612162565b935050602084013567ffffffffffffffff81111561235b57600080fd5b612367868287016121e0565b925050604084013567ffffffffffffffff81111561238457600080fd5b612390868287016120d8565b9150509250925092565b600080604083850312156123ad57600080fd5b60006123bb85828601612162565b92505060206123cc85828601612236565b9150509250929050565b600080604083850312156123e957600080fd5b60006123f785828601612176565b925050602083013567ffffffffffffffff81111561241457600080fd5b612420858286016121e0565b9150509250929050565b600080600080600080600080610100898b03121561244757600080fd5b60006124558b828c01612176565b985050602089013567ffffffffffffffff81111561247257600080fd5b61247e8b828c016121e0565b975050604089013567ffffffffffffffff81111561249b57600080fd5b6124a78b828c016120d8565b96505060606124b88b828c0161214e565b95505060806124c98b828c0161214e565b94505060a06124da8b828c0161214e565b93505060c06124eb8b828c016120c4565b92505060e06124fc8b828c01612162565b9150509295985092959890939650565b60006020828403121561251e57600080fd5b600061252c84828501612236565b91505092915050565b61253e81612e97565b82525050565b600061254f82612e21565b80845260208401935061256183612dd6565b60005b82811015612593576125778683516126f7565b61258082612e63565b9150602086019550600181019050612564565b50849250505092915050565b60006125aa82612e37565b808452602084019350836020820285016125c385612df0565b60005b848110156125fc5783830388526125de83835161274b565b92506125e982612e7d565b91506020880197506001810190506125c6565b508196508694505050505092915050565b600061261882612e2c565b8084526020840193508360208202850161263185612de3565b60005b8481101561266a57838303885261264c83835161274b565b925061265782612e70565b9150602088019750600181019050612634565b508196508694505050505092915050565b600061268682612e42565b8084526020840193508360208202850161269f85612dfd565b60005b848110156126d75783830388526126b98383612781565b92506126c482612e8a565b91506020880197506001810190506126a2565b508196508694505050505092915050565b6126f181612ea9565b82525050565b61270081612eb5565b82525050565b61270f81612f4a565b82525050565b600061272082612e58565b808452612734816020860160208601612f6b565b61273d81612f9e565b602085010191505092915050565b600061275682612e4d565b80845261276a816020860160208601612f6b565b61277381612f9e565b602085010191505092915050565b60008154600181166000811461279e57600181146127be576127ff565b607f600283041680865260ff1983166020870152604086019350506127ff565b600282048086526020860195506127d485612e0f565b60005b828110156127f6578154818901526001820191506020810190506127d7565b80880195505050505b505092915050565b6000601582527f4e6f2073756368207479706520696e73657274656400000000000000000000006020830152604082019050919050565b6000601282527f7479706520686173206e6f206f757470757400000000000000000000000000006020830152604082019050919050565b6000604182527f41207479706520696e2074686520636f6d706f736974696f6e20646f6573206e60208301527f6f74206578697374732e20557365206f6e6c7920657874616e7420747970657360408301527f2e000000000000000000000000000000000000000000000000000000000000006060830152608082019050919050565b6000600e82527f496e64657820746f6f206269672e0000000000000000000000000000000000006020830152604082019050919050565b6000601382527f5479706520616c726561647920657869737473000000000000000000000000006020830152604082019050919050565b60006101208301600083015161297f6000860182612706565b50602083015161299260208601826126e8565b5060408301516129a560408601826126e8565b5060608301516129b860608601826126e8565b5060808301516129cb6080860182612535565b5060a08301516129de60a08601826126f7565b5060c08301516129f160c0860182612a32565b5060e083015184820360e0860152612a09828261274b565b915050610100830151848203610100860152612a25828261260d565b9150508091505092915050565b612a3b81612ef5565b82525050565b60006020820190508181036000830152612a5b8184612544565b905092915050565b60006020820190508181036000830152612a7d818461259f565b905092915050565b6000602082019050612a9a60008301846126e8565b92915050565b6000602082019050612ab560008301846126f7565b92915050565b600061010082019050612ad1600083018b612706565b612ade602083018a6126e8565b612aeb60408301896126e8565b612af860608301886126e8565b612b056080830187612535565b612b1260a08301866126f7565b612b1f60c0830185612a32565b81810360e0830152612b31818461274b565b90509998505050505050505050565b6000604082019050612b556000830185612706565b8181036020830152612b678184612715565b90509392505050565b60006020820190508181036000830152612b8a818461274b565b905092915050565b60006020820190508181036000830152612bab81612807565b9050919050565b60006020820190508181036000830152612bcb8161283e565b9050919050565b60006020820190508181036000830152612beb81612875565b9050919050565b60006020820190508181036000830152612c0b816128f8565b9050919050565b60006020820190508181036000830152612c2b8161292f565b9050919050565b60006020820190508181036000830152612c4c8184612966565b905092915050565b60006040820190508181036000830152612c6e8185612966565b9050612c7d60208301846126f7565b9392505050565b6000602082019050612c996000830184612a32565b92915050565b6000606082019050612cb46000830186612a32565b8181036020830152612cc68185612715565b90508181036040830152612cda818461259f565b9050949350505050565b6000606082019050612cf96000830186612a32565b8181036020830152612d0b8185612781565b90508181036040830152612d1f818461267b565b9050949350505050565b6000604051905081810181811067ffffffffffffffff82111715612d4c57600080fd5b8060405250919050565b600067ffffffffffffffff821115612d6d57600080fd5b602082029050602081019050919050565b600067ffffffffffffffff821115612d9557600080fd5b601f19601f8301169050602081019050919050565b600067ffffffffffffffff821115612dc157600080fd5b601f19601f8301169050602081019050919050565b6000602082019050919050565b6000602082019050919050565b6000602082019050919050565b60008160005260206000209050919050565b60008160005260206000209050919050565b600081519050919050565b600081519050919050565b600081519050919050565b600081549050919050565b600081519050919050565b600081519050919050565b6000602082019050919050565b6000602082019050919050565b6000602082019050919050565b6000600182019050919050565b6000612ea282612ed5565b9050919050565b60008115159050919050565b6000819050919050565b6000600382101515612ecd57fe5b819050919050565b600073ffffffffffffffffffffffffffffffffffffffff82169050919050565b6000819050919050565b6000612f0a82612ed5565b9050919050565b60008115159050919050565b6000819050919050565b6000600382101515612f3857600080fd5b819050919050565b6000819050919050565b6000612f5582612ebf565b9050919050565b82818337600083830152505050565b60005b83811015612f89578082015181840152602081019050612f6e565b83811115612f98576000848401525b50505050565b6000601f19601f830116905091905056fea265627a7a72305820ccc2217d5d80385f297bc841f8a18208b229e8ada960eac2c48e72413e3f2ccb6c6578706572696d656e74616cf50037",
  "source": "pragma solidity ^0.5.0;\npragma experimental ABIEncoderV2;\n\ncontract dType {\n    bytes32[] public typeIndex;\n    mapping(bytes32 => Type) public typeStruct;\n    mapping(bytes32 => string[]) public outputIndex;\n\n    enum LangChoices { Solidity, JavaScript, Python }\n    LangChoices constant defaultLang = LangChoices.Solidity;\n\n    struct Type {\n        LangChoices lang;\n        bool isEvent;\n        bool isFunction;\n        bool hasOutput;\n        address contractAddress;\n        bytes32 source;\n        uint256 index;\n        string name;\n        string[] types;\n    }\n\n    modifier typeExists (bytes32 typeHash) {\n        require(isType(typeHash), 'No such type inserted');\n        _;\n    }\n\n    modifier typeNotExists (bytes32 typeHash) {\n        require(!isType(typeHash), 'Type already exists');\n        _;\n    }\n\n    event LogNew(\n        bytes32 indexed typeHash,\n        uint256 index,\n        string name,\n        string[] types\n    );\n\n    event LogUpdate(\n        bytes32 indexed typeHash,\n        uint index,\n        string name,\n        string[] types\n    );\n\n    event LogRemove(\n        bytes32 indexed typeHash,\n        uint256 index\n    );\n\n    function insert(\n        LangChoices lang,\n        string memory name,\n        string[] memory types,\n        bool isEvent,\n        bool isFunction,\n        bool hasOutput,\n        address contractAddress,\n        bytes32 source\n    )\n        public\n        returns(uint256 index)\n    {\n        bytes32 typeHash = getTypeHash(lang, name);\n        require(!isType(typeHash), 'Type already exists');\n\n        for (uint256 i = 0 ; i < types.length; i++) {\n            if (!isType(getTypeHash(lang, types[i])) && bytes(types[i]).length > 0) {\n                revert(\"A type in the composition does not exists. Use only extant types.\");\n            }\n        }\n        typeStruct[typeHash].lang = lang;\n        typeStruct[typeHash].isEvent = isEvent;\n        typeStruct[typeHash].isFunction = isFunction;\n        typeStruct[typeHash].hasOutput = hasOutput;\n        typeStruct[typeHash].name = name;\n        typeStruct[typeHash].types = types;\n        typeStruct[typeHash].contractAddress = contractAddress;\n        typeStruct[typeHash].source = source;\n        typeStruct[typeHash].index = typeIndex.push(typeHash)-1;\n\n        emit LogNew(\n            typeHash,\n            typeStruct[typeHash].index,\n            name,\n            types\n        );\n\n        return typeIndex.length-1;\n    }\n\n    function update(\n        bytes32 typeHash,\n        string memory newName,\n        string[] memory newTypes\n    )\n        public\n        returns(bool success)\n    {\n        return (\n            updateTypes(typeHash, newTypes) &&\n            updateName(typeHash, newName)\n        );\n    }\n\n    function updateTypes(\n        bytes32 typeHash,\n        string[] memory newTypes\n    )\n        typeExists(typeHash)\n        public\n        returns(bool success)\n    {\n        typeStruct[typeHash].types = newTypes;\n\n        emit LogUpdate(\n            typeHash,\n            typeStruct[typeHash].index,\n            typeStruct[typeHash].name,\n            typeStruct[typeHash].types\n        );\n\n        return true;\n    }\n\n    function updateName(\n        bytes32 typeHash,\n        string memory newName\n    )\n        typeExists(typeHash)\n        public\n        returns(bool success)\n    {\n        Type memory dtype = typeStruct[typeHash];\n        bytes32 newTypeHash = getTypeHash(dtype.lang, newName);\n\n        typeStruct[newTypeHash] = dtype;\n        typeStruct[newTypeHash].name = newName;\n        typeIndex[typeStruct[newTypeHash].index] = newTypeHash;\n        delete typeStruct[typeHash];\n\n        emit LogUpdate(\n            typeHash,\n            typeStruct[newTypeHash].index,\n            typeStruct[newTypeHash].name,\n            typeStruct[newTypeHash].types\n        );\n\n        return true;\n    }\n\n    function remove(bytes32 typeHash)\n        typeExists(typeHash)\n        public\n        returns(uint256 index)\n    {\n        uint rowToDelete = typeStruct[typeHash].index;\n        bytes32 keyToMove = typeIndex[typeIndex.length-1];\n        typeIndex[rowToDelete] = keyToMove;\n        typeStruct[keyToMove].index = rowToDelete;\n        typeIndex.length--;\n\n        // TODO remove outputIndex[typeHash]\n\n        emit LogRemove(typeHash, rowToDelete);\n        emit LogUpdate(\n            keyToMove,\n            rowToDelete,\n            typeStruct[keyToMove].name,\n            typeStruct[keyToMove].types\n        );\n        return rowToDelete;\n    }\n\n    function setOutputs(bytes32 typeHash, string[] memory outputs)\n        typeExists(typeHash)\n        public\n    {\n        Type storage dtype = typeStruct[typeHash];\n\n        require(typeStruct[typeHash].hasOutput == true, 'type has no output');\n\n        for (uint256 i = 0 ; i < outputs.length; i++) {\n            require(\n                isType(getTypeHash(dtype.lang, outputs[i])) &&\n                bytes(outputs[i]).length > 0,\n                'A type in the composition does not exists. Use only extant types.'\n            );\n        }\n        outputIndex[typeHash] = outputs;\n    }\n\n    function count() public view returns(uint256 counter)\n    {\n        return typeIndex.length;\n    }\n\n    function getIndex() public view returns(bytes32[] memory indext) {\n        return typeIndex;\n    }\n\n    function getTypeHash(LangChoices lang, string memory name)\n        pure\n        public\n        returns (bytes32 typeHash)\n    {\n        return keccak256(abi.encode(lang, name));\n    }\n\n    function getByHash(bytes32 typeHash) view public returns(Type memory dtype) {\n        return typeStruct[typeHash];\n    }\n\n    function get(LangChoices lang, string memory name)\n        view\n        public\n        returns(Type memory dtype)\n    {\n        bytes32 typeHash = getTypeHash(lang, name);\n        return getByHash(typeHash);\n    }\n\n    function isType(bytes32 typeHash)\n        view\n        public\n        returns(bool isIndeed)\n    {\n        if (typeIndex.length == 0) {\n            return false;\n        }\n        return (typeIndex[typeStruct[typeHash].index] == typeHash);\n    }\n\n    function getOutputs(bytes32 typeHash) view public returns (string[] memory outputs) {\n        return outputIndex[typeHash];\n    }\n\n    function getTypes(bytes32 typeHash)\n        public\n        view\n        returns(string[] memory types)\n    {\n       return typeStruct[typeHash].types;\n    }\n\n    function getByIndex(uint256 index)\n        view\n        public\n        returns(Type memory dtype, bytes32 typeHash)\n    {\n        if(index > typeIndex.length ) {\n            revert(\"Index too big.\");\n        }\n        return (typeStruct[typeIndex[index]],  typeIndex[index]);\n    }\n}\n",
  "sourcePath": "/Users/loredana/ETH/dType/contracts/contracts/dType.sol",
  "compiler": {
    "name": "solc",
    "version": "0.5.0+commit.1d4f565a.Emscripten.clang"
  },
  "schemaVersion": "3.0.2",
  "updatedAt": "2019-03-16T14:24:04.303Z",
  "devdoc": {
    "methods": {}
  },
  "userdoc": {
    "methods": {}
  }
}