{
  "contractName": "dType",
  "abi": [
    {
      "constant": true,
      "inputs": [
        {
          "name": "",
          "type": "bytes32"
        },
        {
          "name": "",
          "type": "uint256"
        }
      ],
      "name": "outputIndex",
      "outputs": [
        {
          "name": "",
          "type": "bytes32"
        }
      ],
      "payable": false,
      "stateMutability": "view",
      "type": "function",
      "signature": "0x3a41cac0"
    },
    {
      "constant": true,
      "inputs": [
        {
          "name": "",
          "type": "bytes32"
        }
      ],
      "name": "typeStruct",
      "outputs": [
        {
          "name": "lang",
          "type": "uint8"
        },
        {
          "name": "isEvent",
          "type": "bool"
        },
        {
          "name": "isFunction",
          "type": "bool"
        },
        {
          "name": "hasOutput",
          "type": "bool"
        },
        {
          "name": "contractAddress",
          "type": "address"
        },
        {
          "name": "source",
          "type": "bytes32"
        },
        {
          "name": "index",
          "type": "uint256"
        },
        {
          "name": "name",
          "type": "string"
        }
      ],
      "payable": false,
      "stateMutability": "view",
      "type": "function",
      "signature": "0x668414a4"
    },
    {
      "constant": true,
      "inputs": [
        {
          "name": "",
          "type": "uint256"
        }
      ],
      "name": "typeIndex",
      "outputs": [
        {
          "name": "",
          "type": "bytes32"
        }
      ],
      "payable": false,
      "stateMutability": "view",
      "type": "function",
      "signature": "0x7460e311"
    },
    {
      "anonymous": false,
      "inputs": [
        {
          "indexed": true,
          "name": "typeHash",
          "type": "bytes32"
        },
        {
          "indexed": false,
          "name": "index",
          "type": "uint256"
        },
        {
          "indexed": false,
          "name": "name",
          "type": "string"
        },
        {
          "indexed": false,
          "name": "types",
          "type": "bytes32[]"
        }
      ],
      "name": "LogNew",
      "type": "event",
      "signature": "0xe05ec020c046042e53c2ff025df3f0b5ae276fbefeeb656d68705b1201d04f9f"
    },
    {
      "anonymous": false,
      "inputs": [
        {
          "indexed": true,
          "name": "typeHash",
          "type": "bytes32"
        },
        {
          "indexed": false,
          "name": "index",
          "type": "uint256"
        },
        {
          "indexed": false,
          "name": "name",
          "type": "string"
        },
        {
          "indexed": false,
          "name": "types",
          "type": "bytes32[]"
        }
      ],
      "name": "LogUpdate",
      "type": "event",
      "signature": "0xe4c7d8643b78c6e70663bb25601ae5687068f4fda5f032db6c931600e8f3b1f3"
    },
    {
      "anonymous": false,
      "inputs": [
        {
          "indexed": true,
          "name": "typeHash",
          "type": "bytes32"
        },
        {
          "indexed": false,
          "name": "index",
          "type": "uint256"
        }
      ],
      "name": "LogRemove",
      "type": "event",
      "signature": "0x7aba1b7c67426c7ad78ea21a678946741a0c8795e99fa106728122a461e33cbc"
    },
    {
      "constant": true,
      "inputs": [],
      "name": "getIndex",
      "outputs": [
        {
          "name": "indext",
          "type": "bytes32[]"
        }
      ],
      "payable": false,
      "stateMutability": "view",
      "type": "function",
      "signature": "0x81045ead"
    },
    {
      "constant": true,
      "inputs": [
        {
          "name": "typeHash",
          "type": "bytes32"
        }
      ],
      "name": "isType",
      "outputs": [
        {
          "name": "isIndeed",
          "type": "bool"
        }
      ],
      "payable": false,
      "stateMutability": "view",
      "type": "function",
      "signature": "0xe2b1e4ed"
    },
    {
      "constant": false,
      "inputs": [
        {
          "name": "name",
          "type": "string"
        },
        {
          "name": "types",
          "type": "bytes32[]"
        },
        {
          "name": "lang",
          "type": "uint8"
        },
        {
          "name": "isEvent",
          "type": "bool"
        },
        {
          "name": "isFunction",
          "type": "bool"
        },
        {
          "name": "hasOutput",
          "type": "bool"
        },
        {
          "name": "contractAddress",
          "type": "address"
        },
        {
          "name": "source",
          "type": "bytes32"
        }
      ],
      "name": "insert",
      "outputs": [
        {
          "name": "index",
          "type": "uint256"
        }
      ],
      "payable": false,
      "stateMutability": "nonpayable",
      "type": "function",
      "signature": "0x8f9f4052"
    },
    {
      "constant": false,
      "inputs": [
        {
          "name": "hash",
          "type": "bytes32"
        },
        {
          "name": "outputs",
          "type": "bytes32[]"
        }
      ],
      "name": "setOutputs",
      "outputs": [],
      "payable": false,
      "stateMutability": "nonpayable",
      "type": "function",
      "signature": "0x2572537b"
    },
    {
      "constant": true,
      "inputs": [
        {
          "name": "hash",
          "type": "bytes32"
        }
      ],
      "name": "getOutputs",
      "outputs": [
        {
          "name": "outputs",
          "type": "bytes32[]"
        }
      ],
      "payable": false,
      "stateMutability": "view",
      "type": "function",
      "signature": "0xadb02ea5"
    },
    {
      "constant": true,
      "inputs": [
        {
          "name": "hash",
          "type": "bytes32"
        }
      ],
      "name": "getTypes",
      "outputs": [
        {
          "name": "types",
          "type": "bytes32[]"
        }
      ],
      "payable": false,
      "stateMutability": "view",
      "type": "function",
      "signature": "0xaa09ec0e"
    },
    {
      "constant": true,
      "inputs": [
        {
          "name": "aname",
          "type": "string"
        },
        {
          "name": "astype",
          "type": "string"
        }
      ],
      "name": "get",
      "outputs": [
        {
          "name": "name",
          "type": "string"
        },
        {
          "name": "types",
          "type": "bytes32[]"
        },
        {
          "name": "index",
          "type": "uint256"
        }
      ],
      "payable": false,
      "stateMutability": "view",
      "type": "function",
      "signature": "0x3e10510b"
    },
    {
      "constant": true,
      "inputs": [
        {
          "name": "hash",
          "type": "bytes32"
        }
      ],
      "name": "getByHash",
      "outputs": [
        {
          "name": "name",
          "type": "string"
        },
        {
          "name": "types",
          "type": "bytes32[]"
        },
        {
          "name": "index",
          "type": "uint256"
        }
      ],
      "payable": false,
      "stateMutability": "view",
      "type": "function",
      "signature": "0xa2dd3d47"
    },
    {
      "constant": true,
      "inputs": [
        {
          "name": "index",
          "type": "uint256"
        }
      ],
      "name": "getByIndex",
      "outputs": [
        {
          "components": [
            {
              "name": "lang",
              "type": "uint8"
            },
            {
              "name": "isEvent",
              "type": "bool"
            },
            {
              "name": "isFunction",
              "type": "bool"
            },
            {
              "name": "hasOutput",
              "type": "bool"
            },
            {
              "name": "contractAddress",
              "type": "address"
            },
            {
              "name": "source",
              "type": "bytes32"
            },
            {
              "name": "index",
              "type": "uint256"
            },
            {
              "name": "name",
              "type": "string"
            },
            {
              "name": "types",
              "type": "bytes32[]"
            }
          ],
          "name": "atype",
          "type": "tuple"
        },
        {
          "name": "hash",
          "type": "bytes32"
        }
      ],
      "payable": false,
      "stateMutability": "view",
      "type": "function",
      "signature": "0x2d883a73"
    },
    {
      "constant": true,
      "inputs": [
        {
          "name": "name",
          "type": "string"
        }
      ],
      "name": "getByName",
      "outputs": [
        {
          "name": "types",
          "type": "bytes32[]"
        }
      ],
      "payable": false,
      "stateMutability": "view",
      "type": "function",
      "signature": "0xb336ad83"
    },
    {
      "constant": false,
      "inputs": [
        {
          "name": "hash",
          "type": "bytes32"
        },
        {
          "name": "newName",
          "type": "string"
        },
        {
          "name": "newTypes",
          "type": "bytes32[]"
        }
      ],
      "name": "update",
      "outputs": [
        {
          "name": "success",
          "type": "bool"
        }
      ],
      "payable": false,
      "stateMutability": "nonpayable",
      "type": "function",
      "signature": "0xd5b81493"
    },
    {
      "constant": false,
      "inputs": [
        {
          "name": "hash",
          "type": "bytes32"
        }
      ],
      "name": "remove",
      "outputs": [
        {
          "name": "index",
          "type": "uint256"
        }
      ],
      "payable": false,
      "stateMutability": "nonpayable",
      "type": "function",
      "signature": "0x95bc2673"
    },
    {
      "constant": true,
      "inputs": [],
      "name": "count",
      "outputs": [
        {
          "name": "counter",
          "type": "uint256"
        }
      ],
      "payable": false,
      "stateMutability": "view",
      "type": "function",
      "signature": "0x06661abd"
    }
  ],
  "bytecode": "0x608060405234801561001057600080fd5b506123d2806100206000396000f3fe6080604052600436106100e6576000357c0100000000000000000000000000000000000000000000000000000000900463ffffffff16806306661abd146100eb5780632572537b146101165780632d883a731461013f5780633a41cac01461017d5780633e10510b146101ba578063668414a4146101f95780637460e3111461023d57806381045ead1461027a5780638f9f4052146102a557806395bc2673146102e2578063a2dd3d471461031f578063aa09ec0e1461035e578063adb02ea51461039b578063b336ad83146103d8578063d5b8149314610415578063e2b1e4ed14610452575b600080fd5b3480156100f757600080fd5b5061010061048f565b60405161010d91906120be565b60405180910390f35b34801561012257600080fd5b5061013d600480360361013891908101906116ea565b61049b565b005b34801561014b57600080fd5b5061016660048036036101619190810190611988565b6104fd565b60405161017492919061208e565b60405180910390f35b34801561018957600080fd5b506101a4600480360361019f91908101906117bd565b61078e565b6040516101b19190611e8d565b60405180910390f35b3480156101c657600080fd5b506101e160048036036101dc919081019061191c565b6107be565b6040516101f093929190611f72565b60405180910390f35b34801561020557600080fd5b50610220600480360361021b91908101906116c1565b610806565b604051610234989796959493929190611ea8565b60405180910390f35b34801561024957600080fd5b50610264600480360361025f9190810190611988565b61093a565b6040516102719190611e8d565b60405180910390f35b34801561028657600080fd5b5061028f61095d565b60405161029c9190611e50565b60405180910390f35b3480156102b157600080fd5b506102cc60048036036102c7919081019061183a565b6109b5565b6040516102d991906120be565b60405180910390f35b3480156102ee57600080fd5b50610309600480360361030491908101906116c1565b610da1565b60405161031691906120be565b60405180910390f35b34801561032b57600080fd5b50610346600480360361034191908101906116c1565b610f24565b60405161035593929190611f72565b60405180910390f35b34801561036a57600080fd5b50610385600480360361038091908101906116c1565b6110b1565b6040516103929190611e50565b60405180910390f35b3480156103a757600080fd5b506103c260048036036103bd91908101906116c1565b61111f565b6040516103cf9190611e50565b60405180910390f35b3480156103e457600080fd5b506103ff60048036036103fa91908101906117f9565b61118a565b60405161040c9190611e50565b60405180910390f35b34801561042157600080fd5b5061043c6004803603610437919081019061173e565b61124d565b6040516104499190611e72565b60405180910390f35b34801561045e57600080fd5b50610479600480360361047491908101906116c1565b611376565b6040516104869190611e72565b60405180910390f35b60008080549050905090565b600115156001600084815260200190815260200160002060000160039054906101000a900460ff1615151415156104d157600080fd5b806003600084815260200190815260200160002090805190602001906104f89291906113c8565b505050565b610505611415565b6000808054905083111561054e576040517f08c379a00000000000000000000000000000000000000000000000000000000081526004016105459061206e565b60405180910390fd5b60016000808581548110151561056057fe5b9060005260206000200154815260200190815260200160002060008481548110151561058857fe5b90600052602060002001548161012060405190810160405290816000820160009054906101000a900460ff1660028111156105bf57fe5b60028111156105ca57fe5b81526020016000820160019054906101000a900460ff161515151581526020016000820160029054906101000a900460ff161515151581526020016000820160039054906101000a900460ff161515151581526020016000820160049054906101000a900473ffffffffffffffffffffffffffffffffffffffff1673ffffffffffffffffffffffffffffffffffffffff1673ffffffffffffffffffffffffffffffffffffffff1681526020016001820154815260200160028201548152602001600382018054600181600116156101000203166002900480601f0160208091040260200160405190810160405280929190818152602001828054600181600116156101000203166002900480156107225780601f106106f757610100808354040283529160200191610722565b820191906000526020600020905b81548152906001019060200180831161070557829003601f168201915b505050505081526020016004820180548060200260200160405190810160405280929190818152602001828054801561077a57602002820191906000526020600020905b815481526020019060010190808311610766575b505050505081525050915091509150915091565b6003602052816000526040600020818154811015156107a957fe5b90600052602060002001600091509150505481565b60608060008085856040516020016107d7929190611fb7565b6040516020818303038152906040528051906020012090506107f881610f24565b935093509350509250925092565b60016020528060005260406000206000915090508060000160009054906101000a900460ff16908060000160019054906101000a900460ff16908060000160029054906101000a900460ff16908060000160039054906101000a900460ff16908060000160049054906101000a900473ffffffffffffffffffffffffffffffffffffffff1690806001015490806002015490806003018054600181600116156101000203166002900480601f0160208091040260200160405190810160405280929190818152602001828054600181600116156101000203166002900480156109305780601f1061090557610100808354040283529160200191610930565b820191906000526020600020905b81548152906001019060200180831161091357829003601f168201915b5050505050905088565b60008181548110151561094957fe5b906000526020600020016000915090505481565b606060008054806020026020016040519081016040528092919081815260200182805480156109ab57602002820191906000526020600020905b815481526020019060010190808311610997575b5050505050905090565b6000808989866040516020016109cd93929190611f2d565b6040516020818303038152906040528051906020012090506109ee81611376565b15610a2e576040517f08c379a0000000000000000000000000000000000000000000000000000000008152600401610a2590611fee565b60405180910390fd5b60008090505b8951811015610ad257610a5d8a82815181101515610a4e57fe5b90602001906020020151611376565b158015610a85575060006001028a82815181101515610a7857fe5b9060200190602002015114155b15610ac5576040517f08c379a0000000000000000000000000000000000000000000000000000000008152600401610abc9061202e565b60405180910390fd5b8080600101915050610a34565b50876001600083815260200190815260200160002060000160006101000a81548160ff02191690836002811115610b0557fe5b0217905550866001600083815260200190815260200160002060000160016101000a81548160ff021916908315150217905550856001600083815260200190815260200160002060000160026101000a81548160ff021916908315150217905550846001600083815260200190815260200160002060000160036101000a81548160ff02191690831515021790555089600160008381526020019081526020016000206003019080519060200190610bbe92919061148c565b5088600160008381526020019081526020016000206004019080519060200190610be99291906113c8565b50836001600083815260200190815260200160002060000160046101000a81548173ffffffffffffffffffffffffffffffffffffffff021916908373ffffffffffffffffffffffffffffffffffffffff16021790555082600160008381526020019081526020016000206001018190555060016000829080600181540180825580915050906001820390600052602060002001600090919290919091505503600160008381526020019081526020016000206002018190555060028a6040518082805190602001908083835b602083101515610cda5780518252602082019150602081019050602083039250610cb5565b6001836020036101000a0380198251168184511680821785525050505050509050019150509081526020016040518091039020819080600181540180825580915050906001820390600052602060002001600090919290919091505550807fe05ec020c046042e53c2ff025df3f0b5ae276fbefeeb656d68705b1201d04f9f60016000848152602001908152602001600020600201548c8c604051610d81939291906120d9565b60405180910390a260016000805490500391505098975050505050505050565b6000610dac82611376565b1515610ded576040517f08c379a0000000000000000000000000000000000000000000000000000000008152600401610de49061204e565b60405180910390fd5b600060016000848152602001908152602001600020600201549050600080600160008054905003815481101515610e2057fe5b9060005260206000200154905080600083815481101515610e3d57fe5b90600052602060002001819055508160016000838152602001908152602001600020600201819055506000805480919060019003610e7b919061150c565b50837f7aba1b7c67426c7ad78ea21a678946741a0c8795e99fa106728122a461e33cbc83604051610eac91906120be565b60405180910390a2807fe4c7d8643b78c6e70663bb25601ae5687068f4fda5f032db6c931600e8f3b1f3836001600085815260200190815260200160002060030160016000868152602001908152602001600020600401604051610f129392919061211e565b60405180910390a28192505050919050565b6060806000610f3284611376565b1515610f73576040517f08c379a0000000000000000000000000000000000000000000000000000000008152600401610f6a9061200e565b60405180910390fd5b60016000858152602001908152602001600020600301600160008681526020019081526020016000206004016001600087815260200190815260200160002060020154828054600181600116156101000203166002900480601f01602080910402602001604051908101604052809291908181526020018280546001816001161561010002031660029004801561104b5780601f106110205761010080835404028352916020019161104b565b820191906000526020600020905b81548152906001019060200180831161102e57829003601f168201915b505050505092508180548060200260200160405190810160405280929190818152602001828054801561109d57602002820191906000526020600020905b815481526020019060010190808311611089575b505050505091509250925092509193909250565b60606001600083815260200190815260200160002060040180548060200260200160405190810160405280929190818152602001828054801561111357602002820191906000526020600020905b8154815260200190600101908083116110ff575b50505050509050919050565b60606003600083815260200190815260200160002080548060200260200160405190810160405280929190818152602001828054801561117e57602002820191906000526020600020905b81548152602001906001019080831161116a575b50505050509050919050565b60606002826040518082805190602001908083835b6020831015156111c4578051825260208201915060208101905060208303925061119f565b6001836020036101000a038019825116818451168082178552505050505050905001915050908152602001604051809103902080548060200260200160405190810160405280929190818152602001828054801561124157602002820191906000526020600020905b81548152602001906001019080831161122d575b50505050509050919050565b600061125884611376565b1515611299576040517f08c379a00000000000000000000000000000000000000000000000000000000081526004016112909061200e565b60405180910390fd5b826001600086815260200190815260200160002060030190805190602001906112c392919061148c565b50816001600086815260200190815260200160002060040190805190602001906112ee9291906113c8565b50837fe4c7d8643b78c6e70663bb25601ae5687068f4fda5f032db6c931600e8f3b1f3600160008781526020019081526020016000206002015460016000888152602001908152602001600020600301600160008981526020019081526020016000206004016040516113639392919061211e565b60405180910390a2600190509392505050565b600080600080549050141561138e57600090506113c3565b81600060016000858152602001908152602001600020600201548154811015156113b457fe5b90600052602060002001541490505b919050565b828054828255906000526020600020908101928215611404579160200282015b828111156114035782518255916020019190600101906113e8565b5b5090506114119190611538565b5090565b610120604051908101604052806000600281111561142f57fe5b8152602001600015158152602001600015158152602001600015158152602001600073ffffffffffffffffffffffffffffffffffffffff168152602001600080191681526020016000815260200160608152602001606081525090565b828054600181600116156101000203166002900490600052602060002090601f016020900481019282601f106114cd57805160ff19168380011785556114fb565b828001600101855582156114fb579182015b828111156114fa5782518255916020019190600101906114df565b5b509050611508919061155d565b5090565b815481835581811115611533578183600052602060002091820191016115329190611538565b5b505050565b61155a91905b8082111561155657600081600090555060010161153e565b5090565b90565b61157f91905b8082111561157b576000816000905550600101611563565b5090565b90565b600061158e82356122e8565b905092915050565b600082601f83011215156115a957600080fd5b81356115bc6115b782612190565b612163565b915081818352602084019350602081019050838560208402820111156115e157600080fd5b60005b8381101561161157816115f7888261162f565b8452602084019350602083019250506001810190506115e4565b5050505092915050565b600061162782356122fa565b905092915050565b600061163b8235612306565b905092915050565b600061164f8235612310565b905092915050565b600082601f830112151561166a57600080fd5b813561167d611678826121b8565b612163565b9150808252602083016020830185838301111561169957600080fd5b6116a4838284612345565b50505092915050565b60006116b98235612329565b905092915050565b6000602082840312156116d357600080fd5b60006116e18482850161162f565b91505092915050565b600080604083850312156116fd57600080fd5b600061170b8582860161162f565b925050602083013567ffffffffffffffff81111561172857600080fd5b61173485828601611596565b9150509250929050565b60008060006060848603121561175357600080fd5b60006117618682870161162f565b935050602084013567ffffffffffffffff81111561177e57600080fd5b61178a86828701611657565b925050604084013567ffffffffffffffff8111156117a757600080fd5b6117b386828701611596565b9150509250925092565b600080604083850312156117d057600080fd5b60006117de8582860161162f565b92505060206117ef858286016116ad565b9150509250929050565b60006020828403121561180b57600080fd5b600082013567ffffffffffffffff81111561182557600080fd5b61183184828501611657565b91505092915050565b600080600080600080600080610100898b03121561185757600080fd5b600089013567ffffffffffffffff81111561187157600080fd5b61187d8b828c01611657565b985050602089013567ffffffffffffffff81111561189a57600080fd5b6118a68b828c01611596565b97505060406118b78b828c01611643565b96505060606118c88b828c0161161b565b95505060806118d98b828c0161161b565b94505060a06118ea8b828c0161161b565b93505060c06118fb8b828c01611582565b92505060e061190c8b828c0161162f565b9150509295985092959890939650565b6000806040838503121561192f57600080fd5b600083013567ffffffffffffffff81111561194957600080fd5b61195585828601611657565b925050602083013567ffffffffffffffff81111561197257600080fd5b61197e85828601611657565b9150509250929050565b60006020828403121561199a57600080fd5b60006119a8848285016116ad565b91505092915050565b6119ba81612280565b82525050565b60006119cb8261222d565b8084526020840193506119dd836121f1565b60005b82811015611a0f576119f3868351611ae0565b6119fc82612266565b91506020860195506001810190506119e0565b50849250505092915050565b6000611a2682612222565b808452602084019350611a38836121e4565b60005b82811015611a6a57611a4e868351611ae0565b611a5782612259565b9150602086019550600181019050611a3b565b50849250505092915050565b6000611a8182612238565b808452602084019350611a93836121fe565b60005b82811015611ac557611aa9868354611ae0565b611ab282612273565b9150602086019550600181019050611a96565b50849250505092915050565b611ada81612292565b82525050565b611ae98161229e565b82525050565b611af881612333565b82525050565b6000611b098261224e565b808452611b1d816020860160208601612354565b611b2681612387565b602085010191505092915050565b6000611b3f82612243565b808452611b53816020860160208601612354565b611b5c81612387565b602085010191505092915050565b600081546001811660008114611b875760018114611ba757611be8565b607f600283041680865260ff198316602087015260408601935050611be8565b60028204808652602086019550611bbd85612210565b60005b82811015611bdf57815481890152600182019150602081019050611bc0565b80880195505050505b505092915050565b6000602682527f546869732074797065206578697374732e205573652074686520657874616e7460208301527f20747970652e00000000000000000000000000000000000000000000000000006040830152606082019050919050565b6000601682527f4e6f2073756368207479706520696e7365727465642e000000000000000000006020830152604082019050919050565b6000604182527f41207479706520696e2074686520636f6d706f736974696f6e20646f6573206e60208301527f6f74206578697374732e20557365206f6e6c7920657874616e7420747970657360408301527f2e000000000000000000000000000000000000000000000000000000000000006060830152608082019050919050565b6000601f82527f4e6f742064656c657465642062656361757365206e6f7420657874616e742e006020830152604082019050919050565b6000600e82527f496e64657820746f6f206269672e0000000000000000000000000000000000006020830152604082019050919050565b600061012083016000830151611d8e6000860182611aef565b506020830151611da16020860182611ad1565b506040830151611db46040860182611ad1565b506060830151611dc76060860182611ad1565b506080830151611dda60808601826119b1565b5060a0830151611ded60a0860182611ae0565b5060c0830151611e0060c0860182611e41565b5060e083015184820360e0860152611e188282611b34565b915050610100830151848203610100860152611e348282611a1b565b9150508091505092915050565b611e4a816122de565b82525050565b60006020820190508181036000830152611e6a81846119c0565b905092915050565b6000602082019050611e876000830184611ad1565b92915050565b6000602082019050611ea26000830184611ae0565b92915050565b600061010082019050611ebe600083018b611aef565b611ecb602083018a611ad1565b611ed86040830189611ad1565b611ee56060830188611ad1565b611ef260808301876119b1565b611eff60a0830186611ae0565b611f0c60c0830185611e41565b81810360e0830152611f1e8184611b34565b90509998505050505050505050565b60006060820190508181036000830152611f478186611afe565b90508181036020830152611f5b81856119c0565b9050611f6a6040830184611ad1565b949350505050565b60006060820190508181036000830152611f8c8186611afe565b90508181036020830152611fa081856119c0565b9050611faf6040830184611e41565b949350505050565b60006040820190508181036000830152611fd18185611afe565b90508181036020830152611fe58184611afe565b90509392505050565b6000602082019050818103600083015261200781611bf0565b9050919050565b6000602082019050818103600083015261202781611c4d565b9050919050565b6000602082019050818103600083015261204781611c84565b9050919050565b6000602082019050818103600083015261206781611d07565b9050919050565b6000602082019050818103600083015261208781611d3e565b9050919050565b600060408201905081810360008301526120a88185611d75565b90506120b76020830184611ae0565b9392505050565b60006020820190506120d36000830184611e41565b92915050565b60006060820190506120ee6000830186611e41565b81810360208301526121008185611afe565b9050818103604083015261211481846119c0565b9050949350505050565b60006060820190506121336000830186611e41565b81810360208301526121458185611b6a565b905081810360408301526121598184611a76565b9050949350505050565b6000604051905081810181811067ffffffffffffffff8211171561218657600080fd5b8060405250919050565b600067ffffffffffffffff8211156121a757600080fd5b602082029050602081019050919050565b600067ffffffffffffffff8211156121cf57600080fd5b601f19601f8301169050602081019050919050565b6000602082019050919050565b6000602082019050919050565b60008160005260206000209050919050565b60008160005260206000209050919050565b600081519050919050565b600081519050919050565b600081549050919050565b600081519050919050565b600081519050919050565b6000602082019050919050565b6000602082019050919050565b6000600182019050919050565b600061228b826122be565b9050919050565b60008115159050919050565b6000819050919050565b60006003821015156122b657fe5b819050919050565b600073ffffffffffffffffffffffffffffffffffffffff82169050919050565b6000819050919050565b60006122f3826122be565b9050919050565b60008115159050919050565b6000819050919050565b600060038210151561232157600080fd5b819050919050565b6000819050919050565b600061233e826122a8565b9050919050565b82818337600083830152505050565b60005b83811015612372578082015181840152602081019050612357565b83811115612381576000848401525b50505050565b6000601f19601f830116905091905056fea265627a7a72305820f82ea6ad31061bb6fc86dd2e652d172d78905972aab97dd9175bc44d914056f96c6578706572696d656e74616cf50037",
  "source": "pragma solidity ^0.5.0;\npragma experimental ABIEncoderV2;\n\ncontract dType {\n    bytes32[] public typeIndex;\n    mapping(bytes32 => Type) public typeStruct;\n    mapping(string =>  bytes32[]) nameIndex;\n    mapping(bytes32 => bytes32[]) public outputIndex;\n\n    enum LangChoices { Solidity, JavaScript, Python }\n    LangChoices constant defaultLang = LangChoices.Solidity;\n\n    struct Type {\n        LangChoices lang;\n        bool isEvent;\n        bool isFunction;\n        bool hasOutput;\n        address contractAddress;\n        bytes32 source;\n        uint256 index;\n        string name;\n        bytes32[] types;\n    }\n\n    event LogNew(\n        bytes32 indexed typeHash,\n        uint256 index,\n        string name,\n        bytes32[] types\n    );\n\n    event LogUpdate(\n        bytes32 indexed typeHash,\n        uint index,\n        string name,\n        bytes32[] types\n    );\n\n    event LogRemove(\n        bytes32 indexed typeHash,\n        uint256 index\n    );\n\n    function getIndex() public view returns(bytes32[] memory indext) {\n        return typeIndex;\n    }\n\n    function isType(bytes32 typeHash)\n        view\n        public\n        returns(bool isIndeed)\n    {\n        if (typeIndex.length == 0) {\n            return false;\n        }\n        return (typeIndex[typeStruct[typeHash].index] == typeHash);\n    }\n\n    function insert(\n        string memory name,\n        bytes32[] memory types,\n        LangChoices lang,\n        bool isEvent,\n        bool isFunction,\n        bool hasOutput,\n        address contractAddress,\n        bytes32 source\n    )\n        public\n        returns(uint256 index)\n    {\n        bytes32 hash = keccak256(abi.encode(name, types, hasOutput));\n        if (isType(hash)) {\n            revert(\"This type exists. Use the extant type.\");\n        }\n        for (uint256 i =0 ; i< types.length; i++) {\n            if (!isType(types[i]) && types[i] != bytes32(0x0)) {\n                revert(\"A type in the composition does not exists. Use only extant types.\");\n            }\n        }\n        typeStruct[hash].lang = lang;\n        typeStruct[hash].isEvent = isEvent;\n        typeStruct[hash].isFunction = isFunction;\n        typeStruct[hash].hasOutput = hasOutput;\n        typeStruct[hash].name = name;\n        typeStruct[hash].types = types;\n        typeStruct[hash].contractAddress = contractAddress;\n        typeStruct[hash].source = source;\n        typeStruct[hash].index = typeIndex.push(hash)-1;\n\n        nameIndex[name].push(hash);\n\n        emit LogNew(\n            hash,\n            typeStruct[hash].index,\n            name,\n            types\n        );\n\n        return typeIndex.length-1;\n    }\n\n    function setOutputs(bytes32 hash, bytes32[] memory outputs) public {\n        require(typeStruct[hash].hasOutput == true);\n        outputIndex[hash] = outputs;\n    }\n\n    function getOutputs(bytes32 hash) view public returns (bytes32[] memory outputs) {\n        return outputIndex[hash];\n    }\n\n    function getTypes(bytes32 hash)\n        public\n        view\n        returns(bytes32[] memory types)\n    {\n       return typeStruct[hash].types;\n    }\n\n    function get(\n        string memory aname,\n        string memory astype\n    )\n        view\n        public\n        returns(string memory name, bytes32[] memory types, uint256 index)\n    {\n        bytes32 hash = keccak256(abi.encode(aname, astype));\n        return getByHash(hash);\n    }\n\n    function getByHash(bytes32 hash)\n        view\n        public\n        returns(\n            string memory name,\n            bytes32[] memory types,\n            uint256 index\n        )\n    {\n        if (!isType(hash)) {\n            revert(\"No such type inserted.\");\n        }\n        return(\n            typeStruct[hash].name,\n            typeStruct[hash].types,\n            typeStruct[hash].index\n        );\n    }\n\n    function getByIndex(uint256 index)\n        view\n        public\n        returns(Type memory atype, bytes32 hash)\n    {\n        if(index > typeIndex.length ) {\n            revert(\"Index too big.\");\n        }\n        return (typeStruct[typeIndex[index]],  typeIndex[index]);\n    }\n\n    function getByName(string memory name)\n        view\n        public\n        returns(bytes32[] memory types)\n    {\n        return nameIndex[name];\n    }\n\n    function update(\n        bytes32 hash,\n        string memory newName,\n        bytes32[] memory newTypes\n    )\n        public\n        returns(bool success)\n    {\n        if (!isType(hash)) {\n            revert(\"No such type inserted.\");\n        }\n\n        typeStruct[hash].name = newName;\n        typeStruct[hash].types = newTypes;\n\n        emit LogUpdate(\n            hash,\n            typeStruct[hash].index,\n            typeStruct[hash].name,\n            typeStruct[hash].types\n        );\n\n        return true;\n    }\n\n    function remove(bytes32 hash) public returns(uint256 index)\n    {\n        if (!isType(hash)) {\n            revert(\"Not deleted because not extant.\");\n        }\n\n        uint rowToDelete = typeStruct[hash].index;\n        bytes32 keyToMove = typeIndex[typeIndex.length-1];\n        typeIndex[rowToDelete] = keyToMove;\n        typeStruct[keyToMove].index = rowToDelete;\n        typeIndex.length--;\n\n        emit LogRemove(hash, rowToDelete);\n        emit LogUpdate(\n            keyToMove,\n            rowToDelete,\n            typeStruct[keyToMove].name,\n            typeStruct[keyToMove].types\n        );\n        return rowToDelete;\n    }\n\n    function count() public view returns(uint256 counter)\n    {\n        return typeIndex.length;\n    }\n}\n",
  "sourcePath": "/Users/loredana/ETH/dType/contracts/contracts/dType.sol",
  "compiler": {
    "name": "solc",
    "version": "0.5.0+commit.1d4f565a.Emscripten.clang"
  },
  "schemaVersion": "3.0.2",
  "updatedAt": "2019-03-14T14:50:38.340Z",
  "devdoc": {
    "methods": {}
  },
  "userdoc": {
    "methods": {}
  }
}