{
  "contractName": "dType",
  "abi": [
    {
      "constant": true,
      "inputs": [
        {
          "name": "",
          "type": "bytes32"
        },
        {
          "name": "",
          "type": "uint256"
        }
      ],
      "name": "outputs",
      "outputs": [
        {
          "name": "name",
          "type": "string"
        },
        {
          "name": "label",
          "type": "string"
        },
        {
          "name": "relation",
          "type": "uint8"
        }
      ],
      "payable": false,
      "stateMutability": "view",
      "type": "function"
    },
    {
      "constant": true,
      "inputs": [
        {
          "name": "",
          "type": "bytes32"
        }
      ],
      "name": "typeStruct",
      "outputs": [
        {
          "components": [
            {
              "name": "lang",
              "type": "uint8"
            },
            {
              "name": "typeChoice",
              "type": "uint8"
            },
            {
              "name": "contractAddress",
              "type": "address"
            },
            {
              "name": "source",
              "type": "bytes32"
            },
            {
              "name": "name",
              "type": "string"
            },
            {
              "components": [
                {
                  "name": "name",
                  "type": "string"
                },
                {
                  "name": "label",
                  "type": "string"
                },
                {
                  "name": "relation",
                  "type": "uint8"
                },
                {
                  "name": "dimensions",
                  "type": "string[]"
                }
              ],
              "name": "types",
              "type": "tuple[]"
            }
          ],
          "name": "data",
          "type": "tuple"
        },
        {
          "name": "index",
          "type": "uint256"
        }
      ],
      "payable": false,
      "stateMutability": "view",
      "type": "function"
    },
    {
      "constant": true,
      "inputs": [
        {
          "name": "",
          "type": "uint256"
        }
      ],
      "name": "typeIndex",
      "outputs": [
        {
          "name": "",
          "type": "bytes32"
        }
      ],
      "payable": false,
      "stateMutability": "view",
      "type": "function"
    },
    {
      "constant": true,
      "inputs": [
        {
          "name": "",
          "type": "bytes32"
        },
        {
          "name": "",
          "type": "uint256"
        }
      ],
      "name": "optionals",
      "outputs": [
        {
          "name": "name",
          "type": "string"
        },
        {
          "name": "label",
          "type": "string"
        },
        {
          "name": "relation",
          "type": "uint8"
        }
      ],
      "payable": false,
      "stateMutability": "view",
      "type": "function"
    },
    {
      "anonymous": false,
      "inputs": [
        {
          "indexed": true,
          "name": "hash",
          "type": "bytes32"
        },
        {
          "indexed": true,
          "name": "index",
          "type": "uint256"
        }
      ],
      "name": "LogNew",
      "type": "event"
    },
    {
      "anonymous": false,
      "inputs": [
        {
          "indexed": true,
          "name": "hash",
          "type": "bytes32"
        },
        {
          "indexed": true,
          "name": "index",
          "type": "uint256"
        }
      ],
      "name": "LogUpdate",
      "type": "event"
    },
    {
      "anonymous": false,
      "inputs": [
        {
          "indexed": true,
          "name": "hash",
          "type": "bytes32"
        },
        {
          "indexed": true,
          "name": "index",
          "type": "uint256"
        }
      ],
      "name": "LogRemove",
      "type": "event"
    },
    {
      "constant": false,
      "inputs": [
        {
          "name": "root",
          "type": "address"
        }
      ],
      "name": "setRootAddress",
      "outputs": [],
      "payable": false,
      "stateMutability": "nonpayable",
      "type": "function"
    },
    {
      "constant": false,
      "inputs": [
        {
          "components": [
            {
              "name": "lang",
              "type": "uint8"
            },
            {
              "name": "typeChoice",
              "type": "uint8"
            },
            {
              "name": "contractAddress",
              "type": "address"
            },
            {
              "name": "source",
              "type": "bytes32"
            },
            {
              "name": "name",
              "type": "string"
            },
            {
              "components": [
                {
                  "name": "name",
                  "type": "string"
                },
                {
                  "name": "label",
                  "type": "string"
                },
                {
                  "name": "relation",
                  "type": "uint8"
                },
                {
                  "name": "dimensions",
                  "type": "string[]"
                }
              ],
              "name": "types",
              "type": "tuple[]"
            },
            {
              "components": [
                {
                  "name": "name",
                  "type": "string"
                },
                {
                  "name": "label",
                  "type": "string"
                },
                {
                  "name": "relation",
                  "type": "uint8"
                },
                {
                  "name": "dimensions",
                  "type": "string[]"
                }
              ],
              "name": "optionals",
              "type": "tuple[]"
            },
            {
              "components": [
                {
                  "name": "name",
                  "type": "string"
                },
                {
                  "name": "label",
                  "type": "string"
                },
                {
                  "name": "relation",
                  "type": "uint8"
                },
                {
                  "name": "dimensions",
                  "type": "string[]"
                }
              ],
              "name": "outputs",
              "type": "tuple[]"
            }
          ],
          "name": "data",
          "type": "tuple"
        }
      ],
      "name": "insert",
      "outputs": [
        {
          "name": "dataHash",
          "type": "bytes32"
        }
      ],
      "payable": false,
      "stateMutability": "nonpayable",
      "type": "function"
    },
    {
      "constant": false,
      "inputs": [
        {
          "name": "typeHash",
          "type": "bytes32"
        },
        {
          "components": [
            {
              "name": "lang",
              "type": "uint8"
            },
            {
              "name": "typeChoice",
              "type": "uint8"
            },
            {
              "name": "contractAddress",
              "type": "address"
            },
            {
              "name": "source",
              "type": "bytes32"
            },
            {
              "name": "name",
              "type": "string"
            },
            {
              "components": [
                {
                  "name": "name",
                  "type": "string"
                },
                {
                  "name": "label",
                  "type": "string"
                },
                {
                  "name": "relation",
                  "type": "uint8"
                },
                {
                  "name": "dimensions",
                  "type": "string[]"
                }
              ],
              "name": "types",
              "type": "tuple[]"
            },
            {
              "components": [
                {
                  "name": "name",
                  "type": "string"
                },
                {
                  "name": "label",
                  "type": "string"
                },
                {
                  "name": "relation",
                  "type": "uint8"
                },
                {
                  "name": "dimensions",
                  "type": "string[]"
                }
              ],
              "name": "optionals",
              "type": "tuple[]"
            },
            {
              "components": [
                {
                  "name": "name",
                  "type": "string"
                },
                {
                  "name": "label",
                  "type": "string"
                },
                {
                  "name": "relation",
                  "type": "uint8"
                },
                {
                  "name": "dimensions",
                  "type": "string[]"
                }
              ],
              "name": "outputs",
              "type": "tuple[]"
            }
          ],
          "name": "data",
          "type": "tuple"
        }
      ],
      "name": "update",
      "outputs": [
        {
          "name": "hash",
          "type": "bytes32"
        }
      ],
      "payable": false,
      "stateMutability": "nonpayable",
      "type": "function"
    },
    {
      "constant": false,
      "inputs": [
        {
          "name": "typeHash",
          "type": "bytes32"
        }
      ],
      "name": "remove",
      "outputs": [
        {
          "name": "index",
          "type": "uint256"
        }
      ],
      "payable": false,
      "stateMutability": "nonpayable",
      "type": "function"
    },
    {
      "constant": false,
      "inputs": [
        {
          "name": "typeHash",
          "type": "bytes32"
        },
        {
          "components": [
            {
              "name": "name",
              "type": "string"
            },
            {
              "name": "label",
              "type": "string"
            },
            {
              "name": "relation",
              "type": "uint8"
            },
            {
              "name": "dimensions",
              "type": "string[]"
            }
          ],
          "name": "optionalValues",
          "type": "tuple[]"
        }
      ],
      "name": "setOptionals",
      "outputs": [],
      "payable": false,
      "stateMutability": "nonpayable",
      "type": "function"
    },
    {
      "constant": false,
      "inputs": [
        {
          "name": "typeHash",
          "type": "bytes32"
        },
        {
          "components": [
            {
              "name": "name",
              "type": "string"
            },
            {
              "name": "label",
              "type": "string"
            },
            {
              "name": "relation",
              "type": "uint8"
            },
            {
              "name": "dimensions",
              "type": "string[]"
            }
          ],
          "name": "outputValues",
          "type": "tuple[]"
        }
      ],
      "name": "setOutputs",
      "outputs": [],
      "payable": false,
      "stateMutability": "nonpayable",
      "type": "function"
    },
    {
      "constant": true,
      "inputs": [],
      "name": "count",
      "outputs": [
        {
          "name": "counter",
          "type": "uint256"
        }
      ],
      "payable": false,
      "stateMutability": "view",
      "type": "function"
    },
    {
      "constant": true,
      "inputs": [],
      "name": "getIndex",
      "outputs": [
        {
          "name": "indext",
          "type": "bytes32[]"
        }
      ],
      "payable": false,
      "stateMutability": "view",
      "type": "function"
    },
    {
      "constant": true,
      "inputs": [
        {
          "name": "lang",
          "type": "uint8"
        },
        {
          "name": "name",
          "type": "string"
        }
      ],
      "name": "getTypeHash",
      "outputs": [
        {
          "name": "typeHash",
          "type": "bytes32"
        }
      ],
      "payable": false,
      "stateMutability": "pure",
      "type": "function"
    },
    {
      "constant": true,
      "inputs": [
        {
          "name": "typeHash",
          "type": "bytes32"
        }
      ],
      "name": "getByHash",
      "outputs": [
        {
          "components": [
            {
              "name": "lang",
              "type": "uint8"
            },
            {
              "name": "typeChoice",
              "type": "uint8"
            },
            {
              "name": "contractAddress",
              "type": "address"
            },
            {
              "name": "source",
              "type": "bytes32"
            },
            {
              "name": "name",
              "type": "string"
            },
            {
              "components": [
                {
                  "name": "name",
                  "type": "string"
                },
                {
                  "name": "label",
                  "type": "string"
                },
                {
                  "name": "relation",
                  "type": "uint8"
                },
                {
                  "name": "dimensions",
                  "type": "string[]"
                }
              ],
              "name": "types",
              "type": "tuple[]"
            },
            {
              "components": [
                {
                  "name": "name",
                  "type": "string"
                },
                {
                  "name": "label",
                  "type": "string"
                },
                {
                  "name": "relation",
                  "type": "uint8"
                },
                {
                  "name": "dimensions",
                  "type": "string[]"
                }
              ],
              "name": "optionals",
              "type": "tuple[]"
            },
            {
              "components": [
                {
                  "name": "name",
                  "type": "string"
                },
                {
                  "name": "label",
                  "type": "string"
                },
                {
                  "name": "relation",
                  "type": "uint8"
                },
                {
                  "name": "dimensions",
                  "type": "string[]"
                }
              ],
              "name": "outputs",
              "type": "tuple[]"
            }
          ],
          "name": "dtype",
          "type": "tuple"
        }
      ],
      "payable": false,
      "stateMutability": "view",
      "type": "function"
    },
    {
      "constant": true,
      "inputs": [
        {
          "name": "lang",
          "type": "uint8"
        },
        {
          "name": "name",
          "type": "string"
        }
      ],
      "name": "get",
      "outputs": [
        {
          "components": [
            {
              "name": "lang",
              "type": "uint8"
            },
            {
              "name": "typeChoice",
              "type": "uint8"
            },
            {
              "name": "contractAddress",
              "type": "address"
            },
            {
              "name": "source",
              "type": "bytes32"
            },
            {
              "name": "name",
              "type": "string"
            },
            {
              "components": [
                {
                  "name": "name",
                  "type": "string"
                },
                {
                  "name": "label",
                  "type": "string"
                },
                {
                  "name": "relation",
                  "type": "uint8"
                },
                {
                  "name": "dimensions",
                  "type": "string[]"
                }
              ],
              "name": "types",
              "type": "tuple[]"
            },
            {
              "components": [
                {
                  "name": "name",
                  "type": "string"
                },
                {
                  "name": "label",
                  "type": "string"
                },
                {
                  "name": "relation",
                  "type": "uint8"
                },
                {
                  "name": "dimensions",
                  "type": "string[]"
                }
              ],
              "name": "optionals",
              "type": "tuple[]"
            },
            {
              "components": [
                {
                  "name": "name",
                  "type": "string"
                },
                {
                  "name": "label",
                  "type": "string"
                },
                {
                  "name": "relation",
                  "type": "uint8"
                },
                {
                  "name": "dimensions",
                  "type": "string[]"
                }
              ],
              "name": "outputs",
              "type": "tuple[]"
            }
          ],
          "name": "dtype",
          "type": "tuple"
        }
      ],
      "payable": false,
      "stateMutability": "view",
      "type": "function"
    },
    {
      "constant": true,
      "inputs": [
        {
          "name": "typeHash",
          "type": "bytes32"
        }
      ],
      "name": "isType",
      "outputs": [
        {
          "name": "isIndeed",
          "type": "bool"
        }
      ],
      "payable": false,
      "stateMutability": "view",
      "type": "function"
    },
    {
      "constant": true,
      "inputs": [
        {
          "name": "typeHash",
          "type": "bytes32"
        }
      ],
      "name": "getOptionals",
      "outputs": [
        {
          "components": [
            {
              "name": "name",
              "type": "string"
            },
            {
              "name": "label",
              "type": "string"
            },
            {
              "name": "relation",
              "type": "uint8"
            },
            {
              "name": "dimensions",
              "type": "string[]"
            }
          ],
          "name": "optionalValues",
          "type": "tuple[]"
        }
      ],
      "payable": false,
      "stateMutability": "view",
      "type": "function"
    },
    {
      "constant": true,
      "inputs": [
        {
          "name": "typeHash",
          "type": "bytes32"
        }
      ],
      "name": "getOutputs",
      "outputs": [
        {
          "components": [
            {
              "name": "name",
              "type": "string"
            },
            {
              "name": "label",
              "type": "string"
            },
            {
              "name": "relation",
              "type": "uint8"
            },
            {
              "name": "dimensions",
              "type": "string[]"
            }
          ],
          "name": "outputValues",
          "type": "tuple[]"
        }
      ],
      "payable": false,
      "stateMutability": "view",
      "type": "function"
    },
    {
      "constant": true,
      "inputs": [
        {
          "name": "index",
          "type": "uint256"
        }
      ],
      "name": "getByIndex",
      "outputs": [
        {
          "components": [
            {
              "name": "lang",
              "type": "uint8"
            },
            {
              "name": "typeChoice",
              "type": "uint8"
            },
            {
              "name": "contractAddress",
              "type": "address"
            },
            {
              "name": "source",
              "type": "bytes32"
            },
            {
              "name": "name",
              "type": "string"
            },
            {
              "components": [
                {
                  "name": "name",
                  "type": "string"
                },
                {
                  "name": "label",
                  "type": "string"
                },
                {
                  "name": "relation",
                  "type": "uint8"
                },
                {
                  "name": "dimensions",
                  "type": "string[]"
                }
              ],
              "name": "types",
              "type": "tuple[]"
            },
            {
              "components": [
                {
                  "name": "name",
                  "type": "string"
                },
                {
                  "name": "label",
                  "type": "string"
                },
                {
                  "name": "relation",
                  "type": "uint8"
                },
                {
                  "name": "dimensions",
                  "type": "string[]"
                }
              ],
              "name": "optionals",
              "type": "tuple[]"
            },
            {
              "components": [
                {
                  "name": "name",
                  "type": "string"
                },
                {
                  "name": "label",
                  "type": "string"
                },
                {
                  "name": "relation",
                  "type": "uint8"
                },
                {
                  "name": "dimensions",
                  "type": "string[]"
                }
              ],
              "name": "outputs",
              "type": "tuple[]"
            }
          ],
          "name": "dtype",
          "type": "tuple"
        },
        {
          "name": "typeHash",
          "type": "bytes32"
        }
      ],
      "payable": false,
      "stateMutability": "view",
      "type": "function"
    },
    {
      "constant": true,
      "inputs": [
        {
          "name": "lang",
          "type": "uint8"
        },
        {
          "components": [
            {
              "name": "name",
              "type": "string"
            },
            {
              "name": "label",
              "type": "string"
            },
            {
              "name": "relation",
              "type": "uint8"
            },
            {
              "name": "dimensions",
              "type": "string[]"
            }
          ],
          "name": "types",
          "type": "tuple[]"
        }
      ],
      "name": "checkTypesExist",
      "outputs": [],
      "payable": false,
      "stateMutability": "view",
      "type": "function"
    },
    {
      "constant": true,
      "inputs": [
        {
          "name": "typeHash",
          "type": "bytes32"
        }
      ],
      "name": "getTypeSignature",
      "outputs": [
        {
          "name": "typeSignature",
          "type": "string"
        }
      ],
      "payable": false,
      "stateMutability": "view",
      "type": "function"
    },
    {
      "constant": true,
      "inputs": [
        {
          "name": "lang",
          "type": "uint8"
        },
        {
          "name": "name",
          "type": "string"
        },
        {
          "name": "dimensions",
          "type": "string[]"
        }
      ],
      "name": "getEncodedType",
      "outputs": [
        {
          "name": "encoded",
          "type": "bytes"
        }
      ],
      "payable": false,
      "stateMutability": "view",
      "type": "function"
    },
    {
      "constant": true,
      "inputs": [
        {
          "name": "dimensions",
          "type": "string[]"
        }
      ],
      "name": "typeDimensionsToString",
      "outputs": [
        {
          "name": "encoded",
          "type": "bytes"
        }
      ],
      "payable": false,
      "stateMutability": "pure",
      "type": "function"
    },
    {
      "constant": true,
      "inputs": [
        {
          "name": "typeHash",
          "type": "bytes32"
        }
      ],
      "name": "getSignatureFull",
      "outputs": [
        {
          "name": "signature",
          "type": "bytes"
        }
      ],
      "payable": false,
      "stateMutability": "view",
      "type": "function"
    },
    {
      "constant": true,
      "inputs": [
        {
          "name": "typeHash",
          "type": "bytes32"
        }
      ],
      "name": "getSignature",
      "outputs": [
        {
          "name": "signature",
          "type": "bytes4"
        }
      ],
      "payable": false,
      "stateMutability": "view",
      "type": "function"
    },
    {
      "constant": false,
      "inputs": [
        {
          "name": "funcHash",
          "type": "bytes32"
        },
        {
          "name": "inDataHash",
          "type": "bytes32[]"
        },
        {
          "name": "freeInputs",
          "type": "bytes"
        },
        {
          "name": "signature",
          "type": "bytes"
        }
      ],
      "name": "run",
      "outputs": [
        {
          "name": "outDataHash",
          "type": "bytes32"
        }
      ],
      "payable": false,
      "stateMutability": "nonpayable",
      "type": "function"
    },
    {
      "constant": false,
      "inputs": [
        {
          "name": "funcHash",
          "type": "bytes32"
        },
        {
          "name": "inDataHash",
          "type": "bytes32[]"
        },
        {
          "name": "freeInputs",
          "type": "bytes"
        }
      ],
      "name": "run",
      "outputs": [
        {
          "name": "outDataHash",
          "type": "bytes32"
        }
      ],
      "payable": false,
      "stateMutability": "nonpayable",
      "type": "function"
    },
    {
      "constant": true,
      "inputs": [
        {
          "name": "inDataHash",
          "type": "bytes32[]"
        },
        {
          "name": "funcHash",
          "type": "bytes32[]"
        },
        {
          "name": "freeInputs",
          "type": "bytes"
        }
      ],
      "name": "pipeView",
      "outputs": [
        {
          "name": "result",
          "type": "bytes"
        }
      ],
      "payable": false,
      "stateMutability": "view",
      "type": "function"
    },
    {
      "constant": true,
      "inputs": [
        {
          "name": "funcHash",
          "type": "bytes32"
        },
        {
          "name": "inDataHash",
          "type": "bytes32[]"
        },
        {
          "name": "freeInputs",
          "type": "bytes"
        }
      ],
      "name": "runView",
      "outputs": [
        {
          "name": "result",
          "type": "bytes"
        }
      ],
      "payable": false,
      "stateMutability": "view",
      "type": "function"
    }
  ],
  "bytecode": "0x608060405234801561001057600080fd5b50615fea80620000216000396000f3fe608060405234801561001057600080fd5b50600436106101cf5760003560e01c80637460e31111610104578063a7f2c02e116100a2578063cf341d8911610071578063cf341d891461062a578063d5b9580d1461065a578063d6b922ab14610676578063e2b1e4ed146106a6576101cf565b8063a7f2c02e14610568578063adb02ea514610598578063c12b7220146105c8578063c4b14e0b146105fa576101cf565b80638b58aa28116100de5780638b58aa28146104bc57806395bc2673146104ec5780639de577651461051c578063a2dd3d4714610538576101cf565b80637460e3111461043e5780637c57add71461046e57806381045ead1461049e576101cf565b80632d883a73116101715780634dab69521161014b5780634dab6952146103915780635ae5b98c146103c157806365abe23e146103dd578063668414a41461040d576101cf565b80632d883a7314610300578063414a4743146103315780634a4048d814610361576101cf565b80631b5a8db4116101ad5780631b5a8db41461023e5780631bff8dbb1461026e57806327ef60bb1461029e578063292c2a2d146102d0576101cf565b806306661abd146101d45780631451952b146101f25780631ae04fc91461020e575b600080fd5b6101dc6106d6565b6040516101e99190615a9f565b60405180910390f35b61020c60048036036102079190810190614355565b6106e3565b005b61022860048036036102239190810190614456565b610726565b6040516102359190615709565b60405180910390f35b6102586004803603610253919081019061475e565b6109f2565b60405161026591906157c1565b60405180910390f35b61028860048036036102839190810190614527565b610ae3565b6040516102959190615746565b60405180910390f35b6102b860048036036102b3919081019061467a565b610b4b565b6040516102c79392919061586c565b60405180910390f35b6102ea60048036036102e59190810190614456565b610ccc565b6040516102f7919061584a565b60405180910390f35b61031a6004803603610315919081019061485f565b610cf0565b604051610328929190615a6f565b60405180910390f35b61034b6004803603610346919081019061470a565b610d83565b6040516103589190615746565b60405180910390f35b61037b600480360361037691908101906147dd565b610db6565b6040516103889190615746565b60405180910390f35b6103ab60048036036103a69190810190614415565b610f00565b6040516103b891906157c1565b60405180910390f35b6103db60048036036103d691908101906146b6565b610f5b565b005b6103f760048036036103f291908101906144a8565b61109a565b60405161040491906157c1565b60405180910390f35b61042760048036036104229190810190614456565b6110d2565b604051610435929190615a1d565b60405180910390f35b6104586004803603610453919081019061485f565b611515565b6040516104659190615746565b60405180910390f35b610488600480360361048391908101906144a8565b611536565b6040516104959190615746565b60405180910390f35b6104a66117e7565b6040516104b391906156e7565b60405180910390f35b6104d660048036036104d19190810190614456565b61183f565b6040516104e391906157c1565b60405180910390f35b61050660048036036105019190810190614456565b611b9b565b6040516105139190615a9f565b60405180910390f35b610536600480360361053191908101906145d2565b611d15565b005b610552600480360361054d9190810190614456565b611e8b565b60405161055f9190615a4d565b60405180910390f35b610582600480360361057d919081019061437e565b612371565b60405161058f91906157c1565b60405180910390f35b6105b260048036036105ad9190810190614456565b612418565b6040516105bf9190615709565b60405180910390f35b6105e260048036036105dd919081019061467a565b6126e4565b6040516105f19392919061586c565b60405180910390f35b610614600480360361060f9190810190614456565b612865565b60405161062191906157a6565b60405180910390f35b610644600480360361063f919081019061470a565b61287e565b6040516106519190615a4d565b60405180910390f35b610674600480360361066f91908101906145d2565b6128a6565b005b610690600480360361068b9190810190614626565b612a1c565b60405161069d9190615746565b60405180910390f35b6106c060048036036106bb9190810190614456565b612a39565b6040516106cd919061572b565b60405180910390f35b6000600180549050905090565b806000806101000a81548173ffffffffffffffffffffffffffffffffffffffff021916908373ffffffffffffffffffffffffffffffffffffffff16021790555050565b606060036000838152602001908152602001600020805480602002602001604051908101604052809291908181526020016000905b828210156109e75783829060005260206000209060040201604051806080016040529081600082018054600181600116156101000203166002900480601f0160208091040260200160405190810160405280929190818152602001828054600181600116156101000203166002900480156108175780601f106107ec57610100808354040283529160200191610817565b820191906000526020600020905b8154815290600101906020018083116107fa57829003601f168201915b50505050508152602001600182018054600181600116156101000203166002900480601f0160208091040260200160405190810160405280929190818152602001828054600181600116156101000203166002900480156108b95780601f1061088e576101008083540402835291602001916108b9565b820191906000526020600020905b81548152906001019060200180831161089c57829003601f168201915b505050505081526020016002820160009054906101000a900460ff1660028111156108e057fe5b60028111156108eb57fe5b815260200160038201805480602002602001604051908101604052809291908181526020016000905b828210156109d0578382906000526020600020018054600181600116156101000203166002900480601f0160208091040260200160405190810160405280929190818152602001828054600181600116156101000203166002900480156109bc5780601f10610991576101008083540402835291602001916109bc565b820191906000526020600020905b81548152906001019060200180831161099f57829003601f168201915b505050505081526020019060010190610914565b50505050815250508152602001906001019061075b565b505050509050919050565b6060600060026000610a048787610d83565b81526020019081526020016000209050600081600001600301805490501415610a815780600001600201604051602001610a3e919061564e565b604051602081830303815290604052915081610a5984610f00565b604051602001610a6a9291906155ce565b604051602081830303815290604052915050610adc565b610a8a81612a89565b915081604051602001610a9d919061569f565b604051602081830303815290604052915081610ab884610f00565b604051602001610ac99291906155ce565b6040516020818303038152906040529150505b9392505050565b600080610af08484612f6e565b90508381604051602001610b0491906156cc565b604051602081830303815290604052604051602001610b249291906155ce565b6040516020818303038152906040529350610b40868686611536565b915050949350505050565b60046020528160005260406000208181548110610b6457fe5b906000526020600020906004020160009150915050806000018054600181600116156101000203166002900480601f016020809104026020016040519081016040528092919081815260200182805460018160011615610100020316600290048015610c115780601f10610be657610100808354040283529160200191610c11565b820191906000526020600020905b815481529060010190602001808311610bf457829003601f168201915b505050505090806001018054600181600116156101000203166002900480601f016020809104026020016040519081016040528092919081815260200182805460018160011615610100020316600290048015610caf5780601f10610c8457610100808354040283529160200191610caf565b820191906000526020600020905b815481529060010190602001808311610c9257829003601f168201915b5050505050908060020160009054906101000a900460ff16905083565b6060610ce960026000848152602001908152602001600020612a89565b9050919050565b610cf86136c4565b6000600180549050831115610d42576040517f08c379a0000000000000000000000000000000000000000000000000000000008152600401610d3990615991565b60405180910390fd5b610d6260018481548110610d5257fe5b9060005260206000200154611e8b565b60018481548110610d6f57fe5b906000526020600020015491509150915091565b60008282604051602001610d9892919061581a565b60405160208183030381529060405280519060200120905092915050565b600080610dcb83600001518460800151610d83565b9050610dd681612a39565b15610e16576040517f08c379a0000000000000000000000000000000000000000000000000000000008152600401610e0d906159b1565b60405180910390fd5b610e2883600001518460a00151610f5b565b610e508360026000848152602001908152602001600020600001612f8990919063ffffffff16565b6001808290806001815401808255809150509060018203906000526020600020016000909192909190915055036002600083815260200190815260200160002060040181905550610ea5818460c00151611d15565b610eb3818460e001516128a6565b6002600082815260200190815260200160002060040154817fb73e84a46ecb312937f7ba29efd91f4d9e74056ac7ef77f3f38e477646dd84d260405160405180910390a380915050919050565b606060008090505b8251811015610f555781838281518110610f1e57fe5b6020026020010151604051602001610f37929190615614565b60405160208183030381529060405291508080600101915050610f08565b50919050565b60008090505b815181101561109557610f93610f8e84848481518110610f7d57fe5b602002602001015160000151610d83565b612a39565b610fd2576040517f08c379a0000000000000000000000000000000000000000000000000000000008152600401610fc9906158d1565b60405180910390fd5b6000828281518110610fe057fe5b602002602001015160000151511161102d576040517f08c379a000000000000000000000000000000000000000000000000000000000815260040161102490615951565b60405180910390fd5b600082828151811061103b57fe5b6020026020010151602001515111611088576040517f08c379a000000000000000000000000000000000000000000000000000000000815260040161107f906158f1565b60405180910390fd5b8080600101915050610f61565b505050565b606060006002600086815260200190815260200160002090506110c885826110c3848888613061565b6133cf565b9150509392505050565b6002602052806000526040600020600091509050806000016040518060c00160405290816000820160009054906101000a900460ff16600281111561111357fe5b600281111561111e57fe5b81526020016000820160019054906101000a900460ff16600681111561114057fe5b600681111561114b57fe5b81526020016000820160029054906101000a900473ffffffffffffffffffffffffffffffffffffffff1673ffffffffffffffffffffffffffffffffffffffff1673ffffffffffffffffffffffffffffffffffffffff16815260200160018201548152602001600282018054600181600116156101000203166002900480601f0160208091040260200160405190810160405280929190818152602001828054600181600116156101000203166002900480156112485780601f1061121d57610100808354040283529160200191611248565b820191906000526020600020905b81548152906001019060200180831161122b57829003601f168201915b5050505050815260200160038201805480602002602001604051908101604052809291908181526020016000905b828210156115025783829060005260206000209060040201604051806080016040529081600082018054600181600116156101000203166002900480601f0160208091040260200160405190810160405280929190818152602001828054600181600116156101000203166002900480156113325780601f1061130757610100808354040283529160200191611332565b820191906000526020600020905b81548152906001019060200180831161131557829003601f168201915b50505050508152602001600182018054600181600116156101000203166002900480601f0160208091040260200160405190810160405280929190818152602001828054600181600116156101000203166002900480156113d45780601f106113a9576101008083540402835291602001916113d4565b820191906000526020600020905b8154815290600101906020018083116113b757829003601f168201915b505050505081526020016002820160009054906101000a900460ff1660028111156113fb57fe5b600281111561140657fe5b815260200160038201805480602002602001604051908101604052809291908181526020016000905b828210156114eb578382906000526020600020018054600181600116156101000203166002900480601f0160208091040260200160405190810160405280929190818152602001828054600181600116156101000203166002900480156114d75780601f106114ac576101008083540402835291602001916114d7565b820191906000526020600020905b8154815290600101906020018083116114ba57829003601f168201915b50505050508152602001906001019061142f565b505050508152505081526020019060010190611276565b5050505081525050908060040154905082565b6001818154811061152257fe5b906000526020600020016000915090505481565b6000606061154585858561109a565b9050600060026000878152602001908152602001600020905060006116468260000160000160009054906101000a900460ff16600460008a815260200190815260200160002060008154811061159757fe5b90600052602060002090600402016000018054600181600116156101000203166002900480601f01602080910402602001604051908101604052809291908181526020018280546001816001161561010002031660029004801561163c5780601f106116115761010080835404028352916020019161163c565b820191906000526020600020905b81548152906001019060200180831161161f57829003601f168201915b5050505050610d83565b9050600060606002600084815260200190815260200160002060000160000160029054906101000a900473ffffffffffffffffffffffffffffffffffffffff1673ffffffffffffffffffffffffffffffffffffffff16856040516024016116ad91906157c1565b6040516020818303038152906040527fd7987ea5000000000000000000000000000000000000000000000000000000007bffffffffffffffffffffffffffffffffffffffffffffffffffffffff19166020820180517bffffffffffffffffffffffffffffffffffffffffffffffffffffffff838183161783525050505060405161173791906155b7565b6000604051808303816000865af19150503d8060008114611774576040519150601f19603f3d011682016040523d82523d6000602084013e611779565b606091505b509150915060011515821515146117c5576040517f08c379a00000000000000000000000000000000000000000000000000000000081526004016117bc90615911565b60405180910390fd5b808060200190516117d9919081019061447f565b955050505050509392505050565b6060600180548060200260200160405190810160405280929190818152602001828054801561183557602002820191906000526020600020905b815481526020019060010190808311611821575b5050505050905090565b60606000600260008481526020019081526020016000209050606060008260000160030180549050905060006003600087815260200190815260200160002080549050905060008090505b82811015611b645760608560000160030182815481106118a657fe5b90600052602060002090600402016000018054600181600116156101000203166002900480601f01602080910402602001604051908101604052809291908181526020018280546001816001161561010002031660029004801561194b5780601f106119205761010080835404028352916020019161194b565b820191906000526020600020905b81548152906001019060200180831161192e57829003601f168201915b5050505050905060028081111561195e57fe5b86600001600301838154811061197057fe5b906000526020600020906004020160020160009054906101000a900460ff16600281111561199a57fe5b14156119d9576040518060400160405280600581526020017f627974657300000000000000000000000000000000000000000000000000000081525090505b84611afb8760000160000160009054906101000a900460ff1683896000016003018681548110611a0557fe5b9060005260206000209060040201600301805480602002602001604051908101604052809291908181526020016000905b82821015611af2578382906000526020600020018054600181600116156101000203166002900480601f016020809104026020016040519081016040528092919081815260200182805460018160011615610100020316600290048015611ade5780601f10611ab357610100808354040283529160200191611ade565b820191906000526020600020905b815481529060010190602001808311611ac157829003601f168201915b505050505081526020019060010190611a36565b505050506109f2565b604051602001611b0c9291906155ce565b604051602081830303815290604052945060018403821080611b2e5750600083115b15611b565784604051602001611b4491906155f2565b60405160208183030381529060405294505b50808060010191505061188a565b508360000160020183604051602001611b7e929190615665565b604051602081830303815290604052925082945050505050919050565b600081611ba781612a39565b611be6576040517f08c379a0000000000000000000000000000000000000000000000000000000008152600401611bdd906158b1565b60405180910390fd5b600060026000858152602001908152602001600020600401549050600060018080805490500381548110611c1657fe5b906000526020600020015490508060018381548110611c3157fe5b90600052602060002001819055508160026000838152602001908152602001600020600401819055506001805480919060019003611c6f9190613738565b50600360008681526020019081526020016000206000611c8f9190613764565b600460008681526020019081526020016000206000611cae9190613764565b81857f7aba1b7c67426c7ad78ea21a678946741a0c8795e99fa106728122a461e33cbc60405160405180910390a381817f486e2c79f26b56bb920c18e856915eb5e2922e2814cce03da8892d08cce6419760405160405180910390a3819350505050919050565b81611d1f81612a39565b611d5e576040517f08c379a0000000000000000000000000000000000000000000000000000000008152600401611d55906158b1565b60405180910390fd5b6000600260008581526020019081526020016000209050611d938160000160000160009054906101000a900460ff1684610f5b565b60008090505b8351811015611e845760036000868152602001908152602001600020848281518110611dc157fe5b6020026020010151908060018154018082558091505090600182039060005260206000209060040201600090919290919091506000820151816000019080519060200190611e10929190613788565b506020820151816001019080519060200190611e2d929190613788565b5060408201518160020160006101000a81548160ff02191690836002811115611e5257fe5b02179055506060820151816003019080519060200190611e73929190613808565b505050508080600101915050611d99565b5050505050565b611e936136c4565b600260008381526020019081526020016000206000016040518060c00160405290816000820160009054906101000a900460ff166002811115611ed257fe5b6002811115611edd57fe5b81526020016000820160019054906101000a900460ff166006811115611eff57fe5b6006811115611f0a57fe5b81526020016000820160029054906101000a900473ffffffffffffffffffffffffffffffffffffffff1673ffffffffffffffffffffffffffffffffffffffff1673ffffffffffffffffffffffffffffffffffffffff16815260200160018201548152602001600282018054600181600116156101000203166002900480601f0160208091040260200160405190810160405280929190818152602001828054600181600116156101000203166002900480156120075780601f10611fdc57610100808354040283529160200191612007565b820191906000526020600020905b815481529060010190602001808311611fea57829003601f168201915b5050505050815260200160038201805480602002602001604051908101604052809291908181526020016000905b828210156122c15783829060005260206000209060040201604051806080016040529081600082018054600181600116156101000203166002900480601f0160208091040260200160405190810160405280929190818152602001828054600181600116156101000203166002900480156120f15780601f106120c6576101008083540402835291602001916120f1565b820191906000526020600020905b8154815290600101906020018083116120d457829003601f168201915b50505050508152602001600182018054600181600116156101000203166002900480601f0160208091040260200160405190810160405280929190818152602001828054600181600116156101000203166002900480156121935780601f1061216857610100808354040283529160200191612193565b820191906000526020600020905b81548152906001019060200180831161217657829003601f168201915b505050505081526020016002820160009054906101000a900460ff1660028111156121ba57fe5b60028111156121c557fe5b815260200160038201805480602002602001604051908101604052809291908181526020016000905b828210156122aa578382906000526020600020018054600181600116156101000203166002900480601f0160208091040260200160405190810160405280929190818152602001828054600181600116156101000203166002900480156122965780601f1061226b57610100808354040283529160200191612296565b820191906000526020600020905b81548152906001019060200180831161227957829003601f168201915b5050505050815260200190600101906121ee565b505050508152505081526020019060010190612035565b505050508152505073__dTypeLib______________________________6363255a9a90916122ee85610726565b6122f786612418565b6040518463ffffffff1660e01b8152600401612315939291906159d1565b60006040518083038186803b15801561232d57600080fd5b505af4158015612341573d6000803e3d6000fd5b505050506040513d6000823e3d601f19601f8201168201806040525061236a919081019061481e565b9050919050565b60606123a4600260008560008151811061238757fe5b602002602001015181526020019081526020016000208584613061565b905060008090505b835181101561240d576000600260008684815181106123c757fe5b6020026020010151815260200190815260200160002090506123fd8583815181106123ee57fe5b602002602001015182856133cf565b92505080806001019150506123ac565b508090509392505050565b606060046000838152602001908152602001600020805480602002602001604051908101604052809291908181526020016000905b828210156126d95783829060005260206000209060040201604051806080016040529081600082018054600181600116156101000203166002900480601f0160208091040260200160405190810160405280929190818152602001828054600181600116156101000203166002900480156125095780601f106124de57610100808354040283529160200191612509565b820191906000526020600020905b8154815290600101906020018083116124ec57829003601f168201915b50505050508152602001600182018054600181600116156101000203166002900480601f0160208091040260200160405190810160405280929190818152602001828054600181600116156101000203166002900480156125ab5780601f10612580576101008083540402835291602001916125ab565b820191906000526020600020905b81548152906001019060200180831161258e57829003601f168201915b505050505081526020016002820160009054906101000a900460ff1660028111156125d257fe5b60028111156125dd57fe5b815260200160038201805480602002602001604051908101604052809291908181526020016000905b828210156126c2578382906000526020600020018054600181600116156101000203166002900480601f0160208091040260200160405190810160405280929190818152602001828054600181600116156101000203166002900480156126ae5780601f10612683576101008083540402835291602001916126ae565b820191906000526020600020905b81548152906001019060200180831161269157829003601f168201915b505050505081526020019060010190612606565b50505050815250508152602001906001019061244d565b505050509050919050565b600360205281600052604060002081815481106126fd57fe5b906000526020600020906004020160009150915050806000018054600181600116156101000203166002900480601f0160208091040260200160405190810160405280929190818152602001828054600181600116156101000203166002900480156127aa5780601f1061277f576101008083540402835291602001916127aa565b820191906000526020600020905b81548152906001019060200180831161278d57829003601f168201915b505050505090806001018054600181600116156101000203166002900480601f0160208091040260200160405190810160405280929190818152602001828054600181600116156101000203166002900480156128485780601f1061281d57610100808354040283529160200191612848565b820191906000526020600020905b81548152906001019060200180831161282b57829003601f168201915b5050505050908060020160009054906101000a900460ff16905083565b60006128708261183f565b805190602001209050919050565b6128866136c4565b60006128928484610d83565b905061289d81611e8b565b91505092915050565b816128b081612a39565b6128ef576040517f08c379a00000000000000000000000000000000000000000000000000000000081526004016128e6906158b1565b60405180910390fd5b60006002600085815260200190815260200160002090506129248160000160000160009054906101000a900460ff1684610f5b565b60008090505b8351811015612a15576004600086815260200190815260200160002084828151811061295257fe5b60200260200101519080600181540180825580915050906001820390600052602060002090600402016000909192909190915060008201518160000190805190602001906129a1929190613788565b5060208201518160010190805190602001906129be929190613788565b5060408201518160020160006101000a81548160ff021916908360028111156129e357fe5b02179055506060820151816003019080519060200190612a04929190613808565b50505050808060010191505061292a565b5050505050565b6000612a2783611b9b565b50612a3182610db6565b905092915050565b6000806001805490501415612a515760009050612a84565b816001600260008581526020019081526020016000206004015481548110612a7557fe5b90600052602060002001541490505b919050565b60606000826000016003018054905090506000600360006001866004015481548110612ab157fe5b90600052602060002001548152602001908152602001600020905060008180549050905060008090505b83811015612d285784612cc08760000160000160009054906101000a900460ff16886000016003018481548110612b0e57fe5b90600052602060002090600402016000018054600181600116156101000203166002900480601f016020809104026020016040519081016040528092919081815260200182805460018160011615610100020316600290048015612bb35780601f10612b8857610100808354040283529160200191612bb3565b820191906000526020600020905b815481529060010190602001808311612b9657829003601f168201915b5050505050896000016003018581548110612bca57fe5b9060005260206000209060040201600301805480602002602001604051908101604052809291908181526020016000905b82821015612cb7578382906000526020600020018054600181600116156101000203166002900480601f016020809104026020016040519081016040528092919081815260200182805460018160011615610100020316600290048015612ca35780601f10612c7857610100808354040283529160200191612ca3565b820191906000526020600020905b815481529060010190602001808311612c8657829003601f168201915b505050505081526020019060010190612bfb565b505050506109f2565b604051602001612cd19291906155ce565b604051602081830303815290604052945060018403811080612cf35750600082115b15612d1b5784604051602001612d0991906155f2565b60405160208183030381529060405294505b8080600101915050612adb565b5060008090505b81811015612f655784612f088760000160000160009054906101000a900460ff16858481548110612d5c57fe5b90600052602060002090600402016000018054600181600116156101000203166002900480601f016020809104026020016040519081016040528092919081815260200182805460018160011615610100020316600290048015612e015780601f10612dd657610100808354040283529160200191612e01565b820191906000526020600020905b815481529060010190602001808311612de457829003601f168201915b5050505050868581548110612e1257fe5b9060005260206000209060040201600301805480602002602001604051908101604052809291908181526020016000905b82821015612eff578382906000526020600020018054600181600116156101000203166002900480601f016020809104026020016040519081016040528092919081815260200182805460018160011615610100020316600290048015612eeb5780601f10612ec057610100808354040283529160200191612eeb565b820191906000526020600020905b815481529060010190602001808311612ece57829003601f168201915b505050505081526020019060010190612e43565b505050506109f2565b604051602001612f199291906155ce565b604051602081830303815290604052945060018203811015612f585784604051602001612f4691906155f2565b60405160208183030381529060405294505b8080600101915050612d2f565b50505050919050565b6000612f818380519060200120836134e5565b905092915050565b80600001518260000160006101000a81548160ff02191690836002811115612fad57fe5b021790555080602001518260000160016101000a81548160ff02191690836006811115612fd657fe5b021790555080604001518260000160026101000a81548173ffffffffffffffffffffffffffffffffffffffff021916908373ffffffffffffffffffffffffffffffffffffffff16021790555080606001518260010181905550806080015182600201908051906020019061304b929190613868565b5061305d826003018260a001516135da565b5050565b606060008351905060008090505b8181101561331c5760006131528760000160000160009054906101000a900460ff168860000160030184815481106130a357fe5b90600052602060002090600402016000018054600181600116156101000203166002900480601f0160208091040260200160405190810160405280929190818152602001828054600181600116156101000203166002900480156131485780601f1061311d57610100808354040283529160200191613148565b820191906000526020600020905b81548152906001019060200180831161312b57829003601f168201915b5050505050610d83565b90506000600260008381526020019081526020016000209050600060608260000160000160029054906101000a900473ffffffffffffffffffffffffffffffffffffffff1673ffffffffffffffffffffffffffffffffffffffff168986815181106131b957fe5b60200260200101516040516024016131d19190615746565b6040516020818303038152906040527fa2dd3d47000000000000000000000000000000000000000000000000000000007bffffffffffffffffffffffffffffffffffffffffffffffffffffffff19166020820180517bffffffffffffffffffffffffffffffffffffffffffffffffffffffff838183161783525050505060405161325b91906155b7565b600060405180830381855afa9150503d8060008114613296576040519150601f19603f3d011682016040523d82523d6000602084013e61329b565b606091505b509150915060011515821515146132e7576040517f08c379a00000000000000000000000000000000000000000000000000000000081526004016132de90615931565b60405180910390fd5b86816040516020016132fa9291906155ce565b604051602081830303815290604052965050505050808060010191505061306f565b5060008351118015613374575060028081111561333557fe5b8560000160030160008154811061334857fe5b906000526020600020906004020160020160009054906101000a900460ff16600281111561337257fe5b145b156133a257818360405160200161338c9291906157e3565b60405160208183030381529060405291506133c7565b81836040516020016133b59291906155ce565b60405160208183030381529060405291505b509392505050565b60606133da84612865565b826040516020016133ec92919061558f565b6040516020818303038152906040529150600060608460000160000160029054906101000a900473ffffffffffffffffffffffffffffffffffffffff1673ffffffffffffffffffffffffffffffffffffffff168460405161344d91906155b7565b600060405180830381855afa9150503d8060008114613488576040519150601f19603f3d011682016040523d82523d6000602084013e61348d565b606091505b509150915060011515821515146134d9576040517f08c379a00000000000000000000000000000000000000000000000000000000081526004016134d090615971565b60405180910390fd5b80925050509392505050565b600060418251146134f557600080fd5b60008060006020850151925060408501519150606085015160001a9050601b8160ff16101561352557601b810190505b601b8160ff16148061353a5750601c8160ff16145b61354357600080fd5b600186828585604051600081526020016040526040516135669493929190615761565b6020604051602081039080840390855afa158015613588573d6000803e3d6000fd5b505050602060405103519350600073ffffffffffffffffffffffffffffffffffffffff168473ffffffffffffffffffffffffffffffffffffffff1614156135ce57600080fd5b83935050505092915050565b60008151905060008090505b818110156136be57838382815181106135fb57fe5b602002602001015190806001815401808255809150509060018203906000526020600020906004020160009091929091909150600082015181600001908051906020019061364a929190613788565b506020820151816001019080519060200190613667929190613788565b5060408201518160020160006101000a81548160ff0219169083600281111561368c57fe5b021790555060608201518160030190805190602001906136ad929190613808565b5050505080806001019150506135e6565b50505050565b604051806101000160405280600060028111156136dd57fe5b8152602001600060068111156136ef57fe5b8152602001600073ffffffffffffffffffffffffffffffffffffffff16815260200160008019168152602001606081526020016060815260200160608152602001606081525090565b81548183558181111561375f5781836000526020600020918201910161375e91906138e8565b5b505050565b5080546000825560040290600052602060002090810190613785919061390d565b50565b828054600181600116156101000203166002900490600052602060002090601f016020900481019282601f106137c957805160ff19168380011785556137f7565b828001600101855582156137f7579182015b828111156137f65782518255916020019190600101906137db565b5b5090506138049190613970565b5090565b828054828255906000526020600020908101928215613857579160200282015b82811115613856578251829080519060200190613846929190613788565b5091602001919060010190613828565b5b5090506138649190613995565b5090565b828054600181600116156101000203166002900490600052602060002090601f016020900481019282601f106138a957805160ff19168380011785556138d7565b828001600101855582156138d7579182015b828111156138d65782518255916020019190600101906138bb565b5b5090506138e49190613970565b5090565b61390a91905b808211156139065760008160009055506001016138ee565b5090565b90565b61396d91905b80821115613969576000808201600061392c91906139c1565b60018201600061393c91906139c1565b6002820160006101000a81549060ff02191690556003820160006139609190613a09565b50600401613913565b5090565b90565b61399291905b8082111561398e576000816000905550600101613976565b5090565b90565b6139be91905b808211156139ba57600081816139b191906139c1565b5060010161399b565b5090565b90565b50805460018160011615610100020316600290046000825580601f106139e75750613a06565b601f016020900490600052602060002090810190613a059190613970565b5b50565b5080546000825590600052602060002090810190613a279190613995565b50565b6000613a368235615e92565b905092915050565b6000613a4a8251615e92565b905092915050565b600082601f830112613a6357600080fd5b8135613a76613a7182615ae7565b615aba565b91508181835260208401935060208101905083856020840282011115613a9b57600080fd5b60005b83811015613acb5781613ab18882613d8d565b845260208401935060208301925050600181019050613a9e565b5050505092915050565b600082601f830112613ae657600080fd5b8135613af9613af482615b0f565b615aba565b9150818183526020840193506020810190508360005b83811015613b3f5781358601613b258882613e81565b845260208401935060208301925050600181019050613b0f565b5050505092915050565b600082601f830112613b5a57600080fd5b8151613b6d613b6882615b0f565b615aba565b9150818183526020840193506020810190508360005b83811015613bb35781518601613b998882613ed5565b845260208401935060208301925050600181019050613b83565b5050505092915050565b600082601f830112613bce57600080fd5b8135613be1613bdc82615b37565b615aba565b9150818183526020840193506020810190508360005b83811015613c275781358601613c0d8882613e81565b845260208401935060208301925050600181019050613bf7565b5050505092915050565b600082601f830112613c4257600080fd5b8135613c55613c5082615b5f565b615aba565b9150818183526020840193506020810190508360005b83811015613c9b5781358601613c8188826141c9565b845260208401935060208301925050600181019050613c6b565b5050505092915050565b600082601f830112613cb657600080fd5b8151613cc9613cc482615b5f565b615aba565b9150818183526020840193506020810190508360005b83811015613d0f5781518601613cf58882614285565b845260208401935060208301925050600181019050613cdf565b5050505092915050565b600082601f830112613d2a57600080fd5b8135613d3d613d3882615b87565b615aba565b9150818183526020840193506020810190508360005b83811015613d835781358601613d6988826141c9565b845260208401935060208301925050600181019050613d53565b5050505092915050565b6000613d998235615ea4565b905092915050565b6000613dad8251615ea4565b905092915050565b600082601f830112613dc657600080fd5b8135613dd9613dd482615baf565b615aba565b91508082526020830160208301858383011115613df557600080fd5b613e00838284615f53565b50505092915050565b6000613e158235615eae565b905092915050565b6000613e298251615eae565b905092915050565b6000613e3d8235615ec5565b905092915050565b6000613e518251615ec5565b905092915050565b6000613e658235615edc565b905092915050565b6000613e798251615edc565b905092915050565b600082601f830112613e9257600080fd5b8135613ea5613ea082615bdb565b615aba565b91508082526020830160208301858383011115613ec157600080fd5b613ecc838284615f53565b50505092915050565b600082601f830112613ee657600080fd5b8151613ef9613ef482615bdb565b615aba565b91508082526020830160208301858383011115613f1557600080fd5b613f20838284615f62565b50505092915050565b600082601f830112613f3a57600080fd5b8135613f4d613f4882615c07565b615aba565b91508082526020830160208301858383011115613f6957600080fd5b613f74838284615f53565b50505092915050565b60006101008284031215613f9057600080fd5b613f9b610100615aba565b90506000613fab84828501613e09565b6000830152506020613fbf84828501613e31565b6020830152506040613fd384828501613a2a565b6040830152506060613fe784828501613d8d565b606083015250608082013567ffffffffffffffff81111561400757600080fd5b61401384828501613e81565b60808301525060a082013567ffffffffffffffff81111561403357600080fd5b61403f84828501613c31565b60a08301525060c082013567ffffffffffffffff81111561405f57600080fd5b61406b84828501613c31565b60c08301525060e082013567ffffffffffffffff81111561408b57600080fd5b61409784828501613c31565b60e08301525092915050565b600061010082840312156140b657600080fd5b6140c1610100615aba565b905060006140d184828501613e1d565b60008301525060206140e584828501613e45565b60208301525060406140f984828501613a3e565b604083015250606061410d84828501613da1565b606083015250608082015167ffffffffffffffff81111561412d57600080fd5b61413984828501613ed5565b60808301525060a082015167ffffffffffffffff81111561415957600080fd5b61416584828501613ca5565b60a08301525060c082015167ffffffffffffffff81111561418557600080fd5b61419184828501613ca5565b60c08301525060e082015167ffffffffffffffff8111156141b157600080fd5b6141bd84828501613ca5565b60e08301525092915050565b6000608082840312156141db57600080fd5b6141e56080615aba565b9050600082013567ffffffffffffffff81111561420157600080fd5b61420d84828501613e81565b600083015250602082013567ffffffffffffffff81111561422d57600080fd5b61423984828501613e81565b602083015250604061424d84828501613e59565b604083015250606082013567ffffffffffffffff81111561426d57600080fd5b61427984828501613ad5565b60608301525092915050565b60006080828403121561429757600080fd5b6142a16080615aba565b9050600082015167ffffffffffffffff8111156142bd57600080fd5b6142c984828501613ed5565b600083015250602082015167ffffffffffffffff8111156142e957600080fd5b6142f584828501613ed5565b602083015250604061430984828501613e6d565b604083015250606082015167ffffffffffffffff81111561432957600080fd5b61433584828501613b49565b60608301525092915050565b600061434d8235615f13565b905092915050565b60006020828403121561436757600080fd5b600061437584828501613a2a565b91505092915050565b60008060006060848603121561439357600080fd5b600084013567ffffffffffffffff8111156143ad57600080fd5b6143b986828701613a52565b935050602084013567ffffffffffffffff8111156143d657600080fd5b6143e286828701613a52565b925050604084013567ffffffffffffffff8111156143ff57600080fd5b61440b86828701613db5565b9150509250925092565b60006020828403121561442757600080fd5b600082013567ffffffffffffffff81111561444157600080fd5b61444d84828501613bbd565b91505092915050565b60006020828403121561446857600080fd5b600061447684828501613d8d565b91505092915050565b60006020828403121561449157600080fd5b600061449f84828501613da1565b91505092915050565b6000806000606084860312156144bd57600080fd5b60006144cb86828701613d8d565b935050602084013567ffffffffffffffff8111156144e857600080fd5b6144f486828701613a52565b925050604084013567ffffffffffffffff81111561451157600080fd5b61451d86828701613db5565b9150509250925092565b6000806000806080858703121561453d57600080fd5b600061454b87828801613d8d565b945050602085013567ffffffffffffffff81111561456857600080fd5b61457487828801613a52565b935050604085013567ffffffffffffffff81111561459157600080fd5b61459d87828801613db5565b925050606085013567ffffffffffffffff8111156145ba57600080fd5b6145c687828801613db5565b91505092959194509250565b600080604083850312156145e557600080fd5b60006145f385828601613d8d565b925050602083013567ffffffffffffffff81111561461057600080fd5b61461c85828601613d19565b9150509250929050565b6000806040838503121561463957600080fd5b600061464785828601613d8d565b925050602083013567ffffffffffffffff81111561466457600080fd5b61467085828601613f7d565b9150509250929050565b6000806040838503121561468d57600080fd5b600061469b85828601613d8d565b92505060206146ac85828601614341565b9150509250929050565b600080604083850312156146c957600080fd5b60006146d785828601613e09565b925050602083013567ffffffffffffffff8111156146f457600080fd5b61470085828601613d19565b9150509250929050565b6000806040838503121561471d57600080fd5b600061472b85828601613e09565b925050602083013567ffffffffffffffff81111561474857600080fd5b61475485828601613f29565b9150509250929050565b60008060006060848603121561477357600080fd5b600061478186828701613e09565b935050602084013567ffffffffffffffff81111561479e57600080fd5b6147aa86828701613f29565b925050604084013567ffffffffffffffff8111156147c757600080fd5b6147d386828701613bbd565b9150509250925092565b6000602082840312156147ef57600080fd5b600082013567ffffffffffffffff81111561480957600080fd5b61481584828501613f7d565b91505092915050565b60006020828403121561483057600080fd5b600082015167ffffffffffffffff81111561484a57600080fd5b614856848285016140a3565b91505092915050565b60006020828403121561487157600080fd5b600061487f84828501614341565b91505092915050565b60006148948383614c2c565b60208301905092915050565b60006148ac8383614d9a565b905092915050565b60006148c08383614e0c565b905092915050565b60006148d4838361548f565b905092915050565b60006148e88383615500565b905092915050565b6148f981615dcb565b82525050565b61490881615dcb565b82525050565b61491781615dcb565b82525050565b600061492882615c79565b6149328185615cfa565b935061493d83615c33565b60005b8281101561496b57614953868351614888565b955061495e82615cc6565b9150600181019050614940565b50849250505092915050565b600061498282615c84565b61498c8185615d0b565b93508360208202850161499e85615c40565b60005b848110156149d75783830388526149b98383516148a0565b92506149c482615cd3565b91506020880197506001810190506149a1565b508196508694505050505092915050565b60006149f382615c84565b6149fd8185615d1c565b935083602082028501614a0f85615c40565b60005b84811015614a48578383038852614a2a8383516148b4565b9250614a3582615cd3565b9150602088019750600181019050614a12565b508196508694505050505092915050565b6000614a6482615c9a565b614a6e8185615d3e565b935083602082028501614a8085615c5a565b60005b84811015614ab9578383038852614a9b8383516148c8565b9250614aa682615ced565b9150602088019750600181019050614a83565b508196508694505050505092915050565b6000614ad582615c9a565b614adf8185615d4f565b935083602082028501614af185615c5a565b60005b84811015614b2a578383038852614b0c8383516148dc565b9250614b1782615ced565b9150602088019750600181019050614af4565b508196508694505050505092915050565b6000614b4682615c8f565b614b508185615d2d565b935083602082028501614b6285615c4d565b60005b84811015614b9b578383038852614b7d8383516148c8565b9250614b8882615ce0565b9150602088019750600181019050614b65565b508196508694505050505092915050565b6000614bb782615c8f565b614bc18185615d60565b935083602082028501614bd385615c4d565b60005b84811015614c0c578383038852614bee8383516148dc565b9250614bf982615ce0565b9150602088019750600181019050614bd6565b508196508694505050505092915050565b614c2681615ddd565b82525050565b614c3581615de9565b82525050565b614c4481615de9565b82525050565b614c5381615de9565b82525050565b614c6281615df3565b82525050565b614c79614c7482615df3565b615f95565b82525050565b6000614c8a82615ca5565b614c948185615d71565b9350614ca4818560208601615f62565b614cad81615f9f565b840191505092915050565b6000614cc382615ca5565b614ccd8185615d82565b9350614cdd818560208601615f62565b80840191505092915050565b614cf281615f1d565b82525050565b614d0181615f1d565b82525050565b614d1081615f1d565b82525050565b614d1f81615f2f565b82525050565b614d2e81615f2f565b82525050565b614d3d81615f41565b82525050565b614d4c81615f41565b82525050565b614d5b81615f41565b82525050565b6000614d6c82615cbb565b614d768185615d9e565b9350614d86818560208601615f62565b614d8f81615f9f565b840191505092915050565b6000614da582615cb0565b614daf8185615d8d565b9350614dbf818560208601615f62565b614dc881615f9f565b840191505092915050565b6000614dde82615cb0565b614de88185615d9e565b9350614df8818560208601615f62565b614e0181615f9f565b840191505092915050565b6000614e1782615cb0565b614e218185615daf565b9350614e31818560208601615f62565b614e3a81615f9f565b840191505092915050565b6000614e5082615cb0565b614e5a8185615dc0565b9350614e6a818560208601615f62565b80840191505092915050565b600081546001811660008114614e935760018114614eb857614efc565b607f6002830416614ea48187615dc0565b955060ff1983168652808601935050614efc565b60028204614ec68187615dc0565b9550614ed185615c67565b60005b82811015614ef357815481890152600182019150602081019050614ed4565b82880195505050505b505092915050565b6000614f11601583615d9e565b91507f4e6f2073756368207479706520696e73657274656400000000000000000000006000830152602082019050919050565b6000614f51602983615d9e565b91507f41207479706520696e2074686520636f6d706f736974696f6e20646f6573206e60008301527f6f742065786973747300000000000000000000000000000000000000000000006020830152604082019050919050565b6000614fb7600183615dc0565b91507f2c000000000000000000000000000000000000000000000000000000000000006000830152600182019050919050565b6000614ff7601083615d9e565b91507f456d707479206c6162656c206e616d65000000000000000000000000000000006000830152602082019050919050565b6000615037600183615dc0565b91507f28000000000000000000000000000000000000000000000000000000000000006000830152600182019050919050565b6000615077600183615dc0565b91507f29000000000000000000000000000000000000000000000000000000000000006000830152600182019050919050565b60006150b7601783615d9e565b91507f496e73657274696e67206f7574707574206661696c65640000000000000000006000830152602082019050919050565b60006150f7601783615d9e565b91507f52657472696576696e6720696e707574206661696c65640000000000000000006000830152602082019050919050565b6000615137600f83615d9e565b91507f456d7074792074797065206e616d6500000000000000000000000000000000006000830152602082019050919050565b6000615177600183615dc0565b91507f5b000000000000000000000000000000000000000000000000000000000000006000830152600182019050919050565b60006151b7600183615dc0565b91507f5d000000000000000000000000000000000000000000000000000000000000006000830152600182019050919050565b60006151f7601783615d9e565b91507f52756e6e696e672066756e6374696f6e206661696c65640000000000000000006000830152602082019050919050565b6000615237600e83615d9e565b91507f496e64657820746f6f206269672e0000000000000000000000000000000000006000830152602082019050919050565b6000615277601383615d9e565b91507f5479706520616c726561647920657869737473000000000000000000000000006000830152602082019050919050565b600060c0830160008301516152c26000860182614d07565b5060208301516152d56020860182614d25565b5060408301516152e8604086018261490e565b5060608301516152fb6060860182614c4a565b50608083015184820360808601526153138282614e0c565b91505060a083015184820360a086015261532d8282614bac565b9150508091505092915050565b600060c0830160008301516153526000860182614ce9565b5060208301516153656020860182614d16565b50604083015161537860408601826148f0565b50606083015161538b6060860182614c2c565b50608083015184820360808601526153a38282614d9a565b91505060a083015184820360a08601526153bd8282614b3b565b9150508091505092915050565b6000610100830160008301516153e36000860182614ce9565b5060208301516153f66020860182614d16565b50604083015161540960408601826148f0565b50606083015161541c6060860182614c2c565b50608083015184820360808601526154348282614d9a565b91505060a083015184820360a086015261544e8282614b3b565b91505060c083015184820360c08601526154688282614b3b565b91505060e083015184820360e08601526154828282614b3b565b9150508091505092915050565b600060808301600083015184820360008601526154ac8282614d9a565b915050602083015184820360208601526154c68282614d9a565b91505060408301516154db6040860182614d34565b50606083015184820360608601526154f38282614977565b9150508091505092915050565b6000608083016000830151848203600086015261551d8282614e0c565b915050602083015184820360208601526155378282614e0c565b915050604083015161554c6040860182614d52565b506060830151848203606086015261556482826149e8565b9150508091505092915050565b61557a81615e7b565b82525050565b61558981615e85565b82525050565b600061559b8285614c68565b6004820191506155ab8284614cb8565b91508190509392505050565b60006155c38284614cb8565b915081905092915050565b60006155da8285614cb8565b91506155e68284614cb8565b91508190509392505050565b60006155fe8284614cb8565b915061560982614faa565b915081905092915050565b60006156208285614cb8565b915061562b8261516a565b91506156378284614e45565b9150615642826151aa565b91508190509392505050565b600061565a8284614e76565b915081905092915050565b60006156718285614e76565b915061567c8261502a565b91506156888284614cb8565b91506156938261506a565b91508190509392505050565b60006156aa8261502a565b91506156b68284614cb8565b91506156c18261506a565b915081905092915050565b60006020820190506156e160008301846148ff565b92915050565b60006020820190508181036000830152615701818461491d565b905092915050565b600060208201905081810360008301526157238184614a59565b905092915050565b60006020820190506157406000830184614c1d565b92915050565b600060208201905061575b6000830184614c3b565b92915050565b60006080820190506157766000830187614c3b565b6157836020830186615580565b6157906040830185614c3b565b61579d6060830184614c3b565b95945050505050565b60006020820190506157bb6000830184614c59565b92915050565b600060208201905081810360008301526157db8184614c7f565b905092915050565b600060408201905081810360008301526157fd8185614c7f565b905081810360208301526158118184614c7f565b90509392505050565b600060408201905061582f6000830185614cf8565b81810360208301526158418184614d61565b90509392505050565b600060208201905081810360008301526158648184614d61565b905092915050565b600060608201905081810360008301526158868186614dd3565b9050818103602083015261589a8185614dd3565b90506158a96040830184614d43565b949350505050565b600060208201905081810360008301526158ca81614f04565b9050919050565b600060208201905081810360008301526158ea81614f44565b9050919050565b6000602082019050818103600083015261590a81614fea565b9050919050565b6000602082019050818103600083015261592a816150aa565b9050919050565b6000602082019050818103600083015261594a816150ea565b9050919050565b6000602082019050818103600083015261596a8161512a565b9050919050565b6000602082019050818103600083015261598a816151ea565b9050919050565b600060208201905081810360008301526159aa8161522a565b9050919050565b600060208201905081810360008301526159ca8161526a565b9050919050565b600060608201905081810360008301526159eb81866152aa565b905081810360208301526159ff8185614aca565b90508181036040830152615a138184614aca565b9050949350505050565b60006040820190508181036000830152615a37818561533a565b9050615a466020830184615571565b9392505050565b60006020820190508181036000830152615a6781846153ca565b905092915050565b60006040820190508181036000830152615a8981856153ca565b9050615a986020830184614c3b565b9392505050565b6000602082019050615ab46000830184615571565b92915050565b6000604051905081810181811067ffffffffffffffff82111715615add57600080fd5b8060405250919050565b600067ffffffffffffffff821115615afe57600080fd5b602082029050602081019050919050565b600067ffffffffffffffff821115615b2657600080fd5b602082029050602081019050919050565b600067ffffffffffffffff821115615b4e57600080fd5b602082029050602081019050919050565b600067ffffffffffffffff821115615b7657600080fd5b602082029050602081019050919050565b600067ffffffffffffffff821115615b9e57600080fd5b602082029050602081019050919050565b600067ffffffffffffffff821115615bc657600080fd5b601f19601f8301169050602081019050919050565b600067ffffffffffffffff821115615bf257600080fd5b601f19601f8301169050602081019050919050565b600067ffffffffffffffff821115615c1e57600080fd5b601f19601f8301169050602081019050919050565b6000602082019050919050565b6000602082019050919050565b6000602082019050919050565b6000602082019050919050565b60008160005260206000209050919050565b600081519050919050565b600081519050919050565b600081519050919050565b600081519050919050565b600081519050919050565b600081519050919050565b600081519050919050565b6000602082019050919050565b6000602082019050919050565b6000602082019050919050565b6000602082019050919050565b600082825260208201905092915050565b600082825260208201905092915050565b600082825260208201905092915050565b600082825260208201905092915050565b600082825260208201905092915050565b600082825260208201905092915050565b600082825260208201905092915050565b600082825260208201905092915050565b600081905092915050565b600082825260208201905092915050565b600082825260208201905092915050565b600082825260208201905092915050565b600081905092915050565b6000615dd682615e5b565b9050919050565b60008115159050919050565b6000819050919050565b60007fffffffff0000000000000000000000000000000000000000000000000000000082169050919050565b600060038210615e2b57fe5b819050919050565b600060078210615e3f57fe5b819050919050565b600060038210615e5357fe5b819050919050565b600073ffffffffffffffffffffffffffffffffffffffff82169050919050565b6000819050919050565b600060ff82169050919050565b6000615e9d82615ef3565b9050919050565b6000819050919050565b600060038210615ebd57600080fd5b819050919050565b600060078210615ed457600080fd5b819050919050565b600060038210615eeb57600080fd5b819050919050565b600073ffffffffffffffffffffffffffffffffffffffff82169050919050565b6000819050919050565b6000615f2882615e1f565b9050919050565b6000615f3a82615e33565b9050919050565b6000615f4c82615e47565b9050919050565b82818337600083830152505050565b60005b83811015615f80578082015181840152602081019050615f65565b83811115615f8f576000848401525b50505050565b6000819050919050565b6000601f19601f830116905091905056fea265627a7a723058208538238a872768e88e78fb26a794846462672d59be1b75b51e5967ed457f6e5e6c6578706572696d656e74616cf50037",
  "source": "pragma solidity ^0.5.0;\npragma experimental ABIEncoderV2;\n\nimport './dTypeInterface.sol';\nimport \"./lib/ECVerify.sol\";\nimport './dTypeLib.sol';\nimport './dTypesLib.sol';\n\ncontract dType is dTypeInterface {\n    using dTypeLib for dTypeLib.dType;\n    using dTypeLib for dTypeLib.dTypeRequired;\n    using dTypeLib for dTypeLib.LangChoices;\n    using dTypesLib for dTypesLib.dTypes;\n\n    address rootAddress;\n    bytes32[] public typeIndex;\n    mapping(bytes32 => Type) public typeStruct;\n    mapping(bytes32 => dTypesLib.dTypes[]) public optionals;\n    mapping(bytes32 => dTypesLib.dTypes[]) public outputs;\n\n    dTypeLib.LangChoices constant defaultLang = dTypeLib.LangChoices.Solidity;\n\n    struct Type {\n        dTypeLib.dTypeRequired data;\n        uint256 index;\n    }\n\n    modifier typeExists (bytes32 typeHash) {\n        require(isType(typeHash), 'No such type inserted');\n        _;\n    }\n\n    modifier typeNotExists (bytes32 typeHash) {\n        require(!isType(typeHash), 'Type already exists');\n        _;\n    }\n\n    event LogNew(bytes32 indexed hash, uint256 indexed index);\n    event LogUpdate(bytes32 indexed hash, uint256 indexed index);\n    event LogRemove(bytes32 indexed hash, uint256 indexed index);\n\n    function setRootAddress(address root) public {\n        rootAddress = root;\n    }\n\n    function insert(dTypeLib.dType memory data)\n        public\n        returns (bytes32 dataHash)\n    {\n        bytes32 typeHash = getTypeHash(data.lang, data.name);\n        require(!isType(typeHash), 'Type already exists');\n\n        checkTypesExist(data.lang, data.types);\n\n        typeStruct[typeHash].data.insert(data);\n        typeStruct[typeHash].index = typeIndex.push(typeHash)-1;\n\n        setOptionals(typeHash, data.optionals);\n        setOutputs(typeHash, data.outputs);\n\n        emit LogNew(typeHash, typeStruct[typeHash].index);\n\n        return typeHash;\n    }\n\n    function update(bytes32 typeHash, dTypeLib.dType memory data)\n        public\n        returns(bytes32 hash)\n    {\n        remove(typeHash);\n        return insert(data);\n    }\n\n    function remove(bytes32 typeHash)\n        typeExists(typeHash)\n        public\n        returns(uint256 index)\n    {\n        uint rowToDelete = typeStruct[typeHash].index;\n        bytes32 keyToMove = typeIndex[typeIndex.length-1];\n        typeIndex[rowToDelete] = keyToMove;\n        typeStruct[keyToMove].index = rowToDelete;\n        typeIndex.length--;\n\n        delete optionals[typeHash];\n        delete outputs[typeHash];\n\n        emit LogRemove(typeHash, rowToDelete);\n        emit LogUpdate(keyToMove, rowToDelete);\n        return rowToDelete;\n    }\n\n    function setOptionals(bytes32 typeHash, dTypesLib.dTypes[] memory optionalValues)\n        typeExists(typeHash)\n        public\n    {\n        Type storage dtype = typeStruct[typeHash];\n        checkTypesExist(dtype.data.lang, optionalValues);\n\n        for (uint256 i = 0 ; i < optionalValues.length; i++) {\n            optionals[typeHash].push(optionalValues[i]);\n        }\n    }\n\n    function setOutputs(bytes32 typeHash, dTypesLib.dTypes[] memory outputValues)\n        typeExists(typeHash)\n        public\n    {\n        Type storage dtype = typeStruct[typeHash];\n        checkTypesExist(dtype.data.lang, outputValues);\n\n        for (uint256 i = 0 ; i < outputValues.length; i++) {\n            outputs[typeHash].push(outputValues[i]);\n        }\n    }\n\n    function count() public view returns(uint256 counter)\n    {\n        return typeIndex.length;\n    }\n\n    function getIndex() public view returns(bytes32[] memory indext) {\n        return typeIndex;\n    }\n\n    function getTypeHash(dTypeLib.LangChoices lang, string memory name)\n        pure\n        public\n        returns (bytes32 typeHash)\n    {\n        return keccak256(abi.encode(lang, name));\n    }\n\n    function getByHash(bytes32 typeHash) view public returns(dTypeLib.dType memory dtype) {\n        return typeStruct[typeHash].data.getFull(\n            getOptionals(typeHash),\n            getOutputs(typeHash)\n        );\n    }\n\n    function get(dTypeLib.LangChoices lang, string memory name)\n        view\n        public\n        returns(dTypeLib.dType memory dtype)\n    {\n        bytes32 typeHash = getTypeHash(lang, name);\n        return getByHash(typeHash);\n    }\n\n    function isType(bytes32 typeHash)\n        view\n        public\n        returns(bool isIndeed)\n    {\n        if (typeIndex.length == 0) {\n            return false;\n        }\n        return (typeIndex[typeStruct[typeHash].index] == typeHash);\n    }\n\n    function getOptionals(bytes32 typeHash) view public returns (dTypesLib.dTypes[] memory optionalValues) {\n        return optionals[typeHash];\n    }\n\n    function getOutputs(bytes32 typeHash) view public returns (dTypesLib.dTypes[] memory outputValues) {\n        return outputs[typeHash];\n    }\n\n    function getByIndex(uint256 index)\n        view\n        public\n        returns(dTypeLib.dType memory dtype, bytes32 typeHash)\n    {\n        require(index <= typeIndex.length, 'Index too big.');\n        return (getByHash(typeIndex[index]), typeIndex[index]);\n    }\n\n    function checkTypesExist(dTypeLib.LangChoices lang, dTypesLib.dTypes[] memory types)\n        view\n        public\n    {\n        for (uint256 i = 0 ; i < types.length; i++) {\n            require(\n                isType(getTypeHash(lang, types[i].name)),\n                'A type in the composition does not exists'\n            );\n            require(bytes(types[i].name).length > 0, 'Empty type name');\n            require(bytes(types[i].label).length > 0, 'Empty label name');\n        }\n    }\n\n    function getTypeSignature(bytes32 typeHash)\n        view\n        public\n        returns(string memory typeSignature)\n    {\n        return string(getEncodedTypes(typeStruct[typeHash]));\n    }\n\n    function getEncodedType(dTypeLib.LangChoices lang, string memory name, string[] memory dimensions)\n        view\n        public\n        returns(bytes memory encoded)\n    {\n        Type storage dtype = typeStruct[getTypeHash(lang, name)];\n\n        if (dtype.data.types.length == 0) {\n            encoded = abi.encodePacked(dtype.data.name);\n            return abi.encodePacked(encoded, typeDimensionsToString(dimensions));\n        }\n\n        encoded = getEncodedTypes(dtype);\n        encoded = abi.encodePacked('(', encoded, ')');\n        encoded = abi.encodePacked(encoded, typeDimensionsToString(dimensions));\n    }\n\n    function typeDimensionsToString(string[] memory dimensions)\n        pure\n        public\n        returns(bytes memory encoded)\n    {\n        for (uint256 i = 0; i < dimensions.length; i++) {\n            encoded = abi.encodePacked(encoded, '[', dimensions[i], ']');\n        }\n    }\n\n    function getEncodedTypes(Type storage dtype)\n        view\n        internal\n        returns(bytes memory encoded)\n    {\n        uint256 length = dtype.data.types.length;\n        dTypesLib.dTypes[] storage typeOptionals = optionals[typeIndex[dtype.index]];\n        uint256 lengthOpt = typeOptionals.length;\n\n        for (uint256 i = 0; i < length; i++) {\n            encoded = abi.encodePacked(\n                encoded,\n                getEncodedType(\n                    dtype.data.lang,\n                    dtype.data.types[i].name,\n                    dtype.data.types[i].dimensions\n                )\n            );\n            if (i < length - 1 || lengthOpt > 0) {\n                encoded = abi.encodePacked(encoded, ',');\n            }\n        }\n\n        for (uint256 i = 0; i < lengthOpt; i++) {\n            encoded = abi.encodePacked(\n                encoded,\n                getEncodedType(\n                    dtype.data.lang,\n                    typeOptionals[i].name,\n                    typeOptionals[i].dimensions\n                )\n            );\n            if (i < lengthOpt - 1) {\n                encoded = abi.encodePacked(encoded, ',');\n            }\n        }\n    }\n\n    function getSignatureFull(bytes32 typeHash)\n        view\n        public\n        returns (bytes memory signature)\n    {\n        Type storage dtype = typeStruct[typeHash];\n        bytes memory encoded;\n        uint256 length = dtype.data.types.length;\n        uint256 lengthOpt = optionals[typeHash].length;\n\n        for (uint256 i = 0; i < length; i++)  {\n            // TODO fix this quick fix for encoding multiple function inputs\n            string memory name = dtype.data.types[i].name;\n            if (dtype.data.types[i].relation == dTypesLib.dTypeRelation.Bytes) {\n                name = 'bytes';\n            }\n            encoded = abi.encodePacked(\n                encoded,\n                getEncodedType(\n                    dtype.data.lang,\n                    name,\n                    dtype.data.types[i].dimensions\n                )\n            );\n            if (i < length - 1 || lengthOpt > 0) {\n                encoded = abi.encodePacked(encoded, ',');\n            }\n        }\n\n        encoded = abi.encodePacked(dtype.data.name, '(', encoded, ')');\n        return encoded;\n    }\n\n    function getSignature(bytes32 typeHash)\n        view\n        public\n        returns (bytes4 signature)\n    {\n        return bytes4(keccak256(getSignatureFull(typeHash)));\n    }\n\n    function run(bytes32 funcHash, bytes32[] memory inDataHash, bytes memory freeInputs)\n        public\n        returns(bytes32 outDataHash)\n    {\n        bytes memory outputData = runView(funcHash, inDataHash, freeInputs);\n        Type storage dtype = typeStruct[funcHash];\n\n        // Inserting the funcHash outputs into the corresponding type storage\n        bytes32 outputHash = getTypeHash(dtype.data.lang, outputs[funcHash][0].name);\n        (bool success2, bytes memory result) =  typeStruct[outputHash].data.contractAddress.call(\n            abi.encodeWithSignature('insertBytes(bytes)', outputData)\n        );\n        require(success2 == true, 'Inserting output failed');\n\n        return abi.decode(result, (bytes32));\n    }\n\n    function run(bytes32 funcHash, bytes32[] memory inDataHash, bytes memory freeInputs, bytes memory signature)\n        public\n        returns(bytes32 outDataHash)\n    {\n        address senderAddress = recoverAddress(freeInputs, signature);\n\n        freeInputs = abi.encodePacked(freeInputs, abi.encode(senderAddress));\n        return run(funcHash, inDataHash, freeInputs);\n    }\n\n    function pipeView(bytes32[] memory inDataHash, bytes32[] memory funcHash, bytes memory freeInputs)\n        public\n        view\n        returns(bytes memory result)\n    {\n        result = getPackedInputs(typeStruct[funcHash[0]], inDataHash, freeInputs);\n\n        for (uint256 i = 0; i < funcHash.length; i++) {\n            Type storage dtype = typeStruct[funcHash[i]];\n            result = runViewRaw(funcHash[i], dtype, result);\n        }\n        return result;\n    }\n\n    function runView(bytes32 funcHash, bytes32[] memory inDataHash, bytes memory freeInputs)\n        public\n        view\n        returns(bytes memory result)\n    {\n        Type storage dtype = typeStruct[funcHash];\n        return runViewRaw(\n            funcHash,\n            dtype,\n            getPackedInputs(dtype, inDataHash, freeInputs)\n        );\n    }\n\n    function runViewRaw(\n        bytes32 funcHash,\n        Type storage dtype,\n        bytes memory inputs\n    )\n        private\n        view\n        returns(bytes memory outputData)\n    {\n        inputs = abi.encodePacked(getSignature(funcHash), inputs);\n\n        // Calling the function determined by funcHash\n        (bool success, bytes memory result) = dtype.data.contractAddress.staticcall(inputs);\n        require(success == true, 'Running function failed');\n\n        return result;\n    }\n\n    function getPackedInputs(Type storage dtype, bytes32[] memory inDataHash, bytes memory freeInputs) private view returns(bytes memory inputs) {\n        // require(inDataHash.length == dtype.data.types.length, 'Incorrect number of inputs');\n\n        uint256 length = inDataHash.length;\n\n        // Retrieve inputs for calling the function at funcHash\n        for (uint256 i = 0; i < length; i++) {\n            bytes32 typeHash = getTypeHash(dtype.data.lang, dtype.data.types[i].name);\n            Type storage ttype = typeStruct[typeHash];\n\n            (bool success, bytes memory inputData) = ttype.data.contractAddress.staticcall(\n                abi.encodeWithSignature('getByHash(bytes32)', inDataHash[i])\n            );\n            require(success == true, 'Retrieving input failed');\n\n            // TODO - assembly-based abi encoding, merging inputs\n            inputs = abi.encodePacked(inputs, inputData);\n        }\n        // TODO temporary fix\n        if (freeInputs.length > 0 && dtype.data.types[0].relation == dTypesLib.dTypeRelation.Bytes) {\n            // this is what should be used\n            inputs = abi.encode(inputs, freeInputs);\n        } else {\n            // we need this for voting, needs fixing\n            inputs = abi.encodePacked(inputs, freeInputs);\n        }\n    }\n\n    function recoverAddress(bytes memory data, bytes memory signature) private pure returns(address senderAddress) {\n        // TODO fix signature security\n        // chain_id, some identifiers for the purpose of the function\n        // ideally a nonce (tx.nonce ftw!);\n        senderAddress = ECVerify.ecverify(keccak256(data), signature);\n    }\n}\n",
  "sourcePath": "/Users/loredana/ETH/dType/contracts/contracts/dType.sol",
  "compiler": {
    "name": "solc",
    "version": "0.5.7+commit.6da8b019.Emscripten.clang"
  },
  "schemaVersion": "3.0.11",
  "updatedAt": "2019-07-28T12:59:04.131Z",
  "devdoc": {
    "methods": {}
  },
  "userdoc": {
    "methods": {}
  }
}