{
  "contractName": "FileTypeStorage",
  "abi": [
    {
      "constant": true,
      "inputs": [],
      "name": "count",
      "outputs": [
        {
          "name": "counter",
          "type": "uint256"
        }
      ],
      "payable": false,
      "stateMutability": "view",
      "type": "function"
    },
    {
      "constant": true,
      "inputs": [
        {
          "name": "",
          "type": "bytes32"
        }
      ],
      "name": "typeStruct",
      "outputs": [
        {
          "components": [
            {
              "components": [
                {
                  "name": "name",
                  "type": "string"
                },
                {
                  "name": "extension",
                  "type": "uint8"
                },
                {
                  "components": [
                    {
                      "name": "protocol",
                      "type": "uint8"
                    },
                    {
                      "name": "filehash",
                      "type": "bytes32"
                    }
                  ],
                  "name": "swarm",
                  "type": "tuple"
                },
                {
                  "components": [
                    {
                      "name": "protocol",
                      "type": "uint8"
                    },
                    {
                      "name": "filehash",
                      "type": "bytes32"
                    }
                  ],
                  "name": "ipfs",
                  "type": "tuple"
                },
                {
                  "components": [
                    {
                      "name": "uri",
                      "type": "string"
                    }
                  ],
                  "name": "uri",
                  "type": "tuple"
                }
              ],
              "name": "pointer",
              "type": "tuple"
            },
            {
              "name": "parentKey",
              "type": "bytes32"
            }
          ],
          "name": "data",
          "type": "tuple"
        },
        {
          "name": "index",
          "type": "uint256"
        }
      ],
      "payable": false,
      "stateMutability": "view",
      "type": "function"
    },
    {
      "constant": true,
      "inputs": [
        {
          "name": "",
          "type": "uint256"
        }
      ],
      "name": "typeIndex",
      "outputs": [
        {
          "name": "",
          "type": "bytes32"
        }
      ],
      "payable": false,
      "stateMutability": "view",
      "type": "function"
    },
    {
      "constant": true,
      "inputs": [
        {
          "name": "",
          "type": "bytes32"
        },
        {
          "name": "",
          "type": "address"
        }
      ],
      "name": "inreview",
      "outputs": [
        {
          "components": [
            {
              "name": "name",
              "type": "string"
            },
            {
              "name": "extension",
              "type": "uint8"
            },
            {
              "components": [
                {
                  "name": "protocol",
                  "type": "uint8"
                },
                {
                  "name": "filehash",
                  "type": "bytes32"
                }
              ],
              "name": "swarm",
              "type": "tuple"
            },
            {
              "components": [
                {
                  "name": "protocol",
                  "type": "uint8"
                },
                {
                  "name": "filehash",
                  "type": "bytes32"
                }
              ],
              "name": "ipfs",
              "type": "tuple"
            },
            {
              "components": [
                {
                  "name": "uri",
                  "type": "string"
                }
              ],
              "name": "uri",
              "type": "tuple"
            }
          ],
          "name": "pointer",
          "type": "tuple"
        },
        {
          "name": "parentKey",
          "type": "bytes32"
        }
      ],
      "payable": false,
      "stateMutability": "view",
      "type": "function"
    },
    {
      "constant": true,
      "inputs": [
        {
          "name": "",
          "type": "bytes32"
        },
        {
          "name": "",
          "type": "uint256"
        }
      ],
      "name": "filesPerFolder",
      "outputs": [
        {
          "name": "",
          "type": "bytes32"
        }
      ],
      "payable": false,
      "stateMutability": "view",
      "type": "function"
    },
    {
      "anonymous": false,
      "inputs": [
        {
          "indexed": true,
          "name": "hash",
          "type": "bytes32"
        },
        {
          "indexed": true,
          "name": "index",
          "type": "uint256"
        }
      ],
      "name": "LogNew",
      "type": "event"
    },
    {
      "anonymous": false,
      "inputs": [
        {
          "indexed": true,
          "name": "hash",
          "type": "bytes32"
        },
        {
          "indexed": true,
          "name": "index",
          "type": "uint256"
        }
      ],
      "name": "LogUpdate",
      "type": "event"
    },
    {
      "anonymous": false,
      "inputs": [
        {
          "indexed": true,
          "name": "hash",
          "type": "bytes32"
        },
        {
          "indexed": true,
          "name": "index",
          "type": "uint256"
        }
      ],
      "name": "LogRemove",
      "type": "event"
    },
    {
      "anonymous": false,
      "inputs": [
        {
          "indexed": true,
          "name": "hash",
          "type": "bytes32"
        },
        {
          "indexed": true,
          "name": "proponent",
          "type": "address"
        }
      ],
      "name": "LogNewReview",
      "type": "event"
    },
    {
      "anonymous": false,
      "inputs": [
        {
          "indexed": true,
          "name": "hash",
          "type": "bytes32"
        },
        {
          "indexed": true,
          "name": "proponent",
          "type": "address"
        }
      ],
      "name": "LogUpdateReview",
      "type": "event"
    },
    {
      "anonymous": false,
      "inputs": [
        {
          "indexed": true,
          "name": "hash",
          "type": "bytes32"
        },
        {
          "indexed": true,
          "name": "proponent",
          "type": "address"
        }
      ],
      "name": "LogRemoveReview",
      "type": "event"
    },
    {
      "anonymous": false,
      "inputs": [
        {
          "indexed": true,
          "name": "hash",
          "type": "bytes32"
        },
        {
          "indexed": true,
          "name": "proponent",
          "type": "address"
        }
      ],
      "name": "LogAccepted",
      "type": "event"
    },
    {
      "anonymous": false,
      "inputs": [
        {
          "indexed": true,
          "name": "hash",
          "type": "bytes32"
        },
        {
          "indexed": true,
          "name": "proponent",
          "type": "address"
        }
      ],
      "name": "LogDismissed",
      "type": "event"
    },
    {
      "constant": false,
      "inputs": [
        {
          "components": [
            {
              "components": [
                {
                  "name": "name",
                  "type": "string"
                },
                {
                  "name": "extension",
                  "type": "uint8"
                },
                {
                  "components": [
                    {
                      "name": "protocol",
                      "type": "uint8"
                    },
                    {
                      "name": "filehash",
                      "type": "bytes32"
                    }
                  ],
                  "name": "swarm",
                  "type": "tuple"
                },
                {
                  "components": [
                    {
                      "name": "protocol",
                      "type": "uint8"
                    },
                    {
                      "name": "filehash",
                      "type": "bytes32"
                    }
                  ],
                  "name": "ipfs",
                  "type": "tuple"
                },
                {
                  "components": [
                    {
                      "name": "uri",
                      "type": "string"
                    }
                  ],
                  "name": "uri",
                  "type": "tuple"
                }
              ],
              "name": "pointer",
              "type": "tuple"
            },
            {
              "name": "parentKey",
              "type": "bytes32"
            },
            {
              "name": "filesPerFolder",
              "type": "bytes32[]"
            }
          ],
          "name": "data",
          "type": "tuple"
        }
      ],
      "name": "insert",
      "outputs": [
        {
          "name": "hash",
          "type": "bytes32"
        }
      ],
      "payable": false,
      "stateMutability": "nonpayable",
      "type": "function"
    },
    {
      "constant": false,
      "inputs": [
        {
          "name": "proponent",
          "type": "address"
        },
        {
          "name": "rawdata",
          "type": "bytes"
        }
      ],
      "name": "insertReview",
      "outputs": [
        {
          "name": "hash",
          "type": "bytes32"
        }
      ],
      "payable": false,
      "stateMutability": "nonpayable",
      "type": "function"
    },
    {
      "constant": false,
      "inputs": [
        {
          "name": "typeHash",
          "type": "bytes32"
        },
        {
          "name": "fileHash",
          "type": "bytes32"
        }
      ],
      "name": "addFile",
      "outputs": [],
      "payable": false,
      "stateMutability": "nonpayable",
      "type": "function"
    },
    {
      "constant": false,
      "inputs": [
        {
          "name": "typeHash",
          "type": "bytes32"
        },
        {
          "name": "fileRefs",
          "type": "bytes32[]"
        }
      ],
      "name": "setFiles",
      "outputs": [],
      "payable": false,
      "stateMutability": "nonpayable",
      "type": "function"
    },
    {
      "constant": false,
      "inputs": [
        {
          "name": "data",
          "type": "bytes"
        }
      ],
      "name": "insertBytes",
      "outputs": [
        {
          "name": "hasho",
          "type": "bytes32"
        }
      ],
      "payable": false,
      "stateMutability": "nonpayable",
      "type": "function"
    },
    {
      "constant": false,
      "inputs": [
        {
          "name": "hash",
          "type": "bytes32"
        }
      ],
      "name": "remove",
      "outputs": [
        {
          "name": "index",
          "type": "uint256"
        }
      ],
      "payable": false,
      "stateMutability": "nonpayable",
      "type": "function"
    },
    {
      "constant": false,
      "inputs": [
        {
          "name": "proponent",
          "type": "address"
        },
        {
          "name": "hash",
          "type": "bytes32"
        }
      ],
      "name": "removeReview",
      "outputs": [],
      "payable": false,
      "stateMutability": "nonpayable",
      "type": "function"
    },
    {
      "constant": false,
      "inputs": [
        {
          "components": [
            {
              "components": [
                {
                  "name": "name",
                  "type": "string"
                },
                {
                  "name": "extension",
                  "type": "uint8"
                },
                {
                  "components": [
                    {
                      "name": "protocol",
                      "type": "uint8"
                    },
                    {
                      "name": "filehash",
                      "type": "bytes32"
                    }
                  ],
                  "name": "swarm",
                  "type": "tuple"
                },
                {
                  "components": [
                    {
                      "name": "protocol",
                      "type": "uint8"
                    },
                    {
                      "name": "filehash",
                      "type": "bytes32"
                    }
                  ],
                  "name": "ipfs",
                  "type": "tuple"
                },
                {
                  "components": [
                    {
                      "name": "uri",
                      "type": "string"
                    }
                  ],
                  "name": "uri",
                  "type": "tuple"
                }
              ],
              "name": "pointer",
              "type": "tuple"
            },
            {
              "name": "parentKey",
              "type": "bytes32"
            },
            {
              "name": "filesPerFolder",
              "type": "bytes32[]"
            }
          ],
          "name": "data",
          "type": "tuple"
        }
      ],
      "name": "update",
      "outputs": [
        {
          "name": "hash",
          "type": "bytes32"
        }
      ],
      "payable": false,
      "stateMutability": "nonpayable",
      "type": "function"
    },
    {
      "constant": false,
      "inputs": [
        {
          "name": "proponent",
          "type": "address"
        },
        {
          "name": "rawdata",
          "type": "bytes"
        }
      ],
      "name": "updateReview",
      "outputs": [
        {
          "name": "hash",
          "type": "bytes32"
        }
      ],
      "payable": false,
      "stateMutability": "nonpayable",
      "type": "function"
    },
    {
      "constant": false,
      "inputs": [
        {
          "name": "proponent",
          "type": "address"
        },
        {
          "name": "hash",
          "type": "bytes32"
        }
      ],
      "name": "accept",
      "outputs": [],
      "payable": false,
      "stateMutability": "nonpayable",
      "type": "function"
    },
    {
      "constant": false,
      "inputs": [
        {
          "name": "proponent",
          "type": "address"
        },
        {
          "name": "hash",
          "type": "bytes32"
        }
      ],
      "name": "dismiss",
      "outputs": [],
      "payable": false,
      "stateMutability": "nonpayable",
      "type": "function"
    },
    {
      "constant": true,
      "inputs": [
        {
          "name": "hash",
          "type": "bytes32"
        }
      ],
      "name": "isStored",
      "outputs": [
        {
          "name": "isIndeed",
          "type": "bool"
        }
      ],
      "payable": false,
      "stateMutability": "view",
      "type": "function"
    },
    {
      "constant": true,
      "inputs": [
        {
          "name": "hash",
          "type": "bytes32"
        }
      ],
      "name": "getByHash",
      "outputs": [
        {
          "components": [
            {
              "components": [
                {
                  "name": "name",
                  "type": "string"
                },
                {
                  "name": "extension",
                  "type": "uint8"
                },
                {
                  "components": [
                    {
                      "name": "protocol",
                      "type": "uint8"
                    },
                    {
                      "name": "filehash",
                      "type": "bytes32"
                    }
                  ],
                  "name": "swarm",
                  "type": "tuple"
                },
                {
                  "components": [
                    {
                      "name": "protocol",
                      "type": "uint8"
                    },
                    {
                      "name": "filehash",
                      "type": "bytes32"
                    }
                  ],
                  "name": "ipfs",
                  "type": "tuple"
                },
                {
                  "components": [
                    {
                      "name": "uri",
                      "type": "string"
                    }
                  ],
                  "name": "uri",
                  "type": "tuple"
                }
              ],
              "name": "pointer",
              "type": "tuple"
            },
            {
              "name": "parentKey",
              "type": "bytes32"
            },
            {
              "name": "filesPerFolder",
              "type": "bytes32[]"
            }
          ],
          "name": "data",
          "type": "tuple"
        }
      ],
      "payable": false,
      "stateMutability": "view",
      "type": "function"
    },
    {
      "constant": true,
      "inputs": [
        {
          "name": "typeHash",
          "type": "bytes32"
        }
      ],
      "name": "getFiles",
      "outputs": [
        {
          "name": "fileRefs",
          "type": "bytes32[]"
        }
      ],
      "payable": false,
      "stateMutability": "view",
      "type": "function"
    }
  ],
  "bytecode": "0x608060405234801561001057600080fd5b50613e7b806100206000396000f3fe608060405234801561001057600080fd5b50600436106101215760003560e01c806382212a6e116100ad578063c5c90ca211610071578063c5c90ca21461037a578063d7987ea514610396578063e68e5ece146103c6578063ec480c9e146103e2578063eda8d5f31461041257610121565b806382212a6e1461028a57806395bc2673146102ba578063a22b5a1c146102ea578063a2dd3d471461031a578063b41b64d71461034a57610121565b80634f256693116100f45780634f256693146101c0578063668414a4146101dc5780636da5c5721461020d5780637460e31114610229578063805f8db11461025957610121565b806306661abd14610126578063133f5e46146101445780632d6a1da7146101745780633f42aeab14610190575b600080fd5b61012e610442565b60405161013b9190613b1c565b60405180910390f35b61015e60048036036101599190810190613059565b61044e565b60405161016b9190613964565b60405180910390f35b61018e60048036036101899190810190612e2e565b6104ea565b005b6101aa60048036036101a59190810190612ebe565b6106ac565b6040516101b79190613949565b60405180910390f35b6101da60048036036101d59190810190612fa0565b6106fc565b005b6101f660048036036101f19190810190612ebe565b6107cf565b604051610204929190613aa8565b60405180910390f35b61022760048036036102229190810190612f4c565b610a26565b005b610243600480360361023e91908101906130db565b610a64565b6040516102509190613964565b60405180910390f35b610273600480360361026e9190810190612f10565b610a85565b604051610281929190613a41565b60405180910390f35b6102a4600480360361029f9190810190612e6a565b610ccb565b6040516102b19190613964565b60405180910390f35b6102d460048036036102cf9190810190612ebe565b610fa1565b6040516102e19190613b1c565b60405180910390f35b61030460048036036102ff9190810190612ebe565b611191565b6040516103119190613927565b60405180910390f35b610334600480360361032f9190810190612ebe565b6111fc565b6040516103419190613ad8565b60405180910390f35b610364600480360361035f9190810190613059565b6114ec565b6040516103719190613964565b60405180910390f35b610394600480360361038f9190810190612e2e565b611590565b005b6103b060048036036103ab9190810190613018565b611713565b6040516103bd9190613964565b60405180910390f35b6103e060048036036103db9190810190612e2e565b6117b0565b005b6103fc60048036036103f79190810190612fdc565b611ef2565b6040516104099190613964565b60405180910390f35b61042c60048036036104279190810190612e6a565b611f20565b6040516104399190613964565b60405180910390f35b60008080549050905090565b60008173__FileTypeLib___________________________639008a32590916040518263ffffffff1660e01b81526004016104899190613afa565b60206040518083038186803b1580156104a157600080fd5b505af41580156104b5573d6000803e3d6000fd5b505050506040513d601f19601f820116820180604052506104d99190810190612ee7565b90506104e581836121f6565b919050565b6104f3816111fc565b6003600083815260200190815260200160002060008473ffffffffffffffffffffffffffffffffffffffff1673ffffffffffffffffffffffffffffffffffffffff1681526020019081526020016000206000820151816000016000820151816000019080519060200190610568929190612404565b5060208201518160010160006101000a81548160ff021916908360ff16021790555060408201518160020160008201518160000160006101000a81548160ff021916908360018111156105b757fe5b021790555060208201518160010155505060608201518160040160008201518160000160006101000a81548160ff021916908360008111156105f557fe5b0217905550602082015181600101555050608082015181600601600082015181600001908051906020019061062b929190612404565b5050505050602082015181600701556040820151816008019080519060200190610656929190612484565b5090505061066381610fa1565b508173ffffffffffffffffffffffffffffffffffffffff16817f9628b550948823f52c98e0c5ce060ed9fa198c73cf95579aaad214e67c17fbe160405160405180910390a35050565b60008060008054905014156106c457600090506106f7565b8160006001600085815260200190815260200160002060080154815481106106e857fe5b90600052602060002001541490505b919050565b81610706816106ac565b610745576040517f08c379a000000000000000000000000000000000000000000000000000000000815260040161073c906139c1565b60405180910390fd5b61074e826106ac565b61078d576040517f08c379a000000000000000000000000000000000000000000000000000000000815260040161078490613a01565b60405180910390fd5b60026000848152602001908152602001600020829080600181540180825580915050906001820390600052602060002001600090919290919091505550505050565b600160205280600052604060002060009150905080600001604051806040016040529081600082016040518060a0016040529081600082018054600181600116156101000203166002900480601f01602080910402602001604051908101604052809291908181526020018280546001816001161561010002031660029004801561089b5780601f106108705761010080835404028352916020019161089b565b820191906000526020600020905b81548152906001019060200180831161087e57829003601f168201915b505050505081526020016001820160009054906101000a900460ff1660ff1660ff168152602001600282016040518060400160405290816000820160009054906101000a900460ff1660018111156108ef57fe5b60018111156108fa57fe5b81526020016001820154815250508152602001600482016040518060400160405290816000820160009054906101000a900460ff16600081111561093a57fe5b600081111561094557fe5b8152602001600182015481525050815260200160068201604051806020016040529081600082018054600181600116156101000203166002900480601f016020809104026020016040519081016040528092919081815260200182805460018160011615610100020316600290048015610a005780601f106109d557610100808354040283529160200191610a00565b820191906000526020600020905b8154815290600101906020018083116109e357829003601f168201915b505050505081525050815250508152602001600782015481525050908060080154905082565b60008090505b8151811015610a5f57610a5283838381518110610a4557fe5b60200260200101516106fc565b8080600101915050610a2c565b505050565b60008181548110610a7157fe5b906000526020600020016000915090505481565b600360205281600052604060002060205280600052604060002060009150915050806000016040518060a0016040529081600082018054600181600116156101000203166002900480601f016020809104026020016040519081016040528092919081815260200182805460018160011615610100020316600290048015610b4e5780601f10610b2357610100808354040283529160200191610b4e565b820191906000526020600020905b815481529060010190602001808311610b3157829003601f168201915b505050505081526020016001820160009054906101000a900460ff1660ff1660ff168152602001600282016040518060400160405290816000820160009054906101000a900460ff166001811115610ba257fe5b6001811115610bad57fe5b81526020016001820154815250508152602001600482016040518060400160405290816000820160009054906101000a900460ff166000811115610bed57fe5b6000811115610bf857fe5b8152602001600182015481525050815260200160068201604051806020016040529081600082018054600181600116156101000203166002900480601f016020809104026020016040519081016040528092919081815260200182805460018160011615610100020316600290048015610cb35780601f10610c8857610100808354040283529160200191610cb3565b820191906000526020600020905b815481529060010190602001808311610c9657829003601f168201915b50505050508152505081525050908060070154905082565b6000610cd56124d1565b73__FileTypeLib___________________________63b3718ad0846040518263ffffffff1660e01b8152600401610d0c919061397f565b60006040518083038186803b158015610d2457600080fd5b505af4158015610d38573d6000803e3d6000fd5b505050506040513d6000823e3d601f19601f82011682018060405250610d61919081019061309a565b90508073__FileTypeLib___________________________639008a32590916040518263ffffffff1660e01b8152600401610d9c9190613afa565b60206040518083038186803b158015610db457600080fd5b505af4158015610dc8573d6000803e3d6000fd5b505050506040513d601f19601f82011682018060405250610dec9190810190612ee7565b9150806003600084815260200190815260200160002060008673ffffffffffffffffffffffffffffffffffffffff1673ffffffffffffffffffffffffffffffffffffffff1681526020019081526020016000206000820151816000016000820151816000019080519060200190610e64929190612404565b5060208201518160010160006101000a81548160ff021916908360ff16021790555060408201518160020160008201518160000160006101000a81548160ff02191690836001811115610eb357fe5b021790555060208201518160010155505060608201518160040160008201518160000160006101000a81548160ff02191690836000811115610ef157fe5b02179055506020820151816001015550506080820151816006016000820151816000019080519060200190610f27929190612404565b5050505050602082015181600701556040820151816008019080519060200190610f52929190612484565b509050508373ffffffffffffffffffffffffffffffffffffffff16827f5d39bf2ac374858ce5bb47e18fc1e17a95b9874fb316a45098ddf58060475cc260405160405180910390a35092915050565b6000610fac826106ac565b610feb576040517f08c379a0000000000000000000000000000000000000000000000000000000008152600401610fe2906139e1565b60405180910390fd5b6000600160008481526020019081526020016000206008015490506000806001600080549050038154811061101c57fe5b90600052602060002001549050806000838154811061103757fe5b9060005260206000200181905550816001600083815260200190815260200160002060080181905550600080548091906001900361107591906124fc565b506001600085815260200190815260200160002060008082016000808201600080820160006110a49190612528565b6001820160006101000a81549060ff021916905560028201600080820160006101000a81549060ff02191690556001820160009055505060048201600080820160006101000a81549060ff02191690556001820160009055505060068201600080820160006111139190612528565b50505050600782016000905550506008820160009055505081847f7aba1b7c67426c7ad78ea21a678946741a0c8795e99fa106728122a461e33cbc60405160405180910390a381817f486e2c79f26b56bb920c18e856915eb5e2922e2814cce03da8892d08cce6419760405160405180910390a38192505050919050565b6060600260008381526020019081526020016000208054806020026020016040519081016040528092919081815260200182805480156111f057602002820191906000526020600020905b8154815260200190600101908083116111dc575b50505050509050919050565b6112046124d1565b60016000838152602001908152602001600020600001604051806040016040529081600082016040518060a0016040529081600082018054600181600116156101000203166002900480601f0160208091040260200160405190810160405280929190818152602001828054600181600116156101000203166002900480156112ce5780601f106112a3576101008083540402835291602001916112ce565b820191906000526020600020905b8154815290600101906020018083116112b157829003601f168201915b505050505081526020016001820160009054906101000a900460ff1660ff1660ff168152602001600282016040518060400160405290816000820160009054906101000a900460ff16600181111561132257fe5b600181111561132d57fe5b81526020016001820154815250508152602001600482016040518060400160405290816000820160009054906101000a900460ff16600081111561136d57fe5b600081111561137857fe5b8152602001600182015481525050815260200160068201604051806020016040529081600082018054600181600116156101000203166002900480601f0160208091040260200160405190810160405280929190818152602001828054600181600116156101000203166002900480156114335780601f1061140857610100808354040283529160200191611433565b820191906000526020600020905b81548152906001019060200180831161141657829003601f168201915b50505050508152505081525050815260200160078201548152505073__FileTypeLib___________________________63a5e2498c909161147385611191565b6040518363ffffffff1660e01b8152600401611490929190613a71565b60006040518083038186803b1580156114a857600080fd5b505af41580156114bc573d6000803e3d6000fd5b505050506040513d6000823e3d601f19601f820116820180604052506114e5919081019061309a565b9050919050565b600061157f8273__FileTypeLib___________________________639008a32590916040518263ffffffff1660e01b815260040161152a9190613afa565b60206040518083038186803b15801561154257600080fd5b505af4158015611556573d6000803e3d6000fd5b505050506040513d601f19601f8201168201806040525061157a9190810190612ee7565b610fa1565b506115898261044e565b9050919050565b611599816106ac565b6115d8576040517f08c379a00000000000000000000000000000000000000000000000000000000081526004016115cf90613a21565b60405180910390fd5b6003600082815260200190815260200160002060008373ffffffffffffffffffffffffffffffffffffffff1673ffffffffffffffffffffffffffffffffffffffff16815260200190815260200160002060008082016000808201600061163e9190612528565b6001820160006101000a81549060ff021916905560028201600080820160006101000a81549060ff02191690556001820160009055505060048201600080820160006101000a81549060ff02191690556001820160009055505060068201600080820160006116ad9190612528565b5050505060078201600090556008820160006116c99190612570565b50508173ffffffffffffffffffffffffffffffffffffffff16817f20a76b6d1c45b6139963859819ecbe4728776ad793bbbd9c6e9c302c88b6f2b260405160405180910390a35050565b60006117a973__FileTypeLib___________________________63b3718ad0846040518263ffffffff1660e01b815260040161174f919061397f565b60006040518083038186803b15801561176757600080fd5b505af415801561177b573d6000803e3d6000fd5b505050506040513d6000823e3d601f19601f820116820180604052506117a4919081019061309a565b61044e565b9050919050565b6117b9816106ac565b611ab3576117c56124d1565b6003600083815260200190815260200160002060008473ffffffffffffffffffffffffffffffffffffffff1673ffffffffffffffffffffffffffffffffffffffff168152602001908152602001600020604051806060016040529081600082016040518060a0016040529081600082018054600181600116156101000203166002900480601f0160208091040260200160405190810160405280929190818152602001828054600181600116156101000203166002900480156118c95780601f1061189e576101008083540402835291602001916118c9565b820191906000526020600020905b8154815290600101906020018083116118ac57829003601f168201915b505050505081526020016001820160009054906101000a900460ff1660ff1660ff168152602001600282016040518060400160405290816000820160009054906101000a900460ff16600181111561191d57fe5b600181111561192857fe5b81526020016001820154815250508152602001600482016040518060400160405290816000820160009054906101000a900460ff16600081111561196857fe5b600081111561197357fe5b8152602001600182015481525050815260200160068201604051806020016040529081600082018054600181600116156101000203166002900480601f016020809104026020016040519081016040528092919081815260200182805460018160011615610100020316600290048015611a2e5780601f10611a0357610100808354040283529160200191611a2e565b820191906000526020600020905b815481529060010190602001808311611a1157829003601f168201915b5050505050815250508152505081526020016007820154815260200160088201805480602002602001604051908101604052809291908181526020018280548015611a9857602002820191906000526020600020905b815481526020019060010190808311611a84575b5050505050815250509050611aad82826121f6565b50611db7565b611db66003600083815260200190815260200160002060008473ffffffffffffffffffffffffffffffffffffffff1673ffffffffffffffffffffffffffffffffffffffff168152602001908152602001600020604051806060016040529081600082016040518060a0016040529081600082018054600181600116156101000203166002900480601f016020809104026020016040519081016040528092919081815260200182805460018160011615610100020316600290048015611bba5780601f10611b8f57610100808354040283529160200191611bba565b820191906000526020600020905b815481529060010190602001808311611b9d57829003601f168201915b505050505081526020016001820160009054906101000a900460ff1660ff1660ff168152602001600282016040518060400160405290816000820160009054906101000a900460ff166001811115611c0e57fe5b6001811115611c1957fe5b81526020016001820154815250508152602001600482016040518060400160405290816000820160009054906101000a900460ff166000811115611c5957fe5b6000811115611c6457fe5b8152602001600182015481525050815260200160068201604051806020016040529081600082018054600181600116156101000203166002900480601f016020809104026020016040519081016040528092919081815260200182805460018160011615610100020316600290048015611d1f5780601f10611cf457610100808354040283529160200191611d1f565b820191906000526020600020905b815481529060010190602001808311611d0257829003601f168201915b5050505050815250508152505081526020016007820154815260200160088201805480602002602001604051908101604052809291908181526020018280548015611d8957602002820191906000526020600020905b815481526020019060010190808311611d75575b5050505050815250506001600084815260200190815260200160002060000161230590919063ffffffff16565b5b6003600082815260200190815260200160002060008373ffffffffffffffffffffffffffffffffffffffff1673ffffffffffffffffffffffffffffffffffffffff168152602001908152602001600020600080820160008082016000611e1d9190612528565b6001820160006101000a81549060ff021916905560028201600080820160006101000a81549060ff02191690556001820160009055505060048201600080820160006101000a81549060ff0219169055600182016000905550506006820160008082016000611e8c9190612528565b505050506007820160009055600882016000611ea89190612570565b50508173ffffffffffffffffffffffffffffffffffffffff16817f8921b1e93d84708a75deb5426a9fbe285a8fc393a3d6324e0f9eed0d68bf1c3560405160405180910390a35050565b60026020528160005260406000208181548110611f0b57fe5b90600052602060002001600091509150505481565b6000611f2a6124d1565b73__FileTypeLib___________________________63b3718ad0846040518263ffffffff1660e01b8152600401611f61919061397f565b60006040518083038186803b158015611f7957600080fd5b505af4158015611f8d573d6000803e3d6000fd5b505050506040513d6000823e3d601f19601f82011682018060405250611fb6919081019061309a565b90508073__FileTypeLib___________________________639008a32590916040518263ffffffff1660e01b8152600401611ff19190613afa565b60206040518083038186803b15801561200957600080fd5b505af415801561201d573d6000803e3d6000fd5b505050506040513d601f19601f820116820180604052506120419190810190612ee7565b9150806003600084815260200190815260200160002060008673ffffffffffffffffffffffffffffffffffffffff1673ffffffffffffffffffffffffffffffffffffffff16815260200190815260200160002060008201518160000160008201518160000190805190602001906120b9929190612404565b5060208201518160010160006101000a81548160ff021916908360ff16021790555060408201518160020160008201518160000160006101000a81548160ff0219169083600181111561210857fe5b021790555060208201518160010155505060608201518160040160008201518160000160006101000a81548160ff0219169083600081111561214657fe5b0217905550602082015181600101555050608082015181600601600082015181600001908051906020019061217c929190612404565b50505050506020820151816007015560408201518160080190805190602001906121a7929190612484565b509050508373ffffffffffffffffffffffffffffffffffffffff16827ff1f505d9151566c34c5246a7e499607be3703bd9d548dd46d66f738d3416e19f60405160405180910390a35092915050565b6121ff826106ac565b1561223f576040517f08c379a0000000000000000000000000000000000000000000000000000000008152600401612236906139a1565b60405180910390fd5b612267816001600085815260200190815260200160002060000161230590919063ffffffff16565b6001600083908060018154018082558091505090600182039060005260206000200160009091929091909150550360016000848152602001908152602001600020600801819055506122bd828260400151610a26565b6001600083815260200190815260200160002060080154827fb73e84a46ecb312937f7ba29efd91f4d9e74056ac7ef77f3f38e477646dd84d260405160405180910390a35050565b806000015182600001600082015181600001908051906020019061232a929190612404565b5060208201518160010160006101000a81548160ff021916908360ff16021790555060408201518160020160008201518160000160006101000a81548160ff0219169083600181111561237957fe5b021790555060208201518160010155505060608201518160040160008201518160000160006101000a81548160ff021916908360008111156123b757fe5b021790555060208201518160010155505060808201518160060160008201518160000190805190602001906123ed929190612404565b505050905050806020015182600701819055505050565b828054600181600116156101000203166002900490600052602060002090601f016020900481019282601f1061244557805160ff1916838001178555612473565b82800160010185558215612473579182015b82811115612472578251825591602001919060010190612457565b5b5090506124809190612591565b5090565b8280548282559060005260206000209081019282156124c0579160200282015b828111156124bf5782518255916020019190600101906124a4565b5b5090506124cd91906125b6565b5090565b6040518061012001604052806124e56125db565b815260200160008019168152602001606081525090565b8154818355818111156125235781836000526020600020918201910161252291906125b6565b5b505050565b50805460018160011615610100020316600290046000825580601f1061254e575061256d565b601f01602090049060005260206000209081019061256c9190612591565b5b50565b508054600082559060005260206000209081019061258e91906125b6565b50565b6125b391905b808211156125af576000816000905550600101612597565b5090565b90565b6125d891905b808211156125d45760008160009055506001016125bc565b5090565b90565b6040518060e0016040528060608152602001600060ff1681526020016125ff61261f565b815260200161260c612647565b815260200161261961266e565b81525090565b60405180604001604052806000600181111561263757fe5b8152602001600080191681525090565b604051806040016040528060008081111561265e57fe5b8152602001600080191681525090565b6040518060200160405280606081525090565b600061268d8235613d49565b905092915050565b600082601f8301126126a657600080fd5b81356126b96126b482613b64565b613b37565b915081818352602084019350602081019050838560208402820111156126de57600080fd5b60005b8381101561270e57816126f4888261281e565b8452602084019350602083019250506001810190506126e1565b5050505092915050565b600082601f83011261272957600080fd5b815161273c61273782613b64565b613b37565b9150818183526020840193506020810190508385602084028201111561276157600080fd5b60005b8381101561279157816127778882612832565b845260208401935060208301925050600181019050612764565b5050505092915050565b600082601f8301126127ac57600080fd5b81356127bf6127ba82613b8c565b613b37565b915081818352602084019350602081019050838560208402820111156127e457600080fd5b60005b8381101561281457816127fa888261281e565b8452602084019350602083019250506001810190506127e7565b5050505092915050565b600061282a8235613d5b565b905092915050565b600061283e8251613d5b565b905092915050565b600082601f83011261285757600080fd5b813561286a61286582613bb4565b613b37565b9150808252602083016020830185838301111561288657600080fd5b612891838284613dee565b50505092915050565b60006128a68235613d65565b905092915050565b60006128ba8251613d65565b905092915050565b60006128ce8235613d7c565b905092915050565b60006128e28251613d7c565b905092915050565b600082601f8301126128fb57600080fd5b813561290e61290982613be0565b613b37565b9150808252602083016020830185838301111561292a57600080fd5b612935838284613dee565b50505092915050565b600082601f83011261294f57600080fd5b815161296261295d82613be0565b613b37565b9150808252602083016020830185838301111561297e57600080fd5b612989838284613dfd565b50505092915050565b600060e082840312156129a457600080fd5b6129ae60a0613b37565b9050600082013567ffffffffffffffff8111156129ca57600080fd5b6129d6848285016128ea565b60008301525060206129ea84828501612e06565b60208301525060406129fe84828501612cba565b6040830152506080612a1284828501612c22565b60608301525060c082013567ffffffffffffffff811115612a3257600080fd5b612a3e84828501612d52565b60808301525092915050565b600060e08284031215612a5c57600080fd5b612a6660a0613b37565b9050600082015167ffffffffffffffff811115612a8257600080fd5b612a8e8482850161293e565b6000830152506020612aa284828501612e1a565b6020830152506040612ab684828501612d06565b6040830152506080612aca84828501612c6e565b60608301525060c082015167ffffffffffffffff811115612aea57600080fd5b612af684828501612da2565b60808301525092915050565b600060608284031215612b1457600080fd5b612b1e6060613b37565b9050600082013567ffffffffffffffff811115612b3a57600080fd5b612b4684828501612992565b6000830152506020612b5a8482850161281e565b602083015250604082013567ffffffffffffffff811115612b7a57600080fd5b612b8684828501612695565b60408301525092915050565b600060608284031215612ba457600080fd5b612bae6060613b37565b9050600082015167ffffffffffffffff811115612bca57600080fd5b612bd684828501612a4a565b6000830152506020612bea84828501612832565b602083015250604082015167ffffffffffffffff811115612c0a57600080fd5b612c1684828501612718565b60408301525092915050565b600060408284031215612c3457600080fd5b612c3e6040613b37565b90506000612c4e8482850161289a565b6000830152506020612c628482850161281e565b60208301525092915050565b600060408284031215612c8057600080fd5b612c8a6040613b37565b90506000612c9a848285016128ae565b6000830152506020612cae84828501612832565b60208301525092915050565b600060408284031215612ccc57600080fd5b612cd66040613b37565b90506000612ce6848285016128c2565b6000830152506020612cfa8482850161281e565b60208301525092915050565b600060408284031215612d1857600080fd5b612d226040613b37565b90506000612d32848285016128d6565b6000830152506020612d4684828501612832565b60208301525092915050565b600060208284031215612d6457600080fd5b612d6e6020613b37565b9050600082013567ffffffffffffffff811115612d8a57600080fd5b612d96848285016128ea565b60008301525092915050565b600060208284031215612db457600080fd5b612dbe6020613b37565b9050600082015167ffffffffffffffff811115612dda57600080fd5b612de68482850161293e565b60008301525092915050565b6000612dfe8235613db3565b905092915050565b6000612e128235613dbd565b905092915050565b6000612e268251613dbd565b905092915050565b60008060408385031215612e4157600080fd5b6000612e4f85828601612681565b9250506020612e608582860161281e565b9150509250929050565b60008060408385031215612e7d57600080fd5b6000612e8b85828601612681565b925050602083013567ffffffffffffffff811115612ea857600080fd5b612eb485828601612846565b9150509250929050565b600060208284031215612ed057600080fd5b6000612ede8482850161281e565b91505092915050565b600060208284031215612ef957600080fd5b6000612f0784828501612832565b91505092915050565b60008060408385031215612f2357600080fd5b6000612f318582860161281e565b9250506020612f4285828601612681565b9150509250929050565b60008060408385031215612f5f57600080fd5b6000612f6d8582860161281e565b925050602083013567ffffffffffffffff811115612f8a57600080fd5b612f968582860161279b565b9150509250929050565b60008060408385031215612fb357600080fd5b6000612fc18582860161281e565b9250506020612fd28582860161281e565b9150509250929050565b60008060408385031215612fef57600080fd5b6000612ffd8582860161281e565b925050602061300e85828601612df2565b9150509250929050565b60006020828403121561302a57600080fd5b600082013567ffffffffffffffff81111561304457600080fd5b61305084828501612846565b91505092915050565b60006020828403121561306b57600080fd5b600082013567ffffffffffffffff81111561308557600080fd5b61309184828501612b02565b91505092915050565b6000602082840312156130ac57600080fd5b600082015167ffffffffffffffff8111156130c657600080fd5b6130d284828501612b92565b91505092915050565b6000602082840312156130ed57600080fd5b60006130fb84828501612df2565b91505092915050565b600061311083836132ab565b60208301905092915050565b600061312883836132c9565b60208301905092915050565b600061313f82613c31565b6131498185613c7d565b935061315483613c19565b60005b828110156131825761316a868351613104565b955061317582613c5f565b9150600181019050613157565b50849250505092915050565b600061319982613c31565b6131a38185613c8e565b93506131ae83613c19565b60005b828110156131dc576131c486835161311c565b95506131cf82613c5f565b91506001810190506131b1565b50849250505092915050565b60006131f382613c26565b6131fd8185613c6c565b935061320883613c0c565b60005b828110156132365761321e868351613104565b955061322982613c52565b915060018101905061320b565b50849250505092915050565b600061324d82613c26565b6132578185613c9f565b935061326283613c0c565b60005b828110156132905761327886835161311c565b955061328382613c52565b9150600181019050613265565b50849250505092915050565b6132a581613cf4565b82525050565b6132b481613d00565b82525050565b6132c381613d00565b82525050565b6132d281613d00565b82525050565b60006132e382613c3c565b6132ed8185613cb0565b93506132fd818560208601613dfd565b61330681613e30565b840191505092915050565b61331a81613dca565b82525050565b61332981613dca565b82525050565b61333881613ddc565b82525050565b61334781613ddc565b82525050565b600061335882613c47565b6133628185613cc1565b9350613372818560208601613dfd565b61337b81613e30565b840191505092915050565b600061339182613c47565b61339b8185613ce3565b93506133ab818560208601613dfd565b6133b481613e30565b840191505092915050565b60006133cc602683613cd2565b91507f546869732064617461206578697374732e205573652074686520657874616e7460008301527f20646174612e00000000000000000000000000000000000000000000000000006020830152604082019050919050565b6000613432601683613cd2565b91507f4e6f2073756368206461746120696e7365727465642e000000000000000000006000830152602082019050919050565b6000613472601883613cd2565b91507f4e6f742064656c657465643a206e6f7420657874616e742e00000000000000006000830152602082019050919050565b60006134b2602983613cd2565b91507f412066696c6520696e2074686520636f6d706f736974696f6e20646f6573206e60008301527f6f742065786973747300000000000000000000000000000000000000000000006020830152604082019050919050565b6000613518600a83613cd2565b91507f4e6f7420657874616e74000000000000000000000000000000000000000000006000830152602082019050919050565b600060e0830160008301518482036000860152613568828261334d565b915050602083015161357d6020860182613909565b5060408301516135906040860182613848565b5060608301516135a360808601826137ea565b50608083015184820360c08601526135bb82826138a6565b9150508091505092915050565b600060e08301600083015184820360008601526135e5828261334d565b91505060208301516135fa6020860182613909565b50604083015161360d6040860182613848565b50606083015161362060808601826137ea565b50608083015184820360c086015261363882826138a6565b9150508091505092915050565b600060e08301600083015184820360008601526136628282613386565b91505060208301516136776020860182613918565b50604083015161368a6040860182613877565b50606083015161369d6080860182613819565b50608083015184820360c08601526136b582826138d0565b9150508091505092915050565b600060408301600083015184820360008601526136df8282613645565b91505060208301516136f460208601826132c9565b508091505092915050565b6000604083016000830151848203600086015261371c828261354b565b915050602083015161373160208601826132ab565b508091505092915050565b60006060830160008301518482036000860152613759828261354b565b915050602083015161376e60208601826132ab565b506040830151848203604086015261378682826131e8565b9150508091505092915050565b600060608301600083015184820360008601526137b08282613645565b91505060208301516137c560208601826132c9565b50604083015184820360408601526137dd8282613242565b9150508091505092915050565b6040820160008201516138006000850182613311565b50602082015161381360208501826132ab565b50505050565b60408201600082015161382f6000850182613320565b50602082015161384260208501826132c9565b50505050565b60408201600082015161385e600085018261332f565b50602082015161387160208501826132ab565b50505050565b60408201600082015161388d600085018261333e565b5060208201516138a060208501826132c9565b50505050565b600060208301600083015184820360008601526138c3828261334d565b9150508091505092915050565b600060208301600083015184820360008601526138ed8282613386565b9150508091505092915050565b61390381613d32565b82525050565b61391281613d3c565b82525050565b61392181613d3c565b82525050565b600060208201905081810360008301526139418184613134565b905092915050565b600060208201905061395e600083018461329c565b92915050565b600060208201905061397960008301846132ba565b92915050565b6000602082019050818103600083015261399981846132d8565b905092915050565b600060208201905081810360008301526139ba816133bf565b9050919050565b600060208201905081810360008301526139da81613425565b9050919050565b600060208201905081810360008301526139fa81613465565b9050919050565b60006020820190508181036000830152613a1a816134a5565b9050919050565b60006020820190508181036000830152613a3a8161350b565b9050919050565b60006040820190508181036000830152613a5b81856135c8565b9050613a6a60208301846132ba565b9392505050565b60006040820190508181036000830152613a8b81856136c2565b90508181036020830152613a9f818461318e565b90509392505050565b60006040820190508181036000830152613ac281856136ff565b9050613ad160208301846138fa565b9392505050565b60006020820190508181036000830152613af2818461373c565b905092915050565b60006020820190508181036000830152613b148184613793565b905092915050565b6000602082019050613b3160008301846138fa565b92915050565b6000604051905081810181811067ffffffffffffffff82111715613b5a57600080fd5b8060405250919050565b600067ffffffffffffffff821115613b7b57600080fd5b602082029050602081019050919050565b600067ffffffffffffffff821115613ba357600080fd5b602082029050602081019050919050565b600067ffffffffffffffff821115613bcb57600080fd5b601f19601f8301169050602081019050919050565b600067ffffffffffffffff821115613bf757600080fd5b601f19601f8301169050602081019050919050565b6000602082019050919050565b6000602082019050919050565b600081519050919050565b600081519050919050565b600081519050919050565b600081519050919050565b6000602082019050919050565b6000602082019050919050565b600082825260208201905092915050565b600082825260208201905092915050565b600082825260208201905092915050565b600082825260208201905092915050565b600082825260208201905092915050565b600082825260208201905092915050565b600082825260208201905092915050565b600082825260208201905092915050565b60008115159050919050565b6000819050919050565b600060018210613d1657fe5b819050919050565b600060028210613d2a57fe5b819050919050565b6000819050919050565b600060ff82169050919050565b6000613d5482613d93565b9050919050565b6000819050919050565b600060018210613d7457600080fd5b819050919050565b600060028210613d8b57600080fd5b819050919050565b600073ffffffffffffffffffffffffffffffffffffffff82169050919050565b6000819050919050565b600060ff82169050919050565b6000613dd582613d0a565b9050919050565b6000613de782613d1e565b9050919050565b82818337600083830152505050565b60005b83811015613e1b578082015181840152602081019050613e00565b83811115613e2a576000848401525b50505050565b6000601f19601f830116905091905056fea265627a7a7230582018ecb5bdf3d7be6b87a068eaa88449ae8a4b672c5de5de8914e4865787403dfe6c6578706572696d656e74616cf50037",
  "source": "pragma solidity ^0.5.0;\npragma experimental ABIEncoderV2;\n\nimport './FileTypeLib.sol';\nimport '../../StorageBase.sol';\n\ncontract FileTypeStorage is StorageBase {\n    using FileTypeLib for FileTypeLib.FileType;\n    using FileTypeLib for FileTypeLib.FileTypeRequired;\n\n    mapping(bytes32 => Type) public typeStruct;\n\n    // Used for folders, to keep references to their files\n    mapping(bytes32 => bytes32[]) public filesPerFolder;\n\n    mapping(bytes32 => mapping(address => FileTypeLib.FileType)) public inreview;\n\n    struct Type {\n        FileTypeLib.FileTypeRequired data;\n        uint256 index;\n    }\n\n    modifier dataIsStored (bytes32 hash) {\n        require(isStored(hash), \"No such data inserted.\");\n        _;\n    }\n\n    function insert(FileTypeLib.FileType memory data) public returns (bytes32 hash) {\n        hash = data.getDataHash();\n\n        insertPrivate(hash, data);\n    }\n\n    function insertReview(address proponent, bytes memory rawdata) public returns (bytes32 hash) {\n        FileTypeLib.FileType memory data = FileTypeLib.structureBytes(rawdata);\n        hash = data.getDataHash();\n        inreview[hash][proponent] = data;\n        emit LogNewReview(hash, proponent);\n    }\n\n    function addFile(bytes32 typeHash, bytes32 fileHash)\n        dataIsStored(typeHash)\n        public\n    {\n        require(\n            isStored(fileHash),\n            'A file in the composition does not exists'\n        );\n        filesPerFolder[typeHash].push(fileHash);\n    }\n\n    function setFiles(bytes32 typeHash, bytes32[] memory fileRefs) public {\n        for (uint256 i = 0 ; i < fileRefs.length; i++) {\n            addFile(typeHash, fileRefs[i]);\n        }\n    }\n\n    function insertBytes(bytes memory data) public returns (bytes32 hasho) {\n        return insert(FileTypeLib.structureBytes(data));\n    }\n\n    function remove(bytes32 hash) public returns(uint256 index) {\n        if(!isStored(hash)) revert(\"Not deleted: not extant.\");\n\n        uint rowToDelete = typeStruct[hash].index;\n        bytes32 keyToMove = typeIndex[typeIndex.length-1];\n        typeIndex[rowToDelete] = keyToMove;\n        typeStruct[keyToMove].index = rowToDelete;\n        typeIndex.length--;\n\n        delete typeStruct[hash];\n\n        emit LogRemove(hash, rowToDelete);\n        emit LogUpdate(keyToMove, rowToDelete);\n\n        return rowToDelete;\n    }\n\n    function removeReview(address proponent, bytes32 hash) public {\n        require(isStored(hash), 'Not extant');\n\n        // In case there was a previous propoal\n        delete inreview[hash][proponent];\n        emit LogRemoveReview(hash, proponent);\n    }\n\n    function update(FileTypeLib.FileType memory data)\n        public\n        returns(bytes32 hash)\n    {\n        remove(data.getDataHash());\n        return insert(data);\n    }\n\n    function updateReview(address proponent, bytes memory rawdata)\n        public\n        returns(bytes32 hash)\n    {\n        FileTypeLib.FileType memory data = FileTypeLib.structureBytes(rawdata);\n        hash = data.getDataHash();\n        inreview[hash][proponent] = data;\n        emit LogUpdateReview(hash, proponent);\n    }\n\n    function accept(address proponent, bytes32 hash) public {\n        if (!isStored(hash)) {\n            FileTypeLib.FileType memory file = inreview[hash][proponent];\n            insertPrivate(hash, file);\n        } else {\n            typeStruct[hash].data.insert(inreview[hash][proponent]);\n        }\n        delete inreview[hash][proponent];\n        emit LogAccepted(hash, proponent);\n    }\n\n    function dismiss(address proponent, bytes32 hash) public {\n        inreview[hash][proponent] = getByHash(hash);\n        remove(hash);\n        emit LogDismissed(hash, proponent);\n    }\n\n    function isStored(bytes32 hash) public view returns(bool isIndeed) {\n        if(typeIndex.length == 0) return false;\n        return (typeIndex[typeStruct[hash].index] == hash);\n    }\n\n    function getByHash(bytes32 hash) public view returns(FileTypeLib.FileType memory data) {\n        return typeStruct[hash].data.getFull(getFiles(hash));\n    }\n\n    function getFiles(bytes32 typeHash) view public returns (bytes32[] memory fileRefs) {\n        return filesPerFolder[typeHash];\n    }\n\n    function insertPrivate(bytes32 hash, FileTypeLib.FileType memory data) private {\n        if(isStored(hash)) revert(\"This data exists. Use the extant data.\");\n\n        typeStruct[hash].data.insert(data);\n        typeStruct[hash].index = typeIndex.push(hash) - 1;\n\n        setFiles(hash, data.filesPerFolder);\n\n        emit LogNew(hash, typeStruct[hash].index);\n    }\n}\n",
  "sourcePath": "/Users/loredana/ETH/dType/contracts/contracts/examples/filesystem/FileTypeStorage.sol",
  "compiler": {
    "name": "solc",
    "version": "0.5.7+commit.6da8b019.Emscripten.clang"
  },
  "schemaVersion": "3.0.11",
  "updatedAt": "2019-07-27T20:46:29.059Z",
  "devdoc": {
    "methods": {}
  },
  "userdoc": {
    "methods": {}
  }
}