{
  "contractName": "FileTypeLib",
  "abi": [
    {
      "constant": true,
      "inputs": [
        {
          "components": [
            {
              "components": [
                {
                  "name": "name",
                  "type": "string"
                },
                {
                  "name": "extension",
                  "type": "uint8"
                },
                {
                  "components": [
                    {
                      "name": "protocol",
                      "type": "SwarmPointerLib.Protocol"
                    },
                    {
                      "name": "filehash",
                      "type": "bytes32"
                    }
                  ],
                  "name": "swarm",
                  "type": "tuple"
                },
                {
                  "components": [
                    {
                      "name": "protocol",
                      "type": "IpfsPointerLib.Protocol"
                    },
                    {
                      "name": "filehash",
                      "type": "bytes32"
                    }
                  ],
                  "name": "ipfs",
                  "type": "tuple"
                },
                {
                  "components": [
                    {
                      "name": "uri",
                      "type": "string"
                    }
                  ],
                  "name": "uri",
                  "type": "tuple"
                }
              ],
              "name": "pointer",
              "type": "tuple"
            },
            {
              "name": "parentKey",
              "type": "bytes32"
            },
            {
              "name": "filesPerFolder",
              "type": "bytes32[]"
            }
          ],
          "name": "file",
          "type": "tuple"
        }
      ],
      "name": "getDataHash",
      "outputs": [
        {
          "name": "hash",
          "type": "bytes32"
        }
      ],
      "payable": false,
      "stateMutability": "pure",
      "type": "function"
    },
    {
      "constant": true,
      "inputs": [
        {
          "components": [
            {
              "components": [
                {
                  "name": "name",
                  "type": "string"
                },
                {
                  "name": "extension",
                  "type": "uint8"
                },
                {
                  "components": [
                    {
                      "name": "protocol",
                      "type": "SwarmPointerLib.Protocol"
                    },
                    {
                      "name": "filehash",
                      "type": "bytes32"
                    }
                  ],
                  "name": "swarm",
                  "type": "tuple"
                },
                {
                  "components": [
                    {
                      "name": "protocol",
                      "type": "IpfsPointerLib.Protocol"
                    },
                    {
                      "name": "filehash",
                      "type": "bytes32"
                    }
                  ],
                  "name": "ipfs",
                  "type": "tuple"
                },
                {
                  "components": [
                    {
                      "name": "uri",
                      "type": "string"
                    }
                  ],
                  "name": "uri",
                  "type": "tuple"
                }
              ],
              "name": "pointer",
              "type": "tuple"
            },
            {
              "name": "parentKey",
              "type": "bytes32"
            },
            {
              "name": "filesPerFolder",
              "type": "bytes32[]"
            }
          ],
          "name": "fileFull",
          "type": "tuple"
        }
      ],
      "name": "getRequired",
      "outputs": [
        {
          "components": [
            {
              "components": [
                {
                  "name": "name",
                  "type": "string"
                },
                {
                  "name": "extension",
                  "type": "uint8"
                },
                {
                  "components": [
                    {
                      "name": "protocol",
                      "type": "SwarmPointerLib.Protocol"
                    },
                    {
                      "name": "filehash",
                      "type": "bytes32"
                    }
                  ],
                  "name": "swarm",
                  "type": "tuple"
                },
                {
                  "components": [
                    {
                      "name": "protocol",
                      "type": "IpfsPointerLib.Protocol"
                    },
                    {
                      "name": "filehash",
                      "type": "bytes32"
                    }
                  ],
                  "name": "ipfs",
                  "type": "tuple"
                },
                {
                  "components": [
                    {
                      "name": "uri",
                      "type": "string"
                    }
                  ],
                  "name": "uri",
                  "type": "tuple"
                }
              ],
              "name": "pointer",
              "type": "tuple"
            },
            {
              "name": "parentKey",
              "type": "bytes32"
            }
          ],
          "name": "file",
          "type": "tuple"
        }
      ],
      "payable": false,
      "stateMutability": "pure",
      "type": "function"
    },
    {
      "constant": true,
      "inputs": [
        {
          "components": [
            {
              "components": [
                {
                  "name": "name",
                  "type": "string"
                },
                {
                  "name": "extension",
                  "type": "uint8"
                },
                {
                  "components": [
                    {
                      "name": "protocol",
                      "type": "SwarmPointerLib.Protocol"
                    },
                    {
                      "name": "filehash",
                      "type": "bytes32"
                    }
                  ],
                  "name": "swarm",
                  "type": "tuple"
                },
                {
                  "components": [
                    {
                      "name": "protocol",
                      "type": "IpfsPointerLib.Protocol"
                    },
                    {
                      "name": "filehash",
                      "type": "bytes32"
                    }
                  ],
                  "name": "ipfs",
                  "type": "tuple"
                },
                {
                  "components": [
                    {
                      "name": "uri",
                      "type": "string"
                    }
                  ],
                  "name": "uri",
                  "type": "tuple"
                }
              ],
              "name": "pointer",
              "type": "tuple"
            },
            {
              "name": "parentKey",
              "type": "bytes32"
            }
          ],
          "name": "file",
          "type": "tuple"
        },
        {
          "name": "filesPerFolder",
          "type": "bytes32[]"
        }
      ],
      "name": "getFull",
      "outputs": [
        {
          "components": [
            {
              "components": [
                {
                  "name": "name",
                  "type": "string"
                },
                {
                  "name": "extension",
                  "type": "uint8"
                },
                {
                  "components": [
                    {
                      "name": "protocol",
                      "type": "SwarmPointerLib.Protocol"
                    },
                    {
                      "name": "filehash",
                      "type": "bytes32"
                    }
                  ],
                  "name": "swarm",
                  "type": "tuple"
                },
                {
                  "components": [
                    {
                      "name": "protocol",
                      "type": "IpfsPointerLib.Protocol"
                    },
                    {
                      "name": "filehash",
                      "type": "bytes32"
                    }
                  ],
                  "name": "ipfs",
                  "type": "tuple"
                },
                {
                  "components": [
                    {
                      "name": "uri",
                      "type": "string"
                    }
                  ],
                  "name": "uri",
                  "type": "tuple"
                }
              ],
              "name": "pointer",
              "type": "tuple"
            },
            {
              "name": "parentKey",
              "type": "bytes32"
            },
            {
              "name": "filesPerFolder",
              "type": "bytes32[]"
            }
          ],
          "name": "fileFull",
          "type": "tuple"
        }
      ],
      "payable": false,
      "stateMutability": "pure",
      "type": "function"
    },
    {
      "constant": true,
      "inputs": [
        {
          "name": "data",
          "type": "bytes"
        }
      ],
      "name": "structureBytes",
      "outputs": [
        {
          "components": [
            {
              "components": [
                {
                  "name": "name",
                  "type": "string"
                },
                {
                  "name": "extension",
                  "type": "uint8"
                },
                {
                  "components": [
                    {
                      "name": "protocol",
                      "type": "SwarmPointerLib.Protocol"
                    },
                    {
                      "name": "filehash",
                      "type": "bytes32"
                    }
                  ],
                  "name": "swarm",
                  "type": "tuple"
                },
                {
                  "components": [
                    {
                      "name": "protocol",
                      "type": "IpfsPointerLib.Protocol"
                    },
                    {
                      "name": "filehash",
                      "type": "bytes32"
                    }
                  ],
                  "name": "ipfs",
                  "type": "tuple"
                },
                {
                  "components": [
                    {
                      "name": "uri",
                      "type": "string"
                    }
                  ],
                  "name": "uri",
                  "type": "tuple"
                }
              ],
              "name": "pointer",
              "type": "tuple"
            },
            {
              "name": "parentKey",
              "type": "bytes32"
            },
            {
              "name": "filesPerFolder",
              "type": "bytes32[]"
            }
          ],
          "name": "file",
          "type": "tuple"
        }
      ],
      "payable": false,
      "stateMutability": "pure",
      "type": "function"
    },
    {
      "constant": true,
      "inputs": [
        {
          "components": [
            {
              "components": [
                {
                  "name": "name",
                  "type": "string"
                },
                {
                  "name": "extension",
                  "type": "uint8"
                },
                {
                  "components": [
                    {
                      "name": "protocol",
                      "type": "SwarmPointerLib.Protocol"
                    },
                    {
                      "name": "filehash",
                      "type": "bytes32"
                    }
                  ],
                  "name": "swarm",
                  "type": "tuple"
                },
                {
                  "components": [
                    {
                      "name": "protocol",
                      "type": "IpfsPointerLib.Protocol"
                    },
                    {
                      "name": "filehash",
                      "type": "bytes32"
                    }
                  ],
                  "name": "ipfs",
                  "type": "tuple"
                },
                {
                  "components": [
                    {
                      "name": "uri",
                      "type": "string"
                    }
                  ],
                  "name": "uri",
                  "type": "tuple"
                }
              ],
              "name": "pointer",
              "type": "tuple"
            },
            {
              "name": "parentKey",
              "type": "bytes32"
            },
            {
              "name": "filesPerFolder",
              "type": "bytes32[]"
            }
          ],
          "name": "file",
          "type": "tuple"
        }
      ],
      "name": "destructureBytes",
      "outputs": [
        {
          "name": "data",
          "type": "bytes"
        }
      ],
      "payable": false,
      "stateMutability": "pure",
      "type": "function"
    },
    {
      "constant": true,
      "inputs": [
        {
          "name": "callbackAddr",
          "type": "address"
        },
        {
          "name": "callbackSig",
          "type": "bytes4"
        },
        {
          "components": [
            {
              "components": [
                {
                  "name": "name",
                  "type": "string"
                },
                {
                  "name": "extension",
                  "type": "uint8"
                },
                {
                  "components": [
                    {
                      "name": "protocol",
                      "type": "SwarmPointerLib.Protocol"
                    },
                    {
                      "name": "filehash",
                      "type": "bytes32"
                    }
                  ],
                  "name": "swarm",
                  "type": "tuple"
                },
                {
                  "components": [
                    {
                      "name": "protocol",
                      "type": "IpfsPointerLib.Protocol"
                    },
                    {
                      "name": "filehash",
                      "type": "bytes32"
                    }
                  ],
                  "name": "ipfs",
                  "type": "tuple"
                },
                {
                  "components": [
                    {
                      "name": "uri",
                      "type": "string"
                    }
                  ],
                  "name": "uri",
                  "type": "tuple"
                }
              ],
              "name": "pointer",
              "type": "tuple"
            },
            {
              "name": "parentKey",
              "type": "bytes32"
            },
            {
              "name": "filesPerFolder",
              "type": "bytes32[]"
            }
          ],
          "name": "fileAarr",
          "type": "tuple[]"
        }
      ],
      "name": "map",
      "outputs": [
        {
          "components": [
            {
              "components": [
                {
                  "name": "name",
                  "type": "string"
                },
                {
                  "name": "extension",
                  "type": "uint8"
                },
                {
                  "components": [
                    {
                      "name": "protocol",
                      "type": "SwarmPointerLib.Protocol"
                    },
                    {
                      "name": "filehash",
                      "type": "bytes32"
                    }
                  ],
                  "name": "swarm",
                  "type": "tuple"
                },
                {
                  "components": [
                    {
                      "name": "protocol",
                      "type": "IpfsPointerLib.Protocol"
                    },
                    {
                      "name": "filehash",
                      "type": "bytes32"
                    }
                  ],
                  "name": "ipfs",
                  "type": "tuple"
                },
                {
                  "components": [
                    {
                      "name": "uri",
                      "type": "string"
                    }
                  ],
                  "name": "uri",
                  "type": "tuple"
                }
              ],
              "name": "pointer",
              "type": "tuple"
            },
            {
              "name": "parentKey",
              "type": "bytes32"
            },
            {
              "name": "filesPerFolder",
              "type": "bytes32[]"
            }
          ],
          "name": "result",
          "type": "tuple[]"
        }
      ],
      "payable": false,
      "stateMutability": "view",
      "type": "function"
    }
  ],
  "bytecode": "0x611c61610026600b82828239805160001a60731461001957fe5b30600052607381538281f3fe730000000000000000000000000000000000000000301460806040526004361061006c5760003560e01c8063672c6a1e146100715780639008a325146100a15780639d946daf146100d1578063a5e2498c14610101578063ae8cb13414610131578063b3718ad014610161575b600080fd5b61008b60048036036100869190810190611042565b610191565b6040516100989190611867565b60405180910390f35b6100bb60048036036100b69190810190611042565b6101bd565b6040516100c891906117e8565b60405180910390f35b6100eb60048036036100e69190810190611042565b610253565b6040516100f89190611803565b60405180910390f35b61011b60048036036101169190810190610f95565b61027c565b60405161012891906118cd565b60405180910390f35b61014b60048036036101469190810190610ec4565b6102af565b60405161015891906117c6565b60405180910390f35b61017b60048036036101769190810190610f54565b61046c565b60405161018891906118cd565b60405180910390f35b61019961048f565b60405180604001604052808360000151815260200183602001518152509050919050565b6000816000015173__FilePointerLib________________________63980563d590916040518263ffffffff1660e01b81526004016101fc9190611845565b60206040518083038186803b15801561021457600080fd5b505af4158015610228573d6000803e3d6000fd5b505050506040513d601f19601f8201168201806040525061024c9190810190610f2b565b9050919050565b60608160405160200161026691906118ab565b6040516020818303038152906040529050919050565b6102846104b3565b6040518060600160405280846000015181526020018460200151815260200183815250905092915050565b6060600082519050806040519080825280602002602001820160405280156102f157816020015b6102de6104de565b8152602001906001900390816102d65790505b50915060008090505b8181101561046057600060608773ffffffffffffffffffffffffffffffffffffffff168787858151811061032a57fe5b60200260200101516040516024016103429190611889565b604051602081830303815290604052907bffffffffffffffffffffffffffffffffffffffffffffffffffffffff19166020820180517bffffffffffffffffffffffffffffffffffffffffffffffffffffffff83818316178352505050506040516103ac91906117af565b600060405180830381855afa9150503d80600081146103e7576040519150601f19603f3d011682016040523d82523d6000602084013e6103ec565b606091505b509150915081610431576040517f08c379a000000000000000000000000000000000000000000000000000000000815260040161042890611825565b60405180910390fd5b61043a8161046c565b85848151811061044657fe5b6020026020010181905250505080806001019150506102fa565b50819150509392505050565b6104746104b3565b818060200190516104889190810190611001565b9050919050565b6040518061010001604052806104a3610509565b8152602001600080191681525090565b6040518061012001604052806104c7610509565b815260200160008019168152602001606081525090565b6040518061012001604052806104f2610509565b815260200160008019168152602001606081525090565b6040518060e0016040528060608152602001600060ff16815260200161052d61054d565b815260200161053a610575565b815260200161054761059c565b81525090565b60405180604001604052806000600181111561056557fe5b8152602001600080191681525090565b604051806040016040528060008081111561058c57fe5b8152602001600080191681525090565b6040518060200160405280606081525090565b60006105bb8235611b0d565b905092915050565b600082601f8301126105d457600080fd5b81356105e76105e28261191c565b6118ef565b9150818183526020840193506020810190508385602084028201111561060c57600080fd5b60005b8381101561063c578161062288826107c0565b84526020840193506020830192505060018101905061060f565b5050505092915050565b600082601f83011261065757600080fd5b815161066a6106658261191c565b6118ef565b9150818183526020840193506020810190508385602084028201111561068f57600080fd5b60005b838110156106bf57816106a588826107d4565b845260208401935060208301925050600181019050610692565b5050505092915050565b600082601f8301126106da57600080fd5b81356106ed6106e882611944565b6118ef565b9150818183526020840193506020810190508385602084028201111561071257600080fd5b60005b83811015610742578161072888826107c0565b845260208401935060208301925050600181019050610715565b5050505092915050565b600082601f83011261075d57600080fd5b813561077061076b8261196c565b6118ef565b9150818183526020840193506020810190508360005b838110156107b6578135860161079c8882610b1c565b845260208401935060208301925050600181019050610786565b5050505092915050565b60006107cc8235611b1f565b905092915050565b60006107e08251611b1f565b905092915050565b60006107f48235611b29565b905092915050565b600082601f83011261080d57600080fd5b813561082061081b82611994565b6118ef565b9150808252602083016020830185838301111561083c57600080fd5b610847838284611bd4565b50505092915050565b600061085c8235611b55565b905092915050565b60006108708251611b55565b905092915050565b60006108848235611b6c565b905092915050565b60006108988251611b6c565b905092915050565b600082601f8301126108b157600080fd5b81356108c46108bf826119c0565b6118ef565b915080825260208301602083018583830111156108e057600080fd5b6108eb838284611bd4565b50505092915050565b600082601f83011261090557600080fd5b8151610918610913826119c0565b6118ef565b9150808252602083016020830185838301111561093457600080fd5b61093f838284611be3565b50505092915050565b600060e0828403121561095a57600080fd5b61096460a06118ef565b9050600082013567ffffffffffffffff81111561098057600080fd5b61098c848285016108a0565b60008301525060206109a084828501610e9c565b60208301525060406109b484828501610d64565b60408301525060806109c884828501610ccc565b60608301525060c082013567ffffffffffffffff8111156109e857600080fd5b6109f484828501610dfc565b60808301525092915050565b600060e08284031215610a1257600080fd5b610a1c60a06118ef565b9050600082015167ffffffffffffffff811115610a3857600080fd5b610a44848285016108f4565b6000830152506020610a5884828501610eb0565b6020830152506040610a6c84828501610db0565b6040830152506080610a8084828501610d18565b60608301525060c082015167ffffffffffffffff811115610aa057600080fd5b610aac84828501610e4c565b60808301525092915050565b600060408284031215610aca57600080fd5b610ad460406118ef565b9050600082013567ffffffffffffffff811115610af057600080fd5b610afc84828501610948565b6000830152506020610b10848285016107c0565b60208301525092915050565b600060608284031215610b2e57600080fd5b610b3860606118ef565b9050600082013567ffffffffffffffff811115610b5457600080fd5b610b6084828501610948565b6000830152506020610b74848285016107c0565b602083015250604082013567ffffffffffffffff811115610b9457600080fd5b610ba0848285016105c3565b60408301525092915050565b600060608284031215610bbe57600080fd5b610bc860606118ef565b9050600082015167ffffffffffffffff811115610be457600080fd5b610bf084828501610a00565b6000830152506020610c04848285016107d4565b602083015250604082015167ffffffffffffffff811115610c2457600080fd5b610c3084828501610646565b60408301525092915050565b600060608284031215610c4e57600080fd5b610c5860606118ef565b9050600082013567ffffffffffffffff811115610c7457600080fd5b610c8084828501610948565b6000830152506020610c94848285016107c0565b602083015250604082013567ffffffffffffffff811115610cb457600080fd5b610cc0848285016105c3565b60408301525092915050565b600060408284031215610cde57600080fd5b610ce860406118ef565b90506000610cf884828501610850565b6000830152506020610d0c848285016107c0565b60208301525092915050565b600060408284031215610d2a57600080fd5b610d3460406118ef565b90506000610d4484828501610864565b6000830152506020610d58848285016107d4565b60208301525092915050565b600060408284031215610d7657600080fd5b610d8060406118ef565b90506000610d9084828501610878565b6000830152506020610da4848285016107c0565b60208301525092915050565b600060408284031215610dc257600080fd5b610dcc60406118ef565b90506000610ddc8482850161088c565b6000830152506020610df0848285016107d4565b60208301525092915050565b600060208284031215610e0e57600080fd5b610e1860206118ef565b9050600082013567ffffffffffffffff811115610e3457600080fd5b610e40848285016108a0565b60008301525092915050565b600060208284031215610e5e57600080fd5b610e6860206118ef565b9050600082015167ffffffffffffffff811115610e8457600080fd5b610e90848285016108f4565b60008301525092915050565b6000610ea88235611ba3565b905092915050565b6000610ebc8251611ba3565b905092915050565b600080600060608486031215610ed957600080fd5b6000610ee7868287016105af565b9350506020610ef8868287016107e8565b925050604084013567ffffffffffffffff811115610f1557600080fd5b610f218682870161074c565b9150509250925092565b600060208284031215610f3d57600080fd5b6000610f4b848285016107d4565b91505092915050565b600060208284031215610f6657600080fd5b600082013567ffffffffffffffff811115610f8057600080fd5b610f8c848285016107fc565b91505092915050565b60008060408385031215610fa857600080fd5b600083013567ffffffffffffffff811115610fc257600080fd5b610fce85828601610ab8565b925050602083013567ffffffffffffffff811115610feb57600080fd5b610ff7858286016106c9565b9150509250929050565b60006020828403121561101357600080fd5b600082015167ffffffffffffffff81111561102d57600080fd5b61103984828501610bac565b91505092915050565b60006020828403121561105457600080fd5b600082013567ffffffffffffffff81111561106e57600080fd5b61107a84828501610c3c565b91505092915050565b600061108f83836111ec565b60208301905092915050565b60006110a7838361120a565b60208301905092915050565b60006110bf838361162a565b905092915050565b60006110d282611a06565b6110dc8185611a4c565b93506110e7836119ec565b60005b82811015611115576110fd868351611083565b955061110882611a32565b91506001810190506110ea565b50849250505092915050565b600061112c82611a06565b6111368185611a5d565b9350611141836119ec565b60005b8281101561116f5761115786835161109b565b955061116282611a32565b9150600181019050611144565b50849250505092915050565b600061118682611a11565b6111908185611a6e565b9350836020820285016111a2856119f9565b60005b848110156111db5783830388526111bd8383516110b3565b92506111c882611a3f565b91506020880197506001810190506111a5565b508196508694505050505092915050565b6111f581611ace565b82525050565b61120481611ace565b82525050565b61121381611ace565b82525050565b600061122482611a1c565b61122e8185611a7f565b935061123e818560208601611be3565b61124781611c16565b840191505092915050565b600061125d82611a1c565b6112678185611a90565b9350611277818560208601611be3565b80840191505092915050565b61128c81611bb0565b82525050565b61129b81611bb0565b82525050565b6112aa81611bc2565b82525050565b6112b981611bc2565b82525050565b60006112ca82611a27565b6112d48185611a9b565b93506112e4818560208601611be3565b6112ed81611c16565b840191505092915050565b600061130382611a27565b61130d8185611abd565b935061131d818560208601611be3565b61132681611c16565b840191505092915050565b600061133e601383611aac565b91507f4d61702063616c6c6261636b206661696c6564000000000000000000000000006000830152602082019050919050565b600060e083016000830151848203600086015261138e82826112f8565b91505060208301516113a360208601826117a0565b5060408301516113b6604086018261170e565b5060608301516113c960808601826116b0565b50608083015184820360c08601526113e18282611767565b9150508091505092915050565b600060e083016000830151848203600086015261140b82826112bf565b91505060208301516114206020860182611791565b50604083015161143360408601826116df565b5060608301516114466080860182611681565b50608083015184820360c086015261145e828261173d565b9150508091505092915050565b600060e083016000830151848203600086015261148882826112f8565b915050602083015161149d60208601826117a0565b5060408301516114b0604086018261170e565b5060608301516114c360808601826116b0565b50608083015184820360c08601526114db8282611767565b9150508091505092915050565b60006040830160008301518482036000860152611505828261146b565b915050602083015161151a602086018261120a565b508091505092915050565b6000606083016000830151848203600086015261154282826113ee565b915050602083015161155760208601826111ec565b506040830151848203604086015261156f82826110c7565b9150508091505092915050565b60006060830160008301518482036000860152611599828261146b565b91505060208301516115ae602086018261120a565b50604083015184820360408601526115c68282611121565b9150508091505092915050565b600060608301600083015184820360008601526115f082826113ee565b915050602083015161160560208601826111ec565b506040830151848203604086015261161d82826110c7565b9150508091505092915050565b60006060830160008301518482036000860152611647828261146b565b915050602083015161165c602086018261120a565b50604083015184820360408601526116748282611121565b9150508091505092915050565b6040820160008201516116976000850182611283565b5060208201516116aa60208501826111ec565b50505050565b6040820160008201516116c66000850182611292565b5060208201516116d9602085018261120a565b50505050565b6040820160008201516116f560008501826112a1565b50602082015161170860208501826111ec565b50505050565b60408201600082015161172460008501826112b0565b506020820151611737602085018261120a565b50505050565b6000602083016000830151848203600086015261175a82826112bf565b9150508091505092915050565b6000602083016000830151848203600086015261178482826112f8565b9150508091505092915050565b61179a81611b00565b82525050565b6117a981611b00565b82525050565b60006117bb8284611252565b915081905092915050565b600060208201905081810360008301526117e0818461117b565b905092915050565b60006020820190506117fd60008301846111fb565b92915050565b6000602082019050818103600083015261181d8184611219565b905092915050565b6000602082019050818103600083015261183e81611331565b9050919050565b6000602082019050818103600083015261185f8184611371565b905092915050565b6000602082019050818103600083015261188181846114e8565b905092915050565b600060208201905081810360008301526118a381846115d3565b905092915050565b600060208201905081810360008301526118c58184611525565b905092915050565b600060208201905081810360008301526118e7818461157c565b905092915050565b6000604051905081810181811067ffffffffffffffff8211171561191257600080fd5b8060405250919050565b600067ffffffffffffffff82111561193357600080fd5b602082029050602081019050919050565b600067ffffffffffffffff82111561195b57600080fd5b602082029050602081019050919050565b600067ffffffffffffffff82111561198357600080fd5b602082029050602081019050919050565b600067ffffffffffffffff8211156119ab57600080fd5b601f19601f8301169050602081019050919050565b600067ffffffffffffffff8211156119d757600080fd5b601f19601f8301169050602081019050919050565b6000602082019050919050565b6000602082019050919050565b600081519050919050565b600081519050919050565b600081519050919050565b600081519050919050565b6000602082019050919050565b6000602082019050919050565b600082825260208201905092915050565b600082825260208201905092915050565b600082825260208201905092915050565b600082825260208201905092915050565b600081905092915050565b600082825260208201905092915050565b600082825260208201905092915050565b600082825260208201905092915050565b6000819050919050565b600060018210611ae457fe5b819050919050565b600060028210611af857fe5b819050919050565b600060ff82169050919050565b6000611b1882611b83565b9050919050565b6000819050919050565b60007fffffffff0000000000000000000000000000000000000000000000000000000082169050919050565b600060018210611b6457600080fd5b819050919050565b600060028210611b7b57600080fd5b819050919050565b600073ffffffffffffffffffffffffffffffffffffffff82169050919050565b600060ff82169050919050565b6000611bbb82611ad8565b9050919050565b6000611bcd82611aec565b9050919050565b82818337600083830152505050565b60005b83811015611c01578082015181840152602081019050611be6565b83811115611c10576000848401525b50505050565b6000601f19601f830116905091905056fea265627a7a7230582085609c6f7b581829b701a3ca3a4fcfdbb80a1a5b37727b6d4dace815402edc476c6578706572696d656e74616cf50037",
  "source": "pragma solidity ^0.5.0;\npragma experimental ABIEncoderV2;\n\nimport './FilePointerLib.sol';\n\nlibrary FileTypeLib {\n    using FilePointerLib for FilePointerLib.FilePointer;\n\n    struct FileTypeRequired {\n        FilePointerLib.FilePointer pointer;\n        bytes32 parentKey;  // string path\n    }\n\n    struct FileType {\n        FilePointerLib.FilePointer pointer;\n        bytes32 parentKey;\n        bytes32[] filesPerFolder;\n    }\n\n    function insert(FileTypeRequired storage self, FileType memory file) internal {\n        self.pointer = file.pointer;\n        self.parentKey = file.parentKey;\n    }\n\n    function insertArray(FileTypeRequired[] storage self, FileType[] memory files) internal {\n        uint256 length = files.length;\n        for (uint256 i = 0; i < length; i++) {\n            insert(self[i], files[i]);\n        }\n    }\n\n    function getDataHash(FileType memory file) pure public returns(bytes32 hash) {\n        return file.pointer.getDataHash();\n    }\n\n    function getRequired(FileType memory fileFull) pure public returns(FileTypeRequired memory file) {\n        return FileTypeRequired(\n            fileFull.pointer,\n            fileFull.parentKey\n        );\n    }\n\n    function getFull(FileTypeRequired memory file, bytes32[] memory filesPerFolder) pure public returns(FileType memory fileFull) {\n        return FileType(\n            file.pointer,\n            file.parentKey,\n            filesPerFolder\n        );\n    }\n\n    function structureBytes(bytes memory data)\n        pure\n        public\n        returns(FileType memory file)\n    {\n        (file) = abi.decode(data, (FileType));\n    }\n\n    function destructureBytes(FileType memory file)\n        pure\n        public\n        returns(bytes memory data)\n    {\n        return abi.encode(file);\n    }\n\n    function map(\n        address callbackAddr,\n        bytes4 callbackSig,\n        FileType[] memory fileAarr\n    )\n        view\n        public\n        returns (FileType[] memory result)\n    {\n        uint length = fileAarr.length;\n        result = new FileType[](length);\n\n        for (uint i = 0; i < length; i++) {\n            (bool success, bytes memory data) = callbackAddr.staticcall(abi.encodeWithSelector(callbackSig, fileAarr[i]));\n\n            require(success, \"Map callback failed\");\n            result[i] = structureBytes(data);\n        }\n\n        return result;\n    }\n}\n",
  "sourcePath": "/Users/loredana/ETH/dType/contracts/contracts/examples/filesystem/FileTypeLib.sol",
  "compiler": {
    "name": "solc",
    "version": "0.5.7+commit.6da8b019.Emscripten.clang"
  },
  "schemaVersion": "3.0.11",
  "updatedAt": "2019-07-27T20:46:21.853Z",
  "devdoc": {
    "methods": {}
  },
  "userdoc": {
    "methods": {}
  }
}