{
  "contractName": "FilePointerLib",
  "abi": [
    {
      "constant": true,
      "inputs": [
        {
          "components": [
            {
              "name": "name",
              "type": "string"
            },
            {
              "name": "extension",
              "type": "uint8"
            },
            {
              "components": [
                {
                  "name": "protocol",
                  "type": "SwarmPointerLib.Protocol"
                },
                {
                  "name": "filehash",
                  "type": "bytes32"
                }
              ],
              "name": "swarm",
              "type": "tuple"
            },
            {
              "components": [
                {
                  "name": "protocol",
                  "type": "IpfsPointerLib.Protocol"
                },
                {
                  "name": "filehash",
                  "type": "bytes32"
                }
              ],
              "name": "ipfs",
              "type": "tuple"
            },
            {
              "components": [
                {
                  "name": "uri",
                  "type": "string"
                }
              ],
              "name": "uri",
              "type": "tuple"
            }
          ],
          "name": "pointer",
          "type": "tuple"
        }
      ],
      "name": "getDataHash",
      "outputs": [
        {
          "name": "hash",
          "type": "bytes32"
        }
      ],
      "payable": false,
      "stateMutability": "pure",
      "type": "function"
    },
    {
      "constant": true,
      "inputs": [
        {
          "components": [
            {
              "name": "name",
              "type": "string"
            },
            {
              "name": "extension",
              "type": "uint8"
            }
          ],
          "name": "pointer",
          "type": "tuple"
        },
        {
          "components": [
            {
              "name": "protocol",
              "type": "SwarmPointerLib.Protocol"
            },
            {
              "name": "filehash",
              "type": "bytes32"
            }
          ],
          "name": "swarm",
          "type": "tuple"
        },
        {
          "components": [
            {
              "name": "protocol",
              "type": "IpfsPointerLib.Protocol"
            },
            {
              "name": "filehash",
              "type": "bytes32"
            }
          ],
          "name": "ipfs",
          "type": "tuple"
        },
        {
          "components": [
            {
              "name": "uri",
              "type": "string"
            }
          ],
          "name": "uri",
          "type": "tuple"
        }
      ],
      "name": "getFull",
      "outputs": [
        {
          "components": [
            {
              "name": "name",
              "type": "string"
            },
            {
              "name": "extension",
              "type": "uint8"
            },
            {
              "components": [
                {
                  "name": "protocol",
                  "type": "SwarmPointerLib.Protocol"
                },
                {
                  "name": "filehash",
                  "type": "bytes32"
                }
              ],
              "name": "swarm",
              "type": "tuple"
            },
            {
              "components": [
                {
                  "name": "protocol",
                  "type": "IpfsPointerLib.Protocol"
                },
                {
                  "name": "filehash",
                  "type": "bytes32"
                }
              ],
              "name": "ipfs",
              "type": "tuple"
            },
            {
              "components": [
                {
                  "name": "uri",
                  "type": "string"
                }
              ],
              "name": "uri",
              "type": "tuple"
            }
          ],
          "name": "pointerFull",
          "type": "tuple"
        }
      ],
      "payable": false,
      "stateMutability": "pure",
      "type": "function"
    },
    {
      "constant": true,
      "inputs": [
        {
          "name": "data",
          "type": "bytes"
        }
      ],
      "name": "structureBytes",
      "outputs": [
        {
          "components": [
            {
              "name": "name",
              "type": "string"
            },
            {
              "name": "extension",
              "type": "uint8"
            },
            {
              "components": [
                {
                  "name": "protocol",
                  "type": "SwarmPointerLib.Protocol"
                },
                {
                  "name": "filehash",
                  "type": "bytes32"
                }
              ],
              "name": "swarm",
              "type": "tuple"
            },
            {
              "components": [
                {
                  "name": "protocol",
                  "type": "IpfsPointerLib.Protocol"
                },
                {
                  "name": "filehash",
                  "type": "bytes32"
                }
              ],
              "name": "ipfs",
              "type": "tuple"
            },
            {
              "components": [
                {
                  "name": "uri",
                  "type": "string"
                }
              ],
              "name": "uri",
              "type": "tuple"
            }
          ],
          "name": "pointer",
          "type": "tuple"
        }
      ],
      "payable": false,
      "stateMutability": "pure",
      "type": "function"
    },
    {
      "constant": true,
      "inputs": [
        {
          "components": [
            {
              "name": "name",
              "type": "string"
            },
            {
              "name": "extension",
              "type": "uint8"
            },
            {
              "components": [
                {
                  "name": "protocol",
                  "type": "SwarmPointerLib.Protocol"
                },
                {
                  "name": "filehash",
                  "type": "bytes32"
                }
              ],
              "name": "swarm",
              "type": "tuple"
            },
            {
              "components": [
                {
                  "name": "protocol",
                  "type": "IpfsPointerLib.Protocol"
                },
                {
                  "name": "filehash",
                  "type": "bytes32"
                }
              ],
              "name": "ipfs",
              "type": "tuple"
            },
            {
              "components": [
                {
                  "name": "uri",
                  "type": "string"
                }
              ],
              "name": "uri",
              "type": "tuple"
            }
          ],
          "name": "pointer",
          "type": "tuple"
        }
      ],
      "name": "destructureBytes",
      "outputs": [
        {
          "name": "data",
          "type": "bytes"
        }
      ],
      "payable": false,
      "stateMutability": "pure",
      "type": "function"
    },
    {
      "constant": true,
      "inputs": [
        {
          "name": "callbackAddr",
          "type": "address"
        },
        {
          "name": "callbackSig",
          "type": "bytes4"
        },
        {
          "components": [
            {
              "name": "name",
              "type": "string"
            },
            {
              "name": "extension",
              "type": "uint8"
            },
            {
              "components": [
                {
                  "name": "protocol",
                  "type": "SwarmPointerLib.Protocol"
                },
                {
                  "name": "filehash",
                  "type": "bytes32"
                }
              ],
              "name": "swarm",
              "type": "tuple"
            },
            {
              "components": [
                {
                  "name": "protocol",
                  "type": "IpfsPointerLib.Protocol"
                },
                {
                  "name": "filehash",
                  "type": "bytes32"
                }
              ],
              "name": "ipfs",
              "type": "tuple"
            },
            {
              "components": [
                {
                  "name": "uri",
                  "type": "string"
                }
              ],
              "name": "uri",
              "type": "tuple"
            }
          ],
          "name": "pointerArr",
          "type": "tuple[]"
        }
      ],
      "name": "map",
      "outputs": [
        {
          "components": [
            {
              "name": "name",
              "type": "string"
            },
            {
              "name": "extension",
              "type": "uint8"
            },
            {
              "components": [
                {
                  "name": "protocol",
                  "type": "SwarmPointerLib.Protocol"
                },
                {
                  "name": "filehash",
                  "type": "bytes32"
                }
              ],
              "name": "swarm",
              "type": "tuple"
            },
            {
              "components": [
                {
                  "name": "protocol",
                  "type": "IpfsPointerLib.Protocol"
                },
                {
                  "name": "filehash",
                  "type": "bytes32"
                }
              ],
              "name": "ipfs",
              "type": "tuple"
            },
            {
              "components": [
                {
                  "name": "uri",
                  "type": "string"
                }
              ],
              "name": "uri",
              "type": "tuple"
            }
          ],
          "name": "result",
          "type": "tuple[]"
        }
      ],
      "payable": false,
      "stateMutability": "view",
      "type": "function"
    }
  ],
  "bytecode": "0x6117f2610026600b82828239805160001a60731461001957fe5b30600052607381538281f3fe73000000000000000000000000000000000000000030146080604052600436106100615760003560e01c806307521f2414610066578063980563d514610096578063b3718ad0146100c6578063f5d15288146100f6578063fbb3793214610126575b600080fd5b610080600480360361007b9190810190610dcb565b610156565b60405161008d9190611423565b60405180910390f35b6100b060048036036100ab9190810190610dcb565b61017f565b6040516100bd9190611408565b60405180910390f35b6100e060048036036100db9190810190610cb6565b6101c5565b6040516100ed91906114a9565b60405180910390f35b610110600480360361010b9190810190610c4f565b6101e8565b60405161011d91906113e6565b60405180910390f35b610140600480360361013b9190810190610cf7565b6103a5565b60405161014d91906114a9565b60405180910390f35b6060816040516020016101699190611487565b6040516020818303038152906040529050919050565b600081602001518260400151836060015184608001516040516020016101a894939291906114cb565b604051602081830303815290604052805190602001209050919050565b6101cd6103e9565b818060200190516101e19190810190610d8a565b9050919050565b60606000825190508060405190808252806020026020018201604052801561022a57816020015b61021761042d565b81526020019060019003908161020f5790505b50915060008090505b8181101561039957600060608773ffffffffffffffffffffffffffffffffffffffff168787858151811061026357fe5b602002602001015160405160240161027b9190611465565b604051602081830303815290604052907bffffffffffffffffffffffffffffffffffffffffffffffffffffffff19166020820180517bffffffffffffffffffffffffffffffffffffffffffffffffffffffff83818316178352505050506040516102e591906113cf565b600060405180830381855afa9150503d8060008114610320576040519150601f19603f3d011682016040523d82523d6000602084013e610325565b606091505b50915091508161036a576040517f08c379a000000000000000000000000000000000000000000000000000000000815260040161036190611445565b60405180910390fd5b610373816101c5565b85848151811061037f57fe5b602002602001018190525050508080600101915050610233565b50819150509392505050565b6103ad6103e9565b6040518060a0016040528086600001518152602001866020015160ff168152602001858152602001848152602001838152509050949350505050565b6040518060e0016040528060608152602001600060ff16815260200161040d610471565b815260200161041a610499565b81526020016104276104c0565b81525090565b6040518060e0016040528060608152602001600060ff168152602001610451610471565b815260200161045e610499565b815260200161046b6104c0565b81525090565b60405180604001604052806000600181111561048957fe5b8152602001600080191681525090565b60405180604001604052806000808111156104b057fe5b8152602001600080191681525090565b6040518060200160405280606081525090565b60006104df823561169e565b905092915050565b600082601f8301126104f857600080fd5b813561050b61050682611544565b611517565b9150818183526020840193506020810190508360005b8381101561055157813586016105378882610747565b845260208401935060208301925050600181019050610521565b5050505092915050565b600061056782356116b0565b905092915050565b600061057b82516116b0565b905092915050565b600061058f82356116ba565b905092915050565b600082601f8301126105a857600080fd5b81356105bb6105b68261156c565b611517565b915080825260208301602083018583830111156105d757600080fd5b6105e2838284611765565b50505092915050565b60006105f782356116e6565b905092915050565b600061060b82516116e6565b905092915050565b600061061f82356116fd565b905092915050565b600061063382516116fd565b905092915050565b600082601f83011261064c57600080fd5b813561065f61065a82611598565b611517565b9150808252602083016020830185838301111561067b57600080fd5b610686838284611765565b50505092915050565b600082601f8301126106a057600080fd5b81516106b36106ae82611598565b611517565b915080825260208301602083018583830111156106cf57600080fd5b6106da838284611774565b50505092915050565b6000604082840312156106f557600080fd5b6106ff6040611517565b9050600082013567ffffffffffffffff81111561071b57600080fd5b6107278482850161063b565b600083015250602061073b84828501610c27565b60208301525092915050565b600060e0828403121561075957600080fd5b61076360a0611517565b9050600082013567ffffffffffffffff81111561077f57600080fd5b61078b8482850161063b565b600083015250602061079f84828501610c27565b60208301525060406107b384828501610a53565b60408301525060806107c78482850161096f565b60608301525060c082013567ffffffffffffffff8111156107e757600080fd5b6107f384828501610b37565b60808301525092915050565b600060e0828403121561081157600080fd5b61081b60a0611517565b9050600082015167ffffffffffffffff81111561083757600080fd5b6108438482850161068f565b600083015250602061085784828501610c3b565b602083015250604061086b84828501610a9f565b604083015250608061087f848285016109bb565b60608301525060c082015167ffffffffffffffff81111561089f57600080fd5b6108ab84828501610b87565b60808301525092915050565b600060e082840312156108c957600080fd5b6108d360a0611517565b9050600082013567ffffffffffffffff8111156108ef57600080fd5b6108fb8482850161063b565b600083015250602061090f84828501610c27565b602083015250604061092384828501610a53565b60408301525060806109378482850161096f565b60608301525060c082013567ffffffffffffffff81111561095757600080fd5b61096384828501610b37565b60808301525092915050565b60006040828403121561098157600080fd5b61098b6040611517565b9050600061099b848285016105eb565b60008301525060206109af8482850161055b565b60208301525092915050565b6000604082840312156109cd57600080fd5b6109d76040611517565b905060006109e7848285016105ff565b60008301525060206109fb8482850161056f565b60208301525092915050565b600060408284031215610a1957600080fd5b610a236040611517565b90506000610a33848285016105eb565b6000830152506020610a478482850161055b565b60208301525092915050565b600060408284031215610a6557600080fd5b610a6f6040611517565b90506000610a7f84828501610613565b6000830152506020610a938482850161055b565b60208301525092915050565b600060408284031215610ab157600080fd5b610abb6040611517565b90506000610acb84828501610627565b6000830152506020610adf8482850161056f565b60208301525092915050565b600060408284031215610afd57600080fd5b610b076040611517565b90506000610b1784828501610613565b6000830152506020610b2b8482850161055b565b60208301525092915050565b600060208284031215610b4957600080fd5b610b536020611517565b9050600082013567ffffffffffffffff811115610b6f57600080fd5b610b7b8482850161063b565b60008301525092915050565b600060208284031215610b9957600080fd5b610ba36020611517565b9050600082015167ffffffffffffffff811115610bbf57600080fd5b610bcb8482850161068f565b60008301525092915050565b600060208284031215610be957600080fd5b610bf36020611517565b9050600082013567ffffffffffffffff811115610c0f57600080fd5b610c1b8482850161063b565b60008301525092915050565b6000610c338235611734565b905092915050565b6000610c478251611734565b905092915050565b600080600060608486031215610c6457600080fd5b6000610c72868287016104d3565b9350506020610c8386828701610583565b925050604084013567ffffffffffffffff811115610ca057600080fd5b610cac868287016104e7565b9150509250925092565b600060208284031215610cc857600080fd5b600082013567ffffffffffffffff811115610ce257600080fd5b610cee84828501610597565b91505092915050565b60008060008060c08587031215610d0d57600080fd5b600085013567ffffffffffffffff811115610d2757600080fd5b610d33878288016106e3565b9450506020610d4487828801610aeb565b9350506060610d5587828801610a07565b92505060a085013567ffffffffffffffff811115610d7257600080fd5b610d7e87828801610bd7565b91505092959194509250565b600060208284031215610d9c57600080fd5b600082015167ffffffffffffffff811115610db657600080fd5b610dc2848285016107ff565b91505092915050565b600060208284031215610ddd57600080fd5b600082013567ffffffffffffffff811115610df757600080fd5b610e03848285016108b7565b91505092915050565b6000610e18838361118d565b905092915050565b6000610e2b826115d1565b610e3581856115ff565b935083602082028501610e47856115c4565b60005b84811015610e80578383038852610e62838351610e0c565b9250610e6d826115f2565b9150602088019750600181019050610e4a565b508196508694505050505092915050565b610e9a8161165f565b82525050565b610ea98161165f565b82525050565b610eb88161165f565b82525050565b6000610ec9826115dc565b610ed38185611610565b9350610ee3818560208601611774565b610eec816117a7565b840191505092915050565b6000610f02826115dc565b610f0c8185611621565b9350610f1c818560208601611774565b80840191505092915050565b610f3181611741565b82525050565b610f4081611741565b82525050565b610f4f81611753565b82525050565b610f5e81611753565b82525050565b6000610f6f826115e7565b610f79818561162c565b9350610f89818560208601611774565b610f92816117a7565b840191505092915050565b6000610fa8826115e7565b610fb2818561164e565b9350610fc2818560208601611774565b610fcb816117a7565b840191505092915050565b6000610fe360138361163d565b91507f4d61702063616c6c6261636b206661696c6564000000000000000000000000006000830152602082019050919050565b600060e08301600083015184820360008601526110338282610f64565b915050602083015161104860208601826113a2565b50604083015161105b6040860182611297565b50606083015161106e608086018261120a565b50608083015184820360c08601526110868282611324565b9150508091505092915050565b600060e08301600083015184820360008601526110b08282610f9d565b91505060208301516110c560208601826113c0565b5060408301516110d860408601826112f5565b5060608301516110eb6080860182611268565b50608083015184820360c08601526111038282611378565b9150508091505092915050565b600060e083016000830151848203600086015261112d8282610f64565b915050602083015161114260208601826113a2565b5060408301516111556040860182611297565b506060830151611168608086018261120a565b50608083015184820360c08601526111808282611324565b9150508091505092915050565b600060e08301600083015184820360008601526111aa8282610f9d565b91505060208301516111bf60208601826113c0565b5060408301516111d260408601826112f5565b5060608301516111e56080860182611268565b50608083015184820360c08601526111fd8282611378565b9150508091505092915050565b6040820160008201516112206000850182610f28565b5060208201516112336020850182610e91565b50505050565b60408201600082015161124f6000850182610f28565b5060208201516112626020850182610e91565b50505050565b60408201600082015161127e6000850182610f37565b5060208201516112916020850182610eaf565b50505050565b6040820160008201516112ad6000850182610f46565b5060208201516112c06020850182610e91565b50505050565b6040820160008201516112dc6000850182610f46565b5060208201516112ef6020850182610e91565b50505050565b60408201600082015161130b6000850182610f55565b50602082015161131e6020850182610eaf565b50505050565b600060208301600083015184820360008601526113418282610f64565b9150508091505092915050565b6000602083016000830151848203600086015261136b8282610f64565b9150508091505092915050565b600060208301600083015184820360008601526113958282610f9d565b9150508091505092915050565b6113ab81611691565b82525050565b6113ba81611691565b82525050565b6113c981611691565b82525050565b60006113db8284610ef7565b915081905092915050565b600060208201905081810360008301526114008184610e20565b905092915050565b600060208201905061141d6000830184610ea0565b92915050565b6000602082019050818103600083015261143d8184610ebe565b905092915050565b6000602082019050818103600083015261145e81610fd6565b9050919050565b6000602082019050818103600083015261147f8184611110565b905092915050565b600060208201905081810360008301526114a18184611016565b905092915050565b600060208201905081810360008301526114c38184611093565b905092915050565b600060c0820190506114e060008301876113b1565b6114ed60208301866112c6565b6114fa6060830185611239565b81810360a083015261150c818461134e565b905095945050505050565b6000604051905081810181811067ffffffffffffffff8211171561153a57600080fd5b8060405250919050565b600067ffffffffffffffff82111561155b57600080fd5b602082029050602081019050919050565b600067ffffffffffffffff82111561158357600080fd5b601f19601f8301169050602081019050919050565b600067ffffffffffffffff8211156115af57600080fd5b601f19601f8301169050602081019050919050565b6000602082019050919050565b600081519050919050565b600081519050919050565b600081519050919050565b6000602082019050919050565b600082825260208201905092915050565b600082825260208201905092915050565b600081905092915050565b600082825260208201905092915050565b600082825260208201905092915050565b600082825260208201905092915050565b6000819050919050565b60006001821061167557fe5b819050919050565b60006002821061168957fe5b819050919050565b600060ff82169050919050565b60006116a982611714565b9050919050565b6000819050919050565b60007fffffffff0000000000000000000000000000000000000000000000000000000082169050919050565b6000600182106116f557600080fd5b819050919050565b60006002821061170c57600080fd5b819050919050565b600073ffffffffffffffffffffffffffffffffffffffff82169050919050565b600060ff82169050919050565b600061174c82611669565b9050919050565b600061175e8261167d565b9050919050565b82818337600083830152505050565b60005b83811015611792578082015181840152602081019050611777565b838111156117a1576000848401525b50505050565b6000601f19601f830116905091905056fea265627a7a723058202729f2ad6ec126973ff04382b5d75d8114233aa83719e93207a2449b31e48eea6c6578706572696d656e74616cf50037",
  "source": "pragma solidity ^0.5.0;\npragma experimental ABIEncoderV2;\n\n// import './ExtensionLib.sol';\nimport './SwarmPointerLib.sol';\nimport './IpfsPointerLib.sol';\nimport './UriPointerLib.sol';\n\nlibrary FilePointerLib {\n\n    struct FilePointerRequired {\n        string name;\n        // ExtensionLib.Extension extension;\n        uint8 extension;\n    }\n\n    struct FilePointer {\n        string name;\n        uint8 extension;\n        SwarmPointerLib.SwarmPointer swarm;\n        IpfsPointerLib.IpfsPointer ipfs;\n        UriPointerLib.UriPointer uri;\n    }\n\n    function insert(FilePointerRequired storage self, FilePointer memory pointer) internal {\n        self.name = pointer.name;\n        self.extension = pointer.extension;\n    }\n\n    function insertArray(FilePointerRequired[] storage self, FilePointer[] memory pointers) internal {\n        uint256 length = pointers.length;\n        for (uint256 i = 0; i < length; i++) {\n            insert(self[i], pointers[i]);\n        }\n    }\n\n    function getDataHash(FilePointer memory pointer) pure public returns(bytes32 hash) {\n        return keccak256(abi.encode(pointer.extension, pointer.swarm, pointer.ipfs, pointer.uri));\n    }\n\n    function getFull(\n        FilePointerRequired memory pointer,\n        SwarmPointerLib.SwarmPointer memory swarm,\n        IpfsPointerLib.IpfsPointer memory ipfs,\n        UriPointerLib.UriPointer memory uri\n    )\n        pure\n        public\n        returns(FilePointer memory pointerFull)\n    {\n        return FilePointer(pointer.name, pointer.extension, swarm, ipfs, uri);\n    }\n\n    function structureBytes(bytes memory data)\n        pure\n        public\n        returns(FilePointer memory pointer)\n    {\n        (pointer) = abi.decode(data, (FilePointer));\n    }\n\n    function destructureBytes(FilePointer memory pointer)\n        pure\n        public\n        returns(bytes memory data)\n    {\n        return abi.encode(pointer);\n    }\n\n    function map(\n        address callbackAddr,\n        bytes4 callbackSig,\n        FilePointer[] memory pointerArr\n    )\n        view\n        public\n        returns (FilePointer[] memory result)\n    {\n        uint length = pointerArr.length;\n        result = new FilePointer[](length);\n\n        for (uint i = 0; i < length; i++) {\n            (bool success, bytes memory data) = callbackAddr.staticcall(abi.encodeWithSelector(callbackSig, pointerArr[i]));\n\n            require(success, \"Map callback failed\");\n            result[i] = structureBytes(data);\n        }\n\n        return result;\n    }\n}\n",
  "sourcePath": "/Users/loredana/ETH/dType/contracts/contracts/examples/filesystem/FilePointerLib.sol",
  "compiler": {
    "name": "solc",
    "version": "0.5.7+commit.6da8b019.Emscripten.clang"
  },
  "schemaVersion": "3.0.11",
  "updatedAt": "2019-07-27T20:46:21.842Z",
  "devdoc": {
    "methods": {}
  },
  "userdoc": {
    "methods": {}
  }
}