{
  "contractName": "FilePointerStorage",
  "abi": [
    {
      "constant": true,
      "inputs": [
        {
          "name": "",
          "type": "bytes32"
        }
      ],
      "name": "swarm",
      "outputs": [
        {
          "name": "protocol",
          "type": "uint8"
        },
        {
          "name": "filehash",
          "type": "bytes32"
        }
      ],
      "payable": false,
      "stateMutability": "view",
      "type": "function"
    },
    {
      "constant": true,
      "inputs": [
        {
          "name": "",
          "type": "bytes32"
        }
      ],
      "name": "typeStruct",
      "outputs": [
        {
          "components": [
            {
              "name": "name",
              "type": "string"
            },
            {
              "name": "extension",
              "type": "uint8"
            }
          ],
          "name": "data",
          "type": "tuple"
        },
        {
          "name": "index",
          "type": "uint256"
        }
      ],
      "payable": false,
      "stateMutability": "view",
      "type": "function"
    },
    {
      "constant": true,
      "inputs": [
        {
          "name": "",
          "type": "uint256"
        }
      ],
      "name": "typeIndex",
      "outputs": [
        {
          "name": "",
          "type": "bytes32"
        }
      ],
      "payable": false,
      "stateMutability": "view",
      "type": "function"
    },
    {
      "constant": true,
      "inputs": [
        {
          "name": "",
          "type": "bytes32"
        }
      ],
      "name": "uri",
      "outputs": [
        {
          "name": "uri",
          "type": "string"
        }
      ],
      "payable": false,
      "stateMutability": "view",
      "type": "function"
    },
    {
      "constant": true,
      "inputs": [
        {
          "name": "",
          "type": "bytes32"
        }
      ],
      "name": "ipfs",
      "outputs": [
        {
          "name": "protocol",
          "type": "uint8"
        },
        {
          "name": "filehash",
          "type": "bytes32"
        }
      ],
      "payable": false,
      "stateMutability": "view",
      "type": "function"
    },
    {
      "anonymous": false,
      "inputs": [
        {
          "indexed": true,
          "name": "hash",
          "type": "bytes32"
        },
        {
          "indexed": true,
          "name": "index",
          "type": "uint256"
        }
      ],
      "name": "LogNew",
      "type": "event"
    },
    {
      "anonymous": false,
      "inputs": [
        {
          "indexed": true,
          "name": "hash",
          "type": "bytes32"
        },
        {
          "indexed": true,
          "name": "index",
          "type": "uint256"
        }
      ],
      "name": "LogUpdate",
      "type": "event"
    },
    {
      "anonymous": false,
      "inputs": [
        {
          "indexed": true,
          "name": "hash",
          "type": "bytes32"
        },
        {
          "indexed": true,
          "name": "index",
          "type": "uint256"
        }
      ],
      "name": "LogRemove",
      "type": "event"
    },
    {
      "constant": false,
      "inputs": [
        {
          "components": [
            {
              "name": "name",
              "type": "string"
            },
            {
              "name": "extension",
              "type": "uint8"
            },
            {
              "components": [
                {
                  "name": "protocol",
                  "type": "uint8"
                },
                {
                  "name": "filehash",
                  "type": "bytes32"
                }
              ],
              "name": "swarm",
              "type": "tuple"
            },
            {
              "components": [
                {
                  "name": "protocol",
                  "type": "uint8"
                },
                {
                  "name": "filehash",
                  "type": "bytes32"
                }
              ],
              "name": "ipfs",
              "type": "tuple"
            },
            {
              "components": [
                {
                  "name": "uri",
                  "type": "string"
                }
              ],
              "name": "uri",
              "type": "tuple"
            }
          ],
          "name": "data",
          "type": "tuple"
        }
      ],
      "name": "insert",
      "outputs": [
        {
          "name": "hasho",
          "type": "bytes32"
        }
      ],
      "payable": false,
      "stateMutability": "nonpayable",
      "type": "function"
    },
    {
      "constant": false,
      "inputs": [
        {
          "name": "data",
          "type": "bytes"
        }
      ],
      "name": "insertBytes",
      "outputs": [
        {
          "name": "hasho",
          "type": "bytes32"
        }
      ],
      "payable": false,
      "stateMutability": "nonpayable",
      "type": "function"
    },
    {
      "constant": false,
      "inputs": [
        {
          "name": "hash",
          "type": "bytes32"
        }
      ],
      "name": "remove",
      "outputs": [
        {
          "name": "index",
          "type": "uint256"
        }
      ],
      "payable": false,
      "stateMutability": "nonpayable",
      "type": "function"
    },
    {
      "constant": false,
      "inputs": [
        {
          "name": "hashi",
          "type": "bytes32"
        },
        {
          "components": [
            {
              "name": "name",
              "type": "string"
            },
            {
              "name": "extension",
              "type": "uint8"
            },
            {
              "components": [
                {
                  "name": "protocol",
                  "type": "uint8"
                },
                {
                  "name": "filehash",
                  "type": "bytes32"
                }
              ],
              "name": "swarm",
              "type": "tuple"
            },
            {
              "components": [
                {
                  "name": "protocol",
                  "type": "uint8"
                },
                {
                  "name": "filehash",
                  "type": "bytes32"
                }
              ],
              "name": "ipfs",
              "type": "tuple"
            },
            {
              "components": [
                {
                  "name": "uri",
                  "type": "string"
                }
              ],
              "name": "uri",
              "type": "tuple"
            }
          ],
          "name": "data",
          "type": "tuple"
        }
      ],
      "name": "update",
      "outputs": [
        {
          "name": "hash",
          "type": "bytes32"
        }
      ],
      "payable": false,
      "stateMutability": "nonpayable",
      "type": "function"
    },
    {
      "constant": true,
      "inputs": [
        {
          "name": "hash",
          "type": "bytes32"
        }
      ],
      "name": "isStored",
      "outputs": [
        {
          "name": "isIndeed",
          "type": "bool"
        }
      ],
      "payable": false,
      "stateMutability": "view",
      "type": "function"
    },
    {
      "constant": true,
      "inputs": [
        {
          "name": "hash",
          "type": "bytes32"
        }
      ],
      "name": "getByHash",
      "outputs": [
        {
          "components": [
            {
              "name": "name",
              "type": "string"
            },
            {
              "name": "extension",
              "type": "uint8"
            },
            {
              "components": [
                {
                  "name": "protocol",
                  "type": "uint8"
                },
                {
                  "name": "filehash",
                  "type": "bytes32"
                }
              ],
              "name": "swarm",
              "type": "tuple"
            },
            {
              "components": [
                {
                  "name": "protocol",
                  "type": "uint8"
                },
                {
                  "name": "filehash",
                  "type": "bytes32"
                }
              ],
              "name": "ipfs",
              "type": "tuple"
            },
            {
              "components": [
                {
                  "name": "uri",
                  "type": "string"
                }
              ],
              "name": "uri",
              "type": "tuple"
            }
          ],
          "name": "data",
          "type": "tuple"
        }
      ],
      "payable": false,
      "stateMutability": "view",
      "type": "function"
    },
    {
      "constant": true,
      "inputs": [],
      "name": "count",
      "outputs": [
        {
          "name": "counter",
          "type": "uint256"
        }
      ],
      "payable": false,
      "stateMutability": "view",
      "type": "function"
    }
  ],
  "bytecode": "0x608060405234801561001057600080fd5b506120a7806100206000396000f3fe608060405234801561001057600080fd5b50600436106100b45760003560e01c80639ed19ddb116100715780639ed19ddb146101c9578063a2dd3d47146101f9578063c868992a14610229578063d6e84f561461025a578063d7987ea51461028a578063e5032bb3146102ba576100b4565b806306661abd146100b9578063163747bf146100d75780633f42aeab14610108578063668414a4146101385780637460e3111461016957806395bc267314610199575b600080fd5b6100c16102ea565b6040516100ce9190611dc7565b60405180910390f35b6100f160048036036100ec91908101906113e9565b6102f6565b6040516100ff929190611c55565b60405180910390f35b610122600480360361011d91908101906113e9565b610327565b60405161012f9190611bd4565b60405180910390f35b610152600480360361014d91908101906113e9565b610377565b604051610160929190611d53565b60405180910390f35b610183600480360361017e9190810190611552565b610464565b6040516101909190611bef565b60405180910390f35b6101b360048036036101ae91908101906113e9565b610485565b6040516101c09190611dc7565b60405180910390f35b6101e360048036036101de91908101906113e9565b61064a565b6040516101f09190611c7e565b60405180910390f35b610213600480360361020e91908101906113e9565b610700565b6040516102209190611d83565b60405180910390f35b610243600480360361023e91908101906113e9565b610900565b604051610251929190611c2c565b60405180910390f35b610274600480360361026f919081019061143b565b610931565b6040516102819190611bef565b60405180910390f35b6102a4600480360361029f919081019061148f565b61094e565b6040516102b19190611bef565b60405180910390f35b6102d460048036036102cf91908101906114d0565b6109eb565b6040516102e19190611bef565b60405180910390f35b60008080549050905090565b60026020528060005260406000206000915090508060000160009054906101000a900460ff16908060010154905082565b600080600080549050141561033f5760009050610372565b81600060016000858152602001908152602001600020600201548154811061036357fe5b90600052602060002001541490505b919050565b600160205280600052604060002060009150905080600001604051806040016040529081600082018054600181600116156101000203166002900480601f0160208091040260200160405190810160405280929190818152602001828054600181600116156101000203166002900480156104335780601f1061040857610100808354040283529160200191610433565b820191906000526020600020905b81548152906001019060200180831161041657829003601f168201915b505050505081526020016001820160009054906101000a900460ff1660ff1660ff1681525050908060020154905082565b6000818154811061047157fe5b906000526020600020016000915090505481565b600061049082610327565b6104cf576040517f08c379a00000000000000000000000000000000000000000000000000000000081526004016104c690611ce0565b60405180910390fd5b6000600160008481526020019081526020016000206002015490506000806001600080549050038154811061050057fe5b90600052602060002001549050806000838154811061051b57fe5b906000526020600020018190555081600160008381526020019081526020016000206002018190555060008054809190600190036105599190610c95565b5060026000858152602001908152602001600020600080820160006101000a81549060ff02191690556001820160009055505060036000858152602001908152602001600020600080820160006101000a81549060ff02191690556001820160009055505060046000858152602001908152602001600020600080820160006105e29190610cc1565b505081847f7aba1b7c67426c7ad78ea21a678946741a0c8795e99fa106728122a461e33cbc60405160405180910390a381817f486e2c79f26b56bb920c18e856915eb5e2922e2814cce03da8892d08cce6419760405160405180910390a38192505050919050565b6004602052806000526040600020600091509050806000018054600181600116156101000203166002900480601f0160208091040260200160405190810160405280929190818152602001828054600181600116156101000203166002900480156106f65780601f106106cb576101008083540402835291602001916106f6565b820191906000526020600020905b8154815290600101906020018083116106d957829003601f168201915b5050505050905081565b610708610d09565b61071182610327565b610750576040517f08c379a000000000000000000000000000000000000000000000000000000000815260040161074790611cc0565b60405180910390fd5b60016000838152602001908152602001600020600001604051806040016040529081600082018054600181600116156101000203166002900480601f01602080910402602001604051908101604052809291908181526020018280546001816001161561010002031660029004801561080a5780601f106107df5761010080835404028352916020019161080a565b820191906000526020600020905b8154815290600101906020018083116107ed57829003601f168201915b505050505081526020016001820160009054906101000a900460ff1660ff1660ff168152505073__FilePointerLib________________________63fbb3793290916002600086815260200190815260200160002060036000878152602001908152602001600020600460008881526020019081526020016000206040518563ffffffff1660e01b81526004016108a49493929190611d00565b60006040518083038186803b1580156108bc57600080fd5b505af41580156108d0573d6000803e3d6000fd5b505050506040513d6000823e3d601f19601f820116820180604052506108f99190810190611511565b9050919050565b60036020528060005260406000206000915090508060000160009054906101000a900460ff16908060010154905082565b600061093c83610485565b50610946826109eb565b905092915050565b60006109e473__FilePointerLib________________________63b3718ad0846040518263ffffffff1660e01b815260040161098a9190611c0a565b60006040518083038186803b1580156109a257600080fd5b505af41580156109b6573d6000803e3d6000fd5b505050506040513d6000823e3d601f19601f820116820180604052506109df9190810190611511565b6109eb565b9050919050565b6000808273__FilePointerLib________________________63980563d590916040518263ffffffff1660e01b8152600401610a279190611da5565b60206040518083038186803b158015610a3f57600080fd5b505af4158015610a53573d6000803e3d6000fd5b505050506040513d601f19601f82011682018060405250610a779190810190611412565b9050610a8281610327565b15610ac2576040517f08c379a0000000000000000000000000000000000000000000000000000000008152600401610ab990611ca0565b60405180910390fd5b610aea8360016000848152602001908152602001600020600001610c5390919063ffffffff16565b60016000829080600181540180825580915050906001820390600052602060002001600090919290919091505503600160008381526020019081526020016000206002018190555082604001516002600083815260200190815260200160002060008201518160000160006101000a81548160ff02191690836001811115610b6e57fe5b02179055506020820151816001015590505082606001516003600083815260200190815260200160002060008201518160000160006101000a81548160ff02191690836000811115610bbc57fe5b0217905550602082015181600101559050508260800151600460008381526020019081526020016000206000820151816000019080519060200190610c02929190610d4d565b509050506001600082815260200190815260200160002060020154817fb73e84a46ecb312937f7ba29efd91f4d9e74056ac7ef77f3f38e477646dd84d260405160405180910390a380915050919050565b8060000151826000019080519060200190610c6f929190610dcd565b5080602001518260010160006101000a81548160ff021916908360ff1602179055505050565b815481835581811115610cbc57818360005260206000209182019101610cbb9190610e4d565b5b505050565b50805460018160011615610100020316600290046000825580601f10610ce75750610d06565b601f016020900490600052602060002090810190610d059190610e72565b5b50565b6040518060e0016040528060608152602001600060ff168152602001610d2d610e97565b8152602001610d3a610ebf565b8152602001610d47610ee6565b81525090565b828054600181600116156101000203166002900490600052602060002090601f016020900481019282601f10610d8e57805160ff1916838001178555610dbc565b82800160010185558215610dbc579182015b82811115610dbb578251825591602001919060010190610da0565b5b509050610dc99190610e72565b5090565b828054600181600116156101000203166002900490600052602060002090601f016020900481019282601f10610e0e57805160ff1916838001178555610e3c565b82800160010185558215610e3c579182015b82811115610e3b578251825591602001919060010190610e20565b5b509050610e499190610e72565b5090565b610e6f91905b80821115610e6b576000816000905550600101610e53565b5090565b90565b610e9491905b80821115610e90576000816000905550600101610e78565b5090565b90565b604051806040016040528060006001811115610eaf57fe5b8152602001600080191681525090565b6040518060400160405280600080811115610ed657fe5b8152602001600080191681525090565b6040518060200160405280606081525090565b6000610f058235611f4c565b905092915050565b6000610f198251611f4c565b905092915050565b600082601f830112610f3257600080fd5b8135610f45610f4082611e0f565b611de2565b91508082526020830160208301858383011115610f6157600080fd5b610f6c838284611fbf565b50505092915050565b6000610f818235611f56565b905092915050565b6000610f958251611f56565b905092915050565b6000610fa98235611f6d565b905092915050565b6000610fbd8251611f6d565b905092915050565b600082601f830112610fd657600080fd5b8135610fe9610fe482611e3b565b611de2565b9150808252602083016020830185838301111561100557600080fd5b611010838284611fbf565b50505092915050565b600082601f83011261102a57600080fd5b815161103d61103882611e3b565b611de2565b9150808252602083016020830185838301111561105957600080fd5b611064838284611fce565b50505092915050565b600060e0828403121561107f57600080fd5b61108960a0611de2565b9050600082013567ffffffffffffffff8111156110a557600080fd5b6110b184828501610fc5565b60008301525060206110c5848285016113c1565b60208301525060406110d984828501611275565b60408301525060806110ed848285016111dd565b60608301525060c082013567ffffffffffffffff81111561110d57600080fd5b6111198482850161130d565b60808301525092915050565b600060e0828403121561113757600080fd5b61114160a0611de2565b9050600082015167ffffffffffffffff81111561115d57600080fd5b61116984828501611019565b600083015250602061117d848285016113d5565b6020830152506040611191848285016112c1565b60408301525060806111a584828501611229565b60608301525060c082015167ffffffffffffffff8111156111c557600080fd5b6111d18482850161135d565b60808301525092915050565b6000604082840312156111ef57600080fd5b6111f96040611de2565b9050600061120984828501610f75565b600083015250602061121d84828501610ef9565b60208301525092915050565b60006040828403121561123b57600080fd5b6112456040611de2565b9050600061125584828501610f89565b600083015250602061126984828501610f0d565b60208301525092915050565b60006040828403121561128757600080fd5b6112916040611de2565b905060006112a184828501610f9d565b60008301525060206112b584828501610ef9565b60208301525092915050565b6000604082840312156112d357600080fd5b6112dd6040611de2565b905060006112ed84828501610fb1565b600083015250602061130184828501610f0d565b60208301525092915050565b60006020828403121561131f57600080fd5b6113296020611de2565b9050600082013567ffffffffffffffff81111561134557600080fd5b61135184828501610fc5565b60008301525092915050565b60006020828403121561136f57600080fd5b6113796020611de2565b9050600082015167ffffffffffffffff81111561139557600080fd5b6113a184828501611019565b60008301525092915050565b60006113b98235611f84565b905092915050565b60006113cd8235611f8e565b905092915050565b60006113e18251611f8e565b905092915050565b6000602082840312156113fb57600080fd5b600061140984828501610ef9565b91505092915050565b60006020828403121561142457600080fd5b600061143284828501610f0d565b91505092915050565b6000806040838503121561144e57600080fd5b600061145c85828601610ef9565b925050602083013567ffffffffffffffff81111561147957600080fd5b6114858582860161106d565b9150509250929050565b6000602082840312156114a157600080fd5b600082013567ffffffffffffffff8111156114bb57600080fd5b6114c784828501610f21565b91505092915050565b6000602082840312156114e257600080fd5b600082013567ffffffffffffffff8111156114fc57600080fd5b6115088482850161106d565b91505092915050565b60006020828403121561152357600080fd5b600082015167ffffffffffffffff81111561153d57600080fd5b61154984828501611125565b91505092915050565b60006020828403121561156457600080fd5b6000611572848285016113ad565b91505092915050565b61158481611ed3565b82525050565b61159381611edf565b82525050565b6115a281611edf565b82525050565b6115b181611edf565b82525050565b60006115c282611e79565b6115cc8185611e8f565b93506115dc818560208601611fce565b6115e58161204f565b840191505092915050565b6115f981611f9b565b82525050565b61160881611f9b565b82525050565b61161781611f9b565b82525050565b61162681611fad565b82525050565b61163581611fad565b82525050565b61164481611fad565b82525050565b600061165582611e84565b61165f8185611ea0565b935061166f818560208601611fce565b6116788161204f565b840191505092915050565b600061168e82611e84565b6116988185611eb1565b93506116a8818560208601611fce565b6116b18161204f565b840191505092915050565b60006116c782611e84565b6116d18185611ec2565b93506116e1818560208601611fce565b6116ea8161204f565b840191505092915050565b60008154600181166000811461171257600181146117385761177c565b607f60028304166117238187611ec2565b955060ff19831686526020860193505061177c565b600282046117468187611ec2565b955061175185611e67565b60005b8281101561177357815481890152600182019150602081019050611754565b80880195505050505b505092915050565b6000611791602683611eb1565b91507f546869732064617461206578697374732e205573652074686520657874616e7460008301527f20646174612e00000000000000000000000000000000000000000000000000006020830152604082019050919050565b60006117f7601683611eb1565b91507f4e6f2073756368206461746120696e7365727465642e000000000000000000006000830152602082019050919050565b6000611837601883611eb1565b91507f4e6f742064656c657465643a206e6f7420657874616e742e00000000000000006000830152602082019050919050565b6000604083016000830151848203600086015261188782826116bc565b915050602083015161189c6020860182611bc5565b508091505092915050565b600060408301600083015184820360008601526118c4828261164a565b91505060208301516118d96020860182611bb6565b508091505092915050565b600060e0830160008301518482036000860152611901828261164a565b91505060208301516119166020860182611bb6565b5060408301516119296040860182611a83565b50606083015161193c60808601826119de565b50608083015184820360c08601526119548282611b28565b9150508091505092915050565b600060e083016000830151848203600086015261197e82826116bc565b91505060208301516119936020860182611bc5565b5060408301516119a66040860182611ab2565b5060608301516119b96080860182611a0d565b50608083015184820360c08601526119d18282611b52565b9150508091505092915050565b6040820160008201516119f460008501826115f0565b506020820151611a07602085018261158a565b50505050565b604082016000820151611a23600085018261160e565b506020820151611a3660208501826115a8565b50505050565b604082016000808301549050611a518161201b565b611a5e600086018261160e565b5060018301549050611a6f81612001565b611a7c60208601826115a8565b5050505050565b604082016000820151611a99600085018261161d565b506020820151611aac602085018261158a565b50505050565b604082016000820151611ac8600085018261163b565b506020820151611adb60208501826115a8565b50505050565b604082016000808301549050611af681612035565b611b03600086018261163b565b5060018301549050611b1481612001565b611b2160208601826115a8565b5050505050565b60006020830160008301518482036000860152611b45828261164a565b9150508091505092915050565b60006020830160008301518482036000860152611b6f82826116bc565b9150508091505092915050565b60006020830160008084018583036000870152611b9983826116f5565b925050819250505092915050565b611bb081611f11565b82525050565b611bbf81611f1b565b82525050565b611bce81611f1b565b82525050565b6000602082019050611be9600083018461157b565b92915050565b6000602082019050611c046000830184611599565b92915050565b60006020820190508181036000830152611c2481846115b7565b905092915050565b6000604082019050611c4160008301856115ff565b611c4e6020830184611599565b9392505050565b6000604082019050611c6a600083018561162c565b611c776020830184611599565b9392505050565b60006020820190508181036000830152611c988184611683565b905092915050565b60006020820190508181036000830152611cb981611784565b9050919050565b60006020820190508181036000830152611cd9816117ea565b9050919050565b60006020820190508181036000830152611cf98161182a565b9050919050565b600060c0820190508181036000830152611d1a818761186a565b9050611d296020830186611ae1565b611d366060830185611a3c565b81810360a0830152611d488184611b7c565b905095945050505050565b60006040820190508181036000830152611d6d81856118a7565b9050611d7c6020830184611ba7565b9392505050565b60006020820190508181036000830152611d9d81846118e4565b905092915050565b60006020820190508181036000830152611dbf8184611961565b905092915050565b6000602082019050611ddc6000830184611ba7565b92915050565b6000604051905081810181811067ffffffffffffffff82111715611e0557600080fd5b8060405250919050565b600067ffffffffffffffff821115611e2657600080fd5b601f19601f8301169050602081019050919050565b600067ffffffffffffffff821115611e5257600080fd5b601f19601f8301169050602081019050919050565b60008160005260206000209050919050565b600081519050919050565b600081519050919050565b600082825260208201905092915050565b600082825260208201905092915050565b600082825260208201905092915050565b600082825260208201905092915050565b60008115159050919050565b6000819050919050565b600060018210611ef557fe5b819050919050565b600060028210611f0957fe5b819050919050565b6000819050919050565b600060ff82169050919050565b6000819050919050565b600060ff82169050919050565b600060ff82169050919050565b6000819050919050565b600060018210611f6557600080fd5b819050919050565b600060028210611f7c57600080fd5b819050919050565b6000819050919050565b600060ff82169050919050565b6000611fa682611ee9565b9050919050565b6000611fb882611efd565b9050919050565b82818337600083830152505050565b60005b83811015611fec578082015181840152602081019050611fd1565b83811115611ffb576000848401525b50505050565b600061201461200f83612060565b611f28565b9050919050565b600061202e61202983612060565b611f32565b9050919050565b600061204861204383612060565b611f3f565b9050919050565b6000601f19601f8301169050919050565b60008160001c905091905056fea265627a7a72305820d07ca2d4dafcaf15d0627ea8ce5a6977b689a93fc8695e8d855276265cf587d96c6578706572696d656e74616cf50037",
  "source": "pragma solidity ^0.5.0;\npragma experimental ABIEncoderV2;\n\nimport './SwarmPointerLib.sol';\nimport './IpfsPointerLib.sol';\nimport './UriPointerLib.sol';\nimport './FilePointerLib.sol';\n\ncontract FilePointerStorage {\n    using FilePointerLib for FilePointerLib.FilePointer;\n    using FilePointerLib for FilePointerLib.FilePointerRequired;\n\n    bytes32[] public typeIndex;\n    mapping(bytes32 => Type) public typeStruct;\n\n    // Used for folders, to keep references to their files\n    mapping(bytes32 => SwarmPointerLib.SwarmPointer) public swarm;\n    mapping(bytes32 => IpfsPointerLib.IpfsPointer) public ipfs;\n    mapping(bytes32 => UriPointerLib.UriPointer) public uri;\n\n    struct Type {\n        FilePointerLib.FilePointerRequired data;\n        uint256 index;\n    }\n\n    modifier dataIsStored (bytes32 hash) {\n        require(isStored(hash), \"No such data inserted.\");\n        _;\n    }\n\n    event LogNew(bytes32 indexed hash, uint256 indexed index);\n    event LogUpdate(bytes32 indexed hash, uint256 indexed index);\n    event LogRemove(bytes32 indexed hash, uint256 indexed index);\n\n    function insert(FilePointerLib.FilePointer memory data) public returns (bytes32 hasho) {\n\n        // for data integrity\n        bytes32 hash = data.getDataHash();\n\n        if(isStored(hash)) revert(\"This data exists. Use the extant data.\");\n\n        typeStruct[hash].data.insert(data);\n        typeStruct[hash].index = typeIndex.push(hash) - 1;\n\n        swarm[hash] = data.swarm;\n        ipfs[hash] = data.ipfs;\n        uri[hash] = data.uri;\n\n        emit LogNew(hash, typeStruct[hash].index);\n        return hash;\n    }\n\n    function insertBytes(bytes memory data) public returns (bytes32 hasho) {\n        return insert(FilePointerLib.structureBytes(data));\n    }\n\n    function remove(bytes32 hash) public returns(uint256 index) {\n        if(!isStored(hash)) revert(\"Not deleted: not extant.\");\n        uint rowToDelete = typeStruct[hash].index;\n        bytes32 keyToMove = typeIndex[typeIndex.length-1];\n        typeIndex[rowToDelete] = keyToMove;\n        typeStruct[keyToMove].index = rowToDelete;\n        typeIndex.length--;\n\n        delete swarm[hash];\n        delete ipfs[hash];\n        delete uri[hash];\n\n        emit LogRemove(hash, rowToDelete);\n\n        emit LogUpdate(keyToMove, rowToDelete);\n        return rowToDelete;\n    }\n\n    function update(bytes32 hashi, FilePointerLib.FilePointer memory data)\n        public\n        returns(bytes32 hash)\n    {\n        remove(hashi);\n        return insert(data);\n    }\n\n    function isStored(bytes32 hash) public view returns(bool isIndeed) {\n        if(typeIndex.length == 0) return false;\n        return (typeIndex[typeStruct[hash].index] == hash);\n    }\n\n    function getByHash(bytes32 hash) public view returns(FilePointerLib.FilePointer memory data) {\n        if(!isStored(hash)) revert(\"No such data inserted.\");\n        return typeStruct[hash].data.getFull(swarm[hash], ipfs[hash], uri[hash]);\n    }\n\n    function count() public view returns(uint256 counter) {\n        return typeIndex.length;\n    }\n}\n",
  "sourcePath": "/Users/loredana/ETH/dType/contracts/contracts/examples/filesystem/FilePointerStorage.sol",
  "compiler": {
    "name": "solc",
    "version": "0.5.7+commit.6da8b019.Emscripten.clang"
  },
  "schemaVersion": "3.0.11",
  "updatedAt": "2019-07-27T20:46:21.848Z",
  "devdoc": {
    "methods": {}
  },
  "userdoc": {
    "methods": {}
  }
}