{
  "contractName": "FSPureFunctions",
  "abi": [
    {
      "constant": true,
      "inputs": [
        {
          "name": "oldrawfile",
          "type": "bytes"
        },
        {
          "name": "newrawfile",
          "type": "bytes"
        }
      ],
      "name": "structureData",
      "outputs": [
        {
          "components": [
            {
              "components": [
                {
                  "name": "name",
                  "type": "string"
                },
                {
                  "name": "extension",
                  "type": "uint8"
                },
                {
                  "components": [
                    {
                      "name": "protocol",
                      "type": "uint8"
                    },
                    {
                      "name": "filehash",
                      "type": "bytes32"
                    }
                  ],
                  "name": "swarm",
                  "type": "tuple"
                },
                {
                  "components": [
                    {
                      "name": "protocol",
                      "type": "uint8"
                    },
                    {
                      "name": "filehash",
                      "type": "bytes32"
                    }
                  ],
                  "name": "ipfs",
                  "type": "tuple"
                },
                {
                  "components": [
                    {
                      "name": "uri",
                      "type": "string"
                    }
                  ],
                  "name": "uri",
                  "type": "tuple"
                }
              ],
              "name": "pointer",
              "type": "tuple"
            },
            {
              "name": "parentKey",
              "type": "bytes32"
            },
            {
              "name": "filesPerFolder",
              "type": "bytes32[]"
            }
          ],
          "name": "oldfile",
          "type": "tuple"
        },
        {
          "components": [
            {
              "components": [
                {
                  "name": "name",
                  "type": "string"
                },
                {
                  "name": "extension",
                  "type": "uint8"
                },
                {
                  "components": [
                    {
                      "name": "protocol",
                      "type": "uint8"
                    },
                    {
                      "name": "filehash",
                      "type": "bytes32"
                    }
                  ],
                  "name": "swarm",
                  "type": "tuple"
                },
                {
                  "components": [
                    {
                      "name": "protocol",
                      "type": "uint8"
                    },
                    {
                      "name": "filehash",
                      "type": "bytes32"
                    }
                  ],
                  "name": "ipfs",
                  "type": "tuple"
                },
                {
                  "components": [
                    {
                      "name": "uri",
                      "type": "string"
                    }
                  ],
                  "name": "uri",
                  "type": "tuple"
                }
              ],
              "name": "pointer",
              "type": "tuple"
            },
            {
              "name": "parentKey",
              "type": "bytes32"
            },
            {
              "name": "filesPerFolder",
              "type": "bytes32[]"
            }
          ],
          "name": "newfile",
          "type": "tuple"
        }
      ],
      "payable": false,
      "stateMutability": "pure",
      "type": "function"
    },
    {
      "constant": true,
      "inputs": [
        {
          "components": [
            {
              "components": [
                {
                  "name": "name",
                  "type": "string"
                },
                {
                  "name": "extension",
                  "type": "uint8"
                },
                {
                  "components": [
                    {
                      "name": "protocol",
                      "type": "uint8"
                    },
                    {
                      "name": "filehash",
                      "type": "bytes32"
                    }
                  ],
                  "name": "swarm",
                  "type": "tuple"
                },
                {
                  "components": [
                    {
                      "name": "protocol",
                      "type": "uint8"
                    },
                    {
                      "name": "filehash",
                      "type": "bytes32"
                    }
                  ],
                  "name": "ipfs",
                  "type": "tuple"
                },
                {
                  "components": [
                    {
                      "name": "uri",
                      "type": "string"
                    }
                  ],
                  "name": "uri",
                  "type": "tuple"
                }
              ],
              "name": "pointer",
              "type": "tuple"
            },
            {
              "name": "parentKey",
              "type": "bytes32"
            },
            {
              "name": "filesPerFolder",
              "type": "bytes32[]"
            }
          ],
          "name": "oldfile",
          "type": "tuple"
        },
        {
          "components": [
            {
              "components": [
                {
                  "name": "name",
                  "type": "string"
                },
                {
                  "name": "extension",
                  "type": "uint8"
                },
                {
                  "components": [
                    {
                      "name": "protocol",
                      "type": "uint8"
                    },
                    {
                      "name": "filehash",
                      "type": "bytes32"
                    }
                  ],
                  "name": "swarm",
                  "type": "tuple"
                },
                {
                  "components": [
                    {
                      "name": "protocol",
                      "type": "uint8"
                    },
                    {
                      "name": "filehash",
                      "type": "bytes32"
                    }
                  ],
                  "name": "ipfs",
                  "type": "tuple"
                },
                {
                  "components": [
                    {
                      "name": "uri",
                      "type": "string"
                    }
                  ],
                  "name": "uri",
                  "type": "tuple"
                }
              ],
              "name": "pointer",
              "type": "tuple"
            },
            {
              "name": "parentKey",
              "type": "bytes32"
            },
            {
              "name": "filesPerFolder",
              "type": "bytes32[]"
            }
          ],
          "name": "newfile",
          "type": "tuple"
        }
      ],
      "name": "changeFileName",
      "outputs": [
        {
          "components": [
            {
              "components": [
                {
                  "name": "name",
                  "type": "string"
                },
                {
                  "name": "extension",
                  "type": "uint8"
                },
                {
                  "components": [
                    {
                      "name": "protocol",
                      "type": "uint8"
                    },
                    {
                      "name": "filehash",
                      "type": "bytes32"
                    }
                  ],
                  "name": "swarm",
                  "type": "tuple"
                },
                {
                  "components": [
                    {
                      "name": "protocol",
                      "type": "uint8"
                    },
                    {
                      "name": "filehash",
                      "type": "bytes32"
                    }
                  ],
                  "name": "ipfs",
                  "type": "tuple"
                },
                {
                  "components": [
                    {
                      "name": "uri",
                      "type": "string"
                    }
                  ],
                  "name": "uri",
                  "type": "tuple"
                }
              ],
              "name": "pointer",
              "type": "tuple"
            },
            {
              "name": "parentKey",
              "type": "bytes32"
            },
            {
              "name": "filesPerFolder",
              "type": "bytes32[]"
            }
          ],
          "name": "changedFile",
          "type": "tuple"
        },
        {
          "components": [
            {
              "components": [
                {
                  "name": "name",
                  "type": "string"
                },
                {
                  "name": "extension",
                  "type": "uint8"
                },
                {
                  "components": [
                    {
                      "name": "protocol",
                      "type": "uint8"
                    },
                    {
                      "name": "filehash",
                      "type": "bytes32"
                    }
                  ],
                  "name": "swarm",
                  "type": "tuple"
                },
                {
                  "components": [
                    {
                      "name": "protocol",
                      "type": "uint8"
                    },
                    {
                      "name": "filehash",
                      "type": "bytes32"
                    }
                  ],
                  "name": "ipfs",
                  "type": "tuple"
                },
                {
                  "components": [
                    {
                      "name": "uri",
                      "type": "string"
                    }
                  ],
                  "name": "uri",
                  "type": "tuple"
                }
              ],
              "name": "pointer",
              "type": "tuple"
            },
            {
              "name": "parentKey",
              "type": "bytes32"
            },
            {
              "name": "filesPerFolder",
              "type": "bytes32[]"
            }
          ],
          "name": "inewfile",
          "type": "tuple"
        }
      ],
      "payable": false,
      "stateMutability": "pure",
      "type": "function"
    },
    {
      "constant": true,
      "inputs": [
        {
          "components": [
            {
              "components": [
                {
                  "name": "name",
                  "type": "string"
                },
                {
                  "name": "extension",
                  "type": "uint8"
                },
                {
                  "components": [
                    {
                      "name": "protocol",
                      "type": "uint8"
                    },
                    {
                      "name": "filehash",
                      "type": "bytes32"
                    }
                  ],
                  "name": "swarm",
                  "type": "tuple"
                },
                {
                  "components": [
                    {
                      "name": "protocol",
                      "type": "uint8"
                    },
                    {
                      "name": "filehash",
                      "type": "bytes32"
                    }
                  ],
                  "name": "ipfs",
                  "type": "tuple"
                },
                {
                  "components": [
                    {
                      "name": "uri",
                      "type": "string"
                    }
                  ],
                  "name": "uri",
                  "type": "tuple"
                }
              ],
              "name": "pointer",
              "type": "tuple"
            },
            {
              "name": "parentKey",
              "type": "bytes32"
            },
            {
              "name": "filesPerFolder",
              "type": "bytes32[]"
            }
          ],
          "name": "oldfile",
          "type": "tuple"
        },
        {
          "components": [
            {
              "components": [
                {
                  "name": "name",
                  "type": "string"
                },
                {
                  "name": "extension",
                  "type": "uint8"
                },
                {
                  "components": [
                    {
                      "name": "protocol",
                      "type": "uint8"
                    },
                    {
                      "name": "filehash",
                      "type": "bytes32"
                    }
                  ],
                  "name": "swarm",
                  "type": "tuple"
                },
                {
                  "components": [
                    {
                      "name": "protocol",
                      "type": "uint8"
                    },
                    {
                      "name": "filehash",
                      "type": "bytes32"
                    }
                  ],
                  "name": "ipfs",
                  "type": "tuple"
                },
                {
                  "components": [
                    {
                      "name": "uri",
                      "type": "string"
                    }
                  ],
                  "name": "uri",
                  "type": "tuple"
                }
              ],
              "name": "pointer",
              "type": "tuple"
            },
            {
              "name": "parentKey",
              "type": "bytes32"
            },
            {
              "name": "filesPerFolder",
              "type": "bytes32[]"
            }
          ],
          "name": "newfile",
          "type": "tuple"
        }
      ],
      "name": "changeFileParent",
      "outputs": [
        {
          "components": [
            {
              "components": [
                {
                  "name": "name",
                  "type": "string"
                },
                {
                  "name": "extension",
                  "type": "uint8"
                },
                {
                  "components": [
                    {
                      "name": "protocol",
                      "type": "uint8"
                    },
                    {
                      "name": "filehash",
                      "type": "bytes32"
                    }
                  ],
                  "name": "swarm",
                  "type": "tuple"
                },
                {
                  "components": [
                    {
                      "name": "protocol",
                      "type": "uint8"
                    },
                    {
                      "name": "filehash",
                      "type": "bytes32"
                    }
                  ],
                  "name": "ipfs",
                  "type": "tuple"
                },
                {
                  "components": [
                    {
                      "name": "uri",
                      "type": "string"
                    }
                  ],
                  "name": "uri",
                  "type": "tuple"
                }
              ],
              "name": "pointer",
              "type": "tuple"
            },
            {
              "name": "parentKey",
              "type": "bytes32"
            },
            {
              "name": "filesPerFolder",
              "type": "bytes32[]"
            }
          ],
          "name": "changedFile",
          "type": "tuple"
        },
        {
          "components": [
            {
              "components": [
                {
                  "name": "name",
                  "type": "string"
                },
                {
                  "name": "extension",
                  "type": "uint8"
                },
                {
                  "components": [
                    {
                      "name": "protocol",
                      "type": "uint8"
                    },
                    {
                      "name": "filehash",
                      "type": "bytes32"
                    }
                  ],
                  "name": "swarm",
                  "type": "tuple"
                },
                {
                  "components": [
                    {
                      "name": "protocol",
                      "type": "uint8"
                    },
                    {
                      "name": "filehash",
                      "type": "bytes32"
                    }
                  ],
                  "name": "ipfs",
                  "type": "tuple"
                },
                {
                  "components": [
                    {
                      "name": "uri",
                      "type": "string"
                    }
                  ],
                  "name": "uri",
                  "type": "tuple"
                }
              ],
              "name": "pointer",
              "type": "tuple"
            },
            {
              "name": "parentKey",
              "type": "bytes32"
            },
            {
              "name": "filesPerFolder",
              "type": "bytes32[]"
            }
          ],
          "name": "inewfile",
          "type": "tuple"
        }
      ],
      "payable": false,
      "stateMutability": "pure",
      "type": "function"
    },
    {
      "constant": true,
      "inputs": [
        {
          "components": [
            {
              "components": [
                {
                  "name": "name",
                  "type": "string"
                },
                {
                  "name": "extension",
                  "type": "uint8"
                },
                {
                  "components": [
                    {
                      "name": "protocol",
                      "type": "uint8"
                    },
                    {
                      "name": "filehash",
                      "type": "bytes32"
                    }
                  ],
                  "name": "swarm",
                  "type": "tuple"
                },
                {
                  "components": [
                    {
                      "name": "protocol",
                      "type": "uint8"
                    },
                    {
                      "name": "filehash",
                      "type": "bytes32"
                    }
                  ],
                  "name": "ipfs",
                  "type": "tuple"
                },
                {
                  "components": [
                    {
                      "name": "uri",
                      "type": "string"
                    }
                  ],
                  "name": "uri",
                  "type": "tuple"
                }
              ],
              "name": "pointer",
              "type": "tuple"
            },
            {
              "name": "parentKey",
              "type": "bytes32"
            },
            {
              "name": "filesPerFolder",
              "type": "bytes32[]"
            }
          ],
          "name": "oldfile",
          "type": "tuple"
        },
        {
          "components": [
            {
              "components": [
                {
                  "name": "name",
                  "type": "string"
                },
                {
                  "name": "extension",
                  "type": "uint8"
                },
                {
                  "components": [
                    {
                      "name": "protocol",
                      "type": "uint8"
                    },
                    {
                      "name": "filehash",
                      "type": "bytes32"
                    }
                  ],
                  "name": "swarm",
                  "type": "tuple"
                },
                {
                  "components": [
                    {
                      "name": "protocol",
                      "type": "uint8"
                    },
                    {
                      "name": "filehash",
                      "type": "bytes32"
                    }
                  ],
                  "name": "ipfs",
                  "type": "tuple"
                },
                {
                  "components": [
                    {
                      "name": "uri",
                      "type": "string"
                    }
                  ],
                  "name": "uri",
                  "type": "tuple"
                }
              ],
              "name": "pointer",
              "type": "tuple"
            },
            {
              "name": "parentKey",
              "type": "bytes32"
            },
            {
              "name": "filesPerFolder",
              "type": "bytes32[]"
            }
          ],
          "name": "newfile",
          "type": "tuple"
        }
      ],
      "name": "addFolderFile",
      "outputs": [
        {
          "components": [
            {
              "components": [
                {
                  "name": "name",
                  "type": "string"
                },
                {
                  "name": "extension",
                  "type": "uint8"
                },
                {
                  "components": [
                    {
                      "name": "protocol",
                      "type": "uint8"
                    },
                    {
                      "name": "filehash",
                      "type": "bytes32"
                    }
                  ],
                  "name": "swarm",
                  "type": "tuple"
                },
                {
                  "components": [
                    {
                      "name": "protocol",
                      "type": "uint8"
                    },
                    {
                      "name": "filehash",
                      "type": "bytes32"
                    }
                  ],
                  "name": "ipfs",
                  "type": "tuple"
                },
                {
                  "components": [
                    {
                      "name": "uri",
                      "type": "string"
                    }
                  ],
                  "name": "uri",
                  "type": "tuple"
                }
              ],
              "name": "pointer",
              "type": "tuple"
            },
            {
              "name": "parentKey",
              "type": "bytes32"
            },
            {
              "name": "filesPerFolder",
              "type": "bytes32[]"
            }
          ],
          "name": "changedFile",
          "type": "tuple"
        },
        {
          "components": [
            {
              "components": [
                {
                  "name": "name",
                  "type": "string"
                },
                {
                  "name": "extension",
                  "type": "uint8"
                },
                {
                  "components": [
                    {
                      "name": "protocol",
                      "type": "uint8"
                    },
                    {
                      "name": "filehash",
                      "type": "bytes32"
                    }
                  ],
                  "name": "swarm",
                  "type": "tuple"
                },
                {
                  "components": [
                    {
                      "name": "protocol",
                      "type": "uint8"
                    },
                    {
                      "name": "filehash",
                      "type": "bytes32"
                    }
                  ],
                  "name": "ipfs",
                  "type": "tuple"
                },
                {
                  "components": [
                    {
                      "name": "uri",
                      "type": "string"
                    }
                  ],
                  "name": "uri",
                  "type": "tuple"
                }
              ],
              "name": "pointer",
              "type": "tuple"
            },
            {
              "name": "parentKey",
              "type": "bytes32"
            },
            {
              "name": "filesPerFolder",
              "type": "bytes32[]"
            }
          ],
          "name": "inewfile",
          "type": "tuple"
        }
      ],
      "payable": false,
      "stateMutability": "pure",
      "type": "function"
    },
    {
      "constant": true,
      "inputs": [
        {
          "components": [
            {
              "components": [
                {
                  "name": "name",
                  "type": "string"
                },
                {
                  "name": "extension",
                  "type": "uint8"
                },
                {
                  "components": [
                    {
                      "name": "protocol",
                      "type": "uint8"
                    },
                    {
                      "name": "filehash",
                      "type": "bytes32"
                    }
                  ],
                  "name": "swarm",
                  "type": "tuple"
                },
                {
                  "components": [
                    {
                      "name": "protocol",
                      "type": "uint8"
                    },
                    {
                      "name": "filehash",
                      "type": "bytes32"
                    }
                  ],
                  "name": "ipfs",
                  "type": "tuple"
                },
                {
                  "components": [
                    {
                      "name": "uri",
                      "type": "string"
                    }
                  ],
                  "name": "uri",
                  "type": "tuple"
                }
              ],
              "name": "pointer",
              "type": "tuple"
            },
            {
              "name": "parentKey",
              "type": "bytes32"
            },
            {
              "name": "filesPerFolder",
              "type": "bytes32[]"
            }
          ],
          "name": "oldfile",
          "type": "tuple"
        },
        {
          "components": [
            {
              "components": [
                {
                  "name": "name",
                  "type": "string"
                },
                {
                  "name": "extension",
                  "type": "uint8"
                },
                {
                  "components": [
                    {
                      "name": "protocol",
                      "type": "uint8"
                    },
                    {
                      "name": "filehash",
                      "type": "bytes32"
                    }
                  ],
                  "name": "swarm",
                  "type": "tuple"
                },
                {
                  "components": [
                    {
                      "name": "protocol",
                      "type": "uint8"
                    },
                    {
                      "name": "filehash",
                      "type": "bytes32"
                    }
                  ],
                  "name": "ipfs",
                  "type": "tuple"
                },
                {
                  "components": [
                    {
                      "name": "uri",
                      "type": "string"
                    }
                  ],
                  "name": "uri",
                  "type": "tuple"
                }
              ],
              "name": "pointer",
              "type": "tuple"
            },
            {
              "name": "parentKey",
              "type": "bytes32"
            },
            {
              "name": "filesPerFolder",
              "type": "bytes32[]"
            }
          ],
          "name": "newfile",
          "type": "tuple"
        }
      ],
      "name": "removeFolderFile",
      "outputs": [
        {
          "components": [
            {
              "components": [
                {
                  "name": "name",
                  "type": "string"
                },
                {
                  "name": "extension",
                  "type": "uint8"
                },
                {
                  "components": [
                    {
                      "name": "protocol",
                      "type": "uint8"
                    },
                    {
                      "name": "filehash",
                      "type": "bytes32"
                    }
                  ],
                  "name": "swarm",
                  "type": "tuple"
                },
                {
                  "components": [
                    {
                      "name": "protocol",
                      "type": "uint8"
                    },
                    {
                      "name": "filehash",
                      "type": "bytes32"
                    }
                  ],
                  "name": "ipfs",
                  "type": "tuple"
                },
                {
                  "components": [
                    {
                      "name": "uri",
                      "type": "string"
                    }
                  ],
                  "name": "uri",
                  "type": "tuple"
                }
              ],
              "name": "pointer",
              "type": "tuple"
            },
            {
              "name": "parentKey",
              "type": "bytes32"
            },
            {
              "name": "filesPerFolder",
              "type": "bytes32[]"
            }
          ],
          "name": "changedFile",
          "type": "tuple"
        },
        {
          "components": [
            {
              "components": [
                {
                  "name": "name",
                  "type": "string"
                },
                {
                  "name": "extension",
                  "type": "uint8"
                },
                {
                  "components": [
                    {
                      "name": "protocol",
                      "type": "uint8"
                    },
                    {
                      "name": "filehash",
                      "type": "bytes32"
                    }
                  ],
                  "name": "swarm",
                  "type": "tuple"
                },
                {
                  "components": [
                    {
                      "name": "protocol",
                      "type": "uint8"
                    },
                    {
                      "name": "filehash",
                      "type": "bytes32"
                    }
                  ],
                  "name": "ipfs",
                  "type": "tuple"
                },
                {
                  "components": [
                    {
                      "name": "uri",
                      "type": "string"
                    }
                  ],
                  "name": "uri",
                  "type": "tuple"
                }
              ],
              "name": "pointer",
              "type": "tuple"
            },
            {
              "name": "parentKey",
              "type": "bytes32"
            },
            {
              "name": "filesPerFolder",
              "type": "bytes32[]"
            }
          ],
          "name": "inewfile",
          "type": "tuple"
        }
      ],
      "payable": false,
      "stateMutability": "pure",
      "type": "function"
    },
    {
      "constant": true,
      "inputs": [
        {
          "components": [
            {
              "components": [
                {
                  "name": "name",
                  "type": "string"
                },
                {
                  "name": "extension",
                  "type": "uint8"
                },
                {
                  "components": [
                    {
                      "name": "protocol",
                      "type": "uint8"
                    },
                    {
                      "name": "filehash",
                      "type": "bytes32"
                    }
                  ],
                  "name": "swarm",
                  "type": "tuple"
                },
                {
                  "components": [
                    {
                      "name": "protocol",
                      "type": "uint8"
                    },
                    {
                      "name": "filehash",
                      "type": "bytes32"
                    }
                  ],
                  "name": "ipfs",
                  "type": "tuple"
                },
                {
                  "components": [
                    {
                      "name": "uri",
                      "type": "string"
                    }
                  ],
                  "name": "uri",
                  "type": "tuple"
                }
              ],
              "name": "pointer",
              "type": "tuple"
            },
            {
              "name": "parentKey",
              "type": "bytes32"
            },
            {
              "name": "filesPerFolder",
              "type": "bytes32[]"
            }
          ],
          "name": "oldfile",
          "type": "tuple"
        },
        {
          "components": [
            {
              "components": [
                {
                  "name": "name",
                  "type": "string"
                },
                {
                  "name": "extension",
                  "type": "uint8"
                },
                {
                  "components": [
                    {
                      "name": "protocol",
                      "type": "uint8"
                    },
                    {
                      "name": "filehash",
                      "type": "bytes32"
                    }
                  ],
                  "name": "swarm",
                  "type": "tuple"
                },
                {
                  "components": [
                    {
                      "name": "protocol",
                      "type": "uint8"
                    },
                    {
                      "name": "filehash",
                      "type": "bytes32"
                    }
                  ],
                  "name": "ipfs",
                  "type": "tuple"
                },
                {
                  "components": [
                    {
                      "name": "uri",
                      "type": "string"
                    }
                  ],
                  "name": "uri",
                  "type": "tuple"
                }
              ],
              "name": "pointer",
              "type": "tuple"
            },
            {
              "name": "parentKey",
              "type": "bytes32"
            },
            {
              "name": "filesPerFolder",
              "type": "bytes32[]"
            }
          ],
          "name": "newfile",
          "type": "tuple"
        }
      ],
      "name": "changeFolderFiles",
      "outputs": [
        {
          "components": [
            {
              "components": [
                {
                  "name": "name",
                  "type": "string"
                },
                {
                  "name": "extension",
                  "type": "uint8"
                },
                {
                  "components": [
                    {
                      "name": "protocol",
                      "type": "uint8"
                    },
                    {
                      "name": "filehash",
                      "type": "bytes32"
                    }
                  ],
                  "name": "swarm",
                  "type": "tuple"
                },
                {
                  "components": [
                    {
                      "name": "protocol",
                      "type": "uint8"
                    },
                    {
                      "name": "filehash",
                      "type": "bytes32"
                    }
                  ],
                  "name": "ipfs",
                  "type": "tuple"
                },
                {
                  "components": [
                    {
                      "name": "uri",
                      "type": "string"
                    }
                  ],
                  "name": "uri",
                  "type": "tuple"
                }
              ],
              "name": "pointer",
              "type": "tuple"
            },
            {
              "name": "parentKey",
              "type": "bytes32"
            },
            {
              "name": "filesPerFolder",
              "type": "bytes32[]"
            }
          ],
          "name": "changedFile",
          "type": "tuple"
        },
        {
          "components": [
            {
              "components": [
                {
                  "name": "name",
                  "type": "string"
                },
                {
                  "name": "extension",
                  "type": "uint8"
                },
                {
                  "components": [
                    {
                      "name": "protocol",
                      "type": "uint8"
                    },
                    {
                      "name": "filehash",
                      "type": "bytes32"
                    }
                  ],
                  "name": "swarm",
                  "type": "tuple"
                },
                {
                  "components": [
                    {
                      "name": "protocol",
                      "type": "uint8"
                    },
                    {
                      "name": "filehash",
                      "type": "bytes32"
                    }
                  ],
                  "name": "ipfs",
                  "type": "tuple"
                },
                {
                  "components": [
                    {
                      "name": "uri",
                      "type": "string"
                    }
                  ],
                  "name": "uri",
                  "type": "tuple"
                }
              ],
              "name": "pointer",
              "type": "tuple"
            },
            {
              "name": "parentKey",
              "type": "bytes32"
            },
            {
              "name": "filesPerFolder",
              "type": "bytes32[]"
            }
          ],
          "name": "inewfile",
          "type": "tuple"
        }
      ],
      "payable": false,
      "stateMutability": "pure",
      "type": "function"
    },
    {
      "constant": true,
      "inputs": [
        {
          "components": [
            {
              "components": [
                {
                  "name": "name",
                  "type": "string"
                },
                {
                  "name": "extension",
                  "type": "uint8"
                },
                {
                  "components": [
                    {
                      "name": "protocol",
                      "type": "uint8"
                    },
                    {
                      "name": "filehash",
                      "type": "bytes32"
                    }
                  ],
                  "name": "swarm",
                  "type": "tuple"
                },
                {
                  "components": [
                    {
                      "name": "protocol",
                      "type": "uint8"
                    },
                    {
                      "name": "filehash",
                      "type": "bytes32"
                    }
                  ],
                  "name": "ipfs",
                  "type": "tuple"
                },
                {
                  "components": [
                    {
                      "name": "uri",
                      "type": "string"
                    }
                  ],
                  "name": "uri",
                  "type": "tuple"
                }
              ],
              "name": "pointer",
              "type": "tuple"
            },
            {
              "name": "parentKey",
              "type": "bytes32"
            },
            {
              "name": "filesPerFolder",
              "type": "bytes32[]"
            }
          ],
          "name": "oldfile",
          "type": "tuple"
        },
        {
          "components": [
            {
              "components": [
                {
                  "name": "name",
                  "type": "string"
                },
                {
                  "name": "extension",
                  "type": "uint8"
                },
                {
                  "components": [
                    {
                      "name": "protocol",
                      "type": "uint8"
                    },
                    {
                      "name": "filehash",
                      "type": "bytes32"
                    }
                  ],
                  "name": "swarm",
                  "type": "tuple"
                },
                {
                  "components": [
                    {
                      "name": "protocol",
                      "type": "uint8"
                    },
                    {
                      "name": "filehash",
                      "type": "bytes32"
                    }
                  ],
                  "name": "ipfs",
                  "type": "tuple"
                },
                {
                  "components": [
                    {
                      "name": "uri",
                      "type": "string"
                    }
                  ],
                  "name": "uri",
                  "type": "tuple"
                }
              ],
              "name": "pointer",
              "type": "tuple"
            },
            {
              "name": "parentKey",
              "type": "bytes32"
            },
            {
              "name": "filesPerFolder",
              "type": "bytes32[]"
            }
          ],
          "name": "newfile",
          "type": "tuple"
        }
      ],
      "name": "getChangedFile",
      "outputs": [
        {
          "components": [
            {
              "components": [
                {
                  "name": "name",
                  "type": "string"
                },
                {
                  "name": "extension",
                  "type": "uint8"
                },
                {
                  "components": [
                    {
                      "name": "protocol",
                      "type": "uint8"
                    },
                    {
                      "name": "filehash",
                      "type": "bytes32"
                    }
                  ],
                  "name": "swarm",
                  "type": "tuple"
                },
                {
                  "components": [
                    {
                      "name": "protocol",
                      "type": "uint8"
                    },
                    {
                      "name": "filehash",
                      "type": "bytes32"
                    }
                  ],
                  "name": "ipfs",
                  "type": "tuple"
                },
                {
                  "components": [
                    {
                      "name": "uri",
                      "type": "string"
                    }
                  ],
                  "name": "uri",
                  "type": "tuple"
                }
              ],
              "name": "pointer",
              "type": "tuple"
            },
            {
              "name": "parentKey",
              "type": "bytes32"
            },
            {
              "name": "filesPerFolder",
              "type": "bytes32[]"
            }
          ],
          "name": "changedFile",
          "type": "tuple"
        }
      ],
      "payable": false,
      "stateMutability": "pure",
      "type": "function"
    },
    {
      "constant": true,
      "inputs": [
        {
          "components": [
            {
              "components": [
                {
                  "name": "name",
                  "type": "string"
                },
                {
                  "name": "extension",
                  "type": "uint8"
                },
                {
                  "components": [
                    {
                      "name": "protocol",
                      "type": "uint8"
                    },
                    {
                      "name": "filehash",
                      "type": "bytes32"
                    }
                  ],
                  "name": "swarm",
                  "type": "tuple"
                },
                {
                  "components": [
                    {
                      "name": "protocol",
                      "type": "uint8"
                    },
                    {
                      "name": "filehash",
                      "type": "bytes32"
                    }
                  ],
                  "name": "ipfs",
                  "type": "tuple"
                },
                {
                  "components": [
                    {
                      "name": "uri",
                      "type": "string"
                    }
                  ],
                  "name": "uri",
                  "type": "tuple"
                }
              ],
              "name": "pointer",
              "type": "tuple"
            },
            {
              "name": "parentKey",
              "type": "bytes32"
            },
            {
              "name": "filesPerFolder",
              "type": "bytes32[]"
            }
          ],
          "name": "file",
          "type": "tuple"
        }
      ],
      "name": "getUpdatePermissionKeys",
      "outputs": [
        {
          "name": "dataHashes",
          "type": "bytes32[]"
        }
      ],
      "payable": false,
      "stateMutability": "pure",
      "type": "function"
    },
    {
      "constant": true,
      "inputs": [
        {
          "components": [
            {
              "components": [
                {
                  "name": "name",
                  "type": "string"
                },
                {
                  "name": "extension",
                  "type": "uint8"
                },
                {
                  "components": [
                    {
                      "name": "protocol",
                      "type": "uint8"
                    },
                    {
                      "name": "filehash",
                      "type": "bytes32"
                    }
                  ],
                  "name": "swarm",
                  "type": "tuple"
                },
                {
                  "components": [
                    {
                      "name": "protocol",
                      "type": "uint8"
                    },
                    {
                      "name": "filehash",
                      "type": "bytes32"
                    }
                  ],
                  "name": "ipfs",
                  "type": "tuple"
                },
                {
                  "components": [
                    {
                      "name": "uri",
                      "type": "string"
                    }
                  ],
                  "name": "uri",
                  "type": "tuple"
                }
              ],
              "name": "pointer",
              "type": "tuple"
            },
            {
              "name": "parentKey",
              "type": "bytes32"
            },
            {
              "name": "filesPerFolder",
              "type": "bytes32[]"
            }
          ],
          "name": "file",
          "type": "tuple"
        }
      ],
      "name": "getInsertPermissionKeys",
      "outputs": [
        {
          "name": "dataHashes",
          "type": "bytes32[]"
        }
      ],
      "payable": false,
      "stateMutability": "pure",
      "type": "function"
    }
  ],
  "bytecode": "0x608060405234801561001057600080fd5b506115f9806100206000396000f3fe608060405234801561001057600080fd5b50600436106100935760003560e01c8063908528b511610066578063908528b51461015b578063acf53f351461018c578063b55c9505146101bd578063c4ad0bb2146101ee578063ea5544a21461021e57610093565b80632d7526ee1461009857806378b0a0ec146100c95780637cf4fd23146100fa5780638a981c2c1461012b575b600080fd5b6100b260048036036100ad9190810190610f94565b61024e565b6040516100c092919061133c565b60405180910390f35b6100e360048036036100de9190810190610f94565b610337565b6040516100f192919061133c565b60405180910390f35b610114600480360361010f9190810190610f94565b610369565b60405161012292919061133c565b60405180910390f35b61014560048036036101409190810190610f94565b610393565b604051610152919061131a565b60405180910390f35b61017560048036036101709190810190610ea6565b6103a4565b60405161018392919061133c565b60405180910390f35b6101a660048036036101a19190810190610f94565b6104d7565b6040516101b492919061133c565b60405180910390f35b6101d760048036036101d29190810190610f94565b610540565b6040516101e592919061133c565b60405180910390f35b61020860048036036102039190810190610f12565b61056b565b60405161021591906112d6565b60405180910390f35b61023860048036036102339190810190610f12565b61061f565b60405161024591906112d6565b60405180910390f35b6102566106d3565b61025e6106d3565b60018360400151511461027057600080fd5b6000846040015151905060008090505b8181101561032857846040015160018151811061029957fe5b6020026020010151866040015182815181106102b157fe5b6020026020010151141561031b57856040015160018303815181106102d257fe5b6020026020010151866040015182815181106102ea57fe5b60200260200101818152505085604001518660400151518151811061030b57fe5b6020026020010160008019168152505b8080600101915050610280565b50848492509250509250929050565b61033f6106d3565b6103476106d3565b8260000151600001518460000151600001819052508383915091509250929050565b6103716106d3565b6103796106d3565b826040015184604001819052508383915091509250929050565b61039b6106d3565b82905092915050565b6103ac6106d3565b6103b46106d3565b73__FileTypeLib___________________________63b3718ad0856040518263ffffffff1660e01b81526004016103eb91906112f8565b60006040518083038186803b15801561040357600080fd5b505af4158015610417573d6000803e3d6000fd5b505050506040513d6000823e3d601f19601f820116820180604052506104409190810190610f53565b73__FileTypeLib___________________________63b3718ad0856040518263ffffffff1660e01b815260040161047791906112f8565b60006040518083038186803b15801561048f57600080fd5b505af41580156104a3573d6000803e3d6000fd5b505050506040513d6000823e3d601f19601f820116820180604052506104cc9190810190610f53565b915091509250929050565b6104df6106d3565b6104e76106d3565b6001836040015151146104f957600080fd5b826040015160018151811061050a57fe5b602002602001015184604001518560400151518151811061052757fe5b6020026020010181815250508383915091509250929050565b6105486106d3565b6105506106d3565b82602001518460200181815250508383915091509250929050565b606060008260400151519050600181016040519080825280602002602001820160405280156105a95781602001602082028038833980820191505090505b5091508260200151826000815181106105be57fe5b60200260200101818152505060008090505b8181101561061857836040015181815181106105e857fe5b60200260200101518360018301815181106105ff57fe5b60200260200101818152505080806001019150506105d0565b5050919050565b6060600082604001515190506001810160405190808252806020026020018201604052801561065d5781602001602082028038833980820191505090505b50915082602001518260008151811061067257fe5b60200260200101818152505060008090505b818110156106cc578360400151818151811061069c57fe5b60200260200101518360018301815181106106b357fe5b6020026020010181815250508080600101915050610684565b5050919050565b6040518061012001604052806106e76106fe565b815260200160008019168152602001606081525090565b6040518060e0016040528060608152602001600060ff168152602001610722610742565b815260200161072f61076a565b815260200161073c610791565b81525090565b60405180604001604052806000600181111561075a57fe5b8152602001600080191681525090565b604051806040016040528060008081111561078157fe5b8152602001600080191681525090565b6040518060200160405280606081525090565b600082601f8301126107b557600080fd5b81356107c86107c3826113a0565b611373565b915081818352602084019350602081019050838560208402820111156107ed57600080fd5b60005b8381101561081d578161080388826108aa565b8452602084019350602083019250506001810190506107f0565b5050505092915050565b600082601f83011261083857600080fd5b815161084b610846826113a0565b611373565b9150818183526020840193506020810190508385602084028201111561087057600080fd5b60005b838110156108a0578161088688826108be565b845260208401935060208301925050600181019050610873565b5050505092915050565b60006108b68235611503565b905092915050565b60006108ca8251611503565b905092915050565b600082601f8301126108e357600080fd5b81356108f66108f1826113c8565b611373565b9150808252602083016020830185838301111561091257600080fd5b61091d83828461156c565b50505092915050565b6000610932823561150d565b905092915050565b6000610946825161150d565b905092915050565b600061095a8235611524565b905092915050565b600061096e8251611524565b905092915050565b600082601f83011261098757600080fd5b813561099a610995826113f4565b611373565b915080825260208301602083018583830111156109b657600080fd5b6109c183828461156c565b50505092915050565b600082601f8301126109db57600080fd5b81516109ee6109e9826113f4565b611373565b91508082526020830160208301858383011115610a0a57600080fd5b610a1583828461157b565b50505092915050565b600060e08284031215610a3057600080fd5b610a3a60a0611373565b9050600082013567ffffffffffffffff811115610a5657600080fd5b610a6284828501610976565b6000830152506020610a7684828501610e7e565b6020830152506040610a8a84828501610d46565b6040830152506080610a9e84828501610cae565b60608301525060c082013567ffffffffffffffff811115610abe57600080fd5b610aca84828501610dde565b60808301525092915050565b600060e08284031215610ae857600080fd5b610af260a0611373565b9050600082015167ffffffffffffffff811115610b0e57600080fd5b610b1a848285016109ca565b6000830152506020610b2e84828501610e92565b6020830152506040610b4284828501610d92565b6040830152506080610b5684828501610cfa565b60608301525060c082015167ffffffffffffffff811115610b7657600080fd5b610b8284828501610e2e565b60808301525092915050565b600060608284031215610ba057600080fd5b610baa6060611373565b9050600082013567ffffffffffffffff811115610bc657600080fd5b610bd284828501610a1e565b6000830152506020610be6848285016108aa565b602083015250604082013567ffffffffffffffff811115610c0657600080fd5b610c12848285016107a4565b60408301525092915050565b600060608284031215610c3057600080fd5b610c3a6060611373565b9050600082015167ffffffffffffffff811115610c5657600080fd5b610c6284828501610ad6565b6000830152506020610c76848285016108be565b602083015250604082015167ffffffffffffffff811115610c9657600080fd5b610ca284828501610827565b60408301525092915050565b600060408284031215610cc057600080fd5b610cca6040611373565b90506000610cda84828501610926565b6000830152506020610cee848285016108aa565b60208301525092915050565b600060408284031215610d0c57600080fd5b610d166040611373565b90506000610d268482850161093a565b6000830152506020610d3a848285016108be565b60208301525092915050565b600060408284031215610d5857600080fd5b610d626040611373565b90506000610d728482850161094e565b6000830152506020610d86848285016108aa565b60208301525092915050565b600060408284031215610da457600080fd5b610dae6040611373565b90506000610dbe84828501610962565b6000830152506020610dd2848285016108be565b60208301525092915050565b600060208284031215610df057600080fd5b610dfa6020611373565b9050600082013567ffffffffffffffff811115610e1657600080fd5b610e2284828501610976565b60008301525092915050565b600060208284031215610e4057600080fd5b610e4a6020611373565b9050600082015167ffffffffffffffff811115610e6657600080fd5b610e72848285016109ca565b60008301525092915050565b6000610e8a823561153b565b905092915050565b6000610e9e825161153b565b905092915050565b60008060408385031215610eb957600080fd5b600083013567ffffffffffffffff811115610ed357600080fd5b610edf858286016108d2565b925050602083013567ffffffffffffffff811115610efc57600080fd5b610f08858286016108d2565b9150509250929050565b600060208284031215610f2457600080fd5b600082013567ffffffffffffffff811115610f3e57600080fd5b610f4a84828501610b8e565b91505092915050565b600060208284031215610f6557600080fd5b600082015167ffffffffffffffff811115610f7f57600080fd5b610f8b84828501610c1e565b91505092915050565b60008060408385031215610fa757600080fd5b600083013567ffffffffffffffff811115610fc157600080fd5b610fcd85828601610b8e565b925050602083013567ffffffffffffffff811115610fea57600080fd5b610ff685828601610b8e565b9150509250929050565b600061100c83836110cc565b60208301905092915050565b600061102382611445565b61102d8185611491565b93506110388361142d565b60005b828110156110665761104e868351611000565b955061105982611473565b915060018101905061103b565b50849250505092915050565b600061107d8261143a565b6110878185611480565b935061109283611420565b60005b828110156110c0576110a8868351611000565b95506110b382611466565b9150600181019050611095565b50849250505092915050565b6110d5816114c4565b82525050565b60006110e682611450565b6110f081856114a2565b935061110081856020860161157b565b611109816115ae565b840191505092915050565b61111d81611548565b82525050565b61112c8161155a565b82525050565b600061113d8261145b565b61114781856114b3565b935061115781856020860161157b565b611160816115ae565b840191505092915050565b600060e08301600083015184820360008601526111888282611132565b915050602083015161119d60208601826112c7565b5060408301516111b0604086018261126e565b5060608301516111c3608086018261123f565b50608083015184820360c08601526111db828261129d565b9150508091505092915050565b60006060830160008301518482036000860152611205828261116b565b915050602083015161121a60208601826110cc565b50604083015184820360408601526112328282611072565b9150508091505092915050565b6040820160008201516112556000850182611114565b50602082015161126860208501826110cc565b50505050565b6040820160008201516112846000850182611123565b50602082015161129760208501826110cc565b50505050565b600060208301600083015184820360008601526112ba8282611132565b9150508091505092915050565b6112d0816114f6565b82525050565b600060208201905081810360008301526112f08184611018565b905092915050565b6000602082019050818103600083015261131281846110db565b905092915050565b6000602082019050818103600083015261133481846111e8565b905092915050565b6000604082019050818103600083015261135681856111e8565b9050818103602083015261136a81846111e8565b90509392505050565b6000604051905081810181811067ffffffffffffffff8211171561139657600080fd5b8060405250919050565b600067ffffffffffffffff8211156113b757600080fd5b602082029050602081019050919050565b600067ffffffffffffffff8211156113df57600080fd5b601f19601f8301169050602081019050919050565b600067ffffffffffffffff82111561140b57600080fd5b601f19601f8301169050602081019050919050565b6000602082019050919050565b6000602082019050919050565b600081519050919050565b600081519050919050565b600081519050919050565b600081519050919050565b6000602082019050919050565b6000602082019050919050565b600082825260208201905092915050565b600082825260208201905092915050565b600082825260208201905092915050565b600082825260208201905092915050565b6000819050919050565b6000600182106114da57fe5b819050919050565b6000600282106114ee57fe5b819050919050565b600060ff82169050919050565b6000819050919050565b60006001821061151c57600080fd5b819050919050565b60006002821061153357600080fd5b819050919050565b600060ff82169050919050565b6000611553826114ce565b9050919050565b6000611565826114e2565b9050919050565b82818337600083830152505050565b60005b8381101561159957808201518184015260208101905061157e565b838111156115a8576000848401525b50505050565b6000601f19601f830116905091905056fea265627a7a723058201793aa470149abd4617887ef7352497d5b343a68d971e22e26a44595175db0966c6578706572696d656e74616cf50037",
  "source": "pragma solidity ^0.5.0;\npragma experimental ABIEncoderV2;\n\nimport './FileTypeLib.sol';\n\ncontract FSPureFunctions {\n    using FileTypeLib for FileTypeLib.FileType;\n\n    function structureData(bytes memory oldrawfile, bytes memory newrawfile) pure public returns(FileTypeLib.FileType memory oldfile, FileTypeLib.FileType memory newfile) {\n        return (\n            FileTypeLib.structureBytes(oldrawfile),\n            FileTypeLib.structureBytes(newrawfile)\n        );\n    }\n\n    function changeFileName(FileTypeLib.FileType memory oldfile, FileTypeLib.FileType memory newfile)\n        pure\n        public\n        returns (FileTypeLib.FileType memory changedFile, FileTypeLib.FileType memory inewfile)\n    {\n        oldfile.pointer.name = newfile.pointer.name;\n        return (oldfile, newfile);\n    }\n\n    function changeFileParent(FileTypeLib.FileType memory oldfile, FileTypeLib.FileType memory newfile)\n        pure\n        public\n        returns (FileTypeLib.FileType memory changedFile, FileTypeLib.FileType memory inewfile)\n    {\n        oldfile.parentKey = newfile.parentKey;\n        return (oldfile, newfile);\n    }\n\n    function addFolderFile(FileTypeLib.FileType memory oldfile, FileTypeLib.FileType memory newfile)\n        pure\n        public\n        returns (FileTypeLib.FileType memory changedFile, FileTypeLib.FileType memory inewfile)\n    {\n        require(newfile.filesPerFolder.length == 1);\n        oldfile.filesPerFolder[oldfile.filesPerFolder.length] = newfile.filesPerFolder[1];\n        return (oldfile, newfile);\n    }\n\n    function removeFolderFile(FileTypeLib.FileType memory oldfile, FileTypeLib.FileType memory newfile)\n        pure\n        public\n        returns (FileTypeLib.FileType memory changedFile, FileTypeLib.FileType memory inewfile)\n    {\n        require(newfile.filesPerFolder.length == 1);\n        uint256 length = oldfile.filesPerFolder.length;\n        for (uint256 i = 0; i < length; i++) {\n            if (oldfile.filesPerFolder[i] == newfile.filesPerFolder[1]) {\n                oldfile.filesPerFolder[i] = oldfile.filesPerFolder[length - 1];\n                delete oldfile.filesPerFolder[oldfile.filesPerFolder.length];\n            }\n        }\n        return (oldfile, newfile);\n    }\n\n    function changeFolderFiles(FileTypeLib.FileType memory oldfile, FileTypeLib.FileType memory newfile)\n        pure\n        public\n        returns (FileTypeLib.FileType memory changedFile, FileTypeLib.FileType memory inewfile)\n    {\n        oldfile.filesPerFolder = newfile.filesPerFolder;\n        return (oldfile, newfile);\n    }\n\n    function getChangedFile(FileTypeLib.FileType memory oldfile, FileTypeLib.FileType memory newfile)\n        pure\n        public\n        returns (FileTypeLib.FileType memory changedFile)\n    {\n        return oldfile;\n    }\n\n    // TODO: we need both old file and new file for parentKey\n    // or attach another permission to a dataHash, related to the parentKey & other keys\n    function getUpdatePermissionKeys(FileTypeLib.FileType memory file)\n        pure\n        public\n        returns (bytes32[] memory dataHashes)\n    {\n        uint256 length = file.filesPerFolder.length;\n        dataHashes = new bytes32[](length + 1);\n\n        dataHashes[0] = file.parentKey;\n\n        // Removing files does not require permission\n        // Adding files does require permission\n        for (uint256 i = 0; i < length; i++) {\n            dataHashes[i + 1] = file.filesPerFolder[i];\n        }\n    }\n\n    function getInsertPermissionKeys(FileTypeLib.FileType memory file)\n        pure\n        public\n        returns (bytes32[] memory dataHashes)\n    {\n        uint256 length = file.filesPerFolder.length;\n        dataHashes = new bytes32[](length + 1);\n\n        dataHashes[0] = file.parentKey;\n\n        // Removing files does not require permission\n        // Adding files does require permission\n        for (uint256 i = 0; i < length; i++) {\n            dataHashes[i + 1] = file.filesPerFolder[i];\n        }\n    }\n}\n",
  "sourcePath": "/Users/loredana/ETH/dType/contracts/contracts/examples/filesystem/FSPureFunctions.sol",
  "compiler": {
    "name": "solc",
    "version": "0.5.7+commit.6da8b019.Emscripten.clang"
  },
  "schemaVersion": "3.0.11",
  "updatedAt": "2019-07-27T20:46:21.879Z",
  "devdoc": {
    "methods": {}
  },
  "userdoc": {
    "methods": {}
  }
}