{
  "contractName": "IpfsPointerLib",
  "abi": [
    {
      "constant": true,
      "inputs": [
        {
          "components": [
            {
              "name": "protocol",
              "type": "IpfsPointerLib.Protocol"
            },
            {
              "name": "filehash",
              "type": "bytes32"
            }
          ],
          "name": "pointer",
          "type": "tuple"
        }
      ],
      "name": "getDataHash",
      "outputs": [
        {
          "name": "hash",
          "type": "bytes32"
        }
      ],
      "payable": false,
      "stateMutability": "pure",
      "type": "function"
    },
    {
      "constant": true,
      "inputs": [
        {
          "components": [
            {
              "name": "protocol",
              "type": "IpfsPointerLib.Protocol"
            },
            {
              "name": "filehash",
              "type": "bytes32"
            }
          ],
          "name": "pointer",
          "type": "tuple"
        }
      ],
      "name": "getRequired",
      "outputs": [
        {
          "components": [
            {
              "name": "protocol",
              "type": "IpfsPointerLib.Protocol"
            },
            {
              "name": "filehash",
              "type": "bytes32"
            }
          ],
          "name": "pointerRequired",
          "type": "tuple"
        }
      ],
      "payable": false,
      "stateMutability": "pure",
      "type": "function"
    },
    {
      "constant": true,
      "inputs": [
        {
          "components": [
            {
              "name": "protocol",
              "type": "IpfsPointerLib.Protocol"
            },
            {
              "name": "filehash",
              "type": "bytes32"
            }
          ],
          "name": "pointer",
          "type": "tuple"
        }
      ],
      "name": "getFull",
      "outputs": [
        {
          "components": [
            {
              "name": "protocol",
              "type": "IpfsPointerLib.Protocol"
            },
            {
              "name": "filehash",
              "type": "bytes32"
            }
          ],
          "name": "pointerFull",
          "type": "tuple"
        }
      ],
      "payable": false,
      "stateMutability": "pure",
      "type": "function"
    },
    {
      "constant": true,
      "inputs": [
        {
          "name": "data",
          "type": "bytes"
        }
      ],
      "name": "structureBytes",
      "outputs": [
        {
          "components": [
            {
              "name": "protocol",
              "type": "IpfsPointerLib.Protocol"
            },
            {
              "name": "filehash",
              "type": "bytes32"
            }
          ],
          "name": "pointer",
          "type": "tuple"
        }
      ],
      "payable": false,
      "stateMutability": "pure",
      "type": "function"
    },
    {
      "constant": true,
      "inputs": [
        {
          "components": [
            {
              "name": "protocol",
              "type": "IpfsPointerLib.Protocol"
            },
            {
              "name": "filehash",
              "type": "bytes32"
            }
          ],
          "name": "pointer",
          "type": "tuple"
        }
      ],
      "name": "destructureBytes",
      "outputs": [
        {
          "name": "data",
          "type": "bytes"
        }
      ],
      "payable": false,
      "stateMutability": "pure",
      "type": "function"
    },
    {
      "constant": true,
      "inputs": [
        {
          "name": "callbackAddr",
          "type": "address"
        },
        {
          "name": "callbackSig",
          "type": "bytes4"
        },
        {
          "components": [
            {
              "name": "protocol",
              "type": "IpfsPointerLib.Protocol"
            },
            {
              "name": "filehash",
              "type": "bytes32"
            }
          ],
          "name": "pointerArr",
          "type": "tuple[]"
        }
      ],
      "name": "map",
      "outputs": [
        {
          "components": [
            {
              "name": "protocol",
              "type": "IpfsPointerLib.Protocol"
            },
            {
              "name": "filehash",
              "type": "bytes32"
            }
          ],
          "name": "result",
          "type": "tuple[]"
        }
      ],
      "payable": false,
      "stateMutability": "view",
      "type": "function"
    }
  ],
  "bytecode": "0x610c9a610026600b82828239805160001a60731461001957fe5b30600052607381538281f3fe730000000000000000000000000000000000000000301460806040526004361061006c5760003560e01c806316e774cf1461007157806323452719146100a157806360fbff54146100d1578063b3718ad014610101578063d1a817cf14610131578063f930464114610161575b600080fd5b61008b6004803603610086919081019061073c565b610191565b6040516100989190610a54565b60405180910390f35b6100bb60048036036100b6919081019061073c565b6101a1565b6040516100c891906109dc565b60405180910390f35b6100eb60048036036100e6919081019061073c565b6101ca565b6040516100f891906109c1565b60405180910390f35b61011b600480360361011691908101906106d2565b6101fa565b6040516101289190610a54565b60405180910390f35b61014b6004803603610146919081019061073c565b61021d565b6040516101589190610a54565b60405180910390f35b61017b6004803603610176919081019061066b565b61022d565b604051610188919061099f565b60405180910390f35b6101996103ea565b819050919050565b6060816040516020016101b49190610a39565b6040516020818303038152906040529050919050565b6000816040516020016101dd9190610a39565b604051602081830303815290604052805190602001209050919050565b6102026103ea565b818060200190516102169190810190610713565b9050919050565b6102256103ea565b819050919050565b60606000825190508060405190808252806020026020018201604052801561026f57816020015b61025c610411565b8152602001906001900390816102545790505b50915060008090505b818110156103de57600060608773ffffffffffffffffffffffffffffffffffffffff16878785815181106102a857fe5b60200260200101516040516024016102c09190610a1e565b604051602081830303815290604052907bffffffffffffffffffffffffffffffffffffffffffffffffffffffff19166020820180517bffffffffffffffffffffffffffffffffffffffffffffffffffffffff838183161783525050505060405161032a9190610988565b600060405180830381855afa9150503d8060008114610365576040519150601f19603f3d011682016040523d82523d6000602084013e61036a565b606091505b5091509150816103af576040517f08c379a00000000000000000000000000000000000000000000000000000000081526004016103a6906109fe565b60405180910390fd5b6103b8816101fa565b8584815181106103c457fe5b602002602001018190525050508080600101915050610278565b50819150509392505050565b604051806040016040528060008081111561040157fe5b8152602001600080191681525090565b604051806040016040528060008081111561042857fe5b8152602001600080191681525090565b60006104448235610b7c565b905092915050565b600082601f83011261045d57600080fd5b813561047061046b82610a9c565b610a6f565b9150818183526020840193506020810190508385604084028201111561049557600080fd5b60005b838110156104c557816104ab8882610587565b845260208401935060408301925050600181019050610498565b5050505092915050565b60006104db8235610b8e565b905092915050565b60006104ef8251610b8e565b905092915050565b60006105038235610b98565b905092915050565b600082601f83011261051c57600080fd5b813561052f61052a82610ac4565b610a6f565b9150808252602083016020830185838301111561054b57600080fd5b610556838284610c0d565b50505092915050565b600061056b8235610bc4565b905092915050565b600061057f8251610bc4565b905092915050565b60006040828403121561059957600080fd5b6105a36040610a6f565b905060006105b38482850161055f565b60008301525060206105c7848285016104cf565b60208301525092915050565b6000604082840312156105e557600080fd5b6105ef6040610a6f565b905060006105ff84828501610573565b6000830152506020610613848285016104e3565b60208301525092915050565b60006040828403121561063157600080fd5b61063b6040610a6f565b9050600061064b8482850161055f565b600083015250602061065f848285016104cf565b60208301525092915050565b60008060006060848603121561068057600080fd5b600061068e86828701610438565b935050602061069f868287016104f7565b925050604084013567ffffffffffffffff8111156106bc57600080fd5b6106c88682870161044c565b9150509250925092565b6000602082840312156106e457600080fd5b600082013567ffffffffffffffff8111156106fe57600080fd5b61070a8482850161050b565b91505092915050565b60006040828403121561072557600080fd5b6000610733848285016105d3565b91505092915050565b60006040828403121561074e57600080fd5b600061075c8482850161061f565b91505092915050565b60006107718383610959565b60408301905092915050565b600061078882610afd565b6107928185610b20565b935061079d83610af0565b60005b828110156107cb576107b3868351610765565b95506107be82610b13565b91506001810190506107a0565b50849250505092915050565b6107e081610b5e565b82525050565b6107ef81610b5e565b82525050565b6107fe81610b5e565b82525050565b600061080f82610b08565b6108198185610b31565b9350610829818560208601610c1c565b61083281610c4f565b840191505092915050565b600061084882610b08565b6108528185610b42565b9350610862818560208601610c1c565b80840191505092915050565b61087781610bfb565b82525050565b61088681610bfb565b82525050565b6000610899601383610b4d565b91507f4d61702063616c6c6261636b206661696c6564000000000000000000000000006000830152602082019050919050565b6040820160008201516108e2600085018261086e565b5060208201516108f560208501826107d7565b50505050565b604082016000820151610911600085018261087d565b50602082015161092460208501826107f5565b50505050565b604082016000820151610940600085018261086e565b50602082015161095360208501826107d7565b50505050565b60408201600082015161096f600085018261087d565b50602082015161098260208501826107f5565b50505050565b6000610994828461083d565b915081905092915050565b600060208201905081810360008301526109b9818461077d565b905092915050565b60006020820190506109d660008301846107e6565b92915050565b600060208201905081810360008301526109f68184610804565b905092915050565b60006020820190508181036000830152610a178161088c565b9050919050565b6000604082019050610a33600083018461092a565b92915050565b6000604082019050610a4e60008301846108cc565b92915050565b6000604082019050610a6960008301846108fb565b92915050565b6000604051905081810181811067ffffffffffffffff82111715610a9257600080fd5b8060405250919050565b600067ffffffffffffffff821115610ab357600080fd5b602082029050602081019050919050565b600067ffffffffffffffff821115610adb57600080fd5b601f19601f8301169050602081019050919050565b6000602082019050919050565b600081519050919050565b600081519050919050565b6000602082019050919050565b600082825260208201905092915050565b600082825260208201905092915050565b600081905092915050565b600082825260208201905092915050565b6000819050919050565b600060018210610b7457fe5b819050919050565b6000610b8782610bdb565b9050919050565b6000819050919050565b60007fffffffff0000000000000000000000000000000000000000000000000000000082169050919050565b600060018210610bd357600080fd5b819050919050565b600073ffffffffffffffffffffffffffffffffffffffff82169050919050565b6000610c0682610b68565b9050919050565b82818337600083830152505050565b60005b83811015610c3a578082015181840152602081019050610c1f565b83811115610c49576000848401525b50505050565b6000601f19601f830116905091905056fea265627a7a72305820072de6961cd6d734475cb1fe59e06fc31383ae41c595775d64b09e0c5a0d7eba6c6578706572696d656e74616cf50037",
  "source": "pragma solidity ^0.5.0;\npragma experimental ABIEncoderV2;\n\nlibrary IpfsPointerLib {\n\n    enum Protocol {\n        IPFS\n    }\n\n    struct IpfsPointer {\n        Protocol protocol;\n        bytes32 filehash;\n    }\n\n    function insert(IpfsPointer storage self, IpfsPointer memory pointer) internal {\n        if (pointer.filehash != bytes32(0x0)) {\n            self.protocol = pointer.protocol;\n            self.filehash = pointer.filehash;\n        }\n    }\n\n    function insertArray(IpfsPointer[] storage self, IpfsPointer[] memory pointer) internal {\n        uint256 length = pointer.length;\n        for (uint256 i = 0; i < length; i++) {\n            insert(self[i], pointer[i]);\n        }\n    }\n\n    function getDataHash(IpfsPointer memory pointer) pure public returns(bytes32 hash) {\n        return keccak256(abi.encode(pointer));\n    }\n\n    function getRequired(IpfsPointer memory pointer) pure public returns(IpfsPointer memory pointerRequired) {\n        return pointer;\n    }\n\n    function getFull(IpfsPointer memory pointer) pure public returns(IpfsPointer memory pointerFull) {\n        return pointer;\n    }\n\n    function structureBytes(bytes memory data)\n        pure\n        public\n        returns(IpfsPointer memory pointer)\n    {\n        (pointer) = abi.decode(data, (IpfsPointer));\n    }\n\n    function destructureBytes(IpfsPointer memory pointer)\n        pure\n        public\n        returns(bytes memory data)\n    {\n        return abi.encode(pointer);\n    }\n\n    function map(\n        address callbackAddr,\n        bytes4 callbackSig,\n        IpfsPointer[] memory pointerArr\n    )\n        view\n        public\n        returns (IpfsPointer[] memory result)\n    {\n        uint length = pointerArr.length;\n        result = new IpfsPointer[](length);\n\n        for (uint i = 0; i < length; i++) {\n            (bool success, bytes memory data) = callbackAddr.staticcall(abi.encodeWithSelector(callbackSig, pointerArr[i]));\n\n            require(success, \"Map callback failed\");\n            result[i] = structureBytes(data);\n        }\n\n        return result;\n    }\n}\n",
  "sourcePath": "/Users/loredana/ETH/dType/contracts/contracts/examples/filesystem/IpfsPointerLib.sol",
  "compiler": {
    "name": "solc",
    "version": "0.5.7+commit.6da8b019.Emscripten.clang"
  },
  "schemaVersion": "3.0.11",
  "updatedAt": "2019-07-16T11:00:51.197Z",
  "devdoc": {
    "methods": {}
  },
  "userdoc": {
    "methods": {}
  }
}