{
  "contractName": "MarkdownLib",
  "abi": [
    {
      "constant": true,
      "inputs": [
        {
          "components": [
            {
              "name": "content",
              "type": "string"
            }
          ],
          "name": "instance",
          "type": "tuple"
        }
      ],
      "name": "getDataHash",
      "outputs": [
        {
          "name": "hash",
          "type": "bytes32"
        }
      ],
      "payable": false,
      "stateMutability": "pure",
      "type": "function"
    },
    {
      "constant": true,
      "inputs": [
        {
          "name": "data",
          "type": "bytes"
        }
      ],
      "name": "structureBytes",
      "outputs": [
        {
          "components": [
            {
              "name": "content",
              "type": "string"
            }
          ],
          "name": "instance",
          "type": "tuple"
        }
      ],
      "payable": false,
      "stateMutability": "pure",
      "type": "function"
    },
    {
      "constant": true,
      "inputs": [
        {
          "components": [
            {
              "name": "content",
              "type": "string"
            }
          ],
          "name": "instance",
          "type": "tuple"
        }
      ],
      "name": "destructureBytes",
      "outputs": [
        {
          "name": "data",
          "type": "bytes"
        }
      ],
      "payable": false,
      "stateMutability": "pure",
      "type": "function"
    }
  ],
  "bytecode": "0x610732610026600b82828239805160001a60731461001957fe5b30600052607381538281f3fe730000000000000000000000000000000000000000301460806040526004361061004b5760003560e01c80633483a7f71461005057806349ca8f9014610080578063b3718ad0146100b0575b600080fd5b61006a60048036036100659190810190610391565b6100e0565b6040516100779190610534565b60405180910390f35b61009a60048036036100959190810190610391565b610109565b6040516100a79190610519565b60405180910390f35b6100ca60048036036100c5919081019061030f565b61013d565b6040516100d7919061059a565b60405180910390f35b6060816040516020016100f39190610578565b6040516020818303038152906040529050919050565b600081600001516040516020016101209190610556565b604051602081830303815290604052805190602001209050919050565b610145610160565b818060200190516101599190810190610350565b9050919050565b6040518060200160405280606081525090565b600082601f83011261018457600080fd5b8135610197610192826105e9565b6105bc565b915080825260208301602083018583830111156101b357600080fd5b6101be8382846106a5565b50505092915050565b600082601f8301126101d857600080fd5b81356101eb6101e682610615565b6105bc565b9150808252602083016020830185838301111561020757600080fd5b6102128382846106a5565b50505092915050565b600082601f83011261022c57600080fd5b815161023f61023a82610615565b6105bc565b9150808252602083016020830185838301111561025b57600080fd5b6102668382846106b4565b50505092915050565b60006020828403121561028157600080fd5b61028b60206105bc565b9050600082015167ffffffffffffffff8111156102a757600080fd5b6102b38482850161021b565b60008301525092915050565b6000602082840312156102d157600080fd5b6102db60206105bc565b9050600082013567ffffffffffffffff8111156102f757600080fd5b610303848285016101c7565b60008301525092915050565b60006020828403121561032157600080fd5b600082013567ffffffffffffffff81111561033b57600080fd5b61034784828501610173565b91505092915050565b60006020828403121561036257600080fd5b600082015167ffffffffffffffff81111561037c57600080fd5b6103888482850161026f565b91505092915050565b6000602082840312156103a357600080fd5b600082013567ffffffffffffffff8111156103bd57600080fd5b6103c9848285016102bf565b91505092915050565b6103db8161069b565b82525050565b60006103ec82610641565b6103f68185610657565b93506104068185602086016106b4565b61040f816106e7565b840191505092915050565b60006104258261064c565b61042f8185610668565b935061043f8185602086016106b4565b610448816106e7565b840191505092915050565b600061045e8261064c565b6104688185610679565b93506104788185602086016106b4565b610481816106e7565b840191505092915050565b60006104978261064c565b6104a1818561068a565b93506104b18185602086016106b4565b6104ba816106e7565b840191505092915050565b600060208301600083015184820360008601526104e2828261041a565b9150508091505092915050565b6000602083016000830151848203600086015261050c828261048c565b9150508091505092915050565b600060208201905061052e60008301846103d2565b92915050565b6000602082019050818103600083015261054e81846103e1565b905092915050565b600060208201905081810360008301526105708184610453565b905092915050565b6000602082019050818103600083015261059281846104c5565b905092915050565b600060208201905081810360008301526105b481846104ef565b905092915050565b6000604051905081810181811067ffffffffffffffff821117156105df57600080fd5b8060405250919050565b600067ffffffffffffffff82111561060057600080fd5b601f19601f8301169050602081019050919050565b600067ffffffffffffffff82111561062c57600080fd5b601f19601f8301169050602081019050919050565b600081519050919050565b600081519050919050565b600082825260208201905092915050565b600082825260208201905092915050565b600082825260208201905092915050565b600082825260208201905092915050565b6000819050919050565b82818337600083830152505050565b60005b838110156106d25780820151818401526020810190506106b7565b838111156106e1576000848401525b50505050565b6000601f19601f830116905091905056fea265627a7a72305820e82a137a054afa43978c363b7809f7869cb14366d484bd4e5c049ff72fd4dec66c6578706572696d656e74616cf50037",
  "source": "pragma solidity ^0.5.0;\npragma experimental ABIEncoderV2;\n\nlibrary MarkdownLib {\n\n    struct Markdown {\n        string content;\n    }\n\n    function insert(Markdown storage self, Markdown memory instance) internal {\n        self.content = instance.content;\n    }\n\n    function getDataHash(Markdown memory instance) pure public returns(bytes32 hash) {\n        return keccak256(abi.encode(instance.content));\n    }\n\n    function structureBytes(bytes memory data)\n        pure\n        public\n        returns(Markdown memory instance)\n    {\n        (instance) = abi.decode(data, (Markdown));\n    }\n\n    function destructureBytes(Markdown memory instance)\n        pure\n        public\n        returns(bytes memory data)\n    {\n        return abi.encode(instance);\n    }\n}\n",
  "sourcePath": "/Users/loredana/ETH/dType/contracts/contracts/examples/markdown/MarkdownLib.sol",
  "compiler": {
    "name": "solc",
    "version": "0.5.7+commit.6da8b019.Emscripten.clang"
  },
  "schemaVersion": "3.0.11",
  "updatedAt": "2019-07-28T12:59:04.172Z",
  "devdoc": {
    "methods": {}
  },
  "userdoc": {
    "methods": {}
  }
}