{
  "contractName": "PermissionLib",
  "abi": [
    {
      "constant": true,
      "inputs": [
        {
          "components": [
            {
              "name": "contractAddress",
              "type": "address"
            },
            {
              "name": "functionSig",
              "type": "bytes4"
            },
            {
              "name": "transitionHash",
              "type": "bytes32"
            },
            {
              "name": "dataHash",
              "type": "bytes32"
            },
            {
              "name": "anyone",
              "type": "bool"
            },
            {
              "name": "allowed",
              "type": "address"
            },
            {
              "components": [
                {
                  "name": "temporaryAction",
                  "type": "bytes4"
                },
                {
                  "name": "votingProcessDataHash",
                  "type": "bytes32"
                },
                {
                  "name": "functionHashPermission",
                  "type": "bytes32"
                },
                {
                  "name": "allowedTransitions",
                  "type": "bytes32[]"
                }
              ],
              "name": "permissionProcess",
              "type": "tuple"
            }
          ],
          "name": "permissionFull",
          "type": "tuple"
        }
      ],
      "name": "getRequired",
      "outputs": [
        {
          "components": [
            {
              "name": "anyone",
              "type": "bool"
            },
            {
              "name": "allowed",
              "type": "address"
            }
          ],
          "name": "permission",
          "type": "tuple"
        }
      ],
      "payable": false,
      "stateMutability": "pure",
      "type": "function"
    },
    {
      "constant": true,
      "inputs": [
        {
          "components": [
            {
              "name": "anyone",
              "type": "bool"
            },
            {
              "name": "allowed",
              "type": "address"
            },
            {
              "components": [
                {
                  "name": "temporaryAction",
                  "type": "bytes4"
                },
                {
                  "name": "votingProcessDataHash",
                  "type": "bytes32"
                },
                {
                  "name": "functionHashPermission",
                  "type": "bytes32"
                },
                {
                  "name": "allowedTransitions",
                  "type": "bytes32[]"
                }
              ],
              "name": "permissionProcess",
              "type": "tuple"
            }
          ],
          "name": "permissionFull",
          "type": "tuple"
        }
      ],
      "name": "getRequired",
      "outputs": [
        {
          "components": [
            {
              "name": "anyone",
              "type": "bool"
            },
            {
              "name": "allowed",
              "type": "address"
            }
          ],
          "name": "permission",
          "type": "tuple"
        }
      ],
      "payable": false,
      "stateMutability": "pure",
      "type": "function"
    },
    {
      "constant": true,
      "inputs": [
        {
          "components": [
            {
              "name": "contractAddress",
              "type": "address"
            },
            {
              "name": "functionSig",
              "type": "bytes4"
            },
            {
              "name": "transitionHash",
              "type": "bytes32"
            },
            {
              "name": "dataHash",
              "type": "bytes32"
            },
            {
              "name": "anyone",
              "type": "bool"
            },
            {
              "name": "allowed",
              "type": "address"
            },
            {
              "components": [
                {
                  "name": "temporaryAction",
                  "type": "bytes4"
                },
                {
                  "name": "votingProcessDataHash",
                  "type": "bytes32"
                },
                {
                  "name": "functionHashPermission",
                  "type": "bytes32"
                },
                {
                  "name": "allowedTransitions",
                  "type": "bytes32[]"
                }
              ],
              "name": "permissionProcess",
              "type": "tuple"
            }
          ],
          "name": "permissionFull",
          "type": "tuple"
        }
      ],
      "name": "getFull",
      "outputs": [
        {
          "components": [
            {
              "name": "anyone",
              "type": "bool"
            },
            {
              "name": "allowed",
              "type": "address"
            },
            {
              "components": [
                {
                  "name": "temporaryAction",
                  "type": "bytes4"
                },
                {
                  "name": "votingProcessDataHash",
                  "type": "bytes32"
                },
                {
                  "name": "functionHashPermission",
                  "type": "bytes32"
                },
                {
                  "name": "allowedTransitions",
                  "type": "bytes32[]"
                }
              ],
              "name": "permissionProcess",
              "type": "tuple"
            }
          ],
          "name": "permission",
          "type": "tuple"
        }
      ],
      "payable": false,
      "stateMutability": "pure",
      "type": "function"
    },
    {
      "constant": true,
      "inputs": [
        {
          "components": [
            {
              "name": "anyone",
              "type": "bool"
            },
            {
              "name": "allowed",
              "type": "address"
            }
          ],
          "name": "permission",
          "type": "tuple"
        },
        {
          "components": [
            {
              "name": "temporaryAction",
              "type": "bytes4"
            },
            {
              "name": "votingProcessDataHash",
              "type": "bytes32"
            },
            {
              "name": "functionHashPermission",
              "type": "bytes32"
            },
            {
              "name": "allowedTransitions",
              "type": "bytes32[]"
            }
          ],
          "name": "permissionProcess",
          "type": "tuple"
        }
      ],
      "name": "getFull",
      "outputs": [
        {
          "components": [
            {
              "name": "anyone",
              "type": "bool"
            },
            {
              "name": "allowed",
              "type": "address"
            },
            {
              "components": [
                {
                  "name": "temporaryAction",
                  "type": "bytes4"
                },
                {
                  "name": "votingProcessDataHash",
                  "type": "bytes32"
                },
                {
                  "name": "functionHashPermission",
                  "type": "bytes32"
                },
                {
                  "name": "allowedTransitions",
                  "type": "bytes32[]"
                }
              ],
              "name": "permissionProcess",
              "type": "tuple"
            }
          ],
          "name": "permissionFull",
          "type": "tuple"
        }
      ],
      "payable": false,
      "stateMutability": "pure",
      "type": "function"
    },
    {
      "constant": true,
      "inputs": [
        {
          "components": [
            {
              "name": "contractAddress",
              "type": "address"
            },
            {
              "name": "functionSig",
              "type": "bytes4"
            },
            {
              "name": "transitionHash",
              "type": "bytes32"
            },
            {
              "name": "dataHash",
              "type": "bytes32"
            },
            {
              "name": "anyone",
              "type": "bool"
            },
            {
              "name": "allowed",
              "type": "address"
            },
            {
              "components": [
                {
                  "name": "temporaryAction",
                  "type": "bytes4"
                },
                {
                  "name": "votingProcessDataHash",
                  "type": "bytes32"
                },
                {
                  "name": "functionHashPermission",
                  "type": "bytes32"
                },
                {
                  "name": "allowedTransitions",
                  "type": "bytes32[]"
                }
              ],
              "name": "permissionProcess",
              "type": "tuple"
            }
          ],
          "name": "permission",
          "type": "tuple"
        }
      ],
      "name": "getDataHash",
      "outputs": [
        {
          "name": "hash",
          "type": "bytes32"
        }
      ],
      "payable": false,
      "stateMutability": "pure",
      "type": "function"
    },
    {
      "constant": true,
      "inputs": [
        {
          "components": [
            {
              "name": "contractAddress",
              "type": "address"
            },
            {
              "name": "functionSig",
              "type": "bytes4"
            },
            {
              "name": "transitionHash",
              "type": "bytes32"
            },
            {
              "name": "dataHash",
              "type": "bytes32"
            }
          ],
          "name": "identifier",
          "type": "tuple"
        }
      ],
      "name": "getDataHash",
      "outputs": [
        {
          "name": "hash",
          "type": "bytes32"
        }
      ],
      "payable": false,
      "stateMutability": "pure",
      "type": "function"
    },
    {
      "constant": true,
      "inputs": [
        {
          "name": "data",
          "type": "bytes"
        }
      ],
      "name": "structureBytes",
      "outputs": [
        {
          "components": [
            {
              "name": "contractAddress",
              "type": "address"
            },
            {
              "name": "functionSig",
              "type": "bytes4"
            },
            {
              "name": "transitionHash",
              "type": "bytes32"
            },
            {
              "name": "dataHash",
              "type": "bytes32"
            },
            {
              "name": "anyone",
              "type": "bool"
            },
            {
              "name": "allowed",
              "type": "address"
            },
            {
              "components": [
                {
                  "name": "temporaryAction",
                  "type": "bytes4"
                },
                {
                  "name": "votingProcessDataHash",
                  "type": "bytes32"
                },
                {
                  "name": "functionHashPermission",
                  "type": "bytes32"
                },
                {
                  "name": "allowedTransitions",
                  "type": "bytes32[]"
                }
              ],
              "name": "permissionProcess",
              "type": "tuple"
            }
          ],
          "name": "dataStruct",
          "type": "tuple"
        }
      ],
      "payable": false,
      "stateMutability": "pure",
      "type": "function"
    },
    {
      "constant": true,
      "inputs": [
        {
          "components": [
            {
              "name": "contractAddress",
              "type": "address"
            },
            {
              "name": "functionSig",
              "type": "bytes4"
            },
            {
              "name": "transitionHash",
              "type": "bytes32"
            },
            {
              "name": "dataHash",
              "type": "bytes32"
            },
            {
              "name": "anyone",
              "type": "bool"
            },
            {
              "name": "allowed",
              "type": "address"
            },
            {
              "components": [
                {
                  "name": "temporaryAction",
                  "type": "bytes4"
                },
                {
                  "name": "votingProcessDataHash",
                  "type": "bytes32"
                },
                {
                  "name": "functionHashPermission",
                  "type": "bytes32"
                },
                {
                  "name": "allowedTransitions",
                  "type": "bytes32[]"
                }
              ],
              "name": "permissionProcess",
              "type": "tuple"
            }
          ],
          "name": "dataStruct",
          "type": "tuple"
        }
      ],
      "name": "destructureBytes",
      "outputs": [
        {
          "name": "data",
          "type": "bytes"
        }
      ],
      "payable": false,
      "stateMutability": "pure",
      "type": "function"
    }
  ],
  "bytecode": "0x6114f6610026600b82828239805160001a60731461001957fe5b30600052607381538281f3fe73000000000000000000000000000000000000000030146080604052600436106100925760003560e01c8063b3718ad011610065578063b3718ad014610157578063dfdff48314610187578063f8feaa27146101b7578063fa31af19146101e757610092565b80636d4a9651146100975780636e823a40146100c757806395fcadbc146100f757806398a645a814610127575b600080fd5b6100b160048036036100ac9190810190610d0b565b610217565b6040516100be919061121c565b60405180910390f35b6100e160048036036100dc9190810190610d0b565b610265565b6040516100ee919061123e565b60405180910390f35b610111600480360361010c9190810190610d0b565b6102a9565b60405161011e91906111df565b60405180910390f35b610141600480360361013c9190810190610c4d565b6102ef565b60405161014e91906111df565b60405180910390f35b610171600480360361016c9190810190610bcb565b610335565b60405161017e919061127b565b60405180910390f35b6101a1600480360361019c9190810190610d0b565b610358565b6040516101ae91906111fa565b60405180910390f35b6101d160048036036101cc9190810190610c76565b610381565b6040516101de919061121c565b60405180910390f35b61020160048036036101fc9190810190610c0c565b6103cc565b60405161020e919061123e565b60405180910390f35b61021f610410565b60405180606001604052808360800151151581526020018360a0015173ffffffffffffffffffffffffffffffffffffffff1681526020018360c001518152509050919050565b61026d61044f565b60405180604001604052808360800151151581526020018360a0015173ffffffffffffffffffffffffffffffffffffffff168152509050919050565b600081600001518260200151836040015184606001516040516020016102d2949392919061119a565b604051602081830303815290604052805190602001209050919050565b60008160000151826020015183604001518460600151604051602001610318949392919061119a565b604051602081830303815290604052805190602001209050919050565b61033d610481565b818060200190516103519190810190610cca565b9050919050565b60608160405160200161036b9190611259565b6040516020818303038152906040529050919050565b610389610410565b6040518060600160405280846000015115158152602001846020015173ffffffffffffffffffffffffffffffffffffffff16815260200183815250905092915050565b6103d461044f565b6040518060400160405280836000015115158152602001836020015173ffffffffffffffffffffffffffffffffffffffff168152509050919050565b6040518060c00160405280600015158152602001600073ffffffffffffffffffffffffffffffffffffffff168152602001610449610518565b81525090565b6040518060400160405280600015158152602001600073ffffffffffffffffffffffffffffffffffffffff1681525090565b604051806101400160405280600073ffffffffffffffffffffffffffffffffffffffff16815260200160007bffffffffffffffffffffffffffffffffffffffffffffffffffffffff191681526020016000801916815260200160008019168152602001600015158152602001600073ffffffffffffffffffffffffffffffffffffffff168152602001610512610518565b81525090565b604051806080016040528060007bffffffffffffffffffffffffffffffffffffffffffffffffffffffff191681526020016000801916815260200160008019168152602001606081525090565b600061057182356113f5565b905092915050565b600061058582516113f5565b905092915050565b600082601f83011261059e57600080fd5b81356105b16105ac826112ca565b61129d565b915081818352602084019350602081019050838560208402820111156105d657600080fd5b60005b8381101561060657816105ec88826106bb565b8452602084019350602083019250506001810190506105d9565b5050505092915050565b600082601f83011261062157600080fd5b815161063461062f826112ca565b61129d565b9150818183526020840193506020810190508385602084028201111561065957600080fd5b60005b83811015610689578161066f88826106cf565b84526020840193506020830192505060018101905061065c565b5050505092915050565b600061069f8235611407565b905092915050565b60006106b38251611407565b905092915050565b60006106c78235611413565b905092915050565b60006106db8251611413565b905092915050565b60006106ef823561141d565b905092915050565b6000610703825161141d565b905092915050565b600082601f83011261071c57600080fd5b813561072f61072a826112f2565b61129d565b9150808252602083016020830185838301111561074b57600080fd5b610756838284611469565b50505092915050565b60006060828403121561077157600080fd5b61077b606061129d565b9050600061078b84828501610693565b600083015250602061079f84828501610565565b602083015250604082013567ffffffffffffffff8111156107bf57600080fd5b6107cb8482850161084b565b60408301525092915050565b6000608082840312156107e957600080fd5b6107f3608061129d565b9050600061080384828501610565565b6000830152506020610817848285016106e3565b602083015250604061082b848285016106bb565b604083015250606061083f848285016106bb565b60608301525092915050565b60006080828403121561085d57600080fd5b610867608061129d565b90506000610877848285016106e3565b600083015250602061088b848285016106bb565b602083015250604061089f848285016106bb565b604083015250606082013567ffffffffffffffff8111156108bf57600080fd5b6108cb8482850161058d565b60608301525092915050565b6000608082840312156108e957600080fd5b6108f3608061129d565b90506000610903848285016106f7565b6000830152506020610917848285016106cf565b602083015250604061092b848285016106cf565b604083015250606082015167ffffffffffffffff81111561094b57600080fd5b61095784828501610610565b60608301525092915050565b60006080828403121561097557600080fd5b61097f608061129d565b9050600061098f848285016106e3565b60008301525060206109a3848285016106bb565b60208301525060406109b7848285016106bb565b604083015250606082013567ffffffffffffffff8111156109d757600080fd5b6109e38482850161058d565b60608301525092915050565b600060408284031215610a0157600080fd5b610a0b604061129d565b90506000610a1b84828501610693565b6000830152506020610a2f84828501610565565b60208301525092915050565b600060e08284031215610a4d57600080fd5b610a5760e061129d565b90506000610a6784828501610579565b6000830152506020610a7b848285016106f7565b6020830152506040610a8f848285016106cf565b6040830152506060610aa3848285016106cf565b6060830152506080610ab7848285016106a7565b60808301525060a0610acb84828501610579565b60a08301525060c082015167ffffffffffffffff811115610aeb57600080fd5b610af7848285016108d7565b60c08301525092915050565b600060e08284031215610b1557600080fd5b610b1f60e061129d565b90506000610b2f84828501610565565b6000830152506020610b43848285016106e3565b6020830152506040610b57848285016106bb565b6040830152506060610b6b848285016106bb565b6060830152506080610b7f84828501610693565b60808301525060a0610b9384828501610565565b60a08301525060c082013567ffffffffffffffff811115610bb357600080fd5b610bbf8482850161084b565b60c08301525092915050565b600060208284031215610bdd57600080fd5b600082013567ffffffffffffffff811115610bf757600080fd5b610c038482850161070b565b91505092915050565b600060208284031215610c1e57600080fd5b600082013567ffffffffffffffff811115610c3857600080fd5b610c448482850161075f565b91505092915050565b600060808284031215610c5f57600080fd5b6000610c6d848285016107d7565b91505092915050565b60008060608385031215610c8957600080fd5b6000610c97858286016109ef565b925050604083013567ffffffffffffffff811115610cb457600080fd5b610cc085828601610963565b9150509250929050565b600060208284031215610cdc57600080fd5b600082015167ffffffffffffffff811115610cf657600080fd5b610d0284828501610a3b565b91505092915050565b600060208284031215610d1d57600080fd5b600082013567ffffffffffffffff811115610d3757600080fd5b610d4384828501610b03565b91505092915050565b6000610d588383610e7b565b60208301905092915050565b6000610d708383610ea8565b60208301905092915050565b610d8581611381565b82525050565b610d9481611381565b82525050565b610da381611381565b82525050565b6000610db48261132b565b610dbe818561134e565b9350610dc98361131e565b60005b82811015610df757610ddf868351610d4c565b9550610dea82611341565b9150600181019050610dcc565b50849250505092915050565b6000610e0e8261132b565b610e18818561135f565b9350610e238361131e565b60005b82811015610e5157610e39868351610d64565b9550610e4482611341565b9150600181019050610e26565b50849250505092915050565b610e6681611393565b82525050565b610e7581611393565b82525050565b610e848161139f565b82525050565b610e938161139f565b82525050565b610ea28161139f565b82525050565b610eb18161139f565b82525050565b610ec0816113a9565b82525050565b610ecf816113a9565b82525050565b610ede816113a9565b82525050565b6000610eef82611336565b610ef98185611370565b9350610f09818560208601611478565b610f12816114ab565b840191505092915050565b6000606083016000830151610f356000860182610e6c565b506020830151610f486020860182610d9a565b5060408301518482036040860152610f608282610fd0565b9150508091505092915050565b6000608083016000830151610f856000860182610eb7565b506020830151610f986020860182610e7b565b506040830151610fab6040860182610e7b565b5060608301518482036060860152610fc38282610da9565b9150508091505092915050565b6000608083016000830151610fe86000860182610ed5565b506020830151610ffb6020860182610ea8565b50604083015161100e6040860182610ea8565b50606083015184820360608601526110268282610e03565b9150508091505092915050565b6040820160008201516110496000850182610e6c565b50602082015161105c6020850182610d9a565b50505050565b600060e08301600083015161107a6000860182610d7c565b50602083015161108d6020860182610eb7565b5060408301516110a06040860182610e7b565b5060608301516110b36060860182610e7b565b5060808301516110c66080860182610e5d565b5060a08301516110d960a0860182610d7c565b5060c083015184820360c08601526110f18282610f6d565b9150508091505092915050565b600060e0830160008301516111166000860182610d9a565b5060208301516111296020860182610ed5565b50604083015161113c6040860182610ea8565b50606083015161114f6060860182610ea8565b5060808301516111626080860182610e6c565b5060a083015161117560a0860182610d9a565b5060c083015184820360c086015261118d8282610fd0565b9150508091505092915050565b60006080820190506111af6000830187610d8b565b6111bc6020830186610ec6565b6111c96040830185610e8a565b6111d66060830184610e8a565b95945050505050565b60006020820190506111f46000830184610e99565b92915050565b600060208201905081810360008301526112148184610ee4565b905092915050565b600060208201905081810360008301526112368184610f1d565b905092915050565b60006040820190506112536000830184611033565b92915050565b600060208201905081810360008301526112738184611062565b905092915050565b6000602082019050818103600083015261129581846110fe565b905092915050565b6000604051905081810181811067ffffffffffffffff821117156112c057600080fd5b8060405250919050565b600067ffffffffffffffff8211156112e157600080fd5b602082029050602081019050919050565b600067ffffffffffffffff82111561130957600080fd5b601f19601f8301169050602081019050919050565b6000602082019050919050565b600081519050919050565b600081519050919050565b6000602082019050919050565b600082825260208201905092915050565b600082825260208201905092915050565b600082825260208201905092915050565b600061138c826113d5565b9050919050565b60008115159050919050565b6000819050919050565b60007fffffffff0000000000000000000000000000000000000000000000000000000082169050919050565b600073ffffffffffffffffffffffffffffffffffffffff82169050919050565b600061140082611449565b9050919050565b60008115159050919050565b6000819050919050565b60007fffffffff0000000000000000000000000000000000000000000000000000000082169050919050565b600073ffffffffffffffffffffffffffffffffffffffff82169050919050565b82818337600083830152505050565b60005b8381101561149657808201518184015260208101905061147b565b838111156114a5576000848401525b50505050565b6000601f19601f830116905091905056fea265627a7a72305820413e7e66b6e4685314ab0c2321f2e4bde1f5df89ffb9f75c139288ef404797dd6c6578706572696d656e74616cf50037",
  "source": "pragma solidity ^0.5.0;\npragma experimental ABIEncoderV2;\n\nimport './PermissionProcessLib.sol';\n\nlibrary PermissionLib {\n\n    struct PermissionRequired {\n        bool anyone;\n        address allowed;\n    }\n\n    struct PermissionFull {\n        bool anyone;\n        address allowed;\n        PermissionProcessLib.PermissionProcess permissionProcess;\n    }\n\n    struct PermissionIdentifier {\n        address contractAddress;\n        bytes4 functionSig;\n        bytes32 transitionHash;\n        bytes32 dataHash;\n    }\n\n    struct Permission {\n        address contractAddress;\n        bytes4 functionSig;\n        bytes32 transitionHash;\n        bytes32 dataHash;\n        bool anyone;\n        address allowed;\n        PermissionProcessLib.PermissionProcess permissionProcess;\n    }\n\n    function insert(PermissionRequired storage self, Permission memory permission) internal {\n        self.anyone = permission.anyone;\n        self.allowed = permission.allowed;\n    }\n\n    function getRequired(Permission memory permissionFull) pure public returns(PermissionRequired memory permission) {\n        return PermissionRequired(\n            permissionFull.anyone,\n            permissionFull.allowed\n        );\n    }\n\n    function getRequired(PermissionFull memory permissionFull) pure public returns(PermissionRequired memory permission) {\n        return PermissionRequired(\n            permissionFull.anyone,\n            permissionFull.allowed\n        );\n    }\n\n    function getFull(Permission memory permissionFull) pure public returns(PermissionFull memory permission) {\n        return PermissionFull(\n            permissionFull.anyone,\n            permissionFull.allowed,\n            permissionFull.permissionProcess\n        );\n    }\n\n    function getFull(PermissionRequired memory permission, PermissionProcessLib.PermissionProcess memory permissionProcess) pure public returns(PermissionFull memory permissionFull) {\n        return PermissionFull(\n            permission.anyone,\n            permission.allowed,\n            permissionProcess\n        );\n    }\n\n    function getDataHash(PermissionIdentifier memory identifier) pure public returns(bytes32 hash) {\n        return keccak256(abi.encode(\n            identifier.contractAddress,\n            identifier.functionSig,\n            identifier.transitionHash,\n            identifier.dataHash\n        ));\n    }\n\n    function getDataHash(Permission memory permission) pure public returns(bytes32 hash) {\n        return keccak256(abi.encode(\n            permission.contractAddress,\n            permission.functionSig,\n            permission.transitionHash,\n            permission.dataHash\n        ));\n    }\n\n    function structureBytes(bytes memory data)\n        pure\n        public\n        returns(Permission memory dataStruct)\n    {\n        (dataStruct) = abi.decode(data, (Permission));\n    }\n\n    function destructureBytes(Permission memory dataStruct)\n        pure\n        public\n        returns(bytes memory data)\n    {\n        return abi.encode(dataStruct);\n    }\n}\n",
  "sourcePath": "/Users/loredana/ETH/dType/contracts/contracts/examples/permissions/PermissionLib.sol",
  "compiler": {
    "name": "solc",
    "version": "0.5.7+commit.6da8b019.Emscripten.clang"
  },
  "schemaVersion": "3.0.11",
  "updatedAt": "2019-07-27T20:46:26.956Z",
  "devdoc": {
    "methods": {}
  },
  "userdoc": {
    "methods": {}
  }
}