{
  "contractName": "PermissionStorage",
  "abi": [
    {
      "constant": true,
      "inputs": [],
      "name": "count",
      "outputs": [
        {
          "name": "counter",
          "type": "uint256"
        }
      ],
      "payable": false,
      "stateMutability": "view",
      "type": "function"
    },
    {
      "constant": true,
      "inputs": [
        {
          "name": "",
          "type": "bytes32"
        }
      ],
      "name": "permissionProcess",
      "outputs": [
        {
          "name": "temporaryAction",
          "type": "bytes4"
        },
        {
          "name": "votingProcessDataHash",
          "type": "bytes32"
        },
        {
          "name": "functionHashPermission",
          "type": "bytes32"
        }
      ],
      "payable": false,
      "stateMutability": "view",
      "type": "function"
    },
    {
      "constant": true,
      "inputs": [
        {
          "name": "",
          "type": "bytes32"
        }
      ],
      "name": "typeStruct",
      "outputs": [
        {
          "components": [
            {
              "name": "anyone",
              "type": "bool"
            },
            {
              "name": "allowed",
              "type": "address"
            }
          ],
          "name": "data",
          "type": "tuple"
        },
        {
          "name": "index",
          "type": "uint256"
        }
      ],
      "payable": false,
      "stateMutability": "view",
      "type": "function"
    },
    {
      "constant": true,
      "inputs": [
        {
          "name": "",
          "type": "uint256"
        }
      ],
      "name": "typeIndex",
      "outputs": [
        {
          "name": "",
          "type": "bytes32"
        }
      ],
      "payable": false,
      "stateMutability": "view",
      "type": "function"
    },
    {
      "constant": true,
      "inputs": [
        {
          "name": "",
          "type": "bytes32"
        },
        {
          "name": "",
          "type": "address"
        }
      ],
      "name": "inreview",
      "outputs": [
        {
          "name": "anyone",
          "type": "bool"
        },
        {
          "name": "allowed",
          "type": "address"
        },
        {
          "components": [
            {
              "name": "temporaryAction",
              "type": "bytes4"
            },
            {
              "name": "votingProcessDataHash",
              "type": "bytes32"
            },
            {
              "name": "functionHashPermission",
              "type": "bytes32"
            },
            {
              "name": "allowedTransitions",
              "type": "bytes32[]"
            }
          ],
          "name": "permissionProcess",
          "type": "tuple"
        }
      ],
      "payable": false,
      "stateMutability": "view",
      "type": "function"
    },
    {
      "anonymous": false,
      "inputs": [
        {
          "indexed": true,
          "name": "hash",
          "type": "bytes32"
        },
        {
          "indexed": true,
          "name": "index",
          "type": "uint256"
        }
      ],
      "name": "LogNew",
      "type": "event"
    },
    {
      "anonymous": false,
      "inputs": [
        {
          "indexed": true,
          "name": "hash",
          "type": "bytes32"
        },
        {
          "indexed": true,
          "name": "index",
          "type": "uint256"
        }
      ],
      "name": "LogUpdate",
      "type": "event"
    },
    {
      "anonymous": false,
      "inputs": [
        {
          "indexed": true,
          "name": "hash",
          "type": "bytes32"
        },
        {
          "indexed": true,
          "name": "index",
          "type": "uint256"
        }
      ],
      "name": "LogRemove",
      "type": "event"
    },
    {
      "anonymous": false,
      "inputs": [
        {
          "indexed": true,
          "name": "hash",
          "type": "bytes32"
        },
        {
          "indexed": true,
          "name": "proponent",
          "type": "address"
        }
      ],
      "name": "LogNewReview",
      "type": "event"
    },
    {
      "anonymous": false,
      "inputs": [
        {
          "indexed": true,
          "name": "hash",
          "type": "bytes32"
        },
        {
          "indexed": true,
          "name": "proponent",
          "type": "address"
        }
      ],
      "name": "LogUpdateReview",
      "type": "event"
    },
    {
      "anonymous": false,
      "inputs": [
        {
          "indexed": true,
          "name": "hash",
          "type": "bytes32"
        },
        {
          "indexed": true,
          "name": "proponent",
          "type": "address"
        }
      ],
      "name": "LogRemoveReview",
      "type": "event"
    },
    {
      "anonymous": false,
      "inputs": [
        {
          "indexed": true,
          "name": "hash",
          "type": "bytes32"
        },
        {
          "indexed": true,
          "name": "proponent",
          "type": "address"
        }
      ],
      "name": "LogAccepted",
      "type": "event"
    },
    {
      "anonymous": false,
      "inputs": [
        {
          "indexed": true,
          "name": "hash",
          "type": "bytes32"
        },
        {
          "indexed": true,
          "name": "proponent",
          "type": "address"
        }
      ],
      "name": "LogDismissed",
      "type": "event"
    },
    {
      "constant": false,
      "inputs": [
        {
          "components": [
            {
              "name": "contractAddress",
              "type": "address"
            },
            {
              "name": "functionSig",
              "type": "bytes4"
            },
            {
              "name": "transitionHash",
              "type": "bytes32"
            },
            {
              "name": "dataHash",
              "type": "bytes32"
            },
            {
              "name": "anyone",
              "type": "bool"
            },
            {
              "name": "allowed",
              "type": "address"
            },
            {
              "components": [
                {
                  "name": "temporaryAction",
                  "type": "bytes4"
                },
                {
                  "name": "votingProcessDataHash",
                  "type": "bytes32"
                },
                {
                  "name": "functionHashPermission",
                  "type": "bytes32"
                },
                {
                  "name": "allowedTransitions",
                  "type": "bytes32[]"
                }
              ],
              "name": "permissionProcess",
              "type": "tuple"
            }
          ],
          "name": "data",
          "type": "tuple"
        }
      ],
      "name": "insert",
      "outputs": [
        {
          "name": "hash",
          "type": "bytes32"
        }
      ],
      "payable": false,
      "stateMutability": "nonpayable",
      "type": "function"
    },
    {
      "constant": false,
      "inputs": [
        {
          "name": "proponent",
          "type": "address"
        },
        {
          "name": "rawdata",
          "type": "bytes"
        }
      ],
      "name": "insertReview",
      "outputs": [
        {
          "name": "hash",
          "type": "bytes32"
        }
      ],
      "payable": false,
      "stateMutability": "nonpayable",
      "type": "function"
    },
    {
      "constant": false,
      "inputs": [
        {
          "name": "data",
          "type": "bytes"
        }
      ],
      "name": "insertBytes",
      "outputs": [
        {
          "name": "hash",
          "type": "bytes32"
        }
      ],
      "payable": false,
      "stateMutability": "nonpayable",
      "type": "function"
    },
    {
      "constant": false,
      "inputs": [
        {
          "name": "hash",
          "type": "bytes32"
        }
      ],
      "name": "remove",
      "outputs": [
        {
          "name": "index",
          "type": "uint256"
        }
      ],
      "payable": false,
      "stateMutability": "nonpayable",
      "type": "function"
    },
    {
      "constant": false,
      "inputs": [
        {
          "name": "proponent",
          "type": "address"
        },
        {
          "name": "hash",
          "type": "bytes32"
        }
      ],
      "name": "removeReview",
      "outputs": [],
      "payable": false,
      "stateMutability": "nonpayable",
      "type": "function"
    },
    {
      "constant": false,
      "inputs": [
        {
          "name": "hashi",
          "type": "bytes32"
        },
        {
          "components": [
            {
              "name": "contractAddress",
              "type": "address"
            },
            {
              "name": "functionSig",
              "type": "bytes4"
            },
            {
              "name": "transitionHash",
              "type": "bytes32"
            },
            {
              "name": "dataHash",
              "type": "bytes32"
            },
            {
              "name": "anyone",
              "type": "bool"
            },
            {
              "name": "allowed",
              "type": "address"
            },
            {
              "components": [
                {
                  "name": "temporaryAction",
                  "type": "bytes4"
                },
                {
                  "name": "votingProcessDataHash",
                  "type": "bytes32"
                },
                {
                  "name": "functionHashPermission",
                  "type": "bytes32"
                },
                {
                  "name": "allowedTransitions",
                  "type": "bytes32[]"
                }
              ],
              "name": "permissionProcess",
              "type": "tuple"
            }
          ],
          "name": "data",
          "type": "tuple"
        }
      ],
      "name": "update",
      "outputs": [
        {
          "name": "hash",
          "type": "bytes32"
        }
      ],
      "payable": false,
      "stateMutability": "nonpayable",
      "type": "function"
    },
    {
      "constant": false,
      "inputs": [
        {
          "name": "proponent",
          "type": "address"
        },
        {
          "name": "rawdata",
          "type": "bytes"
        }
      ],
      "name": "updateReview",
      "outputs": [],
      "payable": false,
      "stateMutability": "nonpayable",
      "type": "function"
    },
    {
      "constant": false,
      "inputs": [
        {
          "name": "proponent",
          "type": "address"
        },
        {
          "name": "hash",
          "type": "bytes32"
        }
      ],
      "name": "accept",
      "outputs": [],
      "payable": false,
      "stateMutability": "nonpayable",
      "type": "function"
    },
    {
      "constant": false,
      "inputs": [
        {
          "name": "proponent",
          "type": "address"
        },
        {
          "name": "hash",
          "type": "bytes32"
        }
      ],
      "name": "dismiss",
      "outputs": [],
      "payable": false,
      "stateMutability": "nonpayable",
      "type": "function"
    },
    {
      "constant": true,
      "inputs": [
        {
          "name": "hash",
          "type": "bytes32"
        }
      ],
      "name": "isStored",
      "outputs": [
        {
          "name": "isIndeed",
          "type": "bool"
        }
      ],
      "payable": false,
      "stateMutability": "view",
      "type": "function"
    },
    {
      "constant": true,
      "inputs": [
        {
          "name": "hash",
          "type": "bytes32"
        }
      ],
      "name": "getByHash",
      "outputs": [
        {
          "components": [
            {
              "name": "anyone",
              "type": "bool"
            },
            {
              "name": "allowed",
              "type": "address"
            },
            {
              "components": [
                {
                  "name": "temporaryAction",
                  "type": "bytes4"
                },
                {
                  "name": "votingProcessDataHash",
                  "type": "bytes32"
                },
                {
                  "name": "functionHashPermission",
                  "type": "bytes32"
                },
                {
                  "name": "allowedTransitions",
                  "type": "bytes32[]"
                }
              ],
              "name": "permissionProcess",
              "type": "tuple"
            }
          ],
          "name": "data",
          "type": "tuple"
        }
      ],
      "payable": false,
      "stateMutability": "view",
      "type": "function"
    },
    {
      "constant": true,
      "inputs": [
        {
          "components": [
            {
              "name": "contractAddress",
              "type": "address"
            },
            {
              "name": "functionSig",
              "type": "bytes4"
            },
            {
              "name": "transitionHash",
              "type": "bytes32"
            },
            {
              "name": "dataHash",
              "type": "bytes32"
            }
          ],
          "name": "identifier",
          "type": "tuple"
        }
      ],
      "name": "get",
      "outputs": [
        {
          "components": [
            {
              "name": "anyone",
              "type": "bool"
            },
            {
              "name": "allowed",
              "type": "address"
            },
            {
              "components": [
                {
                  "name": "temporaryAction",
                  "type": "bytes4"
                },
                {
                  "name": "votingProcessDataHash",
                  "type": "bytes32"
                },
                {
                  "name": "functionHashPermission",
                  "type": "bytes32"
                },
                {
                  "name": "allowedTransitions",
                  "type": "bytes32[]"
                }
              ],
              "name": "permissionProcess",
              "type": "tuple"
            }
          ],
          "name": "data",
          "type": "tuple"
        }
      ],
      "payable": false,
      "stateMutability": "view",
      "type": "function"
    }
  ],
  "bytecode": "0x608060405234801561001057600080fd5b506135f1806100206000396000f3fe608060405234801561001057600080fd5b506004361061010b5760003560e01c8063805f8db1116100a2578063a2dd3d4711610071578063a2dd3d471461032f578063c5c90ca21461035f578063d7987ea51461037b578063e68e5ece146103ab578063eda8d5f3146103c75761010b565b8063805f8db11461026d57806382212a6e1461029f57806387898f59146102cf57806395bc2673146102ff5761010b565b80634fb89ef3116100de5780634fb89ef3146101aa578063668414a4146101dc5780637460e3111461020d57806376b2748b1461023d5761010b565b806306661abd146101105780632a9319451461012e5780632d6a1da71461015e5780633f42aeab1461017a575b600080fd5b6101186103e3565b60405161012591906132b1565b60405180910390f35b6101486004803603610143919081019061293b565b6103ef565b6040516101559190613103565b60405180910390f35b610178600480360361017391908101906126f5565b610518565b005b610194600480360361018f9190810190612785565b6107b7565b6040516101a191906130aa565b60405180910390f35b6101c460048036036101bf9190810190612785565b610807565b6040516101d39392919061311e565b60405180910390f35b6101f660048036036101f19190810190612785565b61083e565b604051610204929190613266565b60405180910390f35b610227600480360361022291908101906129bd565b6108dd565b6040516102349190613103565b60405180910390f35b610257600480360361025291908101906128e9565b6108fe565b60405161026491906131d7565b60405180910390f35b610287600480360361028291908101906127d7565b61099e565b604051610296939291906130c5565b60405180910390f35b6102b960048036036102b49190810190612731565b610acd565b6040516102c69190613103565b60405180910390f35b6102e960048036036102e49190810190612813565b610de3565b6040516102f69190613103565b60405180910390f35b61031960048036036103149190810190612785565b610e00565b60405161032691906132b1565b60405180910390f35b61034960048036036103449190810190612785565b610fe8565b60405161035691906131d7565b60405180910390f35b610379600480360361037491908101906126f5565b61112a565b005b61039560048036036103909190810190612867565b611286565b6040516103a29190613103565b60405180910390f35b6103c560048036036103c091908101906126f5565b611323565b005b6103e160048036036103dc9190810190612731565b61196d565b005b60008080549050905090565b60008173__PermissionLib_________________________6395fcadbc90916040518263ffffffff1660e01b815260040161042a919061328f565b60206040518083038186803b15801561044257600080fd5b505af4158015610456573d6000803e3d6000fd5b505050506040513d601f19601f8201168201806040525061047a91908101906127ae565b9050610513818373__PermissionLib_________________________636d4a965190916040518263ffffffff1660e01b81526004016104b9919061328f565b60006040518083038186803b1580156104d157600080fd5b505af41580156104e5573d6000803e3d6000fd5b505050506040513d6000823e3d601f19601f8201168201806040525061050e91908101906128a8565b611c82565b919050565b600160008281526020019081526020016000206000016040518060400160405290816000820160009054906101000a900460ff161515151581526020016000820160019054906101000a900473ffffffffffffffffffffffffffffffffffffffff1673ffffffffffffffffffffffffffffffffffffffff1673ffffffffffffffffffffffffffffffffffffffff168152505073__PermissionLib_________________________63f8feaa279091600260008581526020019081526020016000206040518363ffffffff1660e01b81526004016105f6929190613236565b60006040518083038186803b15801561060e57600080fd5b505af4158015610622573d6000803e3d6000fd5b505050506040513d6000823e3d601f19601f8201168201806040525061064b91908101906128a8565b6003600083815260200190815260200160002060008473ffffffffffffffffffffffffffffffffffffffff1673ffffffffffffffffffffffffffffffffffffffff16815260200190815260200160002060008201518160000160006101000a81548160ff02191690831515021790555060208201518160000160016101000a81548173ffffffffffffffffffffffffffffffffffffffff021916908373ffffffffffffffffffffffffffffffffffffffff16021790555060408201518160010160008201518160000160006101000a81548163ffffffff021916908360e01c02179055506020820151816001015560408201518160020155606082015181600301908051906020019061075f929190611ed3565b50505090505061076e81610e00565b508173ffffffffffffffffffffffffffffffffffffffff16817f9628b550948823f52c98e0c5ce060ed9fa198c73cf95579aaad214e67c17fbe160405160405180910390a35050565b60008060008054905014156107cf5760009050610802565b8160006001600085815260200190815260200160002060010154815481106107f357fe5b90600052602060002001541490505b919050565b60026020528060005260406000206000915090508060000160009054906101000a900460e01b908060010154908060020154905083565b6001602052806000526040600020600091509050806000016040518060400160405290816000820160009054906101000a900460ff161515151581526020016000820160019054906101000a900473ffffffffffffffffffffffffffffffffffffffff1673ffffffffffffffffffffffffffffffffffffffff1673ffffffffffffffffffffffffffffffffffffffff1681525050908060010154905082565b600081815481106108ea57fe5b906000526020600020016000915090505481565b610906611f20565b6109978273__PermissionLib_________________________6398a645a890916040518263ffffffff1660e01b8152600401610942919061321b565b60206040518083038186803b15801561095a57600080fd5b505af415801561096e573d6000803e3d6000fd5b505050506040513d601f19601f8201168201806040525061099291908101906127ae565b610fe8565b9050919050565b6003602052816000526040600020602052806000526040600020600091509150508060000160009054906101000a900460ff16908060000160019054906101000a900473ffffffffffffffffffffffffffffffffffffffff1690806001016040518060800160405290816000820160009054906101000a900460e01b7bffffffffffffffffffffffffffffffffffffffffffffffffffffffff19167bffffffffffffffffffffffffffffffffffffffffffffffffffffffff19168152602001600182015481526020016002820154815260200160038201805480602002602001604051908101604052809291908181526020018280548015610abf57602002820191906000526020600020905b815481526020019060010190808311610aab575b505050505081525050905083565b6000610ad7611f5f565b73__PermissionLib_________________________63b3718ad0846040518263ffffffff1660e01b8152600401610b0e9190613155565b60006040518083038186803b158015610b2657600080fd5b505af4158015610b3a573d6000803e3d6000fd5b505050506040513d6000823e3d601f19601f82011682018060405250610b63919081019061297c565b90508073__PermissionLib_________________________6395fcadbc90916040518263ffffffff1660e01b8152600401610b9e919061328f565b60206040518083038186803b158015610bb657600080fd5b505af4158015610bca573d6000803e3d6000fd5b505050506040513d601f19601f82011682018060405250610bee91908101906127ae565b91508073__PermissionLib_________________________636d4a965190916040518263ffffffff1660e01b8152600401610c29919061328f565b60006040518083038186803b158015610c4157600080fd5b505af4158015610c55573d6000803e3d6000fd5b505050506040513d6000823e3d601f19601f82011682018060405250610c7e91908101906128a8565b6003600084815260200190815260200160002060008673ffffffffffffffffffffffffffffffffffffffff1673ffffffffffffffffffffffffffffffffffffffff16815260200190815260200160002060008201518160000160006101000a81548160ff02191690831515021790555060208201518160000160016101000a81548173ffffffffffffffffffffffffffffffffffffffff021916908373ffffffffffffffffffffffffffffffffffffffff16021790555060408201518160010160008201518160000160006101000a81548163ffffffff021916908360e01c021790555060208201518160010155604082015181600201556060820151816003019080519060200190610d92929190611ed3565b5050509050508373ffffffffffffffffffffffffffffffffffffffff16827f5d39bf2ac374858ce5bb47e18fc1e17a95b9874fb316a45098ddf58060475cc260405160405180910390a35092915050565b6000610dee83610e00565b50610df8826103ef565b905092915050565b6000610e0b826107b7565b610e4a576040517f08c379a0000000000000000000000000000000000000000000000000000000008152600401610e41906131b7565b60405180910390fd5b60006001600084815260200190815260200160002060010154905060008060016000805490500381548110610e7b57fe5b906000526020600020015490508060008381548110610e9657fe5b90600052602060002001819055508160016000838152602001908152602001600020600101819055506000805480919060019003610ed49190611ff6565b50600160008581526020019081526020016000206000808201600080820160006101000a81549060ff02191690556000820160016101000a81549073ffffffffffffffffffffffffffffffffffffffff021916905550506001820160009055505060026000858152602001908152602001600020600080820160006101000a81549063ffffffff021916905560018201600090556002820160009055600382016000610f809190612022565b505081847f7aba1b7c67426c7ad78ea21a678946741a0c8795e99fa106728122a461e33cbc60405160405180910390a381817f486e2c79f26b56bb920c18e856915eb5e2922e2814cce03da8892d08cce6419760405160405180910390a38192505050919050565b610ff0611f20565b600160008381526020019081526020016000206000016040518060400160405290816000820160009054906101000a900460ff161515151581526020016000820160019054906101000a900473ffffffffffffffffffffffffffffffffffffffff1673ffffffffffffffffffffffffffffffffffffffff1673ffffffffffffffffffffffffffffffffffffffff168152505073__PermissionLib_________________________63f8feaa279091600260008681526020019081526020016000206040518363ffffffff1660e01b81526004016110ce929190613236565b60006040518083038186803b1580156110e657600080fd5b505af41580156110fa573d6000803e3d6000fd5b505050506040513d6000823e3d601f19601f8201168201806040525061112391908101906128a8565b9050919050565b611133816107b7565b611172576040517f08c379a000000000000000000000000000000000000000000000000000000000815260040161116990613197565b60405180910390fd5b6003600082815260200190815260200160002060008373ffffffffffffffffffffffffffffffffffffffff1673ffffffffffffffffffffffffffffffffffffffff168152602001908152602001600020600080820160006101000a81549060ff02191690556000820160016101000a81549073ffffffffffffffffffffffffffffffffffffffff021916905560018201600080820160006101000a81549063ffffffff02191690556001820160009055600282016000905560038201600061123a9190612022565b505050508173ffffffffffffffffffffffffffffffffffffffff16817f20a76b6d1c45b6139963859819ecbe4728776ad793bbbd9c6e9c302c88b6f2b260405160405180910390a35050565b600061131c73__PermissionLib_________________________63b3718ad0846040518263ffffffff1660e01b81526004016112c29190613155565b60006040518083038186803b1580156112da57600080fd5b505af41580156112ee573d6000803e3d6000fd5b505050506040513d6000823e3d601f19601f82011682018060405250611317919081019061297c565b6103ef565b9050919050565b61132c816107b7565b6114eb57611338611f20565b6003600083815260200190815260200160002060008473ffffffffffffffffffffffffffffffffffffffff1673ffffffffffffffffffffffffffffffffffffffff1681526020019081526020016000206040518060600160405290816000820160009054906101000a900460ff161515151581526020016000820160019054906101000a900473ffffffffffffffffffffffffffffffffffffffff1673ffffffffffffffffffffffffffffffffffffffff1673ffffffffffffffffffffffffffffffffffffffff168152602001600182016040518060800160405290816000820160009054906101000a900460e01b7bffffffffffffffffffffffffffffffffffffffffffffffffffffffff19167bffffffffffffffffffffffffffffffffffffffffffffffffffffffff191681526020016001820154815260200160028201548152602001600382018054806020026020016040519081016040528092919081815260200182805480156114cc57602002820191906000526020600020905b8154815260200190600101908083116114b8575b5050505050815250508152505090506114e58282611c82565b50611859565b6003600082815260200190815260200160002060008373ffffffffffffffffffffffffffffffffffffffff1673ffffffffffffffffffffffffffffffffffffffff1681526020019081526020016000206040518060600160405290816000820160009054906101000a900460ff161515151581526020016000820160019054906101000a900473ffffffffffffffffffffffffffffffffffffffff1673ffffffffffffffffffffffffffffffffffffffff1673ffffffffffffffffffffffffffffffffffffffff168152602001600182016040518060800160405290816000820160009054906101000a900460e01b7bffffffffffffffffffffffffffffffffffffffffffffffffffffffff19167bffffffffffffffffffffffffffffffffffffffffffffffffffffffff1916815260200160018201548152602001600282015481526020016003820180548060200260200160405190810160405280929190818152602001828054801561167f57602002820191906000526020600020905b81548152602001906001019080831161166b575b5050505050815250508152505073__PermissionLib_________________________63fa31af1990916040518263ffffffff1660e01b81526004016116c491906131f9565b604080518083038186803b1580156116db57600080fd5b505af41580156116ef573d6000803e3d6000fd5b505050506040513d601f19601f820116820180604052506117139190810190612912565b6001600083815260200190815260200160002060000160008201518160000160006101000a81548160ff02191690831515021790555060208201518160000160016101000a81548173ffffffffffffffffffffffffffffffffffffffff021916908373ffffffffffffffffffffffffffffffffffffffff1602179055509050506003600082815260200190815260200160002060008373ffffffffffffffffffffffffffffffffffffffff1673ffffffffffffffffffffffffffffffffffffffff168152602001908152602001600020600101600260008381526020019081526020016000206000820160009054906101000a900460e01b8160000160006101000a81548163ffffffff021916908360e01c021790555060018201548160010155600282015481600201556003820181600301908054611854929190612043565b509050505b6003600082815260200190815260200160002060008373ffffffffffffffffffffffffffffffffffffffff1673ffffffffffffffffffffffffffffffffffffffff168152602001908152602001600020600080820160006101000a81549060ff02191690556000820160016101000a81549073ffffffffffffffffffffffffffffffffffffffff021916905560018201600080820160006101000a81549063ffffffff0219169055600182016000905560028201600090556003820160006119219190612022565b505050508173ffffffffffffffffffffffffffffffffffffffff16817f8921b1e93d84708a75deb5426a9fbe285a8fc393a3d6324e0f9eed0d68bf1c3560405160405180910390a35050565b611975611f5f565b73__PermissionLib_________________________63b3718ad0836040518263ffffffff1660e01b81526004016119ac9190613155565b60006040518083038186803b1580156119c457600080fd5b505af41580156119d8573d6000803e3d6000fd5b505050506040513d6000823e3d601f19601f82011682018060405250611a01919081019061297c565b905060008173__PermissionLib_________________________6395fcadbc90916040518263ffffffff1660e01b8152600401611a3e919061328f565b60206040518083038186803b158015611a5657600080fd5b505af4158015611a6a573d6000803e3d6000fd5b505050506040513d601f19601f82011682018060405250611a8e91908101906127ae565b90508173__PermissionLib_________________________636d4a965190916040518263ffffffff1660e01b8152600401611ac9919061328f565b60006040518083038186803b158015611ae157600080fd5b505af4158015611af5573d6000803e3d6000fd5b505050506040513d6000823e3d601f19601f82011682018060405250611b1e91908101906128a8565b6003600083815260200190815260200160002060008673ffffffffffffffffffffffffffffffffffffffff1673ffffffffffffffffffffffffffffffffffffffff16815260200190815260200160002060008201518160000160006101000a81548160ff02191690831515021790555060208201518160000160016101000a81548173ffffffffffffffffffffffffffffffffffffffff021916908373ffffffffffffffffffffffffffffffffffffffff16021790555060408201518160010160008201518160000160006101000a81548163ffffffff021916908360e01c021790555060208201518160010155604082015181600201556060820151816003019080519060200190611c32929190611ed3565b5050509050508373ffffffffffffffffffffffffffffffffffffffff16817ff1f505d9151566c34c5246a7e499607be3703bd9d548dd46d66f738d3416e19f60405160405180910390a350505050565b611c8b826107b7565b15611ccb576040517f08c379a0000000000000000000000000000000000000000000000000000000008152600401611cc290613177565b60405180910390fd5b8073__PermissionLib_________________________63fa31af1990916040518263ffffffff1660e01b8152600401611d0491906131f9565b604080518083038186803b158015611d1b57600080fd5b505af4158015611d2f573d6000803e3d6000fd5b505050506040513d601f19601f82011682018060405250611d539190810190612912565b6001600084815260200190815260200160002060000160008201518160000160006101000a81548160ff02191690831515021790555060208201518160000160016101000a81548173ffffffffffffffffffffffffffffffffffffffff021916908373ffffffffffffffffffffffffffffffffffffffff16021790555090505060016000839080600181540180825580915050906001820390600052602060002001600090919290919091505503600160008481526020019081526020016000206001018190555080604001516002600084815260200190815260200160002060008201518160000160006101000a81548163ffffffff021916908360e01c021790555060208201518160010155604082015181600201556060820151816003019080519060200190611e87929190611ed3565b509050506001600083815260200190815260200160002060010154827fb73e84a46ecb312937f7ba29efd91f4d9e74056ac7ef77f3f38e477646dd84d260405160405180910390a35050565b828054828255906000526020600020908101928215611f0f579160200282015b82811115611f0e578251825591602001919060010190611ef3565b5b509050611f1c9190612095565b5090565b6040518060c00160405280600015158152602001600073ffffffffffffffffffffffffffffffffffffffff168152602001611f596120ba565b81525090565b604051806101400160405280600073ffffffffffffffffffffffffffffffffffffffff16815260200160007bffffffffffffffffffffffffffffffffffffffffffffffffffffffff191681526020016000801916815260200160008019168152602001600015158152602001600073ffffffffffffffffffffffffffffffffffffffff168152602001611ff06120ba565b81525090565b81548183558181111561201d5781836000526020600020918201910161201c9190612095565b5b505050565b50805460008255906000526020600020908101906120409190612095565b50565b8280548282559060005260206000209081019282156120845760005260206000209182015b82811115612083578254825591600101919060010190612068565b5b5090506120919190612095565b5090565b6120b791905b808211156120b357600081600090555060010161209b565b5090565b90565b604051806080016040528060007bffffffffffffffffffffffffffffffffffffffffffffffffffffffff191681526020016000801916815260200160008019168152602001606081525090565b60006121138235613485565b905092915050565b60006121278251613485565b905092915050565b600082601f83011261214057600080fd5b813561215361214e826132f9565b6132cc565b9150818183526020840193506020810190508385602084028201111561217857600080fd5b60005b838110156121a8578161218e888261225d565b84526020840193506020830192505060018101905061217b565b5050505092915050565b600082601f8301126121c357600080fd5b81516121d66121d1826132f9565b6132cc565b915081818352602084019350602081019050838560208402820111156121fb57600080fd5b60005b8381101561222b57816122118882612271565b8452602084019350602083019250506001810190506121fe565b5050505092915050565b60006122418235613497565b905092915050565b60006122558251613497565b905092915050565b600061226982356134a3565b905092915050565b600061227d82516134a3565b905092915050565b600061229182356134ad565b905092915050565b60006122a582516134ad565b905092915050565b600082601f8301126122be57600080fd5b81356122d16122cc82613321565b6132cc565b915080825260208301602083018583830111156122ed57600080fd5b6122f8838284613503565b50505092915050565b60006060828403121561231357600080fd5b61231d60606132cc565b9050600061232d84828501612249565b60008301525060206123418482850161211b565b602083015250604082015167ffffffffffffffff81111561236157600080fd5b61236d84828501612479565b60408301525092915050565b60006080828403121561238b57600080fd5b61239560806132cc565b905060006123a584828501612107565b60008301525060206123b984828501612285565b60208301525060406123cd8482850161225d565b60408301525060606123e18482850161225d565b60608301525092915050565b6000608082840312156123ff57600080fd5b61240960806132cc565b9050600061241984828501612285565b600083015250602061242d8482850161225d565b60208301525060406124418482850161225d565b604083015250606082013567ffffffffffffffff81111561246157600080fd5b61246d8482850161212f565b60608301525092915050565b60006080828403121561248b57600080fd5b61249560806132cc565b905060006124a584828501612299565b60008301525060206124b984828501612271565b60208301525060406124cd84828501612271565b604083015250606082015167ffffffffffffffff8111156124ed57600080fd5b6124f9848285016121b2565b60608301525092915050565b60006040828403121561251757600080fd5b61252160406132cc565b9050600061253184828501612249565b60008301525060206125458482850161211b565b60208301525092915050565b600060e0828403121561256357600080fd5b61256d60e06132cc565b9050600061257d84828501612107565b600083015250602061259184828501612285565b60208301525060406125a58482850161225d565b60408301525060606125b98482850161225d565b60608301525060806125cd84828501612235565b60808301525060a06125e184828501612107565b60a08301525060c082013567ffffffffffffffff81111561260157600080fd5b61260d848285016123ed565b60c08301525092915050565b600060e0828403121561262b57600080fd5b61263560e06132cc565b905060006126458482850161211b565b600083015250602061265984828501612299565b602083015250604061266d84828501612271565b604083015250606061268184828501612271565b606083015250608061269584828501612249565b60808301525060a06126a98482850161211b565b60a08301525060c082015167ffffffffffffffff8111156126c957600080fd5b6126d584828501612479565b60c08301525092915050565b60006126ed82356134f9565b905092915050565b6000806040838503121561270857600080fd5b600061271685828601612107565b92505060206127278582860161225d565b9150509250929050565b6000806040838503121561274457600080fd5b600061275285828601612107565b925050602083013567ffffffffffffffff81111561276f57600080fd5b61277b858286016122ad565b9150509250929050565b60006020828403121561279757600080fd5b60006127a58482850161225d565b91505092915050565b6000602082840312156127c057600080fd5b60006127ce84828501612271565b91505092915050565b600080604083850312156127ea57600080fd5b60006127f88582860161225d565b925050602061280985828601612107565b9150509250929050565b6000806040838503121561282657600080fd5b60006128348582860161225d565b925050602083013567ffffffffffffffff81111561285157600080fd5b61285d85828601612551565b9150509250929050565b60006020828403121561287957600080fd5b600082013567ffffffffffffffff81111561289357600080fd5b61289f848285016122ad565b91505092915050565b6000602082840312156128ba57600080fd5b600082015167ffffffffffffffff8111156128d457600080fd5b6128e084828501612301565b91505092915050565b6000608082840312156128fb57600080fd5b600061290984828501612379565b91505092915050565b60006040828403121561292457600080fd5b600061293284828501612505565b91505092915050565b60006020828403121561294d57600080fd5b600082013567ffffffffffffffff81111561296757600080fd5b61297384828501612551565b91505092915050565b60006020828403121561298e57600080fd5b600082015167ffffffffffffffff8111156129a857600080fd5b6129b484828501612619565b91505092915050565b6000602082840312156129cf57600080fd5b60006129dd848285016126e1565b91505092915050565b60006129f28383612b85565b60208301905092915050565b6000612a0a8383612ba3565b60208301905092915050565b612a1f816133eb565b82525050565b612a2e816133eb565b82525050565b612a3d816133eb565b82525050565b6000612a4e8261336c565b612a5881856133a7565b9350612a638361334d565b60005b82811015612a9157612a798683516129e6565b9550612a848261338d565b9150600181019050612a66565b50849250505092915050565b6000612aa88261336c565b612ab281856133b8565b9350612abd8361334d565b60005b82811015612aeb57612ad38683516129fe565b9550612ade8261338d565b9150600181019050612ac0565b50849250505092915050565b6000612b0282613377565b612b0c81856133b8565b9350612b178361335a565b60005b82811015612b4c57612b3486612b2f84613579565b6129fe565b9550612b3f8261339a565b9150600181019050612b1a565b50849250505092915050565b612b61816133fd565b82525050565b612b70816133fd565b82525050565b612b7f816133fd565b82525050565b612b8e81613409565b82525050565b612b9d81613409565b82525050565b612bac81613409565b82525050565b612bbb81613413565b82525050565b612bca81613413565b82525050565b612bd981613413565b82525050565b6000612bea82613382565b612bf481856133c9565b9350612c04818560208601613512565b612c0d8161358c565b840191505092915050565b6000612c256026836133da565b91507f546869732064617461206578697374732e205573652074686520657874616e7460008301527f20646174612e00000000000000000000000000000000000000000000000000006020830152604082019050919050565b6000612c8b600a836133da565b91507f4e6f7420657874616e74000000000000000000000000000000000000000000006000830152602082019050919050565b6000612ccb6017836133da565b91507f4e6f742064656c657465643a206e6f7420657874616e740000000000000000006000830152602082019050919050565b6000606083016000830151612d166000860182612b58565b506020830151612d296020860182612a16565b5060408301518482036040860152612d418282612df3565b9150508091505092915050565b6000606083016000830151612d666000860182612b76565b506020830151612d796020860182612a34565b5060408301518482036040860152612d918282612eb9565b9150508091505092915050565b608082016000820151612db46000850182612a34565b506020820151612dc76020850182612bd0565b506040820151612dda6040850182612ba3565b506060820151612ded6060850182612ba3565b50505050565b6000608083016000830151612e0b6000860182612bb2565b506020830151612e1e6020860182612b85565b506040830151612e316040860182612b85565b5060608301518482036060860152612e498282612a43565b9150508091505092915050565b6000608083016000830151612e6e6000860182612bb2565b506020830151612e816020860182612b85565b506040830151612e946040860182612b85565b5060608301518482036060860152612eac8282612a43565b9150508091505092915050565b6000608083016000830151612ed16000860182612bd0565b506020830151612ee46020860182612ba3565b506040830151612ef76040860182612ba3565b5060608301518482036060860152612f0f8282612a9d565b9150508091505092915050565b6000608083016000808401549050612f338161355f565b612f406000870182612bd0565b5060018401549050612f5181613545565b612f5e6020870182612ba3565b5060028401549050612f6f81613545565b612f7c6040870182612ba3565b50600384018583036060870152612f938382612af7565b925050819250505092915050565b604082016000820151612fb76000850182612b76565b506020820151612fca6020850182612a34565b50505050565b604082016000820151612fe66000850182612b58565b506020820151612ff96020850182612a16565b50505050565b600060e0830160008301516130176000860182612a34565b50602083015161302a6020860182612bd0565b50604083015161303d6040860182612ba3565b5060608301516130506060860182612ba3565b5060808301516130636080860182612b76565b5060a083015161307660a0860182612a34565b5060c083015184820360c086015261308e8282612eb9565b9150508091505092915050565b6130a48161345f565b82525050565b60006020820190506130bf6000830184612b67565b92915050565b60006060820190506130da6000830186612b67565b6130e76020830185612a25565b81810360408301526130f98184612e56565b9050949350505050565b60006020820190506131186000830184612b94565b92915050565b60006060820190506131336000830186612bc1565b6131406020830185612b94565b61314d6040830184612b94565b949350505050565b6000602082019050818103600083015261316f8184612bdf565b905092915050565b6000602082019050818103600083015261319081612c18565b9050919050565b600060208201905081810360008301526131b081612c7e565b9050919050565b600060208201905081810360008301526131d081612cbe565b9050919050565b600060208201905081810360008301526131f18184612cfe565b905092915050565b600060208201905081810360008301526132138184612d4e565b905092915050565b60006080820190506132306000830184612d9e565b92915050565b600060608201905061324b6000830185612fa1565b818103604083015261325d8184612f1c565b90509392505050565b600060608201905061327b6000830185612fd0565b613288604083018461309b565b9392505050565b600060208201905081810360008301526132a98184612fff565b905092915050565b60006020820190506132c6600083018461309b565b92915050565b6000604051905081810181811067ffffffffffffffff821117156132ef57600080fd5b8060405250919050565b600067ffffffffffffffff82111561331057600080fd5b602082029050602081019050919050565b600067ffffffffffffffff82111561333857600080fd5b601f19601f8301169050602081019050919050565b6000602082019050919050565b60008160005260206000209050919050565b600081519050919050565b600081549050919050565b600081519050919050565b6000602082019050919050565b6000600182019050919050565b600082825260208201905092915050565b600082825260208201905092915050565b600082825260208201905092915050565b600082825260208201905092915050565b60006133f68261343f565b9050919050565b60008115159050919050565b6000819050919050565b60007fffffffff0000000000000000000000000000000000000000000000000000000082169050919050565b600073ffffffffffffffffffffffffffffffffffffffff82169050919050565b6000819050919050565b6000819050919050565b600061347e8261359d565b9050919050565b6000613490826134d9565b9050919050565b60008115159050919050565b6000819050919050565b60007fffffffff0000000000000000000000000000000000000000000000000000000082169050919050565b600073ffffffffffffffffffffffffffffffffffffffff82169050919050565b6000819050919050565b82818337600083830152505050565b60005b83811015613530578082015181840152602081019050613515565b8381111561353f576000848401525b50505050565b6000613558613553836135aa565b613469565b9050919050565b600061357261356d836135aa565b613473565b9050919050565b60006135858254613545565b9050919050565b6000601f19601f8301169050919050565b60008160e01b9050919050565b60008160001c905091905056fea265627a7a7230582038b880161ddd0c504f960d18217d19cd5c02f289796941d1c58bc8b5b421b22c6c6578706572696d656e74616cf50037",
  "source": "pragma solidity ^0.5.0;\npragma experimental ABIEncoderV2;\n\nimport './PermissionStorageInterface.sol';\nimport '../../StorageBase.sol';\n\ncontract PermissionStorage is StorageBase {\n    using PermissionLib for PermissionLib.Permission;\n    using PermissionLib for PermissionLib.PermissionRequired;\n    using PermissionLib for PermissionLib.PermissionFull;\n    using PermissionLib for PermissionLib.PermissionIdentifier;\n\n    mapping(bytes32 => Type) public typeStruct;\n\n    mapping(bytes32 => PermissionProcessLib.PermissionProcess) public permissionProcess;\n\n    mapping(bytes32 => mapping(address => PermissionLib.PermissionFull)) public inreview;\n\n    struct Type {\n        PermissionLib.PermissionRequired data;\n        uint256 index;\n    }\n\n    modifier dataIsStored (bytes32 hash) {\n        require(isStored(hash), \"No such data inserted.\");\n        _;\n    }\n\n    function insert(PermissionLib.Permission memory data) public returns (bytes32 hash) {\n        hash = data.getDataHash();\n\n        insertPrivate(hash, data.getFull());\n    }\n\n    function insertReview(address proponent, bytes memory rawdata) public returns (bytes32 hash) {\n        PermissionLib.Permission memory data = PermissionLib.structureBytes(rawdata);\n        hash = data.getDataHash();\n\n        inreview[hash][proponent] = data.getFull();\n        emit LogNewReview(hash, proponent);\n    }\n\n    function insertBytes(bytes memory data) public returns (bytes32 hash) {\n        return insert(PermissionLib.structureBytes(data));\n    }\n\n    function remove(bytes32 hash) public returns(uint256 index) {\n        require(isStored(hash), 'Not deleted: not extant');\n\n        uint rowToDelete = typeStruct[hash].index;\n        bytes32 keyToMove = typeIndex[typeIndex.length-1];\n        typeIndex[rowToDelete] = keyToMove;\n        typeStruct[keyToMove].index = rowToDelete;\n        typeIndex.length--;\n\n        delete typeStruct[hash];\n        delete permissionProcess[hash];\n\n        emit LogRemove(hash, rowToDelete);\n        emit LogUpdate(keyToMove, rowToDelete);\n\n        return rowToDelete;\n    }\n\n    function removeReview(address proponent, bytes32 hash) public {\n        require(isStored(hash), 'Not extant');\n\n        delete inreview[hash][proponent];\n        emit LogRemoveReview(hash, proponent);\n    }\n\n    function update(bytes32 hashi, PermissionLib.Permission memory data)\n        public\n        returns(bytes32 hash)\n    {\n        remove(hashi);\n        return insert(data);\n    }\n\n    function updateReview(address proponent, bytes memory rawdata)\n        public\n    {\n        // You can use update for removing the proposal if you provide data values of 0\n        PermissionLib.Permission memory data = PermissionLib.structureBytes(rawdata);\n        bytes32 hash = data.getDataHash();\n\n        inreview[hash][proponent] = data.getFull();\n        emit LogUpdateReview(hash, proponent);\n    }\n\n    function accept(address proponent, bytes32 hash) public {\n        if (!isStored(hash)) {\n            PermissionLib.PermissionFull memory data = inreview[hash][proponent];\n            insertPrivate(hash, data);\n        } else {\n            typeStruct[hash].data = inreview[hash][proponent].getRequired();\n            permissionProcess[hash] = inreview[hash][proponent].permissionProcess;\n        }\n        delete inreview[hash][proponent];\n        emit LogAccepted(hash, proponent);\n    }\n\n    function dismiss(address proponent, bytes32 hash) public {\n        inreview[hash][proponent] = typeStruct[hash].data.getFull(permissionProcess[hash]);\n        remove(hash);\n        emit LogDismissed(hash, proponent);\n    }\n\n    function isStored(bytes32 hash) public view returns(bool isIndeed) {\n        if(typeIndex.length == 0) return false;\n        return (typeIndex[typeStruct[hash].index] == hash);\n    }\n\n    function getByHash(bytes32 hash) public view returns(PermissionLib.PermissionFull memory data) {\n        return typeStruct[hash].data.getFull(permissionProcess[hash]);\n    }\n\n    function get(PermissionLib.PermissionIdentifier memory identifier) public view returns(PermissionLib.PermissionFull memory data) {\n        return getByHash(identifier.getDataHash());\n    }\n\n    function insertPrivate(bytes32 hash, PermissionLib.PermissionFull memory data) private {\n        if(isStored(hash)) revert(\"This data exists. Use the extant data.\");\n\n        typeStruct[hash].data = data.getRequired();\n        typeStruct[hash].index = typeIndex.push(hash) - 1;\n\n        permissionProcess[hash] = data.permissionProcess;\n\n        emit LogNew(hash, typeStruct[hash].index);\n    }\n}\n",
  "sourcePath": "/Users/loredana/ETH/dType/contracts/contracts/examples/permissions/PermissionStorage.sol",
  "compiler": {
    "name": "solc",
    "version": "0.5.7+commit.6da8b019.Emscripten.clang"
  },
  "schemaVersion": "3.0.11",
  "updatedAt": "2019-07-27T20:46:29.038Z",
  "devdoc": {
    "methods": {}
  },
  "userdoc": {
    "methods": {}
  }
}