{
  "contractName": "PersonStorage",
  "abi": [
    {
      "constant": true,
      "inputs": [],
      "name": "count",
      "outputs": [
        {
          "name": "counter",
          "type": "uint256"
        }
      ],
      "payable": false,
      "stateMutability": "view",
      "type": "function"
    },
    {
      "constant": true,
      "inputs": [
        {
          "name": "",
          "type": "bytes32"
        }
      ],
      "name": "typeStruct",
      "outputs": [
        {
          "components": [
            {
              "name": "fullname",
              "type": "string"
            }
          ],
          "name": "data",
          "type": "tuple"
        },
        {
          "name": "index",
          "type": "uint256"
        }
      ],
      "payable": false,
      "stateMutability": "view",
      "type": "function"
    },
    {
      "constant": true,
      "inputs": [
        {
          "name": "",
          "type": "uint256"
        }
      ],
      "name": "typeIndex",
      "outputs": [
        {
          "name": "",
          "type": "bytes32"
        }
      ],
      "payable": false,
      "stateMutability": "view",
      "type": "function"
    },
    {
      "anonymous": false,
      "inputs": [
        {
          "indexed": true,
          "name": "hash",
          "type": "bytes32"
        },
        {
          "indexed": true,
          "name": "index",
          "type": "uint256"
        }
      ],
      "name": "LogNew",
      "type": "event"
    },
    {
      "anonymous": false,
      "inputs": [
        {
          "indexed": true,
          "name": "hash",
          "type": "bytes32"
        },
        {
          "indexed": true,
          "name": "index",
          "type": "uint256"
        }
      ],
      "name": "LogUpdate",
      "type": "event"
    },
    {
      "anonymous": false,
      "inputs": [
        {
          "indexed": true,
          "name": "hash",
          "type": "bytes32"
        },
        {
          "indexed": true,
          "name": "index",
          "type": "uint256"
        }
      ],
      "name": "LogRemove",
      "type": "event"
    },
    {
      "anonymous": false,
      "inputs": [
        {
          "indexed": true,
          "name": "hash",
          "type": "bytes32"
        },
        {
          "indexed": true,
          "name": "proponent",
          "type": "address"
        }
      ],
      "name": "LogNewReview",
      "type": "event"
    },
    {
      "anonymous": false,
      "inputs": [
        {
          "indexed": true,
          "name": "hash",
          "type": "bytes32"
        },
        {
          "indexed": true,
          "name": "proponent",
          "type": "address"
        }
      ],
      "name": "LogUpdateReview",
      "type": "event"
    },
    {
      "anonymous": false,
      "inputs": [
        {
          "indexed": true,
          "name": "hash",
          "type": "bytes32"
        },
        {
          "indexed": true,
          "name": "proponent",
          "type": "address"
        }
      ],
      "name": "LogRemoveReview",
      "type": "event"
    },
    {
      "anonymous": false,
      "inputs": [
        {
          "indexed": true,
          "name": "hash",
          "type": "bytes32"
        },
        {
          "indexed": true,
          "name": "proponent",
          "type": "address"
        }
      ],
      "name": "LogAccepted",
      "type": "event"
    },
    {
      "anonymous": false,
      "inputs": [
        {
          "indexed": true,
          "name": "hash",
          "type": "bytes32"
        },
        {
          "indexed": true,
          "name": "proponent",
          "type": "address"
        }
      ],
      "name": "LogDismissed",
      "type": "event"
    },
    {
      "constant": false,
      "inputs": [
        {
          "components": [
            {
              "name": "fullname",
              "type": "string"
            }
          ],
          "name": "data",
          "type": "tuple"
        }
      ],
      "name": "insert",
      "outputs": [
        {
          "name": "hash",
          "type": "bytes32"
        }
      ],
      "payable": false,
      "stateMutability": "nonpayable",
      "type": "function"
    },
    {
      "constant": false,
      "inputs": [
        {
          "name": "hashi",
          "type": "bytes32"
        },
        {
          "components": [
            {
              "name": "fullname",
              "type": "string"
            }
          ],
          "name": "data",
          "type": "tuple"
        }
      ],
      "name": "update",
      "outputs": [
        {
          "name": "hash",
          "type": "bytes32"
        }
      ],
      "payable": false,
      "stateMutability": "nonpayable",
      "type": "function"
    },
    {
      "constant": false,
      "inputs": [
        {
          "name": "hash",
          "type": "bytes32"
        }
      ],
      "name": "remove",
      "outputs": [
        {
          "name": "index",
          "type": "uint256"
        }
      ],
      "payable": false,
      "stateMutability": "nonpayable",
      "type": "function"
    },
    {
      "constant": true,
      "inputs": [
        {
          "name": "hash",
          "type": "bytes32"
        }
      ],
      "name": "isStored",
      "outputs": [
        {
          "name": "isIndeed",
          "type": "bool"
        }
      ],
      "payable": false,
      "stateMutability": "view",
      "type": "function"
    },
    {
      "constant": true,
      "inputs": [
        {
          "name": "hash",
          "type": "bytes32"
        }
      ],
      "name": "getByHash",
      "outputs": [
        {
          "components": [
            {
              "name": "fullname",
              "type": "string"
            }
          ],
          "name": "data",
          "type": "tuple"
        }
      ],
      "payable": false,
      "stateMutability": "view",
      "type": "function"
    }
  ],
  "bytecode": "0x608060405234801561001057600080fd5b50610e41806100206000396000f3fe608060405234801561001057600080fd5b50600436106100885760003560e01c80637460e3111161005b5780637460e3111461013c57806384f431971461016c57806395bc26731461019c578063a2dd3d47146101cc57610088565b806306661abd1461008d57806331a3e0a1146100ab5780633f42aeab146100db578063668414a41461010b575b600080fd5b6100956101fc565b6040516100a29190610cce565b60405180910390f35b6100c560048036036100c091908101906109b7565b610208565b6040516100d29190610bff565b60405180910390f35b6100f560048036036100f09190810190610911565b61039c565b6040516101029190610be4565b60405180910390f35b61012560048036036101209190810190610911565b6103ec565b604051610133929190610c9e565b60405180910390f35b610156600480360361015191908101906109f8565b6104bc565b6040516101639190610bff565b60405180910390f35b61018660048036036101819190810190610963565b6104dd565b6040516101939190610bff565b60405180910390f35b6101b660048036036101b19190810190610911565b6104fa565b6040516101c39190610cce565b60405180910390f35b6101e660048036036101e19190810190610911565b610635565b6040516101f39190610c5a565b60405180910390f35b60008080549050905090565b6000808273__PersonLib_____________________________63e4498ecb90916040518263ffffffff1660e01b81526004016102449190610c7c565b60206040518083038186803b15801561025c57600080fd5b505af4158015610270573d6000803e3d6000fd5b505050506040513d601f19601f82011682018060405250610294919081019061093a565b905061029f8161039c565b156102df576040517f08c379a00000000000000000000000000000000000000000000000000000000081526004016102d690610c1a565b60405180910390fd5b610307836001600084815260200190815260200160002060000161070790919063ffffffff16565b6001600082908060018154018082558091505090600182039060005260206000200160009091929091909150550360016000838152602001908152602001600020600101819055506001600082815260200190815260200160002060010154817fb73e84a46ecb312937f7ba29efd91f4d9e74056ac7ef77f3f38e477646dd84d260405160405180910390a380915050919050565b60008060008054905014156103b457600090506103e7565b8160006001600085815260200190815260200160002060010154815481106103d857fe5b90600052602060002001541490505b919050565b600160205280600052604060002060009150905080600001604051806020016040529081600082018054600181600116156101000203166002900480601f0160208091040260200160405190810160405280929190818152602001828054600181600116156101000203166002900480156104a85780601f1061047d576101008083540402835291602001916104a8565b820191906000526020600020905b81548152906001019060200180831161048b57829003601f168201915b505050505081525050908060010154905082565b600081815481106104c957fe5b906000526020600020016000915090505481565b60006104e8836104fa565b506104f282610208565b905092915050565b60006105058261039c565b610544576040517f08c379a000000000000000000000000000000000000000000000000000000000815260040161053b90610c3a565b60405180910390fd5b6000600160008481526020019081526020016000206001015490506000806001600080549050038154811061057557fe5b90600052602060002001549050806000838154811061059057fe5b906000526020600020018190555081600160008381526020019081526020016000206001018190555060008054809190600190036105ce9190610728565b5081847f7aba1b7c67426c7ad78ea21a678946741a0c8795e99fa106728122a461e33cbc60405160405180910390a381817f486e2c79f26b56bb920c18e856915eb5e2922e2814cce03da8892d08cce6419760405160405180910390a38192505050919050565b61063d610754565b60016000838152602001908152602001600020600001604051806020016040529081600082018054600181600116156101000203166002900480601f0160208091040260200160405190810160405280929190818152602001828054600181600116156101000203166002900480156106f75780601f106106cc576101008083540402835291602001916106f7565b820191906000526020600020905b8154815290600101906020018083116106da57829003601f168201915b5050505050815250509050919050565b8060000151826000019080519060200190610723929190610767565b505050565b81548183558181111561074f5781836000526020600020918201910161074e91906107e7565b5b505050565b6040518060200160405280606081525090565b828054600181600116156101000203166002900490600052602060002090601f016020900481019282601f106107a857805160ff19168380011785556107d6565b828001600101855582156107d6579182015b828111156107d55782518255916020019190600101906107ba565b5b5090506107e3919061080c565b5090565b61080991905b808211156108055760008160009055506001016107ed565b5090565b90565b61082e91905b8082111561082a576000816000905550600101610812565b5090565b90565b600061083d8235610da0565b905092915050565b60006108518251610da0565b905092915050565b600082601f83011261086a57600080fd5b813561087d61087882610d16565b610ce9565b9150808252602083016020830185838301111561089957600080fd5b6108a4838284610db4565b50505092915050565b6000602082840312156108bf57600080fd5b6108c96020610ce9565b9050600082013567ffffffffffffffff8111156108e557600080fd5b6108f184828501610859565b60008301525092915050565b60006109098235610daa565b905092915050565b60006020828403121561092357600080fd5b600061093184828501610831565b91505092915050565b60006020828403121561094c57600080fd5b600061095a84828501610845565b91505092915050565b6000806040838503121561097657600080fd5b600061098485828601610831565b925050602083013567ffffffffffffffff8111156109a157600080fd5b6109ad858286016108ad565b9150509250929050565b6000602082840312156109c957600080fd5b600082013567ffffffffffffffff8111156109e357600080fd5b6109ef848285016108ad565b91505092915050565b600060208284031215610a0a57600080fd5b6000610a18848285016108fd565b91505092915050565b610a2a81610d80565b82525050565b610a3981610d8c565b82525050565b6000610a4a82610d42565b610a548185610d4d565b9350610a64818560208601610dc3565b610a6d81610df6565b840191505092915050565b6000610a8382610d42565b610a8d8185610d6f565b9350610a9d818560208601610dc3565b610aa681610df6565b840191505092915050565b6000610abe602683610d5e565b91507f546869732064617461206578697374732e205573652074686520657874616e7460008301527f20646174612e00000000000000000000000000000000000000000000000000006020830152604082019050919050565b6000610b24601883610d5e565b91507f4e6f742064656c657465643a206e6f7420657874616e742e00000000000000006000830152602082019050919050565b60006020830160008301518482036000860152610b748282610a3f565b9150508091505092915050565b60006020830160008301518482036000860152610b9e8282610a78565b9150508091505092915050565b60006020830160008301518482036000860152610bc88282610a3f565b9150508091505092915050565b610bde81610d96565b82525050565b6000602082019050610bf96000830184610a21565b92915050565b6000602082019050610c146000830184610a30565b92915050565b60006020820190508181036000830152610c3381610ab1565b9050919050565b60006020820190508181036000830152610c5381610b17565b9050919050565b60006020820190508181036000830152610c748184610b57565b905092915050565b60006020820190508181036000830152610c968184610b81565b905092915050565b60006040820190508181036000830152610cb88185610bab565b9050610cc76020830184610bd5565b9392505050565b6000602082019050610ce36000830184610bd5565b92915050565b6000604051905081810181811067ffffffffffffffff82111715610d0c57600080fd5b8060405250919050565b600067ffffffffffffffff821115610d2d57600080fd5b601f19601f8301169050602081019050919050565b600081519050919050565b600082825260208201905092915050565b600082825260208201905092915050565b600082825260208201905092915050565b60008115159050919050565b6000819050919050565b6000819050919050565b6000819050919050565b6000819050919050565b82818337600083830152505050565b60005b83811015610de1578082015181840152602081019050610dc6565b83811115610df0576000848401525b50505050565b6000601f19601f830116905091905056fea265627a7a7230582006f8803306b5ed2c089a5af87fa3eaa2c7f1370e15dee09a8cca5b55d76385336c6578706572696d656e74616cf50037",
  "source": "pragma solidity ^0.5.0;\npragma experimental ABIEncoderV2;\n\nimport '../../StorageBase.sol';\nimport './PersonLib.sol';\n\ncontract PersonStorage is StorageBase {\n    using PersonLib for PersonLib.Person;\n\n    mapping(bytes32 => Type) public typeStruct;\n\n    struct Type {\n        PersonLib.Person data;\n        uint256 index;\n    }\n\n    modifier dataIsStored (bytes32 hash) {\n        require(isStored(hash), \"No such data inserted.\");\n        _;\n    }\n\n    function insert(PersonLib.Person memory data) public returns (bytes32 hash) {\n        // for data integrity\n        bytes32 hash = data.getDataHash();\n\n        if(isStored(hash)) revert(\"This data exists. Use the extant data.\");\n\n        typeStruct[hash].data.insert(data);\n        typeStruct[hash].index = typeIndex.push(hash) - 1;\n        emit LogNew(hash, typeStruct[hash].index);\n        return hash;\n    }\n\n    function update(bytes32 hashi, PersonLib.Person memory data)\n        public\n        returns(bytes32 hash)\n    {\n        remove(hashi);\n        return insert(data);\n    }\n\n    function remove(bytes32 hash) public returns(uint256 index) {\n        if(!isStored(hash)) revert(\"Not deleted: not extant.\");\n        uint rowToDelete = typeStruct[hash].index;\n        bytes32 keyToMove = typeIndex[typeIndex.length-1];\n        typeIndex[rowToDelete] = keyToMove;\n        typeStruct[keyToMove].index = rowToDelete;\n        typeIndex.length--;\n\n        emit LogRemove(hash, rowToDelete);\n\n        emit LogUpdate(keyToMove, rowToDelete);\n        return rowToDelete;\n    }\n\n    function isStored(bytes32 hash) public view returns(bool isIndeed) {\n        if(typeIndex.length == 0) return false;\n        return (typeIndex[typeStruct[hash].index] == hash);\n    }\n\n    function getByHash(bytes32 hash) public view returns(PersonLib.Person memory data) {\n        return typeStruct[hash].data;\n    }\n}\n",
  "sourcePath": "/Users/loredana/ETH/dType/contracts/contracts/examples/person/PersonStorage.sol",
  "compiler": {
    "name": "solc",
    "version": "0.5.7+commit.6da8b019.Emscripten.clang"
  },
  "schemaVersion": "3.0.11",
  "updatedAt": "2019-07-28T11:10:53.994Z",
  "devdoc": {
    "methods": {}
  },
  "userdoc": {
    "methods": {}
  }
}