{
  "contractName": "typeALib",
  "abi": [
    {
      "constant": true,
      "inputs": [
        {
          "name": "balance",
          "type": "uint256"
        },
        {
          "name": "token",
          "type": "address"
        }
      ],
      "name": "structure",
      "outputs": [
        {
          "components": [
            {
              "name": "balance",
              "type": "uint256"
            },
            {
              "name": "token",
              "type": "address"
            }
          ],
          "name": "typeA",
          "type": "tuple"
        }
      ],
      "payable": false,
      "stateMutability": "pure",
      "type": "function"
    },
    {
      "constant": true,
      "inputs": [
        {
          "components": [
            {
              "name": "balance",
              "type": "uint256"
            },
            {
              "name": "token",
              "type": "address"
            }
          ],
          "name": "typeA",
          "type": "tuple"
        }
      ],
      "name": "destructure",
      "outputs": [
        {
          "name": "balance",
          "type": "uint256"
        },
        {
          "name": "token",
          "type": "address"
        }
      ],
      "payable": false,
      "stateMutability": "pure",
      "type": "function"
    },
    {
      "constant": true,
      "inputs": [
        {
          "name": "data",
          "type": "bytes"
        }
      ],
      "name": "structureBytes",
      "outputs": [
        {
          "components": [
            {
              "name": "balance",
              "type": "uint256"
            },
            {
              "name": "token",
              "type": "address"
            }
          ],
          "name": "typeA",
          "type": "tuple"
        }
      ],
      "payable": false,
      "stateMutability": "pure",
      "type": "function"
    },
    {
      "constant": true,
      "inputs": [
        {
          "components": [
            {
              "name": "balance",
              "type": "uint256"
            },
            {
              "name": "token",
              "type": "address"
            }
          ],
          "name": "typeA",
          "type": "tuple"
        }
      ],
      "name": "destructureBytes",
      "outputs": [
        {
          "name": "data",
          "type": "bytes"
        }
      ],
      "payable": false,
      "stateMutability": "pure",
      "type": "function"
    },
    {
      "constant": true,
      "inputs": [
        {
          "name": "callbackAddr",
          "type": "address"
        },
        {
          "name": "callbackSig",
          "type": "bytes4"
        },
        {
          "components": [
            {
              "name": "balance",
              "type": "uint256"
            },
            {
              "name": "token",
              "type": "address"
            }
          ],
          "name": "typeAarr",
          "type": "tuple[]"
        }
      ],
      "name": "map",
      "outputs": [
        {
          "components": [
            {
              "name": "balance",
              "type": "uint256"
            },
            {
              "name": "token",
              "type": "address"
            }
          ],
          "name": "result",
          "type": "tuple[]"
        }
      ],
      "payable": false,
      "stateMutability": "view",
      "type": "function"
    }
  ],
  "bytecode": "0x610cad610026600b82828239805160001a60731461001957fe5b30600052607381538281f3fe73000000000000000000000000000000000000000030146080604052600436106100615760003560e01c806311e17aa4146100665780638bedd27714610096578063b3718ad0146100c6578063cac08d67146100f6578063fe4bcff314610127575b600080fd5b610080600480360361007b919081019061072a565b610157565b60405161008d9190610a49565b60405180910390f35b6100b060048036036100ab9190810190610630565b610192565b6040516100bd91906109af565b60405180910390f35b6100e060048036036100db9190810190610697565b61034f565b6040516100ed9190610a49565b60405180910390f35b610110600480360361010b9190810190610701565b610372565b60405161011e929190610a64565b60405180910390f35b610141600480360361013c9190810190610701565b610388565b60405161014e91906109d1565b60405180910390f35b61015f6103b1565b60405180604001604052808481526020018373ffffffffffffffffffffffffffffffffffffffff16815250905092915050565b6060600082519050806040519080825280602002602001820160405280156101d457816020015b6101c16103e1565b8152602001906001900390816101b95790505b50915060008090505b8181101561034357600060608773ffffffffffffffffffffffffffffffffffffffff168787858151811061020d57fe5b60200260200101516040516024016102259190610a13565b604051602081830303815290604052907bffffffffffffffffffffffffffffffffffffffffffffffffffffffff19166020820180517bffffffffffffffffffffffffffffffffffffffffffffffffffffffff838183161783525050505060405161028f9190610998565b600060405180830381855afa9150503d80600081146102ca576040519150601f19603f3d011682016040523d82523d6000602084013e6102cf565b606091505b509150915081610314576040517f08c379a000000000000000000000000000000000000000000000000000000000815260040161030b906109f3565b60405180910390fd5b61031d8161034f565b85848151811061032957fe5b6020026020010181905250505080806001019150506101dd565b50819150509392505050565b6103576103b1565b8180602001905161036b91908101906106d8565b9050919050565b6000808260000151836020015191509150915091565b60608160405160200161039b9190610a2e565b6040516020818303038152906040529050919050565b604051806040016040528060008152602001600073ffffffffffffffffffffffffffffffffffffffff1681525090565b604051806040016040528060008152602001600073ffffffffffffffffffffffffffffffffffffffff1681525090565b600061041d8235610bb8565b905092915050565b60006104318251610bb8565b905092915050565b600082601f83011261044a57600080fd5b813561045d61045882610aba565b610a8d565b9150818183526020840193506020810190508385604084028201111561048257600080fd5b60005b838110156104b257816104988882610524565b845260208401935060408301925050600181019050610485565b5050505092915050565b60006104c88235610bca565b905092915050565b600082601f8301126104e157600080fd5b81356104f46104ef82610ae2565b610a8d565b9150808252602083016020830185838301111561051057600080fd5b61051b838284610c20565b50505092915050565b60006040828403121561053657600080fd5b6105406040610a8d565b9050600061055084828501610608565b600083015250602061056484828501610411565b60208301525092915050565b60006040828403121561058257600080fd5b61058c6040610a8d565b9050600061059c8482850161061c565b60008301525060206105b084828501610425565b60208301525092915050565b6000604082840312156105ce57600080fd5b6105d86040610a8d565b905060006105e884828501610608565b60008301525060206105fc84828501610411565b60208301525092915050565b60006106148235610c16565b905092915050565b60006106288251610c16565b905092915050565b60008060006060848603121561064557600080fd5b600061065386828701610411565b9350506020610664868287016104bc565b925050604084013567ffffffffffffffff81111561068157600080fd5b61068d86828701610439565b9150509250925092565b6000602082840312156106a957600080fd5b600082013567ffffffffffffffff8111156106c357600080fd5b6106cf848285016104d0565b91505092915050565b6000604082840312156106ea57600080fd5b60006106f884828501610570565b91505092915050565b60006040828403121561071357600080fd5b6000610721848285016105bc565b91505092915050565b6000806040838503121561073d57600080fd5b600061074b85828601610608565b925050602061075c85828601610411565b9150509250929050565b6000610772838361093c565b60408301905092915050565b61078781610b7c565b82525050565b61079681610b7c565b82525050565b6107a581610b7c565b82525050565b60006107b682610b1b565b6107c08185610b3e565b93506107cb83610b0e565b60005b828110156107f9576107e1868351610766565b95506107ec82610b31565b91506001810190506107ce565b50849250505092915050565b600061081082610b26565b61081a8185610b4f565b935061082a818560208601610c2f565b61083381610c62565b840191505092915050565b600061084982610b26565b6108538185610b60565b9350610863818560208601610c2f565b80840191505092915050565b600061087c601383610b6b565b91507f4d61702063616c6c6261636b206661696c6564000000000000000000000000006000830152602082019050919050565b6040820160008201516108c5600085018261096b565b5060208201516108d8602085018261077e565b50505050565b6040820160008201516108f46000850182610989565b506020820151610907602085018261079c565b50505050565b604082016000820151610923600085018261096b565b506020820151610936602085018261077e565b50505050565b6040820160008201516109526000850182610989565b506020820151610965602085018261079c565b50505050565b61097481610bae565b82525050565b61098381610bae565b82525050565b61099281610bae565b82525050565b60006109a4828461083e565b915081905092915050565b600060208201905081810360008301526109c981846107ab565b905092915050565b600060208201905081810360008301526109eb8184610805565b905092915050565b60006020820190508181036000830152610a0c8161086f565b9050919050565b6000604082019050610a28600083018461090d565b92915050565b6000604082019050610a4360008301846108af565b92915050565b6000604082019050610a5e60008301846108de565b92915050565b6000604082019050610a79600083018561097a565b610a86602083018461078d565b9392505050565b6000604051905081810181811067ffffffffffffffff82111715610ab057600080fd5b8060405250919050565b600067ffffffffffffffff821115610ad157600080fd5b602082029050602081019050919050565b600067ffffffffffffffff821115610af957600080fd5b601f19601f8301169050602081019050919050565b6000602082019050919050565b600081519050919050565b600081519050919050565b6000602082019050919050565b600082825260208201905092915050565b600082825260208201905092915050565b600081905092915050565b600082825260208201905092915050565b6000610b8782610b8e565b9050919050565b600073ffffffffffffffffffffffffffffffffffffffff82169050919050565b6000819050919050565b6000610bc382610bf6565b9050919050565b60007fffffffff0000000000000000000000000000000000000000000000000000000082169050919050565b600073ffffffffffffffffffffffffffffffffffffffff82169050919050565b6000819050919050565b82818337600083830152505050565b60005b83811015610c4d578082015181840152602081019050610c32565b83811115610c5c576000848401525b50505050565b6000601f19601f830116905091905056fea265627a7a723058204033c100acc9232a4fa7c90913240189a788ac923cc4f8f39aa36f7dde1480426c6578706572696d656e74616cf50037",
  "source": "pragma solidity ^0.5.0;\npragma experimental ABIEncoderV2;\n\nlibrary typeALib {\n\n    struct TypeA {\n        uint256 balance;\n        address token;\n    }\n\n    function structure(uint256 balance, address token)\n        pure\n        public\n        returns(TypeA memory typeA)\n    {\n        return TypeA(balance, token);\n    }\n\n    function destructure(TypeA memory typeA)\n        pure\n        public\n        returns (uint256 balance, address token)\n    {\n        return (typeA.balance, typeA.token);\n    }\n\n    function structureBytes(bytes memory data)\n        pure\n        public\n        returns(TypeA memory typeA)\n    {\n        (typeA) = abi.decode(data, (TypeA));\n    }\n\n    function destructureBytes(TypeA memory typeA)\n        pure\n        public\n        returns(bytes memory data)\n    {\n        return abi.encode(typeA);\n    }\n\n    function map(\n        address callbackAddr,\n        bytes4 callbackSig,\n        TypeA[] memory typeAarr\n    )\n        view\n        public\n        returns (TypeA[] memory result)\n    {\n        uint length = typeAarr.length;\n        result = new TypeA[](length);\n\n        for (uint i = 0; i < length; i++) {\n            (bool success, bytes memory data) = callbackAddr.staticcall(abi.encodeWithSelector(callbackSig, typeAarr[i]));\n\n            require(success, \"Map callback failed\");\n            result[i] = structureBytes(data);\n        }\n\n        return result;\n    }\n}\n",
  "sourcePath": "/Users/loredana/ETH/dType/contracts/contracts/dtypes/typeALib.sol",
  "compiler": {
    "name": "solc",
    "version": "0.5.7+commit.6da8b019.Emscripten.clang"
  },
  "schemaVersion": "3.0.11",
  "updatedAt": "2019-07-28T08:56:05.658Z",
  "devdoc": {
    "methods": {}
  },
  "userdoc": {
    "methods": {}
  }
}