{
  "contractName": "typeAAFunctions",
  "abi": [
    {
      "constant": true,
      "inputs": [
        {
          "components": [
            {
              "name": "balance",
              "type": "uint256"
            },
            {
              "name": "token",
              "type": "address"
            }
          ],
          "name": "typeA",
          "type": "tuple"
        }
      ],
      "name": "double",
      "outputs": [
        {
          "components": [
            {
              "name": "balance",
              "type": "uint256"
            },
            {
              "name": "token",
              "type": "address"
            }
          ],
          "name": "result",
          "type": "tuple"
        }
      ],
      "payable": false,
      "stateMutability": "pure",
      "type": "function"
    },
    {
      "constant": true,
      "inputs": [
        {
          "components": [
            {
              "name": "balance",
              "type": "uint256"
            },
            {
              "name": "token",
              "type": "address"
            }
          ],
          "name": "typeAarr",
          "type": "tuple[]"
        }
      ],
      "name": "doubleBalances",
      "outputs": [
        {
          "components": [
            {
              "name": "balance",
              "type": "uint256"
            },
            {
              "name": "token",
              "type": "address"
            }
          ],
          "name": "result",
          "type": "tuple[]"
        }
      ],
      "payable": false,
      "stateMutability": "view",
      "type": "function"
    }
  ],
  "bytecode": "0x608060405234801561001057600080fd5b50610831806100206000396000f3fe608060405234801561001057600080fd5b50600436106100365760003560e01c8063141c70ee1461003b578063892b341b1461006b575b600080fd5b61005560048036036100509190810190610448565b61009b565b604051610062919061069c565b60405180910390f35b610085600480360361008091908101906103c6565b6100bc565b604051610092919061067a565b60405180910390f35b6100a361015c565b6002826000018181510291508181525050819050919050565b606073__typeALib______________________________638bedd2773063141c70ee60e01b856040518463ffffffff1660e01b81526004016101009392919061063c565b60006040518083038186803b15801561011857600080fd5b505af415801561012c573d6000803e3d6000fd5b505050506040513d6000823e3d601f19601f820116820180604052506101559190810190610407565b9050919050565b604051806040016040528060008152602001600073ffffffffffffffffffffffffffffffffffffffff1681525090565b600061019882356107bb565b905092915050565b60006101ac82516107bb565b905092915050565b600082601f8301126101c557600080fd5b81356101d86101d3826106e4565b6106b7565b915081818352602084019350602081019050838560408402820111156101fd57600080fd5b60005b8381101561022d578161021388826102ba565b845260208401935060408301925050600181019050610200565b5050505092915050565b600082601f83011261024857600080fd5b815161025b610256826106e4565b6106b7565b9150818183526020840193506020810190508385604084028201111561028057600080fd5b60005b838110156102b057816102968882610306565b845260208401935060408301925050600181019050610283565b5050505092915050565b6000604082840312156102cc57600080fd5b6102d660406106b7565b905060006102e68482850161039e565b60008301525060206102fa8482850161018c565b60208301525092915050565b60006040828403121561031857600080fd5b61032260406106b7565b90506000610332848285016103b2565b6000830152506020610346848285016101a0565b60208301525092915050565b60006040828403121561036457600080fd5b61036e60406106b7565b9050600061037e8482850161039e565b60008301525060206103928482850161018c565b60208301525092915050565b60006103aa82356107ed565b905092915050565b60006103be82516107ed565b905092915050565b6000602082840312156103d857600080fd5b600082013567ffffffffffffffff8111156103f257600080fd5b6103fe848285016101b4565b91505092915050565b60006020828403121561041957600080fd5b600082015167ffffffffffffffff81111561043357600080fd5b61043f84828501610237565b91505092915050565b60006040828403121561045a57600080fd5b600061046884828501610352565b91505092915050565b600061047d83836105c0565b60408301905092915050565b600061049583836105ef565b60408301905092915050565b6104aa81610753565b82525050565b6104b981610753565b82525050565b6104c881610753565b82525050565b60006104d982610719565b6104e38185610731565b93506104ee8361070c565b60005b8281101561051c57610504868351610471565b955061050f82610724565b91506001810190506104f1565b50849250505092915050565b600061053382610719565b61053d8185610742565b93506105488361070c565b60005b828110156105765761055e868351610489565b955061056982610724565b915060018101905061054b565b50849250505092915050565b61058b81610765565b82525050565b6040820160008201516105a7600085018261061e565b5060208201516105ba60208501826104a1565b50505050565b6040820160008201516105d6600085018261061e565b5060208201516105e960208501826104a1565b50505050565b604082016000820151610605600085018261062d565b50602082015161061860208501826104bf565b50505050565b610627816107b1565b82525050565b610636816107b1565b82525050565b600060608201905061065160008301866104b0565b61065e6020830185610582565b81810360408301526106708184610528565b9050949350505050565b6000602082019050818103600083015261069481846104ce565b905092915050565b60006040820190506106b16000830184610591565b92915050565b6000604051905081810181811067ffffffffffffffff821117156106da57600080fd5b8060405250919050565b600067ffffffffffffffff8211156106fb57600080fd5b602082029050602081019050919050565b6000602082019050919050565b600081519050919050565b6000602082019050919050565b600082825260208201905092915050565b600082825260208201905092915050565b600061075e82610791565b9050919050565b60007fffffffff0000000000000000000000000000000000000000000000000000000082169050919050565b600073ffffffffffffffffffffffffffffffffffffffff82169050919050565b6000819050919050565b60006107c6826107cd565b9050919050565b600073ffffffffffffffffffffffffffffffffffffffff82169050919050565b600081905091905056fea265627a7a72305820373341cde468d0012de41140f8788142646ec2b8d59fecd7cf4163ebe86e9c636c6578706572696d656e74616cf50037",
  "source": "pragma solidity ^0.5.0;\npragma experimental ABIEncoderV2;\n\nimport './typeALib.sol';\n\ncontract typeAAFunctions {\n    using typeALib for typeALib.TypeA;\n\n    function double(typeALib.TypeA memory typeA)\n        pure\n        public\n        returns(typeALib.TypeA memory result)\n    {\n        typeA.balance *= 2;\n        return typeA;\n    }\n\n    function doubleBalances(typeALib.TypeA[] memory typeAarr)\n        view\n        public\n        returns(typeALib.TypeA[] memory result)\n    {\n        return typeALib.map(address(this), this.double.selector, typeAarr);\n    }\n}\n",
  "sourcePath": "/Users/loredana/ETH/dType/contracts/contracts/dtypes/typeAAFunctions.sol",
  "compiler": {
    "name": "solc",
    "version": "0.5.7+commit.6da8b019.Emscripten.clang"
  },
  "schemaVersion": "3.0.11",
  "updatedAt": "2019-07-28T08:56:05.671Z",
  "devdoc": {
    "methods": {}
  },
  "userdoc": {
    "methods": {}
  }
}