{
  "contractName": "typeABLogic",
  "abi": [
    {
      "constant": true,
      "inputs": [
        {
          "components": [
            {
              "name": "balance",
              "type": "uint256"
            },
            {
              "name": "token",
              "type": "address"
            }
          ],
          "name": "typeA",
          "type": "tuple"
        }
      ],
      "name": "setStaked",
      "outputs": [
        {
          "components": [
            {
              "name": "staked",
              "type": "uint256"
            },
            {
              "components": [
                {
                  "name": "balance",
                  "type": "uint256"
                },
                {
                  "name": "token",
                  "type": "address"
                }
              ],
              "name": "typeA",
              "type": "tuple"
            }
          ],
          "name": "typeB",
          "type": "tuple"
        }
      ],
      "payable": false,
      "stateMutability": "pure",
      "type": "function"
    }
  ],
  "bytecode": "0x608060405234801561001057600080fd5b506102f4806100206000396000f3fe608060405234801561001057600080fd5b506004361061002b5760003560e01c80631688af8314610030575b600080fd5b61004a60048036036100459190810190610155565b610060565b60405161005791906101fa565b60405180910390f35b610068610091565b600282600001518161007657fe5b04816000018181525050818160200181905250809050919050565b6040518060600160405280600081526020016100ab6100b1565b81525090565b604051806040016040528060008152602001600073ffffffffffffffffffffffffffffffffffffffff1681525090565b60006100ed823561027e565b905092915050565b60006040828403121561010757600080fd5b6101116040610215565b9050600061012184828501610141565b6000830152506020610135848285016100e1565b60208301525092915050565b600061014d82356102b0565b905092915050565b60006040828403121561016757600080fd5b6000610175848285016100f5565b91505092915050565b61018781610242565b82525050565b6040820160008201516101a360008501826101eb565b5060208201516101b6602085018261017e565b50505050565b6060820160008201516101d260008501826101eb565b5060208201516101e5602085018261018d565b50505050565b6101f481610274565b82525050565b600060608201905061020f60008301846101bc565b92915050565b6000604051905081810181811067ffffffffffffffff8211171561023857600080fd5b8060405250919050565b600061024d82610254565b9050919050565b600073ffffffffffffffffffffffffffffffffffffffff82169050919050565b6000819050919050565b600061028982610290565b9050919050565b600073ffffffffffffffffffffffffffffffffffffffff82169050919050565b600081905091905056fea265627a7a7230582084d29d6cede67424b0fe468a4015d6948ae10d0ebceb51289aade2a3236298896c6578706572696d656e74616cf50037",
  "source": "pragma solidity ^0.5.0;\npragma experimental ABIEncoderV2;\n\nimport './typeALib.sol';\nimport './typeBLib.sol';\n\ncontract typeABLogic {\n    using typeALib for typeALib.TypeA;\n    using typeBLib for typeBLib.TypeB;\n\n    function setStaked(typeALib.TypeA memory typeA)\n        pure\n        public\n        returns(typeBLib.TypeB memory typeB)\n    {\n        typeB.staked = typeA.balance / 2;\n        typeB.typeA = typeA;\n        return typeB;\n    }\n}\n",
  "sourcePath": "/Users/loredana/ETH/dType/contracts/contracts/dtypes/typeABLogic.sol",
  "compiler": {
    "name": "solc",
    "version": "0.5.7+commit.6da8b019.Emscripten.clang"
  },
  "schemaVersion": "3.0.11",
  "updatedAt": "2019-07-28T08:56:05.670Z",
  "devdoc": {
    "methods": {}
  },
  "userdoc": {
    "methods": {}
  }
}