{
  "contractName": "typeAContract",
  "abi": [
    {
      "constant": true,
      "inputs": [
        {
          "name": "",
          "type": "bytes32"
        }
      ],
      "name": "typeStruct",
      "outputs": [
        {
          "components": [
            {
              "name": "balance",
              "type": "uint256"
            },
            {
              "name": "token",
              "type": "address"
            }
          ],
          "name": "data",
          "type": "tuple"
        },
        {
          "name": "index",
          "type": "uint256"
        }
      ],
      "payable": false,
      "stateMutability": "view",
      "type": "function"
    },
    {
      "constant": true,
      "inputs": [
        {
          "name": "",
          "type": "uint256"
        }
      ],
      "name": "typeIndex",
      "outputs": [
        {
          "name": "",
          "type": "bytes32"
        }
      ],
      "payable": false,
      "stateMutability": "view",
      "type": "function"
    },
    {
      "anonymous": false,
      "inputs": [
        {
          "indexed": true,
          "name": "hash",
          "type": "bytes32"
        },
        {
          "indexed": true,
          "name": "index",
          "type": "uint256"
        }
      ],
      "name": "LogNew",
      "type": "event"
    },
    {
      "anonymous": false,
      "inputs": [
        {
          "indexed": true,
          "name": "hash",
          "type": "bytes32"
        },
        {
          "indexed": true,
          "name": "index",
          "type": "uint256"
        }
      ],
      "name": "LogUpdate",
      "type": "event"
    },
    {
      "anonymous": false,
      "inputs": [
        {
          "indexed": true,
          "name": "hash",
          "type": "bytes32"
        },
        {
          "indexed": true,
          "name": "index",
          "type": "uint256"
        }
      ],
      "name": "LogRemove",
      "type": "event"
    },
    {
      "constant": false,
      "inputs": [
        {
          "components": [
            {
              "name": "balance",
              "type": "uint256"
            },
            {
              "name": "token",
              "type": "address"
            }
          ],
          "name": "data",
          "type": "tuple"
        }
      ],
      "name": "insert",
      "outputs": [
        {
          "name": "hasho",
          "type": "bytes32"
        }
      ],
      "payable": false,
      "stateMutability": "nonpayable",
      "type": "function"
    },
    {
      "constant": false,
      "inputs": [
        {
          "name": "data",
          "type": "bytes"
        }
      ],
      "name": "insertBytes",
      "outputs": [
        {
          "name": "hasho",
          "type": "bytes32"
        }
      ],
      "payable": false,
      "stateMutability": "nonpayable",
      "type": "function"
    },
    {
      "constant": false,
      "inputs": [
        {
          "name": "hash",
          "type": "bytes32"
        }
      ],
      "name": "remove",
      "outputs": [
        {
          "name": "index",
          "type": "uint256"
        }
      ],
      "payable": false,
      "stateMutability": "nonpayable",
      "type": "function"
    },
    {
      "constant": false,
      "inputs": [
        {
          "name": "hashi",
          "type": "bytes32"
        },
        {
          "components": [
            {
              "name": "balance",
              "type": "uint256"
            },
            {
              "name": "token",
              "type": "address"
            }
          ],
          "name": "data",
          "type": "tuple"
        }
      ],
      "name": "update",
      "outputs": [
        {
          "name": "hash",
          "type": "bytes32"
        }
      ],
      "payable": false,
      "stateMutability": "nonpayable",
      "type": "function"
    },
    {
      "constant": true,
      "inputs": [
        {
          "name": "hash",
          "type": "bytes32"
        }
      ],
      "name": "isStored",
      "outputs": [
        {
          "name": "isIndeed",
          "type": "bool"
        }
      ],
      "payable": false,
      "stateMutability": "view",
      "type": "function"
    },
    {
      "constant": true,
      "inputs": [
        {
          "name": "hash",
          "type": "bytes32"
        }
      ],
      "name": "getByHash",
      "outputs": [
        {
          "components": [
            {
              "name": "balance",
              "type": "uint256"
            },
            {
              "name": "token",
              "type": "address"
            }
          ],
          "name": "data",
          "type": "tuple"
        }
      ],
      "payable": false,
      "stateMutability": "view",
      "type": "function"
    },
    {
      "constant": true,
      "inputs": [],
      "name": "count",
      "outputs": [
        {
          "name": "counter",
          "type": "uint256"
        }
      ],
      "payable": false,
      "stateMutability": "view",
      "type": "function"
    }
  ],
  "bytecode": "0x608060405234801561001057600080fd5b50610efa806100206000396000f3fe608060405234801561001057600080fd5b50600436106100935760003560e01c8063668414a411610066578063668414a4146101465780637460e3111461017757806395bc2673146101a7578063a2dd3d47146101d7578063d7987ea51461020757610093565b80630549dcea1461009857806306661abd146100c8578063265ec1bf146100e65780633f42aeab14610116575b600080fd5b6100b260048036036100ad9190810190610978565b610237565b6040516100bf9190610c53565b60405180910390f35b6100d0610254565b6040516100dd9190610d34565b60405180910390f35b61010060048036036100fb91908101906109f5565b610260565b60405161010d9190610c53565b60405180910390f35b610130600480360361012b919081019061094f565b6103d5565b60405161013d9190610c38565b60405180910390f35b610160600480360361015b919081019061094f565b610425565b60405161016e929190610d0b565b60405180910390f35b610191600480360361018c9190810190610a47565b6104b3565b60405161019e9190610c53565b60405180910390f35b6101c160048036036101bc919081019061094f565b6104d4565b6040516101ce9190610d34565b60405180910390f35b6101f160048036036101ec919081019061094f565b61060f565b6040516101fe9190610cf0565b60405180910390f35b610221600480360361021c91908101906109b4565b6106e7565b60405161022e9190610c53565b60405180910390f35b6000610242836104d4565b5061024c82610260565b905092915050565b60008080549050905090565b600080826040516020016102749190610cf0565b604051602081830303815290604052805190602001209050610295816103d5565b156102d5576040517f08c379a00000000000000000000000000000000000000000000000000000000081526004016102cc90610c90565b60405180910390fd5b82600160008381526020019081526020016000206000016000820151816000015560208201518160010160006101000a81548173ffffffffffffffffffffffffffffffffffffffff021916908373ffffffffffffffffffffffffffffffffffffffff1602179055509050506001600082908060018154018082558091505090600182039060005260206000200160009091929091909150550360016000838152602001908152602001600020600201819055506001600082815260200190815260200160002060020154817fb73e84a46ecb312937f7ba29efd91f4d9e74056ac7ef77f3f38e477646dd84d260405160405180910390a380915050919050565b60008060008054905014156103ed5760009050610420565b81600060016000858152602001908152602001600020600201548154811061041157fe5b90600052602060002001541490505b919050565b600160205280600052604060002060009150905080600001604051806040016040529081600082015481526020016001820160009054906101000a900473ffffffffffffffffffffffffffffffffffffffff1673ffffffffffffffffffffffffffffffffffffffff1673ffffffffffffffffffffffffffffffffffffffff1681525050908060020154905082565b600081815481106104c057fe5b906000526020600020016000915090505481565b60006104df826103d5565b61051e576040517f08c379a000000000000000000000000000000000000000000000000000000000815260040161051590610cd0565b60405180910390fd5b6000600160008481526020019081526020016000206002015490506000806001600080549050038154811061054f57fe5b90600052602060002001549050806000838154811061056a57fe5b906000526020600020018190555081600160008381526020019081526020016000206002018190555060008054809190600190036105a8919061077e565b5081847f7aba1b7c67426c7ad78ea21a678946741a0c8795e99fa106728122a461e33cbc60405160405180910390a381817f486e2c79f26b56bb920c18e856915eb5e2922e2814cce03da8892d08cce6419760405160405180910390a38192505050919050565b6106176107aa565b610620826103d5565b61065f576040517f08c379a000000000000000000000000000000000000000000000000000000000815260040161065690610cb0565b60405180910390fd5b60016000838152602001908152602001600020600001604051806040016040529081600082015481526020016001820160009054906101000a900473ffffffffffffffffffffffffffffffffffffffff1673ffffffffffffffffffffffffffffffffffffffff1673ffffffffffffffffffffffffffffffffffffffff16815250509050919050565b600061077773__typeALib______________________________63b3718ad0846040518263ffffffff1660e01b81526004016107239190610c6e565b604080518083038186803b15801561073a57600080fd5b505af415801561074e573d6000803e3d6000fd5b505050506040513d601f19601f820116820180604052506107729190810190610a1e565b610260565b9050919050565b8154818355818111156107a5578183600052602060002091820191016107a491906107da565b5b505050565b604051806040016040528060008152602001600073ffffffffffffffffffffffffffffffffffffffff1681525090565b6107fc91905b808211156107f85760008160009055506001016107e0565b5090565b90565b600061080b8235610e27565b905092915050565b600061081f8251610e27565b905092915050565b60006108338235610e39565b905092915050565b600082601f83011261084c57600080fd5b813561085f61085a82610d7c565b610d4f565b9150808252602083016020830185838301111561087b57600080fd5b610886838284610e6d565b50505092915050565b6000604082840312156108a157600080fd5b6108ab6040610d4f565b905060006108bb84828501610927565b60008301525060206108cf848285016107ff565b60208301525092915050565b6000604082840312156108ed57600080fd5b6108f76040610d4f565b905060006109078482850161093b565b600083015250602061091b84828501610813565b60208301525092915050565b60006109338235610e63565b905092915050565b60006109478251610e63565b905092915050565b60006020828403121561096157600080fd5b600061096f84828501610827565b91505092915050565b6000806060838503121561098b57600080fd5b600061099985828601610827565b92505060206109aa8582860161088f565b9150509250929050565b6000602082840312156109c657600080fd5b600082013567ffffffffffffffff8111156109e057600080fd5b6109ec8482850161083b565b91505092915050565b600060408284031215610a0757600080fd5b6000610a158482850161088f565b91505092915050565b600060408284031215610a3057600080fd5b6000610a3e848285016108db565b91505092915050565b600060208284031215610a5957600080fd5b6000610a6784828501610927565b91505092915050565b610a7981610dd5565b82525050565b610a8881610de7565b82525050565b610a9781610df3565b82525050565b6000610aa882610da8565b610ab28185610db3565b9350610ac2818560208601610e7c565b610acb81610eaf565b840191505092915050565b6000610ae3602683610dc4565b91507f546869732064617461206578697374732e205573652074686520657874616e7460008301527f20646174612e00000000000000000000000000000000000000000000000000006020830152604082019050919050565b6000610b49601683610dc4565b91507f4e6f2073756368206461746120696e7365727465642e000000000000000000006000830152602082019050919050565b6000610b89601883610dc4565b91507f4e6f742064656c657465643a206e6f7420657874616e742e00000000000000006000830152602082019050919050565b604082016000820151610bd26000850182610c1a565b506020820151610be56020850182610a70565b50505050565b604082016000820151610c016000850182610c1a565b506020820151610c146020850182610a70565b50505050565b610c2381610e1d565b82525050565b610c3281610e1d565b82525050565b6000602082019050610c4d6000830184610a7f565b92915050565b6000602082019050610c686000830184610a8e565b92915050565b60006020820190508181036000830152610c888184610a9d565b905092915050565b60006020820190508181036000830152610ca981610ad6565b9050919050565b60006020820190508181036000830152610cc981610b3c565b9050919050565b60006020820190508181036000830152610ce981610b7c565b9050919050565b6000604082019050610d056000830184610bbc565b92915050565b6000606082019050610d206000830185610beb565b610d2d6040830184610c29565b9392505050565b6000602082019050610d496000830184610c29565b92915050565b6000604051905081810181811067ffffffffffffffff82111715610d7257600080fd5b8060405250919050565b600067ffffffffffffffff821115610d9357600080fd5b601f19601f8301169050602081019050919050565b600081519050919050565b600082825260208201905092915050565b600082825260208201905092915050565b6000610de082610dfd565b9050919050565b60008115159050919050565b6000819050919050565b600073ffffffffffffffffffffffffffffffffffffffff82169050919050565b6000819050919050565b6000610e3282610e43565b9050919050565b6000819050919050565b600073ffffffffffffffffffffffffffffffffffffffff82169050919050565b6000819050919050565b82818337600083830152505050565b60005b83811015610e9a578082015181840152602081019050610e7f565b83811115610ea9576000848401525b50505050565b6000601f19601f830116905091905056fea265627a7a723058207e241ea32114f6f01a21c3c013fd7ba306a169dbbda07568ad7e6733365377f66c6578706572696d656e74616cf50037",
  "source": "pragma solidity ^0.5.0;\npragma experimental ABIEncoderV2;\n\nimport './typeALib.sol';\n\ncontract typeAContract {\n    using typeALib for typeALib.TypeA;\n\n    bytes32[] public typeIndex;\n    mapping(bytes32 => Type) public typeStruct;\n\n    struct Type {\n        typeALib.TypeA data;\n        uint256 index;\n    }\n\n    modifier dataIsStored (bytes32 hash) {\n        require(isStored(hash), \"No such data inserted.\");\n        _;\n    }\n\n    event LogNew(bytes32 indexed hash, uint256 indexed index);\n    event LogUpdate(bytes32 indexed hash, uint256 indexed index);\n    event LogRemove(bytes32 indexed hash, uint256 indexed index);\n\n    function insert(typeALib.TypeA memory data) public returns (bytes32 hasho) {\n\n        // for data integrity\n        bytes32 hash = keccak256(abi.encode(data));\n\n        if(isStored(hash)) revert(\"This data exists. Use the extant data.\");\n\n        typeStruct[hash].data = data;\n        typeStruct[hash].index = typeIndex.push(hash) - 1;\n        emit LogNew(hash, typeStruct[hash].index);\n        return hash;\n    }\n\n    function insertBytes(bytes memory data) public returns (bytes32 hasho) {\n        return insert(typeALib.structureBytes(data));\n    }\n\n    function remove(bytes32 hash) public returns(uint256 index) {\n        if(!isStored(hash)) revert(\"Not deleted: not extant.\");\n        uint rowToDelete = typeStruct[hash].index;\n        bytes32 keyToMove = typeIndex[typeIndex.length-1];\n        typeIndex[rowToDelete] = keyToMove;\n        typeStruct[keyToMove].index = rowToDelete;\n        typeIndex.length--;\n        emit LogRemove(hash, rowToDelete);\n\n        emit LogUpdate(keyToMove, rowToDelete);\n        return rowToDelete;\n    }\n\n    function update(bytes32 hashi, typeALib.TypeA memory data)\n        public\n        returns(bytes32 hash)\n    {\n        remove(hashi);\n        return insert(data);\n    }\n\n    function isStored(bytes32 hash) public view returns(bool isIndeed) {\n        if(typeIndex.length == 0) return false;\n        return (typeIndex[typeStruct[hash].index] == hash);\n    }\n\n    function getByHash(bytes32 hash) public view returns(typeALib.TypeA memory data) {\n        if(!isStored(hash)) revert(\"No such data inserted.\");\n        return(typeStruct[hash].data);\n    }\n\n    function count() public view returns(uint256 counter) {\n        return typeIndex.length;\n    }\n}\n",
  "sourcePath": "/Users/loredana/ETH/dType/contracts/contracts/dtypes/typeAContract.sol",
  "compiler": {
    "name": "solc",
    "version": "0.5.7+commit.6da8b019.Emscripten.clang"
  },
  "schemaVersion": "3.0.11",
  "updatedAt": "2019-07-28T08:56:05.662Z",
  "devdoc": {
    "methods": {}
  },
  "userdoc": {
    "methods": {}
  }
}