{
  "contractName": "UriPointerLib",
  "abi": [
    {
      "constant": true,
      "inputs": [
        {
          "components": [
            {
              "name": "uri",
              "type": "string"
            }
          ],
          "name": "pointer",
          "type": "tuple"
        }
      ],
      "name": "getDataHash",
      "outputs": [
        {
          "name": "hash",
          "type": "bytes32"
        }
      ],
      "payable": false,
      "stateMutability": "pure",
      "type": "function"
    },
    {
      "constant": true,
      "inputs": [
        {
          "components": [
            {
              "name": "uri",
              "type": "string"
            }
          ],
          "name": "pointer",
          "type": "tuple"
        }
      ],
      "name": "getRequired",
      "outputs": [
        {
          "components": [
            {
              "name": "uri",
              "type": "string"
            }
          ],
          "name": "pointerRequired",
          "type": "tuple"
        }
      ],
      "payable": false,
      "stateMutability": "pure",
      "type": "function"
    },
    {
      "constant": true,
      "inputs": [
        {
          "components": [
            {
              "name": "uri",
              "type": "string"
            }
          ],
          "name": "pointer",
          "type": "tuple"
        }
      ],
      "name": "getFull",
      "outputs": [
        {
          "components": [
            {
              "name": "uri",
              "type": "string"
            }
          ],
          "name": "pointerFull",
          "type": "tuple"
        }
      ],
      "payable": false,
      "stateMutability": "pure",
      "type": "function"
    },
    {
      "constant": true,
      "inputs": [
        {
          "name": "data",
          "type": "bytes"
        }
      ],
      "name": "structureBytes",
      "outputs": [
        {
          "components": [
            {
              "name": "uri",
              "type": "string"
            }
          ],
          "name": "pointer",
          "type": "tuple"
        }
      ],
      "payable": false,
      "stateMutability": "pure",
      "type": "function"
    },
    {
      "constant": true,
      "inputs": [
        {
          "components": [
            {
              "name": "uri",
              "type": "string"
            }
          ],
          "name": "pointer",
          "type": "tuple"
        }
      ],
      "name": "destructureBytes",
      "outputs": [
        {
          "name": "data",
          "type": "bytes"
        }
      ],
      "payable": false,
      "stateMutability": "pure",
      "type": "function"
    },
    {
      "constant": true,
      "inputs": [
        {
          "name": "callbackAddr",
          "type": "address"
        },
        {
          "name": "callbackSig",
          "type": "bytes4"
        },
        {
          "components": [
            {
              "name": "uri",
              "type": "string"
            }
          ],
          "name": "pointerArr",
          "type": "tuple[]"
        }
      ],
      "name": "map",
      "outputs": [
        {
          "components": [
            {
              "name": "uri",
              "type": "string"
            }
          ],
          "name": "result",
          "type": "tuple[]"
        }
      ],
      "payable": false,
      "stateMutability": "view",
      "type": "function"
    }
  ],
  "bytecode": "0x610d53610026600b82828239805160001a60731461001957fe5b30600052607381538281f3fe730000000000000000000000000000000000000000301460806040526004361061006c5760003560e01c806341a4d813146100715780635904ba47146100a15780635f3ea5e3146100d1578063a49afe1914610101578063b3718ad014610131578063e51c45d114610161575b600080fd5b61008b60048036036100869190810190610781565b610191565b6040516100989190610af4565b60405180910390f35b6100bb60048036036100b69190810190610781565b6101a1565b6040516100c89190610a53565b60405180910390f35b6100eb60048036036100e69190810190610698565b6101d1565b6040516100f89190610a31565b60405180910390f35b61011b60048036036101169190810190610781565b61038e565b6040516101289190610a6e565b60405180910390f35b61014b600480360361014691908101906106ff565b6103b7565b6040516101589190610af4565b60405180910390f35b61017b60048036036101769190810190610781565b6103da565b6040516101889190610af4565b60405180910390f35b6101996103ea565b819050919050565b6000816040516020016101b49190610ad2565b604051602081830303815290604052805190602001209050919050565b60606000825190508060405190808252806020026020018201604052801561021357816020015b6102006103fd565b8152602001906001900390816101f85790505b50915060008090505b8181101561038257600060608773ffffffffffffffffffffffffffffffffffffffff168787858151811061024c57fe5b60200260200101516040516024016102649190610ab0565b604051602081830303815290604052907bffffffffffffffffffffffffffffffffffffffffffffffffffffffff19166020820180517bffffffffffffffffffffffffffffffffffffffffffffffffffffffff83818316178352505050506040516102ce9190610a1a565b600060405180830381855afa9150503d8060008114610309576040519150601f19603f3d011682016040523d82523d6000602084013e61030e565b606091505b509150915081610353576040517f08c379a000000000000000000000000000000000000000000000000000000000815260040161034a90610a90565b60405180910390fd5b61035c816103b7565b85848151811061036857fe5b60200260200101819052505050808060010191505061021c565b50819150509392505050565b6060816040516020016103a19190610ad2565b6040516020818303038152906040529050919050565b6103bf6103ea565b818060200190516103d39190810190610740565b9050919050565b6103e26103ea565b819050919050565b6040518060200160405280606081525090565b6040518060200160405280606081525090565b600061041c8235610c68565b905092915050565b600082601f83011261043557600080fd5b813561044861044382610b43565b610b16565b9150818183526020840193506020810190508360005b8381101561048e578135860161047488826105a8565b84526020840193506020830192505060018101905061045e565b5050505092915050565b60006104a48235610c7a565b905092915050565b600082601f8301126104bd57600080fd5b81356104d06104cb82610b6b565b610b16565b915080825260208301602083018583830111156104ec57600080fd5b6104f7838284610cc6565b50505092915050565b600082601f83011261051157600080fd5b813561052461051f82610b97565b610b16565b9150808252602083016020830185838301111561054057600080fd5b61054b838284610cc6565b50505092915050565b600082601f83011261056557600080fd5b815161057861057382610b97565b610b16565b9150808252602083016020830185838301111561059457600080fd5b61059f838284610cd5565b50505092915050565b6000602082840312156105ba57600080fd5b6105c46020610b16565b9050600082013567ffffffffffffffff8111156105e057600080fd5b6105ec84828501610500565b60008301525092915050565b60006020828403121561060a57600080fd5b6106146020610b16565b9050600082015167ffffffffffffffff81111561063057600080fd5b61063c84828501610554565b60008301525092915050565b60006020828403121561065a57600080fd5b6106646020610b16565b9050600082013567ffffffffffffffff81111561068057600080fd5b61068c84828501610500565b60008301525092915050565b6000806000606084860312156106ad57600080fd5b60006106bb86828701610410565b93505060206106cc86828701610498565b925050604084013567ffffffffffffffff8111156106e957600080fd5b6106f586828701610424565b9150509250925092565b60006020828403121561071157600080fd5b600082013567ffffffffffffffff81111561072b57600080fd5b610737848285016104ac565b91505092915050565b60006020828403121561075257600080fd5b600082015167ffffffffffffffff81111561076c57600080fd5b610778848285016105f8565b91505092915050565b60006020828403121561079357600080fd5b600082013567ffffffffffffffff8111156107ad57600080fd5b6107b984828501610648565b91505092915050565b60006107ce83836109f0565b905092915050565b60006107e182610bd0565b6107eb8185610bfe565b9350836020820285016107fd85610bc3565b60005b848110156108365783830388526108188383516107c2565b925061082382610bf1565b9150602088019750600181019050610800565b508196508694505050505092915050565b61085081610c5e565b82525050565b600061086182610bdb565b61086b8185610c0f565b935061087b818560208601610cd5565b61088481610d08565b840191505092915050565b600061089a82610bdb565b6108a48185610c20565b93506108b4818560208601610cd5565b80840191505092915050565b60006108cb82610be6565b6108d58185610c2b565b93506108e5818560208601610cd5565b6108ee81610d08565b840191505092915050565b600061090482610be6565b61090e8185610c4d565b935061091e818560208601610cd5565b61092781610d08565b840191505092915050565b600061093f601383610c3c565b91507f4d61702063616c6c6261636b206661696c6564000000000000000000000000006000830152602082019050919050565b6000602083016000830151848203600086015261098f82826108c0565b9150508091505092915050565b600060208301600083015184820360008601526109b982826108f9565b9150508091505092915050565b600060208301600083015184820360008601526109e382826108c0565b9150508091505092915050565b60006020830160008301518482036000860152610a0d82826108f9565b9150508091505092915050565b6000610a26828461088f565b915081905092915050565b60006020820190508181036000830152610a4b81846107d6565b905092915050565b6000602082019050610a686000830184610847565b92915050565b60006020820190508181036000830152610a888184610856565b905092915050565b60006020820190508181036000830152610aa981610932565b9050919050565b60006020820190508181036000830152610aca81846109c6565b905092915050565b60006020820190508181036000830152610aec8184610972565b905092915050565b60006020820190508181036000830152610b0e818461099c565b905092915050565b6000604051905081810181811067ffffffffffffffff82111715610b3957600080fd5b8060405250919050565b600067ffffffffffffffff821115610b5a57600080fd5b602082029050602081019050919050565b600067ffffffffffffffff821115610b8257600080fd5b601f19601f8301169050602081019050919050565b600067ffffffffffffffff821115610bae57600080fd5b601f19601f8301169050602081019050919050565b6000602082019050919050565b600081519050919050565b600081519050919050565b600081519050919050565b6000602082019050919050565b600082825260208201905092915050565b600082825260208201905092915050565b600081905092915050565b600082825260208201905092915050565b600082825260208201905092915050565b600082825260208201905092915050565b6000819050919050565b6000610c7382610ca6565b9050919050565b60007fffffffff0000000000000000000000000000000000000000000000000000000082169050919050565b600073ffffffffffffffffffffffffffffffffffffffff82169050919050565b82818337600083830152505050565b60005b83811015610cf3578082015181840152602081019050610cd8565b83811115610d02576000848401525b50505050565b6000601f19601f830116905091905056fea265627a7a723058204ce8bdbf1892cf6ba77c8e87f4bef161fe65907217da38d8c83b7ee734364f836c6578706572696d656e74616cf50037",
  "source": "pragma solidity ^0.5.0;\npragma experimental ABIEncoderV2;\n\nlibrary UriPointerLib {\n\n    struct UriPointer {\n        string uri;\n    }\n\n    function insert(UriPointer storage self, UriPointer memory pointer) internal {\n        if (keccak256(abi.encodePacked(pointer.uri)) != keccak256(abi.encodePacked(\"\"))) {\n            self.uri = pointer.uri;\n        }\n    }\n\n    function insertArray(UriPointer[] storage self, UriPointer[] memory pointer) internal {\n        uint256 length = pointer.length;\n        for (uint256 i = 0; i < length; i++) {\n            insert(self[i], pointer[i]);\n        }\n    }\n\n    function getDataHash(UriPointer memory pointer) pure public returns(bytes32 hash) {\n        return keccak256(abi.encode(pointer));\n    }\n\n    function getRequired(UriPointer memory pointer) pure public returns(UriPointer memory pointerRequired) {\n        return pointer;\n    }\n\n    function getFull(UriPointer memory pointer) pure public returns(UriPointer memory pointerFull) {\n        return pointer;\n    }\n\n    function structureBytes(bytes memory data)\n        pure\n        public\n        returns(UriPointer memory pointer)\n    {\n        (pointer) = abi.decode(data, (UriPointer));\n    }\n\n    function destructureBytes(UriPointer memory pointer)\n        pure\n        public\n        returns(bytes memory data)\n    {\n        return abi.encode(pointer);\n    }\n\n    function map(\n        address callbackAddr,\n        bytes4 callbackSig,\n        UriPointer[] memory pointerArr\n    )\n        view\n        public\n        returns (UriPointer[] memory result)\n    {\n        uint length = pointerArr.length;\n        result = new UriPointer[](length);\n\n        for (uint i = 0; i < length; i++) {\n            (bool success, bytes memory data) = callbackAddr.staticcall(abi.encodeWithSelector(callbackSig, pointerArr[i]));\n\n            require(success, \"Map callback failed\");\n            result[i] = structureBytes(data);\n        }\n\n        return result;\n    }\n}\n",
  "sourcePath": "/Users/loredana/ETH/dType/contracts/contracts/examples/filesystem/UriPointerLib.sol",
  "compiler": {
    "name": "solc",
    "version": "0.5.7+commit.6da8b019.Emscripten.clang"
  },
  "schemaVersion": "3.0.11",
  "updatedAt": "2019-07-16T11:00:51.203Z",
  "devdoc": {
    "methods": {}
  },
  "userdoc": {
    "methods": {}
  }
}