{
  "contractName": "VoteResourceTypeStorage",
  "abi": [
    {
      "constant": true,
      "inputs": [
        {
          "name": "",
          "type": "bytes32"
        }
      ],
      "name": "typeStruct",
      "outputs": [
        {
          "components": [
            {
              "name": "proponent",
              "type": "address"
            },
            {
              "name": "contractAddress",
              "type": "address"
            },
            {
              "name": "dataHash",
              "type": "bytes32"
            },
            {
              "name": "votingProcessDataHash",
              "type": "bytes32"
            },
            {
              "name": "scoreyes",
              "type": "uint256"
            },
            {
              "name": "scoreno",
              "type": "uint256"
            }
          ],
          "name": "data",
          "type": "tuple"
        },
        {
          "name": "index",
          "type": "uint256"
        }
      ],
      "payable": false,
      "stateMutability": "view",
      "type": "function"
    },
    {
      "constant": true,
      "inputs": [
        {
          "name": "",
          "type": "uint256"
        }
      ],
      "name": "typeIndex",
      "outputs": [
        {
          "name": "",
          "type": "bytes32"
        }
      ],
      "payable": false,
      "stateMutability": "view",
      "type": "function"
    },
    {
      "anonymous": false,
      "inputs": [
        {
          "indexed": true,
          "name": "hash",
          "type": "bytes32"
        },
        {
          "indexed": true,
          "name": "index",
          "type": "uint256"
        }
      ],
      "name": "LogNew",
      "type": "event"
    },
    {
      "anonymous": false,
      "inputs": [
        {
          "indexed": true,
          "name": "hash",
          "type": "bytes32"
        },
        {
          "indexed": true,
          "name": "index",
          "type": "uint256"
        }
      ],
      "name": "LogUpdate",
      "type": "event"
    },
    {
      "anonymous": false,
      "inputs": [
        {
          "indexed": true,
          "name": "hash",
          "type": "bytes32"
        },
        {
          "indexed": true,
          "name": "index",
          "type": "uint256"
        }
      ],
      "name": "LogRemove",
      "type": "event"
    },
    {
      "constant": false,
      "inputs": [
        {
          "components": [
            {
              "name": "proponent",
              "type": "address"
            },
            {
              "name": "contractAddress",
              "type": "address"
            },
            {
              "name": "dataHash",
              "type": "bytes32"
            },
            {
              "name": "votingProcessDataHash",
              "type": "bytes32"
            },
            {
              "name": "scoreyes",
              "type": "uint256"
            },
            {
              "name": "scoreno",
              "type": "uint256"
            }
          ],
          "name": "data",
          "type": "tuple"
        }
      ],
      "name": "insert",
      "outputs": [
        {
          "name": "hasho",
          "type": "bytes32"
        }
      ],
      "payable": false,
      "stateMutability": "nonpayable",
      "type": "function"
    },
    {
      "constant": false,
      "inputs": [
        {
          "name": "data",
          "type": "bytes"
        }
      ],
      "name": "insertBytes",
      "outputs": [
        {
          "name": "hasho",
          "type": "bytes32"
        }
      ],
      "payable": false,
      "stateMutability": "nonpayable",
      "type": "function"
    },
    {
      "constant": false,
      "inputs": [
        {
          "name": "hash",
          "type": "bytes32"
        }
      ],
      "name": "remove",
      "outputs": [
        {
          "name": "index",
          "type": "uint256"
        }
      ],
      "payable": false,
      "stateMutability": "nonpayable",
      "type": "function"
    },
    {
      "constant": false,
      "inputs": [
        {
          "name": "hash",
          "type": "bytes32"
        },
        {
          "components": [
            {
              "name": "vote",
              "type": "bool"
            },
            {
              "name": "voteWeight",
              "type": "uint256"
            },
            {
              "name": "senderAddress",
              "type": "address"
            }
          ],
          "name": "vote",
          "type": "tuple"
        }
      ],
      "name": "update",
      "outputs": [],
      "payable": false,
      "stateMutability": "nonpayable",
      "type": "function"
    },
    {
      "constant": true,
      "inputs": [
        {
          "name": "hash",
          "type": "bytes32"
        }
      ],
      "name": "isStored",
      "outputs": [
        {
          "name": "isIndeed",
          "type": "bool"
        }
      ],
      "payable": false,
      "stateMutability": "view",
      "type": "function"
    },
    {
      "constant": true,
      "inputs": [
        {
          "name": "hash",
          "type": "bytes32"
        }
      ],
      "name": "getByHash",
      "outputs": [
        {
          "components": [
            {
              "name": "proponent",
              "type": "address"
            },
            {
              "name": "contractAddress",
              "type": "address"
            },
            {
              "name": "dataHash",
              "type": "bytes32"
            },
            {
              "name": "votingProcessDataHash",
              "type": "bytes32"
            },
            {
              "name": "scoreyes",
              "type": "uint256"
            },
            {
              "name": "scoreno",
              "type": "uint256"
            }
          ],
          "name": "data",
          "type": "tuple"
        }
      ],
      "payable": false,
      "stateMutability": "view",
      "type": "function"
    },
    {
      "constant": true,
      "inputs": [
        {
          "components": [
            {
              "name": "contractAddress",
              "type": "address"
            },
            {
              "name": "dataHash",
              "type": "bytes32"
            },
            {
              "name": "proponent",
              "type": "address"
            }
          ],
          "name": "identifier",
          "type": "tuple"
        }
      ],
      "name": "getHash",
      "outputs": [
        {
          "name": "hash",
          "type": "bytes32"
        }
      ],
      "payable": false,
      "stateMutability": "view",
      "type": "function"
    },
    {
      "constant": true,
      "inputs": [],
      "name": "count",
      "outputs": [
        {
          "name": "counter",
          "type": "uint256"
        }
      ],
      "payable": false,
      "stateMutability": "view",
      "type": "function"
    }
  ],
  "bytecode": "0x608060405234801561001057600080fd5b50611980806100206000396000f3fe608060405234801561001057600080fd5b506004361061009e5760003560e01c8063a2dd3d4711610066578063a2dd3d4714610182578063ab35d0c5146101b2578063ca6622ad146101e2578063d7987ea5146101fe578063fd0987791461022e5761009e565b806306661abd146100a35780633f42aeab146100c1578063668414a4146100f15780637460e3111461012257806395bc267314610152575b600080fd5b6100ab61025e565b6040516100b891906117ae565b60405180910390f35b6100db60048036036100d69190810190611090565b61026a565b6040516100e8919061161c565b60405180910390f35b61010b60048036036101069190810190611090565b6102ba565b604051610119929190611785565b60405180910390f35b61013c600480360361013791908101906111da565b6103bc565b6040516101499190611637565b60405180910390f35b61016c60048036036101679190810190611090565b6103dd565b60405161017991906117ae565b60405180910390f35b61019c60048036036101979190810190611090565b6105ab565b6040516101a9919061174f565b60405180910390f35b6101cc60048036036101c7919081019061115f565b6106f7565b6040516101d99190611637565b60405180910390f35b6101fc60048036036101f791908101906110e2565b610789565b005b6102186004803603610213919081019061111e565b610a13565b6040516102259190611637565b60405180910390f35b61024860048036036102439190810190611188565b610aab565b6040516102559190611637565b60405180910390f35b60008080549050905090565b600080600080549050141561028257600090506102b5565b8160006001600085815260200190815260200160002060060154815481106102a657fe5b90600052602060002001541490505b919050565b6001602052806000526040600020600091509050806000016040518060c00160405290816000820160009054906101000a900473ffffffffffffffffffffffffffffffffffffffff1673ffffffffffffffffffffffffffffffffffffffff1673ffffffffffffffffffffffffffffffffffffffff1681526020016001820160009054906101000a900473ffffffffffffffffffffffffffffffffffffffff1673ffffffffffffffffffffffffffffffffffffffff1673ffffffffffffffffffffffffffffffffffffffff168152602001600282015481526020016003820154815260200160048201548152602001600582015481525050908060060154905082565b600081815481106103c957fe5b906000526020600020016000915090505481565b60006103e88261026a565b610427576040517f08c379a000000000000000000000000000000000000000000000000000000000815260040161041e906116d4565b60405180910390fd5b6000600160008481526020019081526020016000206006015490506000806001600080549050038154811061045857fe5b90600052602060002001549050806000838154811061047357fe5b906000526020600020018190555081600160008381526020019081526020016000206006018190555060008054809190600190036104b19190610cff565b50600160008581526020019081526020016000206000808201600080820160006101000a81549073ffffffffffffffffffffffffffffffffffffffff02191690556001820160006101000a81549073ffffffffffffffffffffffffffffffffffffffff0219169055600282016000905560038201600090556004820160009055600582016000905550506006820160009055505081847f7aba1b7c67426c7ad78ea21a678946741a0c8795e99fa106728122a461e33cbc60405160405180910390a381817f486e2c79f26b56bb920c18e856915eb5e2922e2814cce03da8892d08cce6419760405160405180910390a38192505050919050565b6105b3610d2b565b6105bc8261026a565b6105fb576040517f08c379a00000000000000000000000000000000000000000000000000000000081526004016105f290611694565b60405180910390fd5b600160008381526020019081526020016000206000016040518060c00160405290816000820160009054906101000a900473ffffffffffffffffffffffffffffffffffffffff1673ffffffffffffffffffffffffffffffffffffffff1673ffffffffffffffffffffffffffffffffffffffff1681526020016001820160009054906101000a900473ffffffffffffffffffffffffffffffffffffffff1673ffffffffffffffffffffffffffffffffffffffff1673ffffffffffffffffffffffffffffffffffffffff1681526020016002820154815260200160038201548152602001600482015481526020016005820154815250509050919050565b60008173__VoteResourceTypeLib___________________63366d877890916040518263ffffffff1660e01b81526004016107329190611734565b60206040518083038186803b15801561074a57600080fd5b505af415801561075e573d6000803e3d6000fd5b505050506040513d601f19601f8201168201806040525061078291908101906110b9565b9050919050565b60008160200151116107d0576040517f08c379a00000000000000000000000000000000000000000000000000000000081526004016107c7906116f4565b60405180910390fd5b600073ffffffffffffffffffffffffffffffffffffffff16816040015173ffffffffffffffffffffffffffffffffffffffff161415610844576040517f08c379a000000000000000000000000000000000000000000000000000000000815260040161083b90611714565b60405180910390fd5b60001515600160008481526020019081526020016000206007016000836040015173ffffffffffffffffffffffffffffffffffffffff1673ffffffffffffffffffffffffffffffffffffffff16815260200190815260200160002060009054906101000a900460ff161515146108ef576040517f08c379a00000000000000000000000000000000000000000000000000000000081526004016108e6906116b4565b60405180910390fd5b60018060008481526020019081526020016000206007016000836040015173ffffffffffffffffffffffffffffffffffffffff1673ffffffffffffffffffffffffffffffffffffffff16815260200190815260200160002060006101000a81548160ff0219169083151502179055506001151581600001511515141561099f57806020015160016000848152602001908152602001600020600001600401600082825401925050819055506109cb565b806020015160016000848152602001908152602001600020600001600501600082825401925050819055505b6001600083815260200190815260200160002060060154827f486e2c79f26b56bb920c18e856915eb5e2922e2814cce03da8892d08cce6419760405160405180910390a35050565b6000610aa473__VoteResourceTypeLib___________________63b3718ad0846040518263ffffffff1660e01b8152600401610a4f9190611652565b60c06040518083038186803b158015610a6757600080fd5b505af4158015610a7b573d6000803e3d6000fd5b505050506040513d601f19601f82011682018060405250610a9f91908101906111b1565b610aab565b9050919050565b6000808273__VoteResourceTypeLib___________________63c9c86d4d90916040518263ffffffff1660e01b8152600401610ae7919061176a565b60206040518083038186803b158015610aff57600080fd5b505af4158015610b13573d6000803e3d6000fd5b505050506040513d601f19601f82011682018060405250610b3791908101906110b9565b9050610b428161026a565b15610b82576040517f08c379a0000000000000000000000000000000000000000000000000000000008152600401610b7990611674565b60405180910390fd5b610baa8360016000848152602001908152602001600020600001610c3f90919063ffffffff16565b6001600082908060018154018082558091505090600182039060005260206000200160009091929091909150550360016000838152602001908152602001600020600601819055506001600082815260200190815260200160002060060154817fb73e84a46ecb312937f7ba29efd91f4d9e74056ac7ef77f3f38e477646dd84d260405160405180910390a380915050919050565b80600001518260000160006101000a81548173ffffffffffffffffffffffffffffffffffffffff021916908373ffffffffffffffffffffffffffffffffffffffff16021790555080602001518260010160006101000a81548173ffffffffffffffffffffffffffffffffffffffff021916908373ffffffffffffffffffffffffffffffffffffffff160217905550806040015182600201819055508060600151826003018190555060008260040181905550600082600501819055505050565b815481835581811115610d2657818360005260206000209182019101610d259190610d93565b5b505050565b6040518060c00160405280600073ffffffffffffffffffffffffffffffffffffffff168152602001600073ffffffffffffffffffffffffffffffffffffffff168152602001600080191681526020016000801916815260200160008152602001600081525090565b610db591905b80821115610db1576000816000905550600101610d99565b5090565b90565b6000610dc482356118a1565b905092915050565b6000610dd882516118a1565b905092915050565b6000610dec82356118b3565b905092915050565b6000610e0082356118bf565b905092915050565b6000610e1482516118bf565b905092915050565b600082601f830112610e2d57600080fd5b8135610e40610e3b826117f6565b6117c9565b91508082526020830160208301858383011115610e5c57600080fd5b610e678382846118f3565b50505092915050565b600060608284031215610e8257600080fd5b610e8c60606117c9565b90506000610e9c84828501610de0565b6000830152506020610eb084828501611068565b6020830152506040610ec484828501610db8565b60408301525092915050565b600060608284031215610ee257600080fd5b610eec60606117c9565b90506000610efc84828501610db8565b6000830152506020610f1084828501610df4565b6020830152506040610f2484828501610db8565b60408301525092915050565b600060c08284031215610f4257600080fd5b610f4c60c06117c9565b90506000610f5c84828501610db8565b6000830152506020610f7084828501610db8565b6020830152506040610f8484828501610df4565b6040830152506060610f9884828501610df4565b6060830152506080610fac84828501611068565b60808301525060a0610fc084828501611068565b60a08301525092915050565b600060c08284031215610fde57600080fd5b610fe860c06117c9565b90506000610ff884828501610dcc565b600083015250602061100c84828501610dcc565b602083015250604061102084828501610e08565b604083015250606061103484828501610e08565b60608301525060806110488482850161107c565b60808301525060a061105c8482850161107c565b60a08301525092915050565b600061107482356118e9565b905092915050565b600061108882516118e9565b905092915050565b6000602082840312156110a257600080fd5b60006110b084828501610df4565b91505092915050565b6000602082840312156110cb57600080fd5b60006110d984828501610e08565b91505092915050565b600080608083850312156110f557600080fd5b600061110385828601610df4565b925050602061111485828601610e70565b9150509250929050565b60006020828403121561113057600080fd5b600082013567ffffffffffffffff81111561114a57600080fd5b61115684828501610e1c565b91505092915050565b60006060828403121561117157600080fd5b600061117f84828501610ed0565b91505092915050565b600060c0828403121561119a57600080fd5b60006111a884828501610f30565b91505092915050565b600060c082840312156111c357600080fd5b60006111d184828501610fcc565b91505092915050565b6000602082840312156111ec57600080fd5b60006111fa84828501611068565b91505092915050565b61120c8161184f565b82525050565b61121b8161184f565b82525050565b61122a81611861565b82525050565b6112398161186d565b82525050565b6112488161186d565b82525050565b6112578161186d565b82525050565b600061126882611822565b611272818561182d565b9350611282818560208601611902565b61128b81611935565b840191505092915050565b60006112a360268361183e565b91507f546869732064617461206578697374732e205573652074686520657874616e7460008301527f20646174612e00000000000000000000000000000000000000000000000000006020830152604082019050919050565b600061130960168361183e565b91507f4e6f2073756368206461746120696e7365727465642e000000000000000000006000830152602082019050919050565b6000611349600d8361183e565b91507f416c726561647920766f746564000000000000000000000000000000000000006000830152602082019050919050565b600061138960188361183e565b91507f4e6f742064656c657465643a206e6f7420657874616e742e00000000000000006000830152602082019050919050565b60006113c960168361183e565b91507f766f7465576569676874206d757374206265203e2030000000000000000000006000830152602082019050919050565b600061140960128361183e565b91507f73656e64657241646472657373206e756c6c00000000000000000000000000006000830152602082019050919050565b6060820160008201516114526000850182611212565b506020820151611465602085018261124e565b5060408201516114786040850182611212565b50505050565b60c0820160008201516114946000850182611203565b5060208201516114a76020850182611203565b5060408201516114ba6040850182611230565b5060608201516114cd6060850182611230565b5060808201516114e060808501826115ef565b5060a08201516114f360a08501826115ef565b50505050565b60c08201600082015161150f6000850182611212565b5060208201516115226020850182611212565b506040820151611535604085018261124e565b506060820151611548606085018261124e565b50608082015161155b608085018261160d565b5060a082015161156e60a085018261160d565b50505050565b60c08201600082015161158a6000850182611203565b50602082015161159d6020850182611203565b5060408201516115b06040850182611230565b5060608201516115c36060850182611230565b5060808201516115d660808501826115ef565b5060a08201516115e960a08501826115ef565b50505050565b6115f881611897565b82525050565b61160781611897565b82525050565b61161681611897565b82525050565b60006020820190506116316000830184611221565b92915050565b600060208201905061164c600083018461123f565b92915050565b6000602082019050818103600083015261166c818461125d565b905092915050565b6000602082019050818103600083015261168d81611296565b9050919050565b600060208201905081810360008301526116ad816112fc565b9050919050565b600060208201905081810360008301526116cd8161133c565b9050919050565b600060208201905081810360008301526116ed8161137c565b9050919050565b6000602082019050818103600083015261170d816113bc565b9050919050565b6000602082019050818103600083015261172d816113fc565b9050919050565b6000606082019050611749600083018461143c565b92915050565b600060c082019050611764600083018461147e565b92915050565b600060c08201905061177f60008301846114f9565b92915050565b600060e08201905061179a6000830185611574565b6117a760c08301846115fe565b9392505050565b60006020820190506117c360008301846115fe565b92915050565b6000604051905081810181811067ffffffffffffffff821117156117ec57600080fd5b8060405250919050565b600067ffffffffffffffff82111561180d57600080fd5b601f19601f8301169050602081019050919050565b600081519050919050565b600082825260208201905092915050565b600082825260208201905092915050565b600061185a82611877565b9050919050565b60008115159050919050565b6000819050919050565b600073ffffffffffffffffffffffffffffffffffffffff82169050919050565b6000819050919050565b60006118ac826118c9565b9050919050565b60008115159050919050565b6000819050919050565b600073ffffffffffffffffffffffffffffffffffffffff82169050919050565b6000819050919050565b82818337600083830152505050565b60005b83811015611920578082015181840152602081019050611905565b8381111561192f576000848401525b50505050565b6000601f19601f830116905091905056fea265627a7a7230582014c8d474cbf3bb938b9bb57620e1495079630e0d8073670501961e24141ce4056c6578706572696d656e74616cf50037",
  "source": "pragma solidity ^0.5.0;\npragma experimental ABIEncoderV2;\n\nimport './VoteResourceInterface.sol';\n\ncontract VoteResourceTypeStorage is VoteResourceInterface {\n    using VoteTypeLib for VoteTypeLib.UserVote;\n    using VoteResourceTypeLib for VoteResourceTypeLib.VoteResource;\n    using VoteResourceTypeLib for VoteResourceTypeLib.VoteResourceIdentifier;\n\n    bytes32[] public typeIndex;\n    mapping(bytes32 => Type) public typeStruct;\n\n    struct Type {\n        VoteResourceTypeLib.VoteResource data;\n        uint256 index;\n        mapping(address => bool) voted;\n    }\n\n    modifier dataIsStored (bytes32 hash) {\n        require(isStored(hash), \"No such data inserted.\");\n        _;\n    }\n\n    event LogNew(bytes32 indexed hash, uint256 indexed index);\n    event LogUpdate(bytes32 indexed hash, uint256 indexed index);\n    event LogRemove(bytes32 indexed hash, uint256 indexed index);\n\n    function insert(VoteResourceTypeLib.VoteResource memory data) public returns (bytes32 hasho) {\n\n        // for data integrity\n        bytes32 hash = data.getDataHash();\n\n        if(isStored(hash)) revert(\"This data exists. Use the extant data.\");\n\n        typeStruct[hash].data.insert(data);\n        typeStruct[hash].index = typeIndex.push(hash) - 1;\n\n        emit LogNew(hash, typeStruct[hash].index);\n        return hash;\n    }\n\n    function insertBytes(bytes memory data) public returns (bytes32 hasho) {\n        return insert(VoteResourceTypeLib.structureBytes(data));\n    }\n\n    function remove(bytes32 hash) public returns(uint256 index) {\n        if(!isStored(hash)) revert(\"Not deleted: not extant.\");\n        uint rowToDelete = typeStruct[hash].index;\n        bytes32 keyToMove = typeIndex[typeIndex.length-1];\n        typeIndex[rowToDelete] = keyToMove;\n        typeStruct[keyToMove].index = rowToDelete;\n        typeIndex.length--;\n\n        delete typeStruct[hash];\n\n        emit LogRemove(hash, rowToDelete);\n\n        emit LogUpdate(keyToMove, rowToDelete);\n        return rowToDelete;\n    }\n\n    function update(bytes32 hash, VoteTypeLib.UserVote memory vote)\n        public\n    {\n        require(vote.voteWeight > 0, 'voteWeight must be > 0');\n        require(vote.senderAddress != address(0), 'senderAddress null');\n        require(typeStruct[hash].voted[vote.senderAddress] == false, 'Already voted');\n        typeStruct[hash].voted[vote.senderAddress] = true;\n        if (vote.vote == true) {\n            typeStruct[hash].data.scoreyes += vote.voteWeight;\n        } else {\n            typeStruct[hash].data.scoreno += vote.voteWeight;\n        }\n        emit LogUpdate(hash, typeStruct[hash].index);\n    }\n\n    function isStored(bytes32 hash) public view returns(bool isIndeed) {\n        if(typeIndex.length == 0) return false;\n        return (typeIndex[typeStruct[hash].index] == hash);\n    }\n\n    function getByHash(bytes32 hash) public view returns(VoteResourceTypeLib.VoteResource memory data) {\n        if(!isStored(hash)) revert(\"No such data inserted.\");\n        return typeStruct[hash].data;\n    }\n\n    function getHash(VoteResourceTypeLib.VoteResourceIdentifier memory identifier) public view returns(bytes32 hash) {\n        return identifier.getDataHash();\n    }\n\n    function count() public view returns(uint256 counter) {\n        return typeIndex.length;\n    }\n}\n",
  "sourcePath": "/Users/loredana/ETH/dType/contracts/contracts/examples/voting/VoteResourceTypeStorage.sol",
  "compiler": {
    "name": "solc",
    "version": "0.5.7+commit.6da8b019.Emscripten.clang"
  },
  "schemaVersion": "3.0.11",
  "updatedAt": "2019-07-27T20:46:26.929Z",
  "devdoc": {
    "methods": {}
  },
  "userdoc": {
    "methods": {}
  }
}