{
  "contractName": "VoteResourceTypeLib",
  "abi": [
    {
      "constant": true,
      "inputs": [
        {
          "components": [
            {
              "name": "contractAddress",
              "type": "address"
            },
            {
              "name": "dataHash",
              "type": "bytes32"
            },
            {
              "name": "proponent",
              "type": "address"
            }
          ],
          "name": "identifier",
          "type": "tuple"
        }
      ],
      "name": "getDataHash",
      "outputs": [
        {
          "name": "hash",
          "type": "bytes32"
        }
      ],
      "payable": false,
      "stateMutability": "pure",
      "type": "function"
    },
    {
      "constant": true,
      "inputs": [
        {
          "components": [
            {
              "name": "proponent",
              "type": "address"
            },
            {
              "name": "contractAddress",
              "type": "address"
            },
            {
              "name": "dataHash",
              "type": "bytes32"
            },
            {
              "name": "votingProcessDataHash",
              "type": "bytes32"
            },
            {
              "name": "scoreyes",
              "type": "uint256"
            },
            {
              "name": "scoreno",
              "type": "uint256"
            }
          ],
          "name": "data",
          "type": "tuple"
        }
      ],
      "name": "getDataHash",
      "outputs": [
        {
          "name": "hash",
          "type": "bytes32"
        }
      ],
      "payable": false,
      "stateMutability": "pure",
      "type": "function"
    },
    {
      "constant": true,
      "inputs": [
        {
          "components": [
            {
              "name": "proponent",
              "type": "address"
            },
            {
              "name": "contractAddress",
              "type": "address"
            },
            {
              "name": "dataHash",
              "type": "bytes32"
            },
            {
              "name": "votingProcessDataHash",
              "type": "bytes32"
            },
            {
              "name": "scoreyes",
              "type": "uint256"
            },
            {
              "name": "scoreno",
              "type": "uint256"
            }
          ],
          "name": "data",
          "type": "tuple"
        }
      ],
      "name": "getFull",
      "outputs": [
        {
          "components": [
            {
              "name": "proponent",
              "type": "address"
            },
            {
              "name": "contractAddress",
              "type": "address"
            },
            {
              "name": "dataHash",
              "type": "bytes32"
            },
            {
              "name": "votingProcessDataHash",
              "type": "bytes32"
            },
            {
              "name": "scoreyes",
              "type": "uint256"
            },
            {
              "name": "scoreno",
              "type": "uint256"
            }
          ],
          "name": "dataFull",
          "type": "tuple"
        }
      ],
      "payable": false,
      "stateMutability": "pure",
      "type": "function"
    },
    {
      "constant": true,
      "inputs": [
        {
          "name": "data",
          "type": "bytes"
        }
      ],
      "name": "structureBytes",
      "outputs": [
        {
          "components": [
            {
              "name": "proponent",
              "type": "address"
            },
            {
              "name": "contractAddress",
              "type": "address"
            },
            {
              "name": "dataHash",
              "type": "bytes32"
            },
            {
              "name": "votingProcessDataHash",
              "type": "bytes32"
            },
            {
              "name": "scoreyes",
              "type": "uint256"
            },
            {
              "name": "scoreno",
              "type": "uint256"
            }
          ],
          "name": "dataStruct",
          "type": "tuple"
        }
      ],
      "payable": false,
      "stateMutability": "pure",
      "type": "function"
    },
    {
      "constant": true,
      "inputs": [
        {
          "components": [
            {
              "name": "proponent",
              "type": "address"
            },
            {
              "name": "contractAddress",
              "type": "address"
            },
            {
              "name": "dataHash",
              "type": "bytes32"
            },
            {
              "name": "votingProcessDataHash",
              "type": "bytes32"
            },
            {
              "name": "scoreyes",
              "type": "uint256"
            },
            {
              "name": "scoreno",
              "type": "uint256"
            }
          ],
          "name": "dataStruct",
          "type": "tuple"
        }
      ],
      "name": "destructureBytes",
      "outputs": [
        {
          "name": "data",
          "type": "bytes"
        }
      ],
      "payable": false,
      "stateMutability": "pure",
      "type": "function"
    },
    {
      "constant": true,
      "inputs": [
        {
          "name": "callbackAddr",
          "type": "address"
        },
        {
          "name": "callbackSig",
          "type": "bytes4"
        },
        {
          "components": [
            {
              "name": "proponent",
              "type": "address"
            },
            {
              "name": "contractAddress",
              "type": "address"
            },
            {
              "name": "dataHash",
              "type": "bytes32"
            },
            {
              "name": "votingProcessDataHash",
              "type": "bytes32"
            },
            {
              "name": "scoreyes",
              "type": "uint256"
            },
            {
              "name": "scoreno",
              "type": "uint256"
            }
          ],
          "name": "dataArr",
          "type": "tuple[]"
        }
      ],
      "name": "map",
      "outputs": [
        {
          "components": [
            {
              "name": "proponent",
              "type": "address"
            },
            {
              "name": "contractAddress",
              "type": "address"
            },
            {
              "name": "dataHash",
              "type": "bytes32"
            },
            {
              "name": "votingProcessDataHash",
              "type": "bytes32"
            },
            {
              "name": "scoreyes",
              "type": "uint256"
            },
            {
              "name": "scoreno",
              "type": "uint256"
            }
          ],
          "name": "result",
          "type": "tuple[]"
        }
      ],
      "payable": false,
      "stateMutability": "view",
      "type": "function"
    }
  ],
  "bytecode": "0x611095610026600b82828239805160001a60731461001957fe5b30600052607381538281f3fe730000000000000000000000000000000000000000301460806040526004361061006c5760003560e01c8063366d8778146100715780636e1e5d3c146100a15780637af36899146100d1578063b3718ad014610101578063b963268714610131578063c9c86d4d14610161575b600080fd5b61008b60048036036100869190810190610939565b610191565b6040516100989190610db3565b60405180910390f35b6100bb60048036036100b6919081019061098b565b6101d1565b6040516100c89190610dce565b60405180910390f35b6100eb60048036036100e6919081019061098b565b6101fa565b6040516100f89190610e46565b60405180910390f35b61011b600480360361011691908101906108f8565b61020a565b6040516101289190610e46565b60405180910390f35b61014b60048036036101469190810190610891565b61022d565b6040516101589190610d91565b60405180910390f35b61017b6004803603610176919081019061098b565b6103ea565b6040516101889190610db3565b60405180910390f35b60008160000151826020015183604001516040516020016101b493929190610d5a565b604051602081830303815290604052805190602001209050919050565b6060816040516020016101e49190610e2b565b6040516020818303038152906040529050919050565b61020261042a565b819050919050565b61021261042a565b818060200190516102269190810190610962565b9050919050565b60606000825190508060405190808252806020026020018201604052801561026f57816020015b61025c610492565b8152602001906001900390816102545790505b50915060008090505b818110156103de57600060608773ffffffffffffffffffffffffffffffffffffffff16878785815181106102a857fe5b60200260200101516040516024016102c09190610e10565b604051602081830303815290604052907bffffffffffffffffffffffffffffffffffffffffffffffffffffffff19166020820180517bffffffffffffffffffffffffffffffffffffffffffffffffffffffff838183161783525050505060405161032a9190610d43565b600060405180830381855afa9150503d8060008114610365576040519150601f19603f3d011682016040523d82523d6000602084013e61036a565b606091505b5091509150816103af576040517f08c379a00000000000000000000000000000000000000000000000000000000081526004016103a690610df0565b60405180910390fd5b6103b88161020a565b8584815181106103c457fe5b602002602001018190525050508080600101915050610278565b50819150509392505050565b600081602001518260400151836000015160405160200161040d93929190610d5a565b604051602081830303815290604052805190602001209050919050565b6040518060c00160405280600073ffffffffffffffffffffffffffffffffffffffff168152602001600073ffffffffffffffffffffffffffffffffffffffff168152602001600080191681526020016000801916815260200160008152602001600081525090565b6040518060c00160405280600073ffffffffffffffffffffffffffffffffffffffff168152602001600073ffffffffffffffffffffffffffffffffffffffff168152602001600080191681526020016000801916815260200160008152602001600081525090565b60006105068235610f96565b905092915050565b600061051a8251610f96565b905092915050565b600082601f83011261053357600080fd5b813561054661054182610e8e565b610e61565b915081818352602084019350602081019050838560c084028201111561056b57600080fd5b60005b8381101561059b57816105818882610695565b845260208401935060c0830192505060018101905061056e565b5050505092915050565b60006105b18235610fa8565b905092915050565b60006105c58251610fa8565b905092915050565b60006105d98235610fb2565b905092915050565b600082601f8301126105f257600080fd5b813561060561060082610eb6565b610e61565b9150808252602083016020830185838301111561062157600080fd5b61062c838284611008565b50505092915050565b60006060828403121561064757600080fd5b6106516060610e61565b90506000610661848285016104fa565b6000830152506020610675848285016105a5565b6020830152506040610689848285016104fa565b60408301525092915050565b600060c082840312156106a757600080fd5b6106b160c0610e61565b905060006106c1848285016104fa565b60008301525060206106d5848285016104fa565b60208301525060406106e9848285016105a5565b60408301525060606106fd848285016105a5565b606083015250608061071184828501610869565b60808301525060a061072584828501610869565b60a08301525092915050565b600060c0828403121561074357600080fd5b61074d60c0610e61565b9050600061075d8482850161050e565b60008301525060206107718482850161050e565b6020830152506040610785848285016105b9565b6040830152506060610799848285016105b9565b60608301525060806107ad8482850161087d565b60808301525060a06107c18482850161087d565b60a08301525092915050565b600060c082840312156107df57600080fd5b6107e960c0610e61565b905060006107f9848285016104fa565b600083015250602061080d848285016104fa565b6020830152506040610821848285016105a5565b6040830152506060610835848285016105a5565b606083015250608061084984828501610869565b60808301525060a061085d84828501610869565b60a08301525092915050565b60006108758235610ffe565b905092915050565b60006108898251610ffe565b905092915050565b6000806000606084860312156108a657600080fd5b60006108b4868287016104fa565b93505060206108c5868287016105cd565b925050604084013567ffffffffffffffff8111156108e257600080fd5b6108ee86828701610522565b9150509250925092565b60006020828403121561090a57600080fd5b600082013567ffffffffffffffff81111561092457600080fd5b610930848285016105e1565b91505092915050565b60006060828403121561094b57600080fd5b600061095984828501610635565b91505092915050565b600060c0828403121561097457600080fd5b600061098284828501610731565b91505092915050565b600060c0828403121561099d57600080fd5b60006109ab848285016107cd565b91505092915050565b60006109c08383610caa565b60c08301905092915050565b6109d581610f50565b82525050565b6109e481610f50565b82525050565b6109f381610f50565b82525050565b6000610a0482610eef565b610a0e8185610f12565b9350610a1983610ee2565b60005b82811015610a4757610a2f8683516109b4565b9550610a3a82610f05565b9150600181019050610a1c565b50849250505092915050565b610a5c81610f62565b82525050565b610a6b81610f62565b82525050565b610a7a81610f62565b82525050565b610a8981610f62565b82525050565b6000610a9a82610efa565b610aa48185610f23565b9350610ab4818560208601611017565b610abd8161104a565b840191505092915050565b6000610ad382610efa565b610add8185610f34565b9350610aed818560208601611017565b80840191505092915050565b6000610b06601383610f3f565b91507f4d61702063616c6c6261636b206661696c6564000000000000000000000000006000830152602082019050919050565b60c082016000820151610b4f60008501826109cc565b506020820151610b6260208501826109cc565b506040820151610b756040850182610a53565b506060820151610b886060850182610a53565b506080820151610b9b6080850182610d25565b5060a0820151610bae60a0850182610d25565b50505050565b60c082016000820151610bca60008501826109ea565b506020820151610bdd60208501826109ea565b506040820151610bf06040850182610a80565b506060820151610c036060850182610a80565b506080820151610c166080850182610d34565b5060a0820151610c2960a0850182610d34565b50505050565b60c082016000820151610c4560008501826109cc565b506020820151610c5860208501826109cc565b506040820151610c6b6040850182610a53565b506060820151610c7e6060850182610a53565b506080820151610c916080850182610d25565b5060a0820151610ca460a0850182610d25565b50505050565b60c082016000820151610cc060008501826109ea565b506020820151610cd360208501826109ea565b506040820151610ce66040850182610a80565b506060820151610cf96060850182610a80565b506080820151610d0c6080850182610d34565b5060a0820151610d1f60a0850182610d34565b50505050565b610d2e81610f8c565b82525050565b610d3d81610f8c565b82525050565b6000610d4f8284610ac8565b915081905092915050565b6000606082019050610d6f60008301866109db565b610d7c6020830185610a62565b610d8960408301846109db565b949350505050565b60006020820190508181036000830152610dab81846109f9565b905092915050565b6000602082019050610dc86000830184610a71565b92915050565b60006020820190508181036000830152610de88184610a8f565b905092915050565b60006020820190508181036000830152610e0981610af9565b9050919050565b600060c082019050610e256000830184610c2f565b92915050565b600060c082019050610e406000830184610b39565b92915050565b600060c082019050610e5b6000830184610bb4565b92915050565b6000604051905081810181811067ffffffffffffffff82111715610e8457600080fd5b8060405250919050565b600067ffffffffffffffff821115610ea557600080fd5b602082029050602081019050919050565b600067ffffffffffffffff821115610ecd57600080fd5b601f19601f8301169050602081019050919050565b6000602082019050919050565b600081519050919050565b600081519050919050565b6000602082019050919050565b600082825260208201905092915050565b600082825260208201905092915050565b600081905092915050565b600082825260208201905092915050565b6000610f5b82610f6c565b9050919050565b6000819050919050565b600073ffffffffffffffffffffffffffffffffffffffff82169050919050565b6000819050919050565b6000610fa182610fde565b9050919050565b6000819050919050565b60007fffffffff0000000000000000000000000000000000000000000000000000000082169050919050565b600073ffffffffffffffffffffffffffffffffffffffff82169050919050565b6000819050919050565b82818337600083830152505050565b60005b8381101561103557808201518184015260208101905061101a565b83811115611044576000848401525b50505050565b6000601f19601f830116905091905056fea265627a7a723058200ff548ed8e2dac266720a41323d361232ebca944b69becd42f28716a6fa1dabe6c6578706572696d656e74616cf50037",
  "source": "pragma solidity ^0.5.0;\npragma experimental ABIEncoderV2;\n\nlibrary VoteResourceTypeLib {\n\n    struct VoteResource {\n        address proponent;\n        address contractAddress;\n        bytes32 dataHash;\n        bytes32 votingProcessDataHash;\n        uint256 scoreyes;\n        uint256 scoreno;\n    }\n\n    struct VoteResourceIdentifier {\n        address contractAddress;\n        bytes32 dataHash;\n        address proponent;\n    }\n\n    function insert(VoteResource storage self, VoteResource memory data) internal {\n        self.proponent = data.proponent;\n        self.contractAddress = data.contractAddress;\n        self.dataHash = data.dataHash;\n        self.votingProcessDataHash = data.votingProcessDataHash;\n        self.scoreyes = 0;\n        self.scoreno = 0;\n    }\n\n    function getDataHash(VoteResource memory data) pure public returns(bytes32 hash) {\n        return keccak256(abi.encode(data.contractAddress, data.dataHash, data.proponent));\n    }\n\n    function getDataHash(VoteResourceIdentifier memory identifier) pure public returns(bytes32 hash) {\n        return keccak256(abi.encode(\n            identifier.contractAddress,\n            identifier.dataHash,\n            identifier.proponent\n        ));\n    }\n\n    function getFull(\n        VoteResource memory data\n    )\n        pure\n        public\n        returns(VoteResource memory dataFull)\n    {\n        return data;\n    }\n\n    function structureBytes(bytes memory data)\n        pure\n        public\n        returns(VoteResource memory dataStruct)\n    {\n        (dataStruct) = abi.decode(data, (VoteResource));\n    }\n\n    function destructureBytes(VoteResource memory dataStruct)\n        pure\n        public\n        returns(bytes memory data)\n    {\n        return abi.encode(dataStruct);\n    }\n\n    function map(\n        address callbackAddr,\n        bytes4 callbackSig,\n        VoteResource[] memory dataArr\n    )\n        view\n        public\n        returns (VoteResource[] memory result)\n    {\n        uint length = dataArr.length;\n        result = new VoteResource[](length);\n\n        for (uint i = 0; i < length; i++) {\n            (bool success, bytes memory data) = callbackAddr.staticcall(abi.encodeWithSelector(callbackSig, dataArr[i]));\n\n            require(success, \"Map callback failed\");\n            result[i] = structureBytes(data);\n        }\n\n        return result;\n    }\n}\n",
  "sourcePath": "/Users/loredana/ETH/dType/contracts/contracts/examples/voting/VoteResourceTypeLib.sol",
  "compiler": {
    "name": "solc",
    "version": "0.5.7+commit.6da8b019.Emscripten.clang"
  },
  "schemaVersion": "3.0.11",
  "updatedAt": "2019-07-27T20:46:26.923Z",
  "devdoc": {
    "methods": {}
  },
  "userdoc": {
    "methods": {}
  }
}