{
  "contractName": "VotingMechanismTypeStorage",
  "abi": [
    {
      "constant": true,
      "inputs": [
        {
          "name": "",
          "type": "bytes32"
        }
      ],
      "name": "typeStruct",
      "outputs": [
        {
          "components": [
            {
              "name": "processVoteFunctions",
              "type": "bytes32[]"
            },
            {
              "name": "processStateFunctions",
              "type": "bytes32[]"
            },
            {
              "components": [
                {
                  "name": "importance",
                  "type": "uint256"
                },
                {
                  "name": "cutoff",
                  "type": "uint256"
                },
                {
                  "name": "golive",
                  "type": "uint256"
                },
                {
                  "name": "godead",
                  "type": "uint256"
                }
              ],
              "name": "parameters",
              "type": "tuple"
            }
          ],
          "name": "data",
          "type": "tuple"
        },
        {
          "name": "index",
          "type": "uint256"
        }
      ],
      "payable": false,
      "stateMutability": "view",
      "type": "function"
    },
    {
      "constant": true,
      "inputs": [
        {
          "name": "",
          "type": "uint256"
        }
      ],
      "name": "typeIndex",
      "outputs": [
        {
          "name": "",
          "type": "bytes32"
        }
      ],
      "payable": false,
      "stateMutability": "view",
      "type": "function"
    },
    {
      "anonymous": false,
      "inputs": [
        {
          "indexed": true,
          "name": "hash",
          "type": "bytes32"
        },
        {
          "indexed": true,
          "name": "index",
          "type": "uint256"
        }
      ],
      "name": "LogNew",
      "type": "event"
    },
    {
      "anonymous": false,
      "inputs": [
        {
          "indexed": true,
          "name": "hash",
          "type": "bytes32"
        },
        {
          "indexed": true,
          "name": "index",
          "type": "uint256"
        }
      ],
      "name": "LogUpdate",
      "type": "event"
    },
    {
      "anonymous": false,
      "inputs": [
        {
          "indexed": true,
          "name": "hash",
          "type": "bytes32"
        },
        {
          "indexed": true,
          "name": "index",
          "type": "uint256"
        }
      ],
      "name": "LogRemove",
      "type": "event"
    },
    {
      "constant": false,
      "inputs": [
        {
          "components": [
            {
              "name": "processVoteFunctions",
              "type": "bytes32[]"
            },
            {
              "name": "processStateFunctions",
              "type": "bytes32[]"
            },
            {
              "components": [
                {
                  "name": "importance",
                  "type": "uint256"
                },
                {
                  "name": "cutoff",
                  "type": "uint256"
                },
                {
                  "name": "golive",
                  "type": "uint256"
                },
                {
                  "name": "godead",
                  "type": "uint256"
                }
              ],
              "name": "parameters",
              "type": "tuple"
            }
          ],
          "name": "data",
          "type": "tuple"
        }
      ],
      "name": "insert",
      "outputs": [
        {
          "name": "hasho",
          "type": "bytes32"
        }
      ],
      "payable": false,
      "stateMutability": "nonpayable",
      "type": "function"
    },
    {
      "constant": false,
      "inputs": [
        {
          "name": "data",
          "type": "bytes"
        }
      ],
      "name": "insertBytes",
      "outputs": [
        {
          "name": "hasho",
          "type": "bytes32"
        }
      ],
      "payable": false,
      "stateMutability": "nonpayable",
      "type": "function"
    },
    {
      "constant": false,
      "inputs": [
        {
          "name": "hash",
          "type": "bytes32"
        }
      ],
      "name": "remove",
      "outputs": [
        {
          "name": "index",
          "type": "uint256"
        }
      ],
      "payable": false,
      "stateMutability": "nonpayable",
      "type": "function"
    },
    {
      "constant": false,
      "inputs": [
        {
          "name": "hashi",
          "type": "bytes32"
        },
        {
          "components": [
            {
              "name": "processVoteFunctions",
              "type": "bytes32[]"
            },
            {
              "name": "processStateFunctions",
              "type": "bytes32[]"
            },
            {
              "components": [
                {
                  "name": "importance",
                  "type": "uint256"
                },
                {
                  "name": "cutoff",
                  "type": "uint256"
                },
                {
                  "name": "golive",
                  "type": "uint256"
                },
                {
                  "name": "godead",
                  "type": "uint256"
                }
              ],
              "name": "parameters",
              "type": "tuple"
            }
          ],
          "name": "data",
          "type": "tuple"
        }
      ],
      "name": "update",
      "outputs": [
        {
          "name": "hash",
          "type": "bytes32"
        }
      ],
      "payable": false,
      "stateMutability": "nonpayable",
      "type": "function"
    },
    {
      "constant": true,
      "inputs": [
        {
          "name": "hash",
          "type": "bytes32"
        }
      ],
      "name": "isStored",
      "outputs": [
        {
          "name": "isIndeed",
          "type": "bool"
        }
      ],
      "payable": false,
      "stateMutability": "view",
      "type": "function"
    },
    {
      "constant": true,
      "inputs": [
        {
          "name": "hash",
          "type": "bytes32"
        }
      ],
      "name": "getByHash",
      "outputs": [
        {
          "components": [
            {
              "name": "processVoteFunctions",
              "type": "bytes32[]"
            },
            {
              "name": "processStateFunctions",
              "type": "bytes32[]"
            },
            {
              "components": [
                {
                  "name": "importance",
                  "type": "uint256"
                },
                {
                  "name": "cutoff",
                  "type": "uint256"
                },
                {
                  "name": "golive",
                  "type": "uint256"
                },
                {
                  "name": "godead",
                  "type": "uint256"
                }
              ],
              "name": "parameters",
              "type": "tuple"
            }
          ],
          "name": "data",
          "type": "tuple"
        }
      ],
      "payable": false,
      "stateMutability": "view",
      "type": "function"
    },
    {
      "constant": true,
      "inputs": [],
      "name": "count",
      "outputs": [
        {
          "name": "counter",
          "type": "uint256"
        }
      ],
      "payable": false,
      "stateMutability": "view",
      "type": "function"
    }
  ],
  "bytecode": "0x608060405234801561001057600080fd5b50611703806100206000396000f3fe608060405234801561001057600080fd5b50600436106100935760003560e01c806391f2619e1161006657806391f2619e1461014757806395bc267314610177578063a2dd3d47146101a7578063bacdeea2146101d7578063d7987ea51461020757610093565b806306661abd146100985780633f42aeab146100b6578063668414a4146100e65780637460e31114610117575b600080fd5b6100a0610237565b6040516100ad9190611532565b60405180910390f35b6100d060048036036100cb9190810190610e59565b610243565b6040516100dd9190611406565b60405180910390f35b61010060048036036100fb9190810190610e59565b610293565b60405161010e929190611502565b60405180910390f35b610131600480360361012c9190810190610fc2565b6103ad565b60405161013e9190611421565b60405180910390f35b610161600480360361015c9190810190610eab565b6103ce565b60405161016e9190611421565b60405180910390f35b610191600480360361018c9190810190610e59565b6103eb565b60405161019e9190611532565b60405180910390f35b6101c160048036036101bc9190810190610e59565b610592565b6040516101ce91906114be565b60405180910390f35b6101f160048036036101ec9190810190610f40565b6106f6565b6040516101fe9190611421565b60405180910390f35b610221600480360361021c9190810190610eff565b61088a565b60405161022e9190611421565b60405180910390f35b60008080549050905090565b600080600080549050141561025b576000905061028e565b81600060016000858152602001908152602001600020600601548154811061027f57fe5b90600052602060002001541490505b919050565b6001602052806000526040600020600091509050806000016040518060600160405290816000820180548060200260200160405190810160405280929190818152602001828054801561030557602002820191906000526020600020905b8154815260200190600101908083116102f1575b505050505081526020016001820180548060200260200160405190810160405280929190818152602001828054801561035d57602002820191906000526020600020905b815481526020019060010190808311610349575b505050505081526020016002820160405180608001604052908160008201548152602001600182015481526020016002820154815260200160038201548152505081525050908060060154905082565b600081815481106103ba57fe5b906000526020600020016000915090505481565b60006103d9836103eb565b506103e3826106f6565b905092915050565b60006103f682610243565b610435576040517f08c379a000000000000000000000000000000000000000000000000000000000815260040161042c9061149e565b60405180910390fd5b6000600160008481526020019081526020016000206006015490506000806001600080549050038154811061046657fe5b90600052602060002001549050806000838154811061048157fe5b906000526020600020018190555081600160008381526020019081526020016000206006018190555060008054809190600190036104bf9190610999565b50600160008581526020019081526020016000206000808201600080820160006104e991906109c5565b6001820160006104f991906109c5565b60028201600080820160009055600182016000905560028201600090556003820160009055505050506006820160009055505081847f7aba1b7c67426c7ad78ea21a678946741a0c8795e99fa106728122a461e33cbc60405160405180910390a381817f486e2c79f26b56bb920c18e856915eb5e2922e2814cce03da8892d08cce6419760405160405180910390a38192505050919050565b61059a6109e6565b6105a382610243565b6105e2576040517f08c379a00000000000000000000000000000000000000000000000000000000081526004016105d99061147e565b60405180910390fd5b600160008381526020019081526020016000206000016040518060600160405290816000820180548060200260200160405190810160405280929190818152602001828054801561065257602002820191906000526020600020905b81548152602001906001019080831161063e575b50505050508152602001600182018054806020026020016040519081016040528092919081815260200182805480156106aa57602002820191906000526020600020905b815481526020019060010190808311610696575b5050505050815260200160028201604051806080016040529081600082015481526020016001820154815260200160028201548152602001600382015481525050815250509050919050565b6000808273__VotingMechanismTypeLib________________6339babd6190916040518263ffffffff1660e01b815260040161073291906114e0565b60206040518083038186803b15801561074a57600080fd5b505af415801561075e573d6000803e3d6000fd5b505050506040513d601f19601f820116820180604052506107829190810190610e82565b905061078d81610243565b156107cd576040517f08c379a00000000000000000000000000000000000000000000000000000000081526004016107c49061145e565b60405180910390fd5b6107f5836001600084815260200190815260200160002060000161092790919063ffffffff16565b6001600082908060018154018082558091505090600182039060005260206000200160009091929091909150550360016000838152602001908152602001600020600601819055506001600082815260200190815260200160002060060154817fb73e84a46ecb312937f7ba29efd91f4d9e74056ac7ef77f3f38e477646dd84d260405160405180910390a380915050919050565b600061092073__VotingMechanismTypeLib________________63b3718ad0846040518263ffffffff1660e01b81526004016108c6919061143c565b60006040518083038186803b1580156108de57600080fd5b505af41580156108f2573d6000803e3d6000fd5b505050506040513d6000823e3d601f19601f8201168201806040525061091b9190810190610f81565b6106f6565b9050919050565b8060000151826000019080519060200190610943929190610a0d565b508060200151826001019080519060200190610960929190610a0d565b50806040015182600201600082015181600001556020820151816001015560408201518160020155606082015181600301559050505050565b8154818355818111156109c0578183600052602060002091820191016109bf9190610a5a565b5b505050565b50805460008255906000526020600020908101906109e39190610a5a565b50565b6040518060c001604052806060815260200160608152602001610a07610a7f565b81525090565b828054828255906000526020600020908101928215610a49579160200282015b82811115610a48578251825591602001919060010190610a2d565b5b509050610a569190610a5a565b5090565b610a7c91905b80821115610a78576000816000905550600101610a60565b5090565b90565b6040518060800160405280600081526020016000815260200160008152602001600081525090565b600082601f830112610ab857600080fd5b8135610acb610ac68261157a565b61154d565b91508181835260208401935060208101905083856020840282011115610af057600080fd5b60005b83811015610b205781610b068882610bad565b845260208401935060208301925050600181019050610af3565b5050505092915050565b600082601f830112610b3b57600080fd5b8151610b4e610b498261157a565b61154d565b91508181835260208401935060208101905083856020840282011115610b7357600080fd5b60005b83811015610ba35781610b898882610bc1565b845260208401935060208301925050600181019050610b76565b5050505092915050565b6000610bb98235611662565b905092915050565b6000610bcd8251611662565b905092915050565b600082601f830112610be657600080fd5b8135610bf9610bf4826115a2565b61154d565b91508082526020830160208301858383011115610c1557600080fd5b610c20838284611676565b50505092915050565b600060808284031215610c3b57600080fd5b610c45608061154d565b90506000610c5584828501610e31565b6000830152506020610c6984828501610e31565b6020830152506040610c7d84828501610e31565b6040830152506060610c9184828501610e31565b60608301525092915050565b600060808284031215610caf57600080fd5b610cb9608061154d565b90506000610cc984828501610e45565b6000830152506020610cdd84828501610e45565b6020830152506040610cf184828501610e45565b6040830152506060610d0584828501610e45565b60608301525092915050565b600060c08284031215610d2357600080fd5b610d2d606061154d565b9050600082013567ffffffffffffffff811115610d4957600080fd5b610d5584828501610aa7565b600083015250602082013567ffffffffffffffff811115610d7557600080fd5b610d8184828501610aa7565b6020830152506040610d9584828501610c29565b60408301525092915050565b600060c08284031215610db357600080fd5b610dbd606061154d565b9050600082015167ffffffffffffffff811115610dd957600080fd5b610de584828501610b2a565b600083015250602082015167ffffffffffffffff811115610e0557600080fd5b610e1184828501610b2a565b6020830152506040610e2584828501610c9d565b60408301525092915050565b6000610e3d823561166c565b905092915050565b6000610e51825161166c565b905092915050565b600060208284031215610e6b57600080fd5b6000610e7984828501610bad565b91505092915050565b600060208284031215610e9457600080fd5b6000610ea284828501610bc1565b91505092915050565b60008060408385031215610ebe57600080fd5b6000610ecc85828601610bad565b925050602083013567ffffffffffffffff811115610ee957600080fd5b610ef585828601610d11565b9150509250929050565b600060208284031215610f1157600080fd5b600082013567ffffffffffffffff811115610f2b57600080fd5b610f3784828501610bd5565b91505092915050565b600060208284031215610f5257600080fd5b600082013567ffffffffffffffff811115610f6c57600080fd5b610f7884828501610d11565b91505092915050565b600060208284031215610f9357600080fd5b600082015167ffffffffffffffff811115610fad57600080fd5b610fb984828501610da1565b91505092915050565b600060208284031215610fd457600080fd5b6000610fe284828501610e31565b91505092915050565b6000610ff783836110de565b60208301905092915050565b600061100f83836110fc565b60208301905092915050565b6000611026826115db565b61103081856115fe565b935061103b836115ce565b60005b8281101561106957611051868351610feb565b955061105c826115f1565b915060018101905061103e565b50849250505092915050565b6000611080826115db565b61108a818561160f565b9350611095836115ce565b60005b828110156110c3576110ab868351611003565b95506110b6826115f1565b9150600181019050611098565b50849250505092915050565b6110d881611642565b82525050565b6110e78161164e565b82525050565b6110f68161164e565b82525050565b6111058161164e565b82525050565b6000611116826115e6565b6111208185611620565b9350611130818560208601611685565b611139816116b8565b840191505092915050565b6000611151602683611631565b91507f546869732064617461206578697374732e205573652074686520657874616e7460008301527f20646174612e00000000000000000000000000000000000000000000000000006020830152604082019050919050565b60006111b7601683611631565b91507f4e6f2073756368206461746120696e7365727465642e000000000000000000006000830152602082019050919050565b60006111f7601883611631565b91507f4e6f742064656c657465643a206e6f7420657874616e742e00000000000000006000830152602082019050919050565b60808201600082015161124060008501826113d9565b50602082015161125360208501826113d9565b50604082015161126660408501826113d9565b50606082015161127960608501826113d9565b50505050565b60808201600082015161129560008501826113f7565b5060208201516112a860208501826113f7565b5060408201516112bb60408501826113f7565b5060608201516112ce60608501826113f7565b50505050565b600060c08301600083015184820360008601526112f1828261101b565b9150506020830151848203602086015261130b828261101b565b9150506040830151611320604086018261122a565b508091505092915050565b600060c08301600083015184820360008601526113488282611075565b915050602083015184820360208601526113628282611075565b9150506040830151611377604086018261127f565b508091505092915050565b600060c083016000830151848203600086015261139f828261101b565b915050602083015184820360208601526113b9828261101b565b91505060408301516113ce604086018261122a565b508091505092915050565b6113e281611658565b82525050565b6113f181611658565b82525050565b61140081611658565b82525050565b600060208201905061141b60008301846110cf565b92915050565b600060208201905061143660008301846110ed565b92915050565b60006020820190508181036000830152611456818461110b565b905092915050565b6000602082019050818103600083015261147781611144565b9050919050565b60006020820190508181036000830152611497816111aa565b9050919050565b600060208201905081810360008301526114b7816111ea565b9050919050565b600060208201905081810360008301526114d881846112d4565b905092915050565b600060208201905081810360008301526114fa818461132b565b905092915050565b6000604082019050818103600083015261151c8185611382565b905061152b60208301846113e8565b9392505050565b600060208201905061154760008301846113e8565b92915050565b6000604051905081810181811067ffffffffffffffff8211171561157057600080fd5b8060405250919050565b600067ffffffffffffffff82111561159157600080fd5b602082029050602081019050919050565b600067ffffffffffffffff8211156115b957600080fd5b601f19601f8301169050602081019050919050565b6000602082019050919050565b600081519050919050565b600081519050919050565b6000602082019050919050565b600082825260208201905092915050565b600082825260208201905092915050565b600082825260208201905092915050565b600082825260208201905092915050565b60008115159050919050565b6000819050919050565b6000819050919050565b6000819050919050565b6000819050919050565b82818337600083830152505050565b60005b838110156116a3578082015181840152602081019050611688565b838111156116b2576000848401525b50505050565b6000601f19601f830116905091905056fea265627a7a723058209a5ab4f73919e1ef70b037a383deb06593f44c35fa5cadcc3f78f1f8abea56986c6578706572696d656e74616cf50037",
  "source": "pragma solidity ^0.5.0;\npragma experimental ABIEncoderV2;\n\nimport './VotingMechanismInterface.sol';\n\ncontract VotingMechanismTypeStorage {\n    using VotingMechanismTypeLib for VotingMechanismTypeLib.VotingMechanism;\n\n    bytes32[] public typeIndex;\n    mapping(bytes32 => Type) public typeStruct;\n\n    // keccak256(address, function hash to be called)\n    mapping(bytes32 => bytes32) mechanismMap;\n\n    struct Type {\n        VotingMechanismTypeLib.VotingMechanism data;\n        uint256 index;\n    }\n\n    modifier dataIsStored (bytes32 hash) {\n        require(isStored(hash), \"No such data inserted.\");\n        _;\n    }\n\n    event LogNew(bytes32 indexed hash, uint256 indexed index);\n    event LogUpdate(bytes32 indexed hash, uint256 indexed index);\n    event LogRemove(bytes32 indexed hash, uint256 indexed index);\n\n    function insert(VotingMechanismTypeLib.VotingMechanism memory data) public returns (bytes32 hasho) {\n\n        // for data integrity\n        bytes32 hash = data.getDataHash();\n\n        if(isStored(hash)) revert(\"This data exists. Use the extant data.\");\n\n        typeStruct[hash].data.insert(data);\n        typeStruct[hash].index = typeIndex.push(hash) - 1;\n\n        emit LogNew(hash, typeStruct[hash].index);\n        return hash;\n    }\n\n    function insertBytes(bytes memory data) public returns (bytes32 hasho) {\n        return insert(VotingMechanismTypeLib.structureBytes(data));\n    }\n\n    function remove(bytes32 hash) public returns(uint256 index) {\n        if(!isStored(hash)) revert(\"Not deleted: not extant.\");\n        uint rowToDelete = typeStruct[hash].index;\n        bytes32 keyToMove = typeIndex[typeIndex.length-1];\n        typeIndex[rowToDelete] = keyToMove;\n        typeStruct[keyToMove].index = rowToDelete;\n        typeIndex.length--;\n\n        delete typeStruct[hash];\n\n        emit LogRemove(hash, rowToDelete);\n\n        emit LogUpdate(keyToMove, rowToDelete);\n        return rowToDelete;\n    }\n\n    function update(bytes32 hashi, VotingMechanismTypeLib.VotingMechanism memory data)\n        public\n        returns(bytes32 hash)\n    {\n        remove(hashi);\n        return insert(data);\n    }\n\n    function isStored(bytes32 hash) public view returns(bool isIndeed) {\n        if(typeIndex.length == 0) return false;\n        return (typeIndex[typeStruct[hash].index] == hash);\n    }\n\n    function getByHash(bytes32 hash) public view returns(VotingMechanismTypeLib.VotingMechanism memory data) {\n        if(!isStored(hash)) revert(\"No such data inserted.\");\n        return typeStruct[hash].data;\n    }\n\n    function count() public view returns(uint256 counter) {\n        return typeIndex.length;\n    }\n}\n",
  "sourcePath": "/Users/loredana/ETH/dType/contracts/contracts/examples/voting/VotingMechanismTypeStorage.sol",
  "compiler": {
    "name": "solc",
    "version": "0.5.7+commit.6da8b019.Emscripten.clang"
  },
  "schemaVersion": "3.0.11",
  "updatedAt": "2019-07-27T20:46:26.943Z",
  "devdoc": {
    "methods": {}
  },
  "userdoc": {
    "methods": {}
  }
}