{
  "contractName": "VotingFunctions",
  "abi": [
    {
      "constant": true,
      "inputs": [
        {
          "components": [
            {
              "name": "vote",
              "type": "bool"
            },
            {
              "name": "voteWeight",
              "type": "uint256"
            },
            {
              "name": "senderAddress",
              "type": "address"
            }
          ],
          "name": "vote",
          "type": "tuple"
        }
      ],
      "name": "setWeight",
      "outputs": [
        {
          "components": [
            {
              "name": "vote",
              "type": "bool"
            },
            {
              "name": "voteWeight",
              "type": "uint256"
            },
            {
              "name": "senderAddress",
              "type": "address"
            }
          ],
          "name": "newVote",
          "type": "tuple"
        }
      ],
      "payable": false,
      "stateMutability": "pure",
      "type": "function"
    },
    {
      "constant": true,
      "inputs": [
        {
          "components": [
            {
              "components": [
                {
                  "name": "proponent",
                  "type": "address"
                },
                {
                  "name": "contractAddress",
                  "type": "address"
                },
                {
                  "name": "dataHash",
                  "type": "bytes32"
                },
                {
                  "name": "votingProcessDataHash",
                  "type": "bytes32"
                },
                {
                  "name": "scoreyes",
                  "type": "uint256"
                },
                {
                  "name": "scoreno",
                  "type": "uint256"
                }
              ],
              "name": "resource",
              "type": "tuple"
            },
            {
              "components": [
                {
                  "name": "vote",
                  "type": "bool"
                },
                {
                  "name": "voteWeight",
                  "type": "uint256"
                },
                {
                  "name": "senderAddress",
                  "type": "address"
                }
              ],
              "name": "vote",
              "type": "tuple"
            },
            {
              "components": [
                {
                  "name": "importance",
                  "type": "uint256"
                },
                {
                  "name": "cutoff",
                  "type": "uint256"
                },
                {
                  "name": "golive",
                  "type": "uint256"
                },
                {
                  "name": "godead",
                  "type": "uint256"
                }
              ],
              "name": "parameters",
              "type": "tuple"
            }
          ],
          "name": "vote",
          "type": "tuple"
        }
      ],
      "name": "inLivePeriod",
      "outputs": [
        {
          "name": "isLive",
          "type": "bool"
        }
      ],
      "payable": false,
      "stateMutability": "pure",
      "type": "function"
    },
    {
      "constant": true,
      "inputs": [
        {
          "name": "outcomeVotes",
          "type": "uint256"
        },
        {
          "name": "againstOutcomeVotes",
          "type": "uint256"
        },
        {
          "components": [
            {
              "name": "importance",
              "type": "uint256"
            },
            {
              "name": "cutoff",
              "type": "uint256"
            },
            {
              "name": "golive",
              "type": "uint256"
            },
            {
              "name": "godead",
              "type": "uint256"
            }
          ],
          "name": "params",
          "type": "tuple"
        }
      ],
      "name": "isInOutcomeArea",
      "outputs": [
        {
          "name": "outcomeChanged",
          "type": "bool"
        }
      ],
      "payable": false,
      "stateMutability": "pure",
      "type": "function"
    },
    {
      "constant": true,
      "inputs": [
        {
          "name": "outcomeVotes",
          "type": "uint256"
        },
        {
          "name": "againstOutcomeVotes",
          "type": "uint256"
        },
        {
          "components": [
            {
              "name": "importance",
              "type": "uint256"
            },
            {
              "name": "cutoff",
              "type": "uint256"
            },
            {
              "name": "golive",
              "type": "uint256"
            },
            {
              "name": "godead",
              "type": "uint256"
            }
          ],
          "name": "params",
          "type": "tuple"
        }
      ],
      "name": "isInNonOutcomeArea",
      "outputs": [
        {
          "name": "outcomeChanged",
          "type": "bool"
        }
      ],
      "payable": false,
      "stateMutability": "pure",
      "type": "function"
    },
    {
      "constant": true,
      "inputs": [
        {
          "components": [
            {
              "components": [
                {
                  "name": "proponent",
                  "type": "address"
                },
                {
                  "name": "contractAddress",
                  "type": "address"
                },
                {
                  "name": "dataHash",
                  "type": "bytes32"
                },
                {
                  "name": "votingProcessDataHash",
                  "type": "bytes32"
                },
                {
                  "name": "scoreyes",
                  "type": "uint256"
                },
                {
                  "name": "scoreno",
                  "type": "uint256"
                }
              ],
              "name": "resource",
              "type": "tuple"
            },
            {
              "components": [
                {
                  "name": "vote",
                  "type": "bool"
                },
                {
                  "name": "voteWeight",
                  "type": "uint256"
                },
                {
                  "name": "senderAddress",
                  "type": "address"
                }
              ],
              "name": "vote",
              "type": "tuple"
            },
            {
              "components": [
                {
                  "name": "importance",
                  "type": "uint256"
                },
                {
                  "name": "cutoff",
                  "type": "uint256"
                },
                {
                  "name": "golive",
                  "type": "uint256"
                },
                {
                  "name": "godead",
                  "type": "uint256"
                }
              ],
              "name": "parameters",
              "type": "tuple"
            }
          ],
          "name": "vote",
          "type": "tuple"
        }
      ],
      "name": "getInitialScore",
      "outputs": [
        {
          "name": "scoreyes",
          "type": "uint256"
        },
        {
          "name": "scoreno",
          "type": "uint256"
        }
      ],
      "payable": false,
      "stateMutability": "pure",
      "type": "function"
    },
    {
      "constant": true,
      "inputs": [
        {
          "components": [
            {
              "components": [
                {
                  "name": "proponent",
                  "type": "address"
                },
                {
                  "name": "contractAddress",
                  "type": "address"
                },
                {
                  "name": "dataHash",
                  "type": "bytes32"
                },
                {
                  "name": "votingProcessDataHash",
                  "type": "bytes32"
                },
                {
                  "name": "scoreyes",
                  "type": "uint256"
                },
                {
                  "name": "scoreno",
                  "type": "uint256"
                }
              ],
              "name": "resource",
              "type": "tuple"
            },
            {
              "components": [
                {
                  "name": "vote",
                  "type": "bool"
                },
                {
                  "name": "voteWeight",
                  "type": "uint256"
                },
                {
                  "name": "senderAddress",
                  "type": "address"
                }
              ],
              "name": "vote",
              "type": "tuple"
            },
            {
              "components": [
                {
                  "name": "importance",
                  "type": "uint256"
                },
                {
                  "name": "cutoff",
                  "type": "uint256"
                },
                {
                  "name": "golive",
                  "type": "uint256"
                },
                {
                  "name": "godead",
                  "type": "uint256"
                }
              ],
              "name": "parameters",
              "type": "tuple"
            }
          ],
          "name": "vote",
          "type": "tuple"
        }
      ],
      "name": "voteTriggeredAction",
      "outputs": [
        {
          "name": "triggerAction",
          "type": "bool"
        },
        {
          "name": "actionType",
          "type": "uint8"
        }
      ],
      "payable": false,
      "stateMutability": "pure",
      "type": "function"
    }
  ],
  "bytecode": "0x608060405234801561001057600080fd5b5061095a806100206000396000f3fe608060405234801561001057600080fd5b50600436106100625760003560e01c806309597e30146100675780630f4a85691461009757806319a3c206146100c857806381dd7352146100f9578063acd5987114610129578063bdacab5a14610159575b600080fd5b610081600480360361007c9190810190610686565b610189565b60405161008e9190610808565b60405180910390f35b6100b160048036036100ac91908101906106af565b6101a4565b6040516100bf929190610823565b60405180910390f35b6100e260048036036100dd91908101906106af565b6101f7565b6040516100f09291906107df565b60405180910390f35b610113600480360361010e91908101906106d9565b6102ef565b60405161012091906107c4565b60405180910390f35b610143600480360361013e91908101906106d9565b610303565b60405161015091906107c4565b60405180910390f35b610173600480360361016e91908101906106af565b610318565b60405161018091906107c4565b60405180910390f35b610191610357565b6001826020018181525050819050919050565b6000808260000151608001519150826000015160a00151905060011515836020015160000151151514156101e457826020015160200151820391506101f2565b826020015160200151810390505b915091565b60008061020383610318565b61021657600080809050915091506102ea565b600080610222856101a4565b915091506000610237838388604001516102ef565b9050600061025a876000015160800151886000015160a001518960400151610303565b90508180156102665750805b1561027e5760018080905095509550505050506102ea565b600061028f84868a604001516102ef565b905060006102b2896000015160a001518a60000151608001518b60400151610303565b90508180156102be5750805b156102d95760016000809050975097505050505050506102ea565b600080809050975097505050505050505b915091565b600082826000015102841090509392505050565b60008383836000015102111590509392505050565b600080826000015160a00151836000015160800151019050808360400151604001511115801561034f575082604001516060015181105b915050919050565b604051806060016040528060001515815260200160008152602001600073ffffffffffffffffffffffffffffffffffffffff1681525090565b600061039c82356108ce565b905092915050565b60006103b082356108e0565b905092915050565b60006103c482356108ec565b905092915050565b6000606082840312156103de57600080fd5b6103e8606061084c565b905060006103f8848285016103a4565b600083015250602061040c84828501610672565b602083015250604061042084828501610390565b60408301525092915050565b60006060828403121561043e57600080fd5b610448606061084c565b90506000610458848285016103a4565b600083015250602061046c84828501610672565b602083015250604061048084828501610390565b60408301525092915050565b60006080828403121561049e57600080fd5b6104a8608061084c565b905060006104b884828501610672565b60008301525060206104cc84828501610672565b60208301525060406104e084828501610672565b60408301525060606104f484828501610672565b60608301525092915050565b60006080828403121561051257600080fd5b61051c608061084c565b9050600061052c84828501610672565b600083015250602061054084828501610672565b602083015250604061055484828501610672565b604083015250606061056884828501610672565b60608301525092915050565b600060c0828403121561058657600080fd5b61059060c061084c565b905060006105a084828501610390565b60008301525060206105b484828501610390565b60208301525060406105c8848285016103b8565b60408301525060606105dc848285016103b8565b60608301525060806105f084828501610672565b60808301525060a061060484828501610672565b60a08301525092915050565b60006101a0828403121561062357600080fd5b61062d606061084c565b9050600061063d84828501610574565b60008301525060c0610651848285016103cc565b6020830152506101206106668482850161048c565b60408301525092915050565b600061067e8235610916565b905092915050565b60006060828403121561069857600080fd5b60006106a68482850161042c565b91505092915050565b60006101a082840312156106c257600080fd5b60006106d084828501610610565b91505092915050565b600080600060c084860312156106ee57600080fd5b60006106fc86828701610672565b935050602061070d86828701610672565b925050604061071e86828701610500565b9150509250925092565b61073181610879565b82525050565b6107408161088b565b82525050565b61074f8161088b565b82525050565b60608201600082015161076b6000850182610737565b50602082015161077e6020850182610797565b5060408201516107916040850182610728565b50505050565b6107a0816108b7565b82525050565b6107af816108b7565b82525050565b6107be816108c1565b82525050565b60006020820190506107d96000830184610746565b92915050565b60006040820190506107f46000830185610746565b61080160208301846107b5565b9392505050565b600060608201905061081d6000830184610755565b92915050565b600060408201905061083860008301856107a6565b61084560208301846107a6565b9392505050565b6000604051905081810181811067ffffffffffffffff8211171561086f57600080fd5b8060405250919050565b600061088482610897565b9050919050565b60008115159050919050565b600073ffffffffffffffffffffffffffffffffffffffff82169050919050565b6000819050919050565b600060ff82169050919050565b60006108d9826108f6565b9050919050565b60008115159050919050565b6000819050919050565b600073ffffffffffffffffffffffffffffffffffffffff82169050919050565b600081905091905056fea265627a7a72305820290befa97552b3e6eb5f1c057751056e09ea8c252eaea863657b680e787606ac6c6578706572696d656e74616cf50037",
  "source": "pragma solidity ^0.5.0;\npragma experimental ABIEncoderV2;\n\nimport './VoteTypeLib.sol';\nimport './VoteResourceTypeLib.sol';\nimport './VoteParametersLib.sol';\nimport './VoteStateLib.sol';\n\ncontract VotingFunctions {\n    using VoteTypeLib for VoteTypeLib.UserVote;\n    using VoteResourceTypeLib for VoteResourceTypeLib.VoteResource;\n\n    function setWeight(VoteTypeLib.UserVote memory vote)\n        public\n        pure\n        returns(VoteTypeLib.UserVote memory newVote)\n    {\n        vote.voteWeight = 1;\n        return vote;\n    }\n\n    function inLivePeriod(VoteStateLib.VoteState memory vote) public pure returns(bool isLive) {\n        uint256 votes = vote.resource.scoreyes + vote.resource.scoreno;\n        return vote.parameters.golive <= votes && votes < vote.parameters.godead;\n    }\n\n    function isInOutcomeArea(uint256 outcomeVotes, uint256 againstOutcomeVotes, VoteParametersLib.VoteParameters memory params) public pure returns(bool outcomeChanged) {\n        return params.importance * againstOutcomeVotes <= outcomeVotes;\n        // return (\n        //     params.importance * againstOutcomeVotes <= outcomeVotes &&\n        //     outcomeVotes < params.cutoff * againstOutcomeVotes\n        // );\n    }\n\n    function isInNonOutcomeArea(uint256 outcomeVotes, uint256 againstOutcomeVotes, VoteParametersLib.VoteParameters memory params) public pure returns(bool outcomeChanged) {\n        return outcomeVotes < params.importance * againstOutcomeVotes;\n    }\n\n    function getInitialScore(VoteStateLib.VoteState memory vote)\n        public\n        pure\n        returns(uint256 scoreyes, uint256 scoreno)\n    {\n        scoreyes = vote.resource.scoreyes;\n        scoreno = vote.resource.scoreno;\n        if (vote.vote.vote == true) {\n            scoreyes -= vote.vote.voteWeight;\n        } else {\n            scoreno -= vote.vote.voteWeight;\n        }\n    }\n\n    function voteTriggeredAction(VoteStateLib.VoteState memory vote)\n        public\n        pure\n        returns(bool triggerAction, uint8 actionType)\n    {\n        if (!inLivePeriod(vote)) {\n            return (false, 0);\n        }\n        (uint256 oldScoreYes, uint256 oldScoreNo) = getInitialScore(vote);\n\n        bool isOldInNoArea = isInNonOutcomeArea(oldScoreYes, oldScoreNo, vote.parameters);\n        bool isNewInYesActionArea = isInOutcomeArea(\n            vote.resource.scoreyes,\n            vote.resource.scoreno,\n            vote.parameters\n        );\n\n        if (isOldInNoArea && isNewInYesActionArea) {\n            return (true, 1);\n        }\n\n        bool isOldInYesArea = isInNonOutcomeArea(oldScoreNo, oldScoreYes, vote.parameters);\n        bool isNewInNoActionArea = isInOutcomeArea(\n            vote.resource.scoreno,\n            vote.resource.scoreyes,\n            vote.parameters\n        );\n        if (isOldInYesArea && isNewInNoActionArea) {\n            return (true, 0);\n        }\n\n        return (false, 0);\n    }\n}\n",
  "sourcePath": "/Users/loredana/ETH/dType/contracts/contracts/examples/voting/VotingFunctions.sol",
  "compiler": {
    "name": "solc",
    "version": "0.5.7+commit.6da8b019.Emscripten.clang"
  },
  "schemaVersion": "3.0.11",
  "updatedAt": "2019-07-27T20:46:26.934Z",
  "devdoc": {
    "methods": {}
  },
  "userdoc": {
    "methods": {}
  }
}