{
  "contractName": "VotingMechanismTypeLib",
  "abi": [
    {
      "constant": true,
      "inputs": [
        {
          "components": [
            {
              "name": "processVoteFunctions",
              "type": "bytes32[]"
            },
            {
              "name": "processStateFunctions",
              "type": "bytes32[]"
            },
            {
              "components": [
                {
                  "name": "importance",
                  "type": "uint256"
                },
                {
                  "name": "cutoff",
                  "type": "uint256"
                },
                {
                  "name": "golive",
                  "type": "uint256"
                },
                {
                  "name": "godead",
                  "type": "uint256"
                }
              ],
              "name": "parameters",
              "type": "tuple"
            }
          ],
          "name": "data",
          "type": "tuple"
        }
      ],
      "name": "getDataHash",
      "outputs": [
        {
          "name": "hash",
          "type": "bytes32"
        }
      ],
      "payable": false,
      "stateMutability": "pure",
      "type": "function"
    },
    {
      "constant": true,
      "inputs": [
        {
          "name": "data",
          "type": "bytes"
        }
      ],
      "name": "structureBytes",
      "outputs": [
        {
          "components": [
            {
              "name": "processVoteFunctions",
              "type": "bytes32[]"
            },
            {
              "name": "processStateFunctions",
              "type": "bytes32[]"
            },
            {
              "components": [
                {
                  "name": "importance",
                  "type": "uint256"
                },
                {
                  "name": "cutoff",
                  "type": "uint256"
                },
                {
                  "name": "golive",
                  "type": "uint256"
                },
                {
                  "name": "godead",
                  "type": "uint256"
                }
              ],
              "name": "parameters",
              "type": "tuple"
            }
          ],
          "name": "dataStruct",
          "type": "tuple"
        }
      ],
      "payable": false,
      "stateMutability": "pure",
      "type": "function"
    },
    {
      "constant": true,
      "inputs": [
        {
          "components": [
            {
              "name": "processVoteFunctions",
              "type": "bytes32[]"
            },
            {
              "name": "processStateFunctions",
              "type": "bytes32[]"
            },
            {
              "components": [
                {
                  "name": "importance",
                  "type": "uint256"
                },
                {
                  "name": "cutoff",
                  "type": "uint256"
                },
                {
                  "name": "golive",
                  "type": "uint256"
                },
                {
                  "name": "godead",
                  "type": "uint256"
                }
              ],
              "name": "parameters",
              "type": "tuple"
            }
          ],
          "name": "dataStruct",
          "type": "tuple"
        }
      ],
      "name": "destructureBytes",
      "outputs": [
        {
          "name": "data",
          "type": "bytes"
        }
      ],
      "payable": false,
      "stateMutability": "pure",
      "type": "function"
    },
    {
      "constant": true,
      "inputs": [
        {
          "name": "callbackAddr",
          "type": "address"
        },
        {
          "name": "callbackSig",
          "type": "bytes4"
        },
        {
          "components": [
            {
              "name": "processVoteFunctions",
              "type": "bytes32[]"
            },
            {
              "name": "processStateFunctions",
              "type": "bytes32[]"
            },
            {
              "components": [
                {
                  "name": "importance",
                  "type": "uint256"
                },
                {
                  "name": "cutoff",
                  "type": "uint256"
                },
                {
                  "name": "golive",
                  "type": "uint256"
                },
                {
                  "name": "godead",
                  "type": "uint256"
                }
              ],
              "name": "parameters",
              "type": "tuple"
            }
          ],
          "name": "dataArr",
          "type": "tuple[]"
        }
      ],
      "name": "map",
      "outputs": [
        {
          "components": [
            {
              "name": "processVoteFunctions",
              "type": "bytes32[]"
            },
            {
              "name": "processStateFunctions",
              "type": "bytes32[]"
            },
            {
              "components": [
                {
                  "name": "importance",
                  "type": "uint256"
                },
                {
                  "name": "cutoff",
                  "type": "uint256"
                },
                {
                  "name": "golive",
                  "type": "uint256"
                },
                {
                  "name": "godead",
                  "type": "uint256"
                }
              ],
              "name": "parameters",
              "type": "tuple"
            }
          ],
          "name": "result",
          "type": "tuple[]"
        }
      ],
      "payable": false,
      "stateMutability": "view",
      "type": "function"
    }
  ],
  "bytecode": "0x6111a3610026600b82828239805160001a60731461001957fe5b30600052607381538281f3fe73000000000000000000000000000000000000000030146080604052600436106100565760003560e01c806312548f451461005b57806339babd611461008b578063b3718ad0146100bb578063f54b0dbf146100eb575b600080fd5b610075600480360361007091908101906108a8565b61011b565b6040516100829190610e4d565b60405180910390f35b6100a560048036036100a09190810190610991565b6102d8565b6040516100b29190610e6f565b60405180910390f35b6100d560048036036100d0919081019061090f565b610308565b6040516100e29190610f10565b60405180910390f35b61010560048036036101009190810190610991565b61032b565b6040516101129190610e8a565b60405180910390f35b60606000825190508060405190808252806020026020018201604052801561015d57816020015b61014a610354565b8152602001906001900390816101425790505b50915060008090505b818110156102cc57600060608773ffffffffffffffffffffffffffffffffffffffff168787858151811061019657fe5b60200260200101516040516024016101ae9190610ecc565b604051602081830303815290604052907bffffffffffffffffffffffffffffffffffffffffffffffffffffffff19166020820180517bffffffffffffffffffffffffffffffffffffffffffffffffffffffff83818316178352505050506040516102189190610e36565b600060405180830381855afa9150503d8060008114610253576040519150601f19603f3d011682016040523d82523d6000602084013e610258565b606091505b50915091508161029d576040517f08c379a000000000000000000000000000000000000000000000000000000000815260040161029490610eac565b60405180910390fd5b6102a681610308565b8584815181106102b257fe5b602002602001018190525050508080600101915050610166565b50819150509392505050565b6000816040516020016102eb9190610eee565b604051602081830303815290604052805190602001209050919050565b61031061037b565b818060200190516103249190810190610950565b9050919050565b60608160405160200161033e9190610eee565b6040516020818303038152906040529050919050565b6040518060c0016040528060608152602001606081526020016103756103a2565b81525090565b6040518060c00160405280606081526020016060815260200161039c6103a2565b81525090565b6040518060800160405280600081526020016000815260200160008152602001600081525090565b60006103d682356110a4565b905092915050565b600082601f8301126103ef57600080fd5b81356104026103fd82610f5f565b610f32565b9150818183526020840193506020810190508385602084028201111561042757600080fd5b60005b83811015610457578161043d8882610558565b84526020840193506020830192505060018101905061042a565b5050505092915050565b600082601f83011261047257600080fd5b815161048561048082610f5f565b610f32565b915081818352602084019350602081019050838560208402820111156104aa57600080fd5b60005b838110156104da57816104c0888261056c565b8452602084019350602083019250506001810190506104ad565b5050505092915050565b600082601f8301126104f557600080fd5b813561050861050382610f87565b610f32565b9150818183526020840193506020810190508360005b8381101561054e578135860161053488826106d0565b84526020840193506020830192505060018101905061051e565b5050505092915050565b600061056482356110b6565b905092915050565b600061057882516110b6565b905092915050565b600061058c82356110c0565b905092915050565b600082601f8301126105a557600080fd5b81356105b86105b382610faf565b610f32565b915080825260208301602083018583830111156105d457600080fd5b6105df838284611116565b50505092915050565b6000608082840312156105fa57600080fd5b6106046080610f32565b9050600061061484828501610880565b600083015250602061062884828501610880565b602083015250604061063c84828501610880565b604083015250606061065084828501610880565b60608301525092915050565b60006080828403121561066e57600080fd5b6106786080610f32565b9050600061068884828501610894565b600083015250602061069c84828501610894565b60208301525060406106b084828501610894565b60408301525060606106c484828501610894565b60608301525092915050565b600060c082840312156106e257600080fd5b6106ec6060610f32565b9050600082013567ffffffffffffffff81111561070857600080fd5b610714848285016103de565b600083015250602082013567ffffffffffffffff81111561073457600080fd5b610740848285016103de565b6020830152506040610754848285016105e8565b60408301525092915050565b600060c0828403121561077257600080fd5b61077c6060610f32565b9050600082015167ffffffffffffffff81111561079857600080fd5b6107a484828501610461565b600083015250602082015167ffffffffffffffff8111156107c457600080fd5b6107d084828501610461565b60208301525060406107e48482850161065c565b60408301525092915050565b600060c0828403121561080257600080fd5b61080c6060610f32565b9050600082013567ffffffffffffffff81111561082857600080fd5b610834848285016103de565b600083015250602082013567ffffffffffffffff81111561085457600080fd5b610860848285016103de565b6020830152506040610874848285016105e8565b60408301525092915050565b600061088c823561110c565b905092915050565b60006108a0825161110c565b905092915050565b6000806000606084860312156108bd57600080fd5b60006108cb868287016103ca565b93505060206108dc86828701610580565b925050604084013567ffffffffffffffff8111156108f957600080fd5b610905868287016104e4565b9150509250925092565b60006020828403121561092157600080fd5b600082013567ffffffffffffffff81111561093b57600080fd5b61094784828501610594565b91505092915050565b60006020828403121561096257600080fd5b600082015167ffffffffffffffff81111561097c57600080fd5b61098884828501610760565b91505092915050565b6000602082840312156109a357600080fd5b600082013567ffffffffffffffff8111156109bd57600080fd5b6109c9848285016107f0565b91505092915050565b60006109de8383610b3b565b60208301905092915050565b60006109f68383610b59565b60208301905092915050565b6000610a0e8383610dc1565b905092915050565b6000610a2182610ff5565b610a2b8185611030565b9350610a3683610fdb565b60005b82811015610a6457610a4c8683516109d2565b9550610a5782611016565b9150600181019050610a39565b50849250505092915050565b6000610a7b82610ff5565b610a858185611041565b9350610a9083610fdb565b60005b82811015610abe57610aa68683516109ea565b9550610ab182611016565b9150600181019050610a93565b50849250505092915050565b6000610ad582611000565b610adf8185611052565b935083602082028501610af185610fe8565b60005b84811015610b2a578383038852610b0c838351610a02565b9250610b1782611023565b9150602088019750600181019050610af4565b508196508694505050505092915050565b610b4481611090565b82525050565b610b5381611090565b82525050565b610b6281611090565b82525050565b6000610b738261100b565b610b7d8185611063565b9350610b8d818560208601611125565b610b9681611158565b840191505092915050565b6000610bac8261100b565b610bb68185611074565b9350610bc6818560208601611125565b80840191505092915050565b6000610bdf60138361107f565b91507f4d61702063616c6c6261636b206661696c6564000000000000000000000000006000830152602082019050919050565b608082016000820151610c286000850182610e18565b506020820151610c3b6020850182610e18565b506040820151610c4e6040850182610e18565b506060820151610c616060850182610e18565b50505050565b608082016000820151610c7d6000850182610e27565b506020820151610c906020850182610e27565b506040820151610ca36040850182610e27565b506060820151610cb66060850182610e27565b50505050565b600060c0830160008301518482036000860152610cd98282610a16565b91505060208301518482036020860152610cf38282610a16565b9150506040830151610d086040860182610c12565b508091505092915050565b600060c0830160008301518482036000860152610d308282610a70565b91505060208301518482036020860152610d4a8282610a70565b9150506040830151610d5f6040860182610c67565b508091505092915050565b600060c0830160008301518482036000860152610d878282610a16565b91505060208301518482036020860152610da18282610a16565b9150506040830151610db66040860182610c12565b508091505092915050565b600060c0830160008301518482036000860152610dde8282610a70565b91505060208301518482036020860152610df88282610a70565b9150506040830151610e0d6040860182610c67565b508091505092915050565b610e218161109a565b82525050565b610e308161109a565b82525050565b6000610e428284610ba1565b915081905092915050565b60006020820190508181036000830152610e678184610aca565b905092915050565b6000602082019050610e846000830184610b4a565b92915050565b60006020820190508181036000830152610ea48184610b68565b905092915050565b60006020820190508181036000830152610ec581610bd2565b9050919050565b60006020820190508181036000830152610ee68184610d6a565b905092915050565b60006020820190508181036000830152610f088184610cbc565b905092915050565b60006020820190508181036000830152610f2a8184610d13565b905092915050565b6000604051905081810181811067ffffffffffffffff82111715610f5557600080fd5b8060405250919050565b600067ffffffffffffffff821115610f7657600080fd5b602082029050602081019050919050565b600067ffffffffffffffff821115610f9e57600080fd5b602082029050602081019050919050565b600067ffffffffffffffff821115610fc657600080fd5b601f19601f8301169050602081019050919050565b6000602082019050919050565b6000602082019050919050565b600081519050919050565b600081519050919050565b600081519050919050565b6000602082019050919050565b6000602082019050919050565b600082825260208201905092915050565b600082825260208201905092915050565b600082825260208201905092915050565b600082825260208201905092915050565b600081905092915050565b600082825260208201905092915050565b6000819050919050565b6000819050919050565b60006110af826110ec565b9050919050565b6000819050919050565b60007fffffffff0000000000000000000000000000000000000000000000000000000082169050919050565b600073ffffffffffffffffffffffffffffffffffffffff82169050919050565b6000819050919050565b82818337600083830152505050565b60005b83811015611143578082015181840152602081019050611128565b83811115611152576000848401525b50505050565b6000601f19601f830116905091905056fea265627a7a72305820a9c9685dd3c5a32bf9c8c77943aad409a85ae01392492f5ab50c09d7a3ed34056c6578706572696d656e74616cf50037",
  "source": "pragma solidity ^0.5.0;\npragma experimental ABIEncoderV2;\n\nimport './VoteParametersLib.sol';\n\nlibrary VotingMechanismTypeLib {\n\n    struct VotingMechanism {\n        bytes32[] processVoteFunctions;\n        bytes32[] processStateFunctions;\n        VoteParametersLib.VoteParameters parameters;\n    }\n\n    function insert(VotingMechanism storage self, VotingMechanism memory data) internal {\n        self.processVoteFunctions = data.processVoteFunctions;\n        self.processStateFunctions = data.processStateFunctions;\n        self.parameters = data.parameters;\n    }\n\n    function getDataHash(VotingMechanism memory data) pure public returns(bytes32 hash) {\n        return keccak256(abi.encode(data));\n    }\n\n    function structureBytes(bytes memory data)\n        pure\n        public\n        returns(VotingMechanism memory dataStruct)\n    {\n        (dataStruct) = abi.decode(data, (VotingMechanism));\n    }\n\n    function destructureBytes(VotingMechanism memory dataStruct)\n        pure\n        public\n        returns(bytes memory data)\n    {\n        return abi.encode(dataStruct);\n    }\n\n    function map(\n        address callbackAddr,\n        bytes4 callbackSig,\n        VotingMechanism[] memory dataArr\n    )\n        view\n        public\n        returns (VotingMechanism[] memory result)\n    {\n        uint length = dataArr.length;\n        result = new VotingMechanism[](length);\n\n        for (uint i = 0; i < length; i++) {\n            (bool success, bytes memory data) = callbackAddr.staticcall(abi.encodeWithSelector(callbackSig, dataArr[i]));\n\n            require(success, \"Map callback failed\");\n            result[i] = structureBytes(data);\n        }\n\n        return result;\n    }\n}\n",
  "sourcePath": "/Users/loredana/ETH/dType/contracts/contracts/examples/voting/VotingMechanismTypeLib.sol",
  "compiler": {
    "name": "solc",
    "version": "0.5.7+commit.6da8b019.Emscripten.clang"
  },
  "schemaVersion": "3.0.11",
  "updatedAt": "2019-07-27T20:46:26.938Z",
  "devdoc": {
    "methods": {}
  },
  "userdoc": {
    "methods": {}
  }
}